:1000000000000420E102000009030000DD4F0000B1
:100010000D0300000F0300001103000000000000AA
:1000200000000000000000000000000013030000BA
:100030001503000000000000170300001903000072
:1000400015C600001B03000025C600001B030000AE
:100050001B0300001B030000D1BE00001B030000B7
:100060001B0300001B0300001B0300001B03000018
:100070001B0300001B0300001B0300001B03000008
:100080001B030000811D00001B0300001B03000078
:10009000211E00001B0300001B0300001B030000C7
:1000A0001B0300001B0300001B0300001B030000D8
:1000B0001B0300001B030000000000000000000004
:1000C0001B0300001B0300001B0300001B030000B8
:1000D0001B0300001B0300001B0300005DAC0000BD
:1000E0001B0300001B0300001B03000000000000B6
:1000F000000000001B030000000000001B030000C4
:1001000000000000000000000000000000000000EF
:1001100000000000000000000000000000000000DF
:1001200000000000000000000000000000000000CF
:1001300000000000000000000000000000000000BF
:1001400000000000000000000000000000000000AF
:10015000000000000000000000000000000000009F
:10016000000000000000000000000000000000008F
:10017000000000000000000000000000000000007F
:10018000000000000000000000000000000000006F
:10019000000000000000000000000000000000005F
:1001A000000000000000000000000000000000004F
:1001B000000000000000000000000000000000003F
:1001C000000000000000000000000000000000002F
:1001D000000000000000000000000000000000001F
:1001E000000000000000000000000000000000000F
:1001F00000000000000000000000000000000000FF
:1002000010B5054C237833B9044B13B10448AFF350
:1002100000800123237010BDF802002000000000C0
:10022000A41401000C4B43B10C480D4910B5AFF3B9
:1002300000800C48036823B910BD0A48036833B92D
:100240007047094B002BF7D0BDE810401847064B0C
:10025000002BF5D0184700BF00000000A4140100D7
:10026000FC0200204402002000000000154B002B7F
:1002700008BF134B9D46A3F5803A00218B460F46DD
:100280001348144A121A0DF0F0FD0F4B002B00D04A
:1002900098470E4B002B00D0984700200021040007
:1002A0000D000D48002802D00C48AFF300800DF07F
:1002B0006FFD200029000DF0C9FB0DF055FD00BFBA
:1002C0000000080000000420000000000000000002
:1002D000F8020020181500200000000000000000B7
:1002E0000649074A074B9B1A03DD043BC858D05008
:1002F000FBDC0DF057FCFFF7B9FF0000F41501001F
:1003000000000020F8020020FEE7FEE7FEE7FEE71F
:10031000FEE7FEE7FEE7FEE7FEE7FEE7F0B595B095
:10032000002415460F4608461E4608F06DFD384667
:1003300023460822089505A91A9D09960D950A9449
:100340008DF82C400C9408F0BBFD9DF814300798F4
:1003500006998DF8114003F00302012A02900391DF
:1003600028D0022A04D0384608F052FD15B0F0BD5E
:10037000BDF81650C3F3C2038DF81030C5F38915CC
:100380000826082D2C4628BF0824334622460EA9ED
:10039000384608F095FD2D1B214608AB02AA0EA891
:1003A000264401F0F5F9002DEBD1384608F030FD78
:1003B00015B0F0BDBDF81460059DC6F38316C3F3F8
:1003C000C204B2000EA9384608238DF81040C5F3C8
:1003D000952508F075FD08AB0093324628460EA916
:1003E00002AB01F02FF9BEE7704700BF00B583B044
:1003F000044B0093044A4023FFF790FF03B05DF8DD
:1004000004FB00BF0D0400001803002038B50E489F
:100410000E4D03780E4CEB5C00252570D2B253B91B
:100420000C300CF083FB58B90A4B1B7813B12378BE
:10043000002BFCD038BD04300CF0CAFE0028F3D0ED
:1004400001F044FCF0E700BF00000020341400205D
:10045000580300201403002070B51348134A037892
:10046000D35C88B0DBB90C300CF0E2FA104D0FCD44
:100470006C460FC495E80F0008AD142645F8206DB2
:1004800084E80F0029460022074809F0DBF808B18C
:1004900001F01CFC074B00221A7008B070BD04303C
:1004A0000CF016FEE2E700BF00000020341400202C
:1004B00094F7000014030020064B8B6004284FF0D3
:1004C0000003CB604B609CBF034B53F820300B60A4
:1004D000704700BFCCF90000F0F90000C368DB688A
:1004E00000225A71704700BFC368DB6801225A714D
:1004F000704700BF30B40E4B0E4D0F4C8C60ED1AA0
:1005000000222D09CA604A600A600BD003EB051572
:10051000DC682479FF2C02D0904205D001321033E0
:10052000AB42F5D130BC70479B680B6030BC704764
:10053000381501005815010004FA0000012903468E
:1005400004D08168D1F83C11890704D500221846EF
:10055000114607F0C5BD00B583B013685168054A60
:10056000019100920221044A06F024F903B05DF8DB
:1005700004FB00BFF8F70000ECF700008368D3F835
:100580003C319B0733D42DE9F0471B4C1B4E361BE7
:10059000360982B028D00746DFF868A0DFF86890F7
:1005A000DFF8688004EB06160DE05D79A368CDF8EE
:1005B00004E0002D14BF55464D460095103406F05A
:1005C000F9F8A64210D0E36893F804E0BEF1FF0FFB
:1005D00042464FF008013846E7D1A368084A103474
:1005E00006F0E8F8A642EED102B0BDE8F08700229E
:1005F000114607F075BD00BF381501005815010000
:1006000024F8000010F8000018F8000044F800007A
:100610008368D3F83C319B0703D4044A022106F0D7
:10062000C9B80022114607F05BBD00BF68F80000A2
:100630008368D3F83C319B0703D4044A022106F0B7
:10064000B9B80022114607F04BBD00BF68F80000A2
:10065000F0B5334D85B005F5836004F0A1FE05F2D9
:10066000144004F09DFE6B68AE6803EA0600C11CEE
:1006700005EB810215F8214014F004040ED0117826
:1006800001F0030101293BD0022903F1020700F127
:10069000030126D005EB8102002CF0D105EB800090
:1006A0005A1CC1680191324005EB820201F003013E
:1006B000D2680292012903F1020429D0022925D12E
:1006C000BDF80630BDF80A60C3F38913033304EBA9
:1006D0009304144804F072FE00B16C60304605B01B
:1006E000F0BD538807EB931306EA0300C11C05EB2A
:1006F000810215F8214004F00404002CBFD1CDE79D
:1007000011880233C1F383110B44EDE70026E0E7C3
:10071000BDF80430BDF80A60C3F383131C44D8E766
:100720002C040020400800202DE9F041104C114D10
:1007300052F8046C2D1B2D09074610D004EB05154B
:1007400002E01034AC420AD0A16830460DF08AFDB8
:100750000028F6D1E36801225A71BDE8F0813346E2
:100760003846054A0221BDE8F04106F023B800BF33
:100770003815010058150100D4F700002DE9F041AB
:100780000F4C104D52F8046C2D1B2D0907460FD04D
:1007900004EB051502E01034AC4209D0A1683046E4
:1007A0000DF060FD0028F6D1E3685871BDE8F081D6
:1007B00033463846044A0221BDE8F04105F0FABF4D
:1007C0003815010058150100D4F7000070B4114C21
:1007D000114E124A8A60A41B0023E408CB604B60D0
:1007E0000CD00F4D2A88904204D110E035F8232018
:1007F000904206D001339C42F8D100240C6070BCBA
:10080000704706EBC3031C680C6070BC704733462E
:10081000F9E700BF38150100A8140100CCF9000069
:10082000480200202DE9F04FCB68384EDFF80891E0
:100830005B79A6EB090685B08A46F6088046002B50
:100840005FD0334A334B0821404605F0B3FF324AAC
:100850000821404605F0AEFF8EB3304DB7000024AE
:100860000023EA5AA24230D004339F42F9D12C49E6
:10087000002335F82320A24237D001339E42F8D11D
:100880000020DFF89CC08646002335F82320A242D2
:1008900018D001339E42F8D10023224ADFF89CB0E1
:1008A0000091864588BF5A460292CDF804C00134B3
:1008B0001D4A0821404605F07DFFB442D0D105B065
:1008C000BDE8F08F59F83330E7E7DAF80C20174924
:1008D0001279595802EB4202072393400B40D34050
:1008E000DBB2134A52F82310C2E709EBC30393F8B3
:1008F00006E00F4B7046032828BF032053F820C0A2
:10090000C2E70C4A022105F055FF9AE738150100AD
:1009100040F9000034F9000060F9000048020020AE
:1009200014F9000064F80000A0F900009002002013
:10093000DCF9000020F90000A81401001CF90000F7
:1009400013460A46C168FFF76DBF00BF2DE9F047A7
:10095000124C134D52F8046C2D1B2D09804615D0F6
:100960001746894604EB051502E01034A5420DD068
:10097000A16830460DF076FC0028F6D13B464A4689
:1009800021464046BDE8F047FFF74CBF334640469E
:10099000044A0221BDE8F04705F00CBF38150100FC
:1009A00058150100D4F7000002B970472DE9F04F47
:1009B0009846CB687F491C7985B015461646834614
:1009C0000722D8F800000DF067FC002840F0D8801E
:1009D000012D00F0E380784D81460A2255F8041B72
:1009E000D8F804000DF058FC70B109F10109B9F113
:1009F000050FF2D1D8F80430704A5846022105B0EC
:100A0000BDE8F04F05F0D6BE5FFA89F3022E0093E1
:100A10002BD16B4D6B4B5B1BDB0823D004EB4404E9
:100A200007224FEA830802FA04F30193009B664F02
:100A3000DFF898A1A34002932E460024A946B3797B
:100A4000009DAB4252464FF00201584654D259F82D
:100A50001430043405F0AEFEA04506F1080607F197
:100A60000407ECD105B0BDE8F08FFBD94FF0020AC6
:100A700004EB44040723A340514D524F0293009BC3
:100A8000CDF804B07F1BA34008EB8A08FF0803934E
:100A9000B146D8F8006047B3AB46002404E0013407
:100AA000A7420BF1080B1ED02022314655F8340026
:100AB0000DF0F2FB0028F2D1A74214D09BF80620DB
:100AC000009B9A423BD2DBF80030404A0198022159
:100AD00005F070FE0AF1010AD14508F10408D8D1E9
:100AE00005B0BDE8F08FD8F80060394A0198334668
:100AF000022105F05FFEEDE73A68029B0199354857
:100B000053400B405340C3F3C202C3F382118A42E5
:100B100038BF0A4603F007018A4238BF0A46C3F3CA
:100B2000422120188A4204F1040438BF0A46444591
:100B300006F1080647F8043B428080D192E7224B39
:100B4000029853F82420039B22491F4E5340034030
:100B50005340C3F3C202C3F38210824238BF02463D
:100B600003F00700824238BF0246C3F3422001EB84
:100B70008401824238BF024646F824304A80A9E701
:100B800008221549D8F800000DF086FB70B9012D38
:100B900000903FF43EAF4FF0010A69E70F4A584614
:100BA000022105B0BDE8F04F05F004BED8F80030D2
:100BB0000B4A22E77CF80000DCF90000D0F80000C6
:100BC000A81401003815010090020020F0F8000080
:100BD000BCF80000480200209CF8000084F80000E7
:100BE000A4F8000013460A46C168FFF7DDBE00BF47
:100BF0002DE9F047124C134D52F8046C2D1B2D09B2
:100C0000804615D01746894604EB051502E01034DE
:100C1000A5420DD0A16830460DF024FB0028F6D186
:100C20003B464A4621464046BDE8F047FFF7BCBE7A
:100C300033464046044A0221BDE8F04705F0BABDFC
:100C40003815010058150100D4F700002DE9F84FC0
:100C5000234B24480022FF21C3F8182499601A600E
:100C60005A60C3F8142483F8202408F069F88346F6
:100C700010B15846BDE8F88FDFF87C801A4F1B484A
:100C8000A7EB080708F096FAFF08F2D0DFF860A09B
:100C90005E4600252C4608EBC609A6424FF014021A
:100CA00008D058F83410D9F800000DF0F5FA0028F3
:100CB000C8BF01350134A742EFD12AF826500136CA
:100CC000B742E6D10A4B0B490AEB870700225A804C
:100CD00004339F4241F8042BF9D15846BDE8F88F00
:100CE0002C040020B415010038150100C0F90000E3
:100CF0004802002090020020A814010021B9114BE5
:100D000003EBC0000068704730B40F4A0D4C121B53
:100D1000D2080CD00D4D2B88834210D0002303E065
:100D200035F82310814205D001339A42F8D10020D2
:100D300030BC704704EBC300006830BC70472046ED
:100D4000FAE700BFA814010038150100480200208E
:100D5000094B013903EBC00003290BD8DFE801F090
:100D600002080604022070474079704700797047F6
:100D70000420704700207047A81401002DE9F04FAF
:100D8000A44C94E80C009A4285B000F0DA8000236D
:100D9000C4F81834BFF34F8F6368A56803EA0501F0
:100DA000CA1C04EB820614F8222050071AD52768C3
:100DB000327802F00302012A49D0022A03F102022A
:100DC00002D1738802EB931305EA0301D4F81804E7
:100DD000CA1C04EB820628B99F423ED914F822208F
:100DE0005207E5D404EB81015A1C2A40CE680196D3
:100DF00004EB8202F6B2D268029206F00302022AE3
:100E000003F102092DD0012A00F09F80D4F810547C
:100E10003DB12B6828469B689847EB681D68002DFC
:100E2000F7D17D4B5B88012B09D97C487C4B7D49F0
:100E3000C01AC008000440F0020000F0FBF860682F
:100E40002368C01A18BF012005B0BDE8F08F3288B2
:100E50000233C2F383121344B6E7676005B0BDE8FE
:100E6000F08FBDF806307048C3F3891ABAF1500FFD
:100E7000D046A8BF4FF0500868F38F1308F108015F
:100E8000ADF8063007F05EFFC6F3C206074600283D
:100E9000BCD025EA090B0BF1010B07F0B5FF4FEAB7
:100EA0008B0B0023082201A9384607F0D3FFD84551
:100EB00040F28A80BBF1000F40F095804246082343
:100EC0005A49384607F0C6FF0AF1030809EB9808AB
:100ED000D4F81834002B40F08280D4F810540DB3AD
:100EE000DFF84CA14FF00709EB685A79BAB11A79CB
:100EF000BDF8080002EB42015AF8200009FA01F29D
:100F0000052E02EA000222FA01F208BF03269642E9
:100F10003946284603D82B681B689847EB681D683C
:100F2000002DE1D1384607F073FF002004F044F8AB
:100F3000D4F818340BB9C4F80480002004F044F845
:100F40007DE7002005B0BDE8F08FBDF804603648AD
:100F5000C6F38313062B28BF0623991C63F3891657
:100F60008900ADF8046007F0EDFEC6F3C20607463F
:100F700000283FF44BAF07F047FF0023082201A9E8
:100F8000384607F067FFBDF8043013F4707F3FD098
:100F90004FF0000B4FF0080A05EA090103315346F0
:100FA00004EB81010422384607F054FFBDF80430F9
:100FB0000BF1010BC3F3831309F101085B450AF13F
:100FC000040AC146E8D883E705EA0901033104EBC6
:100FD000810142460823384607F03CFF74E7384653
:100FE00007F016FF2BE705EA09010331A8EB0B0513
:100FF00004EB81015A463846EDB2082307F02AFF78
:101000002A460BF108030949384607F023FF5BE73E
:10101000C8465DE72C04002060020020D8140100BF
:10102000A81401004CFB0000B41501003804002096
:10103000900200202DE9F843DFF8D8900746002001
:101040008846D9F8085003F0B7FFD9F80820D9F836
:101050000430D9F80060134401339B1B012B55D891
:1010600009F21C440121204604F060F9FFF7F0FA70
:101070000146204604F05AF999E80A00D9F80820F8
:10108000134401335B1A012BECD901240A400332CB
:1010900044F004036FF3891349F822300231002031
:1010A000C9F8001003F090FF0021194804F016F968
:1010B00080F3100033192B4009EB83030004354003
:1010C000033540EA1740D86019F8253067F3C503A7
:1010D00009F8253039F825306FF3891329F82530C0
:1010E00059F8252068F39F22134664F301036FF338
:1010F000820349F8252009F8253099F820341BB1DE
:10110000FFF73CFE0028FBD1BDE8F8833146BCE781
:10111000480800202C0400202DE9F047354C80467B
:10112000002092468946A56803F046FFA2686368DE
:10113000276813440133DB1B022B59D804F21C46E9
:101140000121304604F0F2F8FFF782FA01463046FA
:1011500004F0ECF894E80A00A268134401335B1A27
:10116000022BEDD901260A40033246F0040366F350
:10117000891344F8223003310020216003F024FF5A
:10118000BB1C2B4004EB830300211B48C3F80CA0BD
:1011900004F0A4F880F31000BB192B4004EB830388
:1011A00000043D40033540EA1840D86014F825306B
:1011B00068F3C50304F8253034F8253066F3891345
:1011C00024F8253054F8252069F39F22134666F34E
:1011D00001036FF3820344F8252004F8253094F8C6
:1011E00020341BB1FFF7CAFD0028FBD1BDE8F08712
:1011F0003946B7E72C040020480800202DE9F04FBD
:101200003C4C83B080460020934601938946A668F3
:1012100003F0D2FEA2686368276813440133DB1B26
:10122000032B64D804F21C450121284604F07EF803
:10123000FFF70EFA0146284604F078F894E80A0011
:10124000A268134401335B1A032BEDD901250A4030
:1012500003324FF0020A45F0040304316AF38913A4
:10126000002044F82230216003F0AEFE07EB0A0EA6
:10127000FA1C0EEA060E324004EB820204EB8E0EDC
:10128000019B1D48CEF80CB00021D36004F026F875
:1012900080F310007A19324004EB820200043E40D1
:1012A000033640EA1840D06014F8262068F3C502DF
:1012B00004F8262034F826206AF3891224F8262020
:1012C00054F8262069F39F22134665F301036FF358
:1012D000820344F8262004F8263094F820341BB109
:1012E000FFF74CFD0028FBD103B0BDE8F08F394675
:1012F000ACE700BF2C040020480800202DE9F04F87
:101300003F4C83B08046002089460193A6689346EF
:1013100003F052FEA168636827680B440133DB1BAE
:10132000042B6BD804F21C450121284603F0FEFF74
:10133000FFF78EF90146284603F0F8FF94E80C0009
:10134000A1680B4401339B1A042BEDD901251140F0
:101350004FF0030A033145F0040305326AF38913A1
:10136000002044F82130226003F02EFEB81C07EB69
:101370000A0E30400EEA060E3A1D324004EB8000A1
:1013800004EB8E0E04EB8202019BC0F80CB000212E
:10139000CEF80C301B480C9BD36003F09FFF80F30A
:1013A00010007A19324004EB820200043E40564499
:1013B00040EA1840D06014F8262068F3C50204F80B
:1013C000262034F826206AF3891224F8262054F8BF
:1013D000262069F39F22134665F301036FF382030E
:1013E00044F8262004F8263094F820341BB1FFF787
:1013F000C5FC0028FBD103B0BDE8F08F3A46A5E755
:101400002C040020480800202DE9F04F87B0474CFD
:10141000109D0393804699460020119B02929246AC
:101420000593A66804958B4603F0C6FDA268636821
:10143000276813440133DB1B052B74D804F21C45C9
:101440000121284603F072FFFFF702F90146284602
:1014500003F06CFF94E80A00A268134401335B1A9E
:10146000052BEDD90A400125D31C45F0040E0422BA
:1014700062F3891E0631002044F823E001922160C6
:1014800003F0A2FDB91C07F1030C07F1040E314073
:101490000CEA060C0EEA060E7B1D334004EB8101BC
:1014A00004EB8C0C04EB8E0E04EB8303109AC1F852
:1014B0000CA01F48CCF80C900021CEF80C20119AFB
:1014C000DA6003F00BFF80F310007B19334004EB6C
:1014D000830300043E40033640EA1840D86014F805
:1014E0002630019A68F3C50304F8263034F8263014
:1014F00062F3891324F8263054F826206BF39F22D8
:10150000134665F301036FF3820344F8262004F8C1
:10151000263094F820341BB1FFF730FC0028FBD1B3
:1015200007B0BDE8F08F39469CE700BF2C040020CF
:10153000480800202DE9F041324DD5F81044064608
:1015400000205CB1E3681A79824204D14DE0DB6887
:101550001A79824249D01B68002BF8D1F3681871C0
:10156000D5F81034002B47D0DA68F36812681A6097
:10157000D5F81034DB681E60234A244B9B1ADB0825
:1015800038D0234D234C02EBC30E4FF0070CF76805
:10159000D37997F804802F688B4208EB480828BF5E
:1015A0000B4603FA08F37B400CFA08F803EA080339
:1015B0007B40C3F3C207C3F38218474538BF474691
:1015C00003F00708474538BF4746C3F3422847455D
:1015D00002F1080238BF47469645678045F8043B4C
:1015E00004F10404D3D1BDE8F08101300A28A8D168
:1015F0004FF0FF30BDE8F081C5F81064F268136069
:10160000BAE700BF2C040020A8140100381501001F
:10161000900200204802002038B5094BD3F810444E
:10162000012583F820544CB1E3685D71236820469E
:101630005B689847E3681C68002CF5D138BD00BF93
:101640002C0400202DE9F04784B01D460C9C00239B
:1016500094F80C802373EB8881460E461746002BC6
:101660003BD1297A05290FD06B7A002B3DD1404B15
:10167000A88853F821A00021FFF740FB52460346FB
:101680003C49204607F03AF8062F0FD8DFE807F06C
:10169000484D535A04633900F168B06896E80C006D
:1016A000019100904946204607F028F82B7A052B37
:1016B00005D06B7A5BB93049204607F01FF8204609
:1016C00007F010F884F80C8004B0BDE8F0872B4ACE
:1016D0002B49204607F012F8EDE7284A00922949E5
:1016E000294A204607F00AF8BBE7A888FFF730FB35
:1016F000264B234953F82020204606F0FFFF297A85
:10170000B5E77069316996E80C000390B068F76836
:1017100002918DE881004946204606F0EFFFC5E7BB
:101720004946204606F0EAFFC0E7326849462046AF
:1017300006F0E4FFBAE7494696E80C00204606F0BA
:10174000DDFFB3E7B16896E80C00204600914946FA
:1017500006F0D4FFAAE7B068F768316996E80C0094
:1017600002918DE881004946204606F0C7FF9DE7BB
:1017700044FE000038FE000040F8000030FE00008B
:10178000500B010018FE000010FE0000DCFD000000
:10179000082900D970472DE9F04F1D4690460023D7
:1017A0002A7B2B7385B0B8F80630039207460E46A5
:1017B000002B6BD198F80810052911D098F8093042
:1017C000002B6BD13C4BB8F8040053F821400021AA
:1017D000FFF794FA224603463849284606F08EFF62
:1017E000DFF8F8B0DFF8F8900024A6424946284612
:1017F0003ED93A5D013406F081FF082CF5D130491D
:10180000DFF8E090DFF8E0B0284606F077FF00242C
:1018100011E017F804A00CF0E3FA5044594643785D
:1018200013F0970F14BF52462E222846013406F0BB
:1018300065FF082C08D0A64249462846E9D801345D
:1018400006F05CFF082CF6D198F80830052B02D082
:1018500098F80930A3B91B49284606F04FFF2846DF
:1018600006F040FF9DF80C302B7305B0BDE8F08FFB
:1018700001345946284606F041FF082CB5D1BEE791
:10188000114A1249284606F039FFE4E70E4A009251
:101890000F49104A284606F031FF8BE7B8F80400DC
:1018A000FFF756FA0C4B094953F82020284606F05A
:1018B00025FF98F8081085E744FE000038FE000078
:1018C0000CFE000040F8000030FE0000500B01004C
:1018D00018FE000010FE0000DCFD000008FE000005
:1018E00000FE000040FE000024110100074B1B5CBD
:1018F0001F2B8ABF064A4FF0A04203F01F03D2F805
:101900000405D840C04300F00100704790FE00007D
:1019100000030050074B1B5C1F2B86BF03F01F0307
:1019200005494FF0A041012202FA03F3C1F80C353A
:10193000704700BF90FE000000030050074B1B5C87
:101940001F2B86BF03F01F0305494FF0A041012262
:1019500002FA03F3C1F80835704700BF90FE00009B
:10196000000300504FF0A0434FF480004FF40001FB
:101970004FF08072C3F80805C3F80815C3F80825AE
:10198000704700BF4FF0A0434FF480004FF40001B8
:101990004FF08072C3F80C05C3F80C15C3F80C2582
:1019A000704700BF0A4B195C1F298ABF09484FF0D6
:1019B000A04001F01F01D0F8043501228A4022EA3C
:1019C00003011340C0F80815C0F80C35704700BF7C
:1019D00090FE000000030050203818BF4FF0FF3089
:1019E000704700BFC10706D4830742BF114B0C22CA
:1019F000C3F8002770474FF0A043032230B44FF0E4
:101A00008071C3F858274FF48005C3F85C274FF462
:101A10000004C3F860278207C3F80855C3F80845D7
:101A2000C3F8081503D5034B0C22C3F8002730BCBC
:101A3000704700BF00030050434B1978002900F0A5
:101A400081802DE9F04F8C4687B00024012503E00A
:101A50000134E4B2644560D23C4B27B21E6816F8EC
:101A600037E0AEF1200305FA03F9394BCEF120013E
:101A7000D3E9002325FA01F149EA010905FA0EF834
:101A800008EA020009EA0301014306EBC70BDFD0B5
:101A90002F4922EA080223EA09037046C1E900231C
:101AA0000AF006FA16F837E0AEF1200205FA02F263
:101AB00001920199CEF12003C6B225FA03F3AEF1EB
:101AC0002002194306FA02F30393224B0191D3E952
:101AD0000023CDE9042305FA0EF30093CEF1200193
:101AE000039B26FA01F10B43039306FA0EF30293CC
:101AF000DDE90467DDE9002316401F4032463B461E
:101B0000DDE90267BB4208BFB24209D00E4B013487
:101B100093F800C0E4B264459ED307B0BDE8F08FEF
:101B2000DBF80430002BF1D09BF80110A1F101018A
:101B3000B1FA81F14909091AB1FA81F149097046EE
:101B40009847E3E7704700BFE8080020200900201D
:101B500018090020100900202DE9F8430646204806
:101B600000F004FCD0B91F4F0123A6F1200103FAB5
:101B700001F5C6F12002D7E9000123FA02F215436C
:101B800003FA06F404EA000205EA0103134307D04E
:101B900020EA040421EA0505C7E90045BDE8F88309
:101BA00030460AF085F9104ED6E9008998B148EA26
:101BB000040849EA0509D7E9002314431D43C6E98F
:101BC0000089C7E90045094B054819680022BDE8AE
:101BD000F84300F07BBB28EA040829EA0509EAE794
:101BE000F00800201809002010090020EC0800204F
:101BF000042A01D8072070472DE9F04182B00F4632
:101C00000546164609F0ECFF002834D01C4C1D4A4E
:101C10001D4B1E481E49256017707C1E00221E6049
:101C20000023C0E90023C1E90023E4B2EFB1DFF8EB
:101C30006C800027032601E0FF2C16D023B205EBB1
:101C4000C30215F8330093788DF80670424601A957
:101C50008DF804608DF8053009F0CCFF013CE4B24A
:101C60000028E9D002B0BDE8F0810A4A0A48002104
:101C700000F01AFBF6E709F061FF0028C6D0F1E793
:101C800020090020E8080020EC08002010090020AE
:101C900018090020391A000094FE0000591B0000AA
:101CA00070B5084D2B785BB1074E002433680121D5
:101CB00013F834000AF080F82B780134A342F5D8E9
:101CC000002070BDE80800202009002000B585B084
:101CD00000230390194601AA44F2010001930293E4
:101CE00000F004F805B05DF804FB00BF70B572B6F3
:101CF000FFF792FCFFF742F80028FBD1184E7388DB
:101D0000EBB9184A1268D2070CD5174C174D00BE14
:101D1000012B07D9601BC008000440F002001449E1
:101D2000FFF788F9BFF34F8F1249134BCA6802F4CB
:101D3000E0621343CB60BFF34F8F00BFFDE70A4C57
:101D40000A4D0E49601BC008000440F00100FFF777
:101D500071F9044B1B6813F0010F7388D8D0D6E7D4
:101D600060020020F0ED00E0D8140100A81401008A
:101D7000A4FE000000ED00E00400FA0598FE00005B
:101D8000F8B5204A204B0025C2F84051C2F8445112
:101D9000C2F84851C2F84C51C2F80051C2F804517F
:101DA0001B6813B31949D2F804450A68A41A1A68C3
:101DB00024F07F44A2422F4609D8197CDE69A41A78
:101DC000154499B91EB133461A68A242F5D9104993
:101DD000104A0B7812789A420DD00F490F4A41F8F9
:101DE00023504FF48013C2F80031F8BD1F745A69B4
:101DF00098699047E6E7531CDBB2022B08BF00232B
:101E00000B70EAE700100140440A0020400A00205D
:101E10003D0A00203C0A0020340A002000E100E0D6
:101E20002DE9F04FB74AB84913780978994285B03F
:101E300033D00133DBB2022B08BF0023B348137049
:101E4000B34A0768DFF8E08252F82320D8F8001080
:101E5000BB18002423F07F43036025462046A64696
:101E6000A9B10B68934200F27D81CC68C1F800E013
:101E7000D21A1844CB6934B13E1826F07F46CD61A2
:101E80008C604E600D46194601240029E9D1002CD2
:101E900040F0A5814FF0010B05E0DFF88C820025B2
:101EA000D8F80010AB469B4B9B4FDFF8809243F075
:101EB000010300930E464FF0000A002D2DD0D5F8F7
:101EC00004E0D5F808C02C46ED69904B93481B6898
:101ED000AEEB030222F07F42824255D802EB0C03A4
:101EE0002360002201206260A260E2612074002E63
:101EF0006BD03068834261D9B64603E010689842DF
:101F00004CD29646DEF81C201B1A002AF6D123601C
:101F1000E261CEF81C40002DD1D197F801C097F8AE
:101F200000E0F44571D0734603EB43030EF101006A
:101F3000BA7807EBC3035FFA80FE7245187987F819
:101F400000E004BF4FF0000E87F800E002289A6816
:101F50004CD003283DD00128E3D1107C0028E0D1EB
:101F6000D3F80CE0C2F804E0D3F810C0C2F808C0FF
:101F700014465A69E26099F800209B69A361002A1F
:101F8000A3D060608646A0E7A3EB0E0323F07F4357
:101F900063450AD2ACEB03032360A2E7C01A1060CA
:101FA0002360E261CEF81C40B5E7002301222360E4
:101FB0006360A360E36122743EB13068C8F80040FA
:101FC000C31A3360E661264677E7C8F80040264624
:101FD00073E7002EA5D0002200E01E46F36932749C
:101FE000002BFAD1C8F800301E4696E74EB1B24237
:101FF000344603D1BDE09A4260D01C46E369002B11
:10200000F9D100231374F4458DD1BAF1000F02D138
:102010008E4200F09D80002E00F0C5803B4B404A70
:102020001C68D2F80475DFF80881D6F800A098F88B
:1020300000103B1B23F07F43DD1CA9B93949354B08
:102040004FF48030C2F844030126C2F804034FF471
:102050000030C1F8800143F00103086016604FF4BE
:102060003C60984788F80060AA452CBF04EB0A033F
:1020700063192B4923F07F43C1F84035D1F804257B
:10208000D21BDB1B22F07F4223F07F4303329A42B4
:102090000ED9204BD1F80425C1F8402543F00103A7
:1020A0004FF43C6098471F4B4FF40032C3F80021B7
:1020B000002389F8003005B0BDE8F08FA24239D086
:1020C000D2F81CE01368C4F81CE0BEF1000F11D078
:1020D0003046DEF800402344CEF80030864209D076
:1020E000002397F800E097F801C0137406464FF0FC
:1020F000010A88E7002397F800E097F801C01374FD
:1021000081E700BF3C0A00203D0A0020400A002071
:10211000340A0020C0FE000024090020FEFF7F00DA
:102120000010014000E100E0440A0020300A0020D5
:10213000310A00201346F069C8F80000D8B1D3F87E
:102140001CE01B68C4F81CE0BEF1000FC1D1C5E75C
:10215000BBF1000F7FF45FAF002389F8003005B0BA
:10216000BDE8F08F002C3DD19B1A0B604FF0010BA6
:1021700099E63346DFE701931C4BDFF87CC00392FE
:102180004FF0010E0291C3F808E0009BCCF800006C
:1021900089F800E04FF43C609847D8F80000019BB4
:1021A0000299039ACBE7114D114A124C4FF4803338
:1021B0004FF400310127C2F880103C43C5F8483382
:1021C0004FF43C60C5F808336F60A0470A4BAF601E
:1021D0004FF43C601E60A047084B1E7068E7C8F8CB
:1021E000001057E6C8F80010BEE700BF001001401D
:1021F00000E100E0C0FE0000400A0020310A00209B
:102200002DE9F8431F4D204E204FDFF898804FF402
:1022100080334FF400324FF001090024C6F88020CB
:1022200047EA0907C5F848334FF43C60C5F808335E
:10223000C5F80490B847C5F808904FF43C60C8F85A
:102240000040B847124B13481349144A1C70144BF2
:1022500004600C7014704FF48011C0220B20987031
:102260001C705C70C6F8801186F814233160C5F8C4
:10227000084586F81123D5F80435C8F80030204603
:10228000BDE8F8830010014000E100E0C0FE00005E
:10229000310A0020440A00203C0A00203D0A0020A8
:1022A00024090020400A0020074B9B780BB9082026
:1022B00070473AB130B10368187C0028F7D15974DF
:1022C0005A61704707207047240900202DE9F0412A
:1022D000234CA37813B90820BDE8F0810028FAD078
:1022E000042902D80720BDE8F0814369002BF2D011
:1022F000437C0546012B4FF000000CBF884680460A
:1023000017460E4602F058FE6378A07821785A1CD2
:10231000D2B2904208BF002291421AD003EB43038D
:1023200004EBC30301200F499D601871D1F8041517
:10233000D9601E61C3F814809F610020627002F0B2
:1023400043FE094B4FF48012C3F800210020BDE882
:10235000F081002002F038FE0420BDE8F08100BFCB
:10236000240900200010014000E100E070B5184D84
:10237000AB780BB9082070BD0028FBD04369002B57
:10238000F8D0002404740646204602F015FE6A7850
:10239000A8782978531CDBB2984208BF234699429B
:1023A00011D002EB420205EBC202022120469660E8
:1023B00011716B7002F008FE064B4FF48012C3F8E7
:1023C0000021204670BD204602F0FEFD042070BDB5
:1023D0002409002000E100E030B583B001A91248D3
:1023E00002F0FEFEF0B1114D044628682060002086
:1023F00002F0E2FD0E4B0F481B88026801339B1A66
:10240000E380002102F06AFFA080002002F0DCFDE2
:1024100001A9054802F012FF074B1B6813B10146E2
:102420002846984703B030BD24000020E4FE000099
:10243000E80A0020040C00204C0A002030B5037884
:10244000052B83B0054626D0002B31D12C4B1C68C0
:102450003CB1236868889B68984723685C68002CB7
:10246000F7D1284C002002F0A7FD23687BB10121A1
:10247000244802F05BFF002002F0A6FD224B1B68FF
:1024800013B1284601219847236803B030BD1F4B84
:102490006A881A80EBE71E4BD3F88424D3F8803483
:1024A00013F0FF0F04D11B4BD2B2052A08BF1D4603
:1024B00001A9194802F094FE04460028E5D02B68D3
:1024C0000360002002F078FD104B0E481B88026864
:1024D00001339B1AE380002102F000FFA08000205E
:1024E00002F072FD01A90C4802F0A8FE064B1B6821
:1024F000002BCAD001462846984703B030BD00BF24
:10250000FC0B0020040C00204C0A0020E80A0020EC
:1025100000700240E0FE00002400002030B50128D9
:1025200083B028D030D3022823D101A91B4802F060
:1025300057FE0446E8B11A4D28682060002002F0DA
:102540003BFD184B18481B88026801339B1AE38037
:10255000002102F0C3FEA080002002F035FD01A999
:102560000E4802F06BFE114B1B6813B10146284662
:10257000984703B030BD01A9084802F031FE044677
:102580000028F6D00A4DD7E701A9044802F028FE3A
:1025900004460028EDD0074DCEE700BF2400002000
:1025A000DCFE0000E80A0020040C00204C0A002099
:1025B000D8FE0000D4FE00002DE9F04F87B006AE33
:1025C00000250446894692469B4646F8105DA8467B
:1025D00001E008F1010862680123556821460022E4
:1025E0003046A8470028F4D18DF806000490B8F1D1
:1025F000000F28D005460646626801235768214629
:102600000DF1060204A8B847626801235768214605
:102610000DF1070204A8B8479DF807304B454FF06D
:102620000002214604A803D1AA4510D00135EDB21D
:102630009DF806306768023B7F68B8479DF8063012
:102640001E44B045D8D8052007B0BDE8F08F109AD9
:102650009DF8063013608BF800308BF801906168AC
:10266000023B4D680BF102022146A847002007B04B
:10267000BDE8F08F2DE9F041082382B005464FF404
:1026800084723A493A4802F093FD20B1032420466F
:1026900002B0BDE8F081374807F086FE0446002806
:1026A000F5D1354A354B364E14702146482235480F
:1026B00034601C600BF0D9FB2146482232480BF0F5
:1026C000D4FB002D4CD095E80700304B83E8070081
:1026D000002006F065FF00283DD12D4C2A4F94F8CC
:1026E00008C06568DFF89CE0032303FB0C4C0CF189
:1026F000090C04F10906664520D0FEB17378DBB100
:10270000B278B21818D003F1FF38114652FA88F89F
:10271000013A01E001310FD012F8013F13F0800FB0
:1027200003F00F0314BF0EEBC30307EBC303904585
:102730001C6028685860EDD10336DCE702A90B2342
:1027400001F8043D12482B689847044600289ED0A3
:1027500007F0C2FE9BE78528BFD0FFF7B7FABCE7BA
:102760000A4B1D605D601D72B2E700BFEC0A0020DD
:10277000240000203D240000080C0020F80B00205D
:10278000F40B0020580A0020A00A00204C0A002068
:102790003CFF000010B507F08BFF08B9082010BD02
:1027A00007F08EFF04460028F8D1044806F008FF21
:1027B00000B910BDFFF78AFA204610BDD0FE000018
:1027C00007F09ABE08F054BF4FF0804303E0D3F8FF
:1027D0003824D1072BD5D3F838249207F7D530B554
:1027E00083B001A9124802F0FBFC0446E8B1114D88
:1027F00028682060002002F0DFFB0F4B0F481B8889
:10280000026801339B1AE380002102F067FDA0807B
:10281000002002F0D9FB01A9054802F00FFD084B8A
:102820001B6813B101462846984703B030BD704776
:1028300024000020E8FE0000E80A0020040C00202C
:102840004C0A002010B582B0822301A912488DF8ED
:10285000003002F0C5FCE8B104460098206000207A
:1028600002F0AAFB0D4B0E481B88026801339B1A2D
:10287000E380002102F032FDA080002002F0A4FBE2
:1028800001A9054802F0DAFC064B1B6813B10146AA
:102890006846984702B010BD24000020E80A0020D6
:1028A000040C00204C0A00202DE9F04F037881B081
:1028B0008346852B00F2A280DFE813F08A02D8015C
:1028C000A3002A025902C800D000A000EB00FE00BD
:1028D0001101A000A000A000A0003301A000A000F2
:1028E000A000A000A000A000A000A000A000A000E8
:1028F000A000A000A000A000A000A000A000A000D8
:10290000A000A000A000A000A000A000A000A000C7
:10291000A000A000A000A000A000A000A000A000B7
:10292000A000A000A000A000A000A000A000A000A7
:10293000A000A000A000A000A000A000A000A00097
:10294000A000A000A000A000A000A000A000A00087
:10295000A000A000A000A000A000A000A000A00077
:10296000A000A000A000A000A000A000A000A00067
:10297000A000A000A000A000A000A000A000A00057
:10298000A000A000A000A000A000A000A000A00047
:10299000A000A000A000A000A000A000A000A00037
:1029A000A000A000A000A000A000A000A000A00027
:1029B000A000A000A000A000A000A00024014701EA
:1029C000960186000C02C800A14D2B78032B15D16F
:1029D00008F0B0FC90B12B789A1ED2B2062A05D826
:1029E0009C498A5C12B106F0C7FD2B78022B00F0DF
:1029F0002983082B00F0268304232B7001B0BDE847
:102A0000F08F934D2B789A1ED2B2062A05D89149A1
:102A10008A5C12B106F0B0FD2B78022B01D0082B96
:102A200001D107F08DFE8C4B5B6803222A700BB13D
:102A300002209847894B1C6844B1636820461B6894
:102A40005946984723681C68002CF6D1844B93E8BC
:102A50000500594601B0BDE8F04F104782781306D3
:102A60004CBF804B7E4B02F00F0203EBC20393E896
:102A70000500594690470028C0D09BF8020000F09E
:102A80000F03013B062BB9D801B0BDE8F04F07F0AA
:102A900085BF714B5B680BB1082098476F4B1C6872
:102AA000002CABD0636820461B68594698472368C2
:102AB0001C68002CF6D1A1E7674B5B680BB10920BD
:102AC0009847664B1C68002C98D0636820461B68AA
:102AD0005946984723681C68002CF6D18EE75E4B58
:102AE0005B680BB10A2098475C4B1C68002C85D0B2
:102AF000636820461B685946984723681C68002C69
:102B0000F6D17BE7524C2378062B00F06D82072B21
:102B100002D0052B7FF472AF07F01CFE0223237056
:102B20006CE74D4B5B680BB10F2098474B4B1C6813
:102B3000002C3FF463AF636820461B6859469847F2
:102B400023681C68002CF6D158E7454BDFF80C9140
:102B5000454993E805009047D9F80040002C00F063
:102B60006982414D636820461B682946984723685F
:102B70001C68002CF6D1DFF8E0A0DAF804300BB1C5
:102B80000D209847D9F80070002F00F0CF8197F8FA
:102B90000890B9F1000F00F0C4814FF000084446DE
:102BA00007F109057B68DB6813B121463846984771
:102BB0003B7AA34240F228816E78002E00F0A88173
:102BC0000024234632460AE0AB782A190134D05C4F
:102BD00008F096FCE3B29E4240F29A816A789342F2
:102BE000F2D300231B78FFDEDFF87090D9F8007075
:102BF000002F00F0578197F808A0BAF1000F00F0FD
:102C00004C814FF00008444607F109057B68DB68FA
:102C100013B12146384698473B7AA34240F2F480EC
:102C20006E78002E00F030810024234632460AE000
:102C3000AB782A190134D05C08F062FCE3B29E4202
:102C400040F222816A789A42F2D800231B78FFDE94
:102C5000080C0020C8FE00004C0A0020F40B0020E5
:102C6000A00A0020580A0020ECFE0000DFF80C93B8
:102C7000D9F80070002F00F0D88097F808A0BAF1BA
:102C8000000F00F0CD804FF00008444607F1090521
:102C90007B68DB6813B12146384698473B7AA342EC
:102CA00040F2B2806E78002E00F0B18000242346FE
:102CB00032460AE0AB782A190134D05C08F020FCD7
:102CC000E3B29E4240F2A3806A789A42F2D800238F
:102CD0001B78FFDEA44D2B78032B00F08F8107F0CB
:102CE000F9FC00283FF48AAE2B789A1ED2B2062A4D
:102CF00000F29B819D498A5C002A00F09681022B9C
:102D000000F06C81082B00F0698106232B7075E6BA
:102D1000954D2B78082B00F049819A1ED2B2062AD5
:102D200040F25681924806F0F9FB2B78022B00F016
:102D30004C81082B00F0498105232B708D4B5B687B
:102D40000BB1032098478C4B594693E805009047F8
:102D50008A4B1C68002C3FF451AE636820461B6808
:102D60005946984723681C68002CF6D146E6814BEB
:102D70005B680BB1032098477F4B814993E80500BE
:102D800090477E4B1C684CB17D4D636820461B68A4
:102D90002946984723681C68002CF6D1724D2B7881
:102DA000062B00F00081082B0FD09A1ED2B2062A03
:102DB00000F21F816D498A5C002A00F01A81022B03
:102DC00003D0082B01D007F0C5FC02232B7015E6B9
:102DD000654B1B78032B00F0F480082B00F0F1808A
:102DE000644B5B680BB100209847664B1C68002C55
:102DF0003FF404AE636820461B6859469847236831
:102E00005C68002CF6D1F9E500235B78FFDE08F161
:102E100001085FFA88F4544505F10305FFF438AF63
:102E20003B681F68002F7FF428AF4F4D01F048FD2D
:102E30002B789A1ED2B2062A00F2B0804B498A5CE7
:102E4000002A00F0AB80022B03D0082B01D007F042
:102E500081FC484B5B6802222A700BB10120984725
:102E6000454B594693E805009047D9F80040002C9F
:102E70003FF4C4AD636820461B68594698472368F1
:102E80001C68002CF6D1B9E508F101085FFA88F456
:102E9000A24505F103053FF6B9AE3B681F68002F58
:102EA0007FF4A9AE304D08F0F9F82B789A1ED2B213
:102EB000062A6BD9022B00F08180082B7ED0D9F82E
:102EC000004000232B704CB12F4E636820461B68D6
:102ED0003146984723681C68002CF6D1264B2A49B6
:102EE00093E805009047234B5B680BB10E20984791
:102EF0002B78023BDBB2062B3FF680AD1B4AD35C3E
:102F0000002B3FF47BAD01B0BDE8F04F06F034BBC1
:102F100008F101085FFA88F4A14505F103053FF6C1
:102F200041AE3B681F68002F7FF431AE01F0D2FC48
:102F3000144B1B68002B54D001200B4D07F080FB75
:102F40002B789A1ED2B2062A06D9022B33D0082B30
:102F500031D001232B7051E504498A5C002AF4D05A
:102F600006F00AFB2B78F0E7080C0020C8FE0000F2
:102F70001C0000204C0A0020A00A0020F40B0020B6
:102F8000F8FE0000F80B0020F0FE000030498A5CDB
:102F9000002A8FD006F0F0FA2B788BE72D4806F048
:102FA000BDFA2B784FE707232B7027E502232B7000
:102FB00007F0DAFBC2E607F0C3FBCAE707F0C0FB85
:102FC0007DE72548FFF770FC0AE707F0B9FBB3E699
:102FD0001F498A5C002A7FF4A9AEA3E607F0B0FB84
:102FE00093E69AF80800A8E707F0B4FB08232370DB
:102FF00004E5184806F092FA2B78E0E608F09AF912
:1030000000283FF46CAE2B789A1ED2B2062A05D85F
:103010000F498A5C12B106F0AFFA2B78022B14D05C
:10302000082B12D004232B7059E60A4806F076FAD2
:103030002B7864E6DFF824A0DAF80430002B7FF464
:103040009FAD73E707F07CFBD6E407F079FBE9E777
:10305000C8FE00001C000020F4FE00004C0A002006
:1030600030B5274D83B028680023019300B38488CE
:10307000A4B1C388B3F5006F3ABF5A1C92B20122C3
:1030800004F1FF3428BF00238480C28001A8ADF87A
:103090000630FFF709FC012003B030BDFFF704FC48
:1030A0001849194802F00AF901202C6003B030BD1C
:1030B0001449154802F0D2F8044628600028D6D1F9
:1030C000124B1B680BB91846E6E701F075FF104A72
:1030D0000E481388B3F5006F35BF5C1C2346A4B2BD
:1030E000012401211480ADF8063002F03BF90020E4
:1030F00001F06AFF01A8FFF7D7FB0120CCE700BF72
:103100000C0C0020480A002024000020040C0020A1
:10311000E80A00202DE9F041077ADFF8E0E0DFF867
:10312000E0804FF0030C0CFB070C00F109040CF1DC
:10313000090C21468C4582B020D001B34E78002284
:10314000B24218D08B781344D94214D0CB5C03F030
:103150000F051B0608D45EF835300132002BEFD086
:10316000112002B0BDE8F08158F835300132002B53
:10317000F6D1B242E6D103318C45DED100211F4D9C
:103180001F4ECAB2BA4229D202EB4202A21825D07F
:1031900053780BB39378D31818BF4FF0010E05D1B5
:1031A0001AE093787344D31815D0BE461B7813F0F9
:1031B000800F03F00F0314BF06EBC30305EBC3033B
:1031C000186047683F685F6092F801C00EF1010324
:1031D000F445DFB2E5D8077A0131D2E7094A13682E
:1031E0001BB11A681368002BFBD102A910600B22D7
:1031F00001F8042D43681B689847B2E7A00A002035
:10320000580A0020F40B0020024B1878003018BF39
:1032100001207047000C002000F00F03072B10B5B1
:10322000044604D807F048FC204607F0C3FB2046BC
:10323000BDE8104007F0DABE08F062B9014B18682B
:10324000704700BFF40B002070B4114B1E68A6B18C
:10325000357A75B1737A834206F1090210D00023E2
:1032600003E012F8034F84420BD00133DBB29D42DE
:10327000F7D133681E68002EEAD1304670BC704723
:1032800000230029F9D030460B7070BC704700BF96
:10329000F40B0020436811461B68184700F00F0329
:1032A000082B01D91020704702064CBF044A054A7A
:1032B00002EBC30318680028F4D043681B68184762
:1032C000580A0020A00A002038B5094B1C680546A2
:1032D0001CB90AE023681C683CB1636829461B6876
:1032E000204698470628F5D038BD062038BD00BFD7
:1032F000F40B002038B50D46044607F04BFA08B928
:10330000082038BD044B1B78022BF9D129462046F2
:10331000BDE8384007F04EBA080C002038B50D461D
:10332000044607F037FA08B9082038BD044B1B786B
:10333000022BF9D129462046BDE8384007F0D0BA23
:10334000080C0020F8B543689B6804460E461546F5
:103350001BB19847062800D0F8BD0DB10720F8BD75
:10336000237AB34222D9093406EB460634446778FF
:10337000F7B12B463A4614E0A3786219D65C06F002
:103380000F03072B05D8304607F096FB304607F0B1
:1033900011FB3046013507F029FEEBB29F4207D9F9
:1033A00062789A42E8D800231B78FFDE6B78FFDE54
:1033B0000020F8BD43681B6903B1184718467047E1
:1033C0002DE9F0472A4BD3F80080B8F1000F4DD01B
:1033D00098F808A0BAF1000F3FD000273C4608F14A
:1033E00009050BE0002221464046984706280AD0EE
:1033F0000137FCB2A24505F103052ED9D8F80430F7
:103400009B68002BEED198F80830A34202D8002325
:103410005B78FFDE95F80190B9F1000FE8D0002449
:1034200023464A4614E0AB782A19D65C06F00F030F
:10343000072B05D8304607F03FFB304607F0BAFAB5
:103440003046013407F0D2FDE3B29945D0D96A780D
:103450009A42E8D800231B78FFDED8F80030D3F872
:103460000080B8F1000FB3D1BDE8F087BDE8F08768
:10347000F40B00202DE9F8431F4B1F68002F38D0B4
:1034800097F80890B9F1000F2AD04FF00008444691
:1034900007F109057B68DB6813B121463846984778
:1034A0003B7AA34222D96E7896B100242346324655
:1034B00009E0AB782A190134D05C08F021F8E3B2B6
:1034C0009E4205D96A789A42F3D800231B78FFDE22
:1034D00008F101085FFA88F4A14505F10305D9D880
:1034E0003B681F68002FCBD1BDE8F88300235B78D1
:1034F000FFDEBDE8F88300BFF40B0020F0B50468E0
:10350000C14E0D7A3570B4F5517F00F0768358D9ED
:1035100040F25635AC4200F0C88300F2EE80B4F5BC
:10352000537F00F0B58340F2798140F25135AC42CF
:1035300000F0E08300F2108240F24F35AC4200F020
:103540005484B4F5547F40F0078301240027002AF7
:1035500000F083850579D555A3424FF0020505712A
:1035600040F24B842F4604F1010E02259E4517556B
:10357000057180F01D840EF1010402F80E50A34283
:103580004FF00505057140F242842F4604F1010E0B
:1035900024259E451755057180F022840EF1010403
:1035A00002F80E50A3424FF00605057140F22A843E
:1035B000671C15559F420D7D057180F096837C1C1C
:1035C000BFE140F2263E744500F0458345D840F205
:1035D000163E744500F0198340F26D8140F2193EA9
:1035E000744500F0D68300F25D8240F21737BC428A
:1035F00000F06383B4F5467F40F0AE82002A00F00D
:10360000C88507794FF0010E4FF0000C0024734578
:1036100002F80C70047140F220840EF1010702F8E8
:103620000E40DFF8F0E100248EF80040AC4280F05C
:1036300000840924BB42047140F298847D1C002A56
:1036400000F054850479D455AB424FF00404047162
:1036500040F25C8405F1010E34E240F23335AC42B5
:1036600000F0DF82B4F54D7FC0F08280B4F54F7F6B
:1036700000F08C8340F2678240F24235AC4200F0A9
:103680005A8200F22A8340F24135AC4240F0648213
:1036900001240027002A00F0A0840579D555A34213
:1036A0004FF02405057140F25384AE46671C002597
:1036B000BB4202F804E0057140F2238407F1010ED9
:1036C00010247345D555047140F2088425460EF147
:1036D00001070124BB4202F80E50047140F2EF834F
:1036E000254607EB040E05247345D555047140F2B9
:1036F000D78325460EF10107A7E040F27235AC42B0
:1037000000F0CE8240F2088140F28335AC4200F0F6
:10371000B682B4F5617FC0F0418240F28935AC4297
:1037200000F0018240F28E35AC4200F0FC81B4F52D
:10373000617F40F01182002A00F04584047901275E
:1037400000255455314C0D7D24682478A54200F0A5
:10375000CA838D7DA54200F00084DFF8BCE02C4DCB
:103760009EF800402D780134E4B28EF800403DE030
:10377000B4F54B7F00F0C68200F2008140F227359D
:10378000AC4200F00E83B4F54A7F40F0E581002A98
:1037900000F02A851D4C90F804E0256800270124DC
:1037A00002F807E02D780F7DAF4200F0CA838F7DCD
:1037B000AF4200F0FC830025A342057140F2E9818D
:1037C000671C0AB105791555104C91F814E024686E
:1037D0002578AE4500F0FB81DFF834C0DFF838E033
:1037E00065788CF8005000248EF80040AC42C0F0A0
:1037F000B781DFF820E035789EF800400134E4B26C
:103800008EF8004012E700BF120C0020140C0020BC
:10381000100C0020110C0020130C002040F2493540
:10382000AC4200F0F98200F22D8140F24535AC4205
:1038300000F08882B4F5527F40F08E81002A00F0BB
:10384000BA84057901274FF0000E2424BB4202F808
:103850000E50047140F21583254607F1010E012434
:103860007345D555047140F2078325460EEB0407D6
:103870000324BB4202F80E50047140F2F8827D1C12
:10388000D455AB428F7D077140F2E28205F1010E03
:10389000042473455755047140F2C68225460EF143
:1038A00001072424BB4202F80E50047140F2458205
:1038B00025467C1C4FE640F21337BC4200F0BE8226
:1038C000B4F5457F6CD2002C00F04D8240F21237E7
:1038D000BC4240F04181002A00F01B84047914703E
:1038E000012B4FF00B04047140F2FB834FF0030EE9
:1038F0004FF0020C0127D45563450F7D077140F24C
:10390000E8820224734502F80C70047140F2D282FE
:1039100027460EF1010C52E040F25935AC4200F05E
:103920004C826AD840F25735AC4200F0CF81B4F5F2
:10393000567F40F0118101240027002A00F0B38354
:103940000579D555A3428D7D057140F23D82671CF6
:103950001555CC4C24683FE740F25235AC4200F09C
:103960000C8240F25535AC4240F0F680002A00F05F
:10397000428407794FF0010E002409E640F22D350C
:10398000AC4200F0268240F22E35AC4240F0E4809A
:10399000002A00F0238400270579D55501240AE781
:1039A00000F0D88140F21537BC4240F0D580002AA3
:1039B00000F0078407794FF0010C4FF0000E02244D
:1039C000634502F80E70047140F2658227460CF1DF
:1039D000010E0224734502F80C70047140F2568205
:1039E0000EF1010C02F80E4063454C7E047140F26A
:1039F000398227460CF1010E08E640F26D35AC42E3
:103A000000F0988140F26E35AC4240F0A580002A6B
:103A100000F0EF830479012700255455994D9A4C05
:103A20002D68247895F801E0A64540F2AA8095F823
:103A300002E02C44BB4214F80E40047140F2D880DE
:103A40007C1C1AB190F804E002F807E02D780F7D95
:103A5000AF4200F060828F7DAF4200F0938240253C
:103A6000A342057140F2A980651C002A00F09382F0
:103A7000077917559D424FF00004047180F0A28031
:103A80006F1C5EE640F24A35AC4200F0E88040F23E
:103A90004B35AC4260D1002A00F08F8304790125B8
:103AA0000027EDE6B4F5487F00F0B8802F4640F2DD
:103AB0002135AC4250D1002A00F0938304794FF0B5
:103AC000010E002554550F7A704C2478A7425BD91B
:103AD00004EB440501F109046A4F14F805C080F8AD
:103AE00004C02C4473453C6040F206820EF1010490
:103AF000002A00F0E282057902F80E50A3424FF04E
:103B00000005057140F2E081671CDFF878E115558A
:103B1000DEF80050BB4295F801E080F804E040F286
:103B2000C4817C1C3CE601270024002A3FF415AE2A
:103B30000579155511E6002A00F0358390F804E068
:103B400001270024B3E5B4F54D7F00F0908040F2EA
:103B50003535AC423FF41CAF002303601846F0BD7E
:103B60000724BB42047139D97D1C002A00F02E8243
:103B70000479D455AB424FF00504047133D96F1C5E
:103B80004BE700231B78FFDE3E4A002313601B78BF
:103B9000FFDE4FF44F7303600120F0BD40F2773534
:103BA000AC4202D0B4F55F7FD6D101240025002AB3
:103BB0003FF455AF0779575551E740F2833303601F
:103BC0000120F0BD4FF4617303600120F0BD0524B6
:103BD000BB42047140F2F2817C1C5BE540F26D3324
:103BE00003600120F0BD40F26E3303600120F0BDA0
:103BF00040F2723303600120F0BD002A00F0D18250
:103C0000057901274FF0000E63E5002A00F0C3821A
:103C100007794FF0010E4FF0000CDAE6012500277E
:103C20000DE501250024002A00F07D810779175554
:103C30004FF0000EAB4280F804E040F2B3816F1CFD
:103C40000024BB4202F805E0047140F2758125466C
:103C5000D5557C1CAFE501244FF0000E48E7002A43
:103C600000F0B382057901274FF0000E00E6002A2C
:103C700000F0AD8290F804E001270025E0E701257F
:103C80000024F2E6140C0020130C0020110C00207C
:103C9000002A00F0948207794FF0010E0025F7E525
:103CA000B74C002725680124CBE601244FF0000E15
:103CB000002A00F0EC81057972E4002A00F06D82A0
:103CC00004794FF0010C4FF0000E8BE6002A00F053
:103CD0009B820579012700246BE4002A00F06582AD
:103CE00005794FF0010E0027EAE44FF456730360A4
:103CF0000120F0BD002A00F0808207794FF0010E0C
:103D0000002432E401250024002A00F02F820779E4
:103D10001755AB424FF00204047140F22C816F1C26
:103D20005455BB424C7E047191D840F22E3303604F
:103D30000120F0BD0125002717E74FF454730360FD
:103D40000120F0BD002A00F03E8205794FF0010EFF
:103D50000027C8E4002A00F0228207794FF0010E04
:103D60004FF0000CCDE508240471002B7FF4B3ADB7
:103D700040F2123303600120F0BD01244FF0000E29
:103D8000002A00F077810579FFF7F7BB01270024AF
:103D900017E5002A00F08E81047901274FF0000E0C
:103DA0003DE4002A00F00582057901270024ACE6F5
:103DB00040F2523303600120F0BD002A00F021825E
:103DC000057901270024C3E540F25933036001203F
:103DD000F0BD002A00F0EB810479012700259FE760
:103DE00040F2563303600120F0BD002A00F0078244
:103DF000057901274FF0000E53E540F2513303607F
:103E00000120F0BD40F2573303600120F0BD40F2C5
:103E1000553303600120F0BD002A00F0DD810579F3
:103E20004FF0010E00271AE540F24F3303600120E6
:103E3000F0BD40F2993303600120F0BD002A00F08C
:103E4000C88104794FF0020E4FF0010C002752E5B3
:103E50004FF4537303600120F0BD40F21933036047
:103E60000120F0BD4FF4467303600120F0BD40F225
:103E70004B3303600120F0BD40F24A330360012060
:103E8000F0BD40F2493303600120F0BD40F217332A
:103E900003600120F0BD40F2163303600120F0BD45
:103EA0004FF4527303600120F0BD4FF44A73036076
:103EB0000120F0BD40F2153303600120F0BD40F257
:103EC000453303600120F0BD40F227330360012039
:103ED000F0BD4FF4457303600120F0BD4FF4517302
:103EE00003600120F0BD0C6ABB422478047140F2EB
:103EF000F3803C46013718E640F226330360012088
:103F0000F0BD40F2433303600120F0BD40F22133A5
:103F100003600120F0BD03259C42057180F0EF8015
:103F20002546013443E6AB4202713BD96C1C0025A7
:103F3000A342057100F2258140F235330360012070
:103F4000F0BD0225A342057140F2DE80651CDBE670
:103F500040F2423303600120F0BD0024BB420471F3
:103F6000C7D840F28E3303600120F0BD4FF4487390
:103F700003600120F0BD40F22D3303600120F0BD4D
:103F8000140C002002259C420571C9D34FF45F73C5
:103F900003600120F0BD9D420271BFF413AE6F1C9F
:103FA000FFF7D0BB4FF44D7303600120F0BD0A252D
:103FB000A342057140F2E880651C34E640F24133CB
:103FC00003600120F0BD0127FFF7BCBB0524AB4215
:103FD00004717FF608AE6F1C20E52425A34205710D
:103FE000B6D901340025A34205718AD901341025C0
:103FF000A34205717FF672AF01340125A34205711A
:104000007FF65DAF2C440525A34205717FF648AFCE
:1040100001342425A34205717FF633AF0134012515
:10402000A34205717FF628AF2C440325A3420571F6
:104030007FF61DAF01348D7D0571A3427FF608AF79
:1040400001340425A34205717FF6EEAE671C2425DA
:10405000BB4205717FF671AE02340225A3420571A1
:104060007FF6CBAE04F1010E0225734505717FF694
:104070009FAE2C440525A34205717FF6C8AE04F11E
:10408000010E2425734505717FF6AAAE023406257C
:10409000A34205717FF6B6AE671C0D7D0571BB426C
:1040A0007FF623AE02348D7D0571A3427FF68CAE80
:1040B000671C4EE40127FFF7B4BAA34202717FF6F2
:1040C00003AF0134514D2D68A3426F7807717FF61D
:1040D000ECAE0134FFF766BB40F289330360012088
:1040E000F0BD40F2133303600120F0BD0424AB4265
:1040F00004717FF60BAF05F1010E0F7AE4E440F294
:10410000773303600120F0BD4FF44B73036001204F
:10411000F0BD0B24012B0471E3D90324022791F88D
:1041200014E080F804E0BB427FF6D3AE0227A3423E
:1041300007717FF6BFAE01340227A34207717FF6F5
:10414000AAAE01340227A34207717FF69FAE013465
:104150004F7E0771A3427FF685AE01340027A3424C
:1041600007717FF67AAE671CFFF75BBA0224AB4299
:1041700004717FF600AF6C1C4D7E0571A3427FF683
:10418000D4AD0134FFF717BB40F233330360012095
:10419000F0BD0124E2E70124D4E70124D8E701249B
:1041A000C4E7012429E701241CE701241FE70124B7
:1041B000E2E7012486E701242BE701243BE7012401
:1041C0003FE70124B8E701241DE701242DE701247E
:1041D000ADE602240127A2E7012420E70124FFF72E
:1041E000EABA4FF0010E6FE4084D01242D68FFF785
:1041F000D9BA012712E4144641E7144632E70024F5
:1042000024E70127FFF7A5BB002445E7140C002095
:104210004360CA69934205D901F128020260002077
:104220008B6770478A6910B40260C8698C690A6F2D
:10423000C01A1C441A44C86100308C6118BF0120A8
:104240000A675DF8044B704708B1032070470B689C
:104250001A7B202A01D00620704710B50722044699
:1042600003F10E0103F1180009F0DAFD204610BD3C
:104270002DE9F0430B7889B00D4606460E2B43D846
:10428000DFE803F03D083D3D421A47424208423D07
:104290003D3D3D000368002403F134025A671C844D
:1042A0005C62DC629C67DC67C3F88040C3F88440D2
:1042B000204609B0BDE8F0834B78DA0940F09680DB
:1042C0005B09012B20D18B780768202B6CD0222B27
:1042D0001AD1B1F80730BBB9B1F8033097F82020F4
:1042E0003B8402F0010203F001039A4299B206D026
:1042F000002900F03581C3690BB1022198470024E1
:10430000204609B0BDE8F0830624204609B0BDE888
:10431000F083037A89788BB1827A093082B1F27A9C
:10432000825C8A42EBD00A0674D4EA78012AE6D08D
:1043300008D3032AE3D00324BAE700235B78FFDE27
:104340001378FFDE3568012B05F10C00F5D9727B7F
:10435000012A06F10C0365D9B27B974906900591B5
:104360001344AA6A93F80190002A5ED1EB6AE96FC0
:10437000AA67C5F88010EA67002B00F0D58005F128
:104380002C0393E8030005F1240383E80300484667
:10439000EA6205A9FEF7C2FF0446F369002B87D045
:1043A00030460021984783E7B1F80720072AABD1B0
:1043B0003B73B1F807300024DBB27B7320460E3725
:1043C00006930794059700F0F7FD204605A9FEF730
:1043D00091FF044630B9794B049603A9039300F08A
:1043E00073FD0446002000F0EFFD61E7C3F34112C6
:1043F000002A6FD0012A87D18B78212B84D1B1F884
:104400000720072A80D10168681C183100F06CFA77
:1044100004464DE7EC78002C7ED0032C0CBF002422
:10442000032445E700231B78FFDED5F88440686A43
:1044300005F1340EA24228BF2246714690467746C7
:1044400009F0EEFCEA6FE96AA4EB080307EB080E3B
:1044500042440020AB67C5F874E0C5F88020E867E7
:1044600000297BD005F12C0797E8030005F124040F
:104470004FF0000884E80300C5F82C80002B56D0CC
:10448000AA6A9A420ED95BE097E8030084E8030029
:10449000AB6FC5F82C80002B49D0AA6A9A424FD83E
:1044A000D5F874E0686A714609F0BAFCA96AAA6F87
:1044B0006B6FC5F880100B44521AAA676B67F369DB
:1044C00013B1002130469847EB6A002BDCD16B62B8
:1044D000002462E703F01F03012B7FF415AF8C78F3
:1044E000062C7FF411AF05A8039200F001FD0DF139
:1044F0000C0E0746EA782979CDF800E030463B46B5
:10450000FEF75AF805283FF4D3AE3946681C039AE3
:1045100000F0EAF90446CBE6F369002B3FF4EFAE76
:10452000304601219847C3E600246C6235E76B6A88
:10453000002BCDD0484605A9FEF7F0FE04462CE737
:104540001A46696F686A09F06BFCA96FAA6A6B6A00
:10455000E967521A0B44AA626B62E9E70023B6E7E7
:10456000C3690BB103219847337A012B7FF6E5AE7F
:10457000737B06F10C04002B3FF455AFB37BE05C7A
:1045800006F056FE337A012B7FF6D7AE737B012BF4
:104590007FF648AFB37B1C44607806F049FE0024E8
:1045A00007F134037C62FC62BC67FC67C7F880409B
:1045B000C7F884407B677BE6114200004942000057
:1045C00003681B8CDB0701D408207047037A012B9A
:1045D00016D910B5437B84B000F10C040BB91B78DD
:1045E000FFDE0B46817B605C019391060CBF0124CA
:1045F000002401A902920394FEF77CFE04B010BDD2
:1046000000235B78FFDE00BF0368D3F880007047AB
:104610000368986F704700BFF0B50468238CDB0710
:1046200083B002D4082003B0F0BD656A164625B1F8
:10463000E36A03B3112003B0F0BDA76F974231D2F4
:104640006162A262037A012B1BD9427B012A00F12D
:104650000C0314D9827B1A480090134404F10C0215
:104660005E7801927FB930466946FEF757FE002812
:1046700008BF9220D7E7E16222639220D3E72B782C
:10468000FFDE6B78FFDE3A460846616F09F0C8FB33
:10469000A16FA26A636AE167521A0B44A567A2621E
:1046A0006362E0E70846616F09F0BAFBA26F636FCF
:1046B000C4F88060921B1E442846A2676667B2E772
:1046C00011420000F0B505460E4685B000201746A1
:1046D0002C6800F071FC731E3F2B33D8DFE803F029
:1046E0002020322032323220323232323232322004
:1046F00032323232323232323232323232323220AC
:104700003232323232323232323232323232323289
:10471000323232323232323232323232323232208B
:10472000618CB7B921EA06060223A12020210022CC
:104730006684E682A073E1732261A3822B7A53B967
:104740005B78FFDE0624002000F03EFC204605B02A
:10475000F0BD0E43E8E7AB7A05F1090063B1E97AF1
:104760002B68405C03920E330A2201A90193029246
:10477000FEF7C0FD0446E6E71B78FFDE0020704729
:104780002DE9F04F4B6887B0002B7DD00C461546C5
:104790000392029006F0FEF8E668AE4228BF2E466D
:1047A0008346002E00F087804FF0000A5746D1461E
:1047B0004FF00108CDF804A0A3686168B3429A469F
:1047C00028BFB24601B352460BEB070009F028FBA5
:1047D000A268E368C4F80490A2EB0A02A3EB0A0300
:1047E000A6EB0A065744A260E3607AB1002B08BF2B
:1047F0004FF00008002EDFD1029AC2F800B05760D7
:10480000404607B0BDE8F08F2BBBE368019A22B9A0
:104810005BB99846002ECFD1EEE722681268126885
:10482000226001220192002BF3D02168002939D0A7
:10483000CDF8109003E0A36821680133A3604B68B2
:1048400000225D6804A80123A8470028F3D1206155
:10485000002EB1D1D0E72046534650F8101B4A68CD
:1048600055680BEB0702A847A268E368A2EB0A02AF
:10487000A3EB0A03A6EB0A065744A260E360002AF2
:10488000CBD001220192B1E70B681B681B68002B9B
:104890007FF47CAF8B68002B7FF478AF03604360BC
:1048A0009846ADE76160002FA6D0039BBB4288BF4E
:1048B0004FF00008A0E737464FF001089CE700BF23
:1048C00008B50020FEF7A8FC8020BDE80840FEF7F0
:1048D000A3BC00BF08B50020FEF7AEFC8020BDE8F9
:1048E0000840FEF7A9BC00BF70B5C38893421D46BF
:1048F00028BF1546934284B00E461FD800220020E0
:1049000003920196029500F057FB01A98020FEF763
:10491000F1FC044628B1002000F056FB204604B00C
:1049200070BD06F03BF9802818BF1024F3D1094A66
:10493000094B92E8030083E80300ECE7802014466B
:1049400005F018FFB4FBF0F303FB1042B2FA82F259
:104950005209D4E784FF0000440C00202DE9F04FF9
:104960000B78062B87B07CD010D90D2B69D02AD8B4
:104970000B2B06D00C2B2FD1AA4A1378002B40F01A
:104980008E800024204607B0BDE8F08F022BF8D0BF
:1049900045D9032B25D0052B1ED10DF10D008DF827
:1049A0000C3006F099F89DF80D209F4D002102F083
:1049B0001F032960032B00F2B880DFE813F0BA0070
:1049C000D300AE009F000E2B19D0852B04D1954B40
:1049D0001A78032A00F0F8800624204607B0BDE8C4
:1049E000F08F924800F0EAFC0028CAD0904B0122D8
:1049F0001A60BFF36F8FBFF34F8F0024C2E7894B5C
:104A00001A78012ABDD08B498B480A78012422F0FC
:104A100002021C700A700024FDF746FFB2E7012B6A
:104A2000DAD1804B1A78032AD6D0824982480A7894
:104A3000032422F002021C700A700624FDF734FFE2
:104A4000A0E74FF08043D3F8383413F0010F754BD3
:104A50001A7821D0022A94D0764977480A7802241D
:104A6000D5E7C87803280D46B6D06F4E3368002BC3
:104A700000F09C800022326071689847044600284C
:104A800054D13368002B00F09380AB78002B7FF477
:104A900078AF06F047F875E7012AB4D171E7654CA5
:104AA00065482178002321F00201217013701C4613
:104AB000FDF7FAFE66E79DF80E10062900F0F48077
:104AC000082900F0DF80C9B95C4C0222204609F0B9
:104AD000CCF9584A23781278900743F0010148BF77
:104AE00043F0030321700DF10D0048BF2370022233
:104AF0005249FFF7F9FE0446062C03D103A8FEF73E
:104B0000E3FB044694B92C68002C5AD006F046F812
:104B1000044600287FF435AFBBE79DF8110001077C
:104B200059D112F0600F00F08F80062406F02CF8A7
:104B300028E7C2F34114002CE0D1D209BBD19DF883
:104B40000E30032B50D0092B5CD0012BD6D1BDF8F1
:104B50000F30012BD2D1FEF757FB002840F06881BF
:104B60000F24E3E701A99DF81100FEF76DFB06464F
:104B700078B303AA9DF80410FEF78CFB06280446C0
:104B8000C0D19DF80D3013F0600FCFD1254A9DF8AC
:104B900004101278DF099DF80E3040F0C2800B2B14
:104BA000C4D1052A00F04A810824BFE70E24BDE7DE
:104BB000234B1B68082B04D1224B1B68002B3FF4AE
:104BC000E0AE05F0D7FFDDE61A491B480A78042459
:104BD0002FE71024AAE703A9FEF760FB0628044686
:104BE00090D19DF80D209CE7BDF80F30012B85D1A9
:104BF000FEF70AFB0028B3D00E4A137843F00203F5
:104C0000137080E7074C2378043B012BCCD89DF828
:104C10000F30002B00F03581012B00F02681072496
:104C200084E700BF240C0020440C00204C0C002022
:104C30005C700240400C00204CFF0000500C002033
:104C400030010010340100109DF80E20954B9DF8A6
:104C500011401B78012A3DD052D3032A7FF465AF5F
:104C600004F00F02072A3FF660AFBDF80F100029CD
:104C70007FF45BAF052B01D0002A95D1204605F0CB
:104C80008DFE40E787490978052900F0CE80042988
:104C90007FF434AF844A14700DF10D000122824973
:104CA000FFF722FE044627E79DF81020022A62D073
:104CB000032A4AD0012A7FF421AFBDF81330002B1C
:104CC0003FF421AF0DF10D0012227849FFF70CFEE1
:104CD000044611E704F00F02072A3FF626AFBDF89D
:104CE0000F1000297FF421AF052B02D0002A7FF49A
:104CF0005BAF204605F0E0FE204605F05BFE02E7D4
:104D0000052B02D023077FF44FAF204605F0B2FEFB
:104D10006549022208800DF10D00FFF7E5FD04460C
:104D2000F0E6002B74D00A2B7FF400AF052A7FF445
:104D30003BAF3046FEF73EFB5B493A4608700DF14B
:104D40000D00FFF7D1FD0446DCE6BDF81330002B63
:104D50003FF4D9AEBDF811109DF80F0000F0F8F83F
:104D6000014600283FF4CAAE0DF10D000A78FFF7A6
:104D7000BBFD0446C0E6BDF81320002A3FF4C3AED5
:104D8000092A28BF09229146FEF758FAA34606468B
:104D90004FF0090AAEB1CDF804B0002700E00137AA
:104DA00072680123D2F804803146002201A8C0476E
:104DB0000028F4D1337A326823441668BA44DCB24E
:104DC000E8E7394E3A4930464A4609F029F8347145
:104DD000A6F802A0FEF718FA18B1F37943F0200301
:104DE000F371FEF72BFA334BBDF813201860002047
:104DF0005E60C3F80890DA6000F0DEF82E4980208B
:104E0000FEF78CFA044628B3002000F0DDF873E6C4
:104E1000052A7FF4C9AE244C0DF10D0021462380F4
:104E20000222FFF761FD04466CE61F4B1A7033E760
:104E3000224A137823F00203137064E6BDF80F30A2
:104E4000FF2B3FF6ECAE30469DF80F20FEF77AFAC6
:104E5000044657E605F0A2FE802805BF184B93E8EC
:104E60000300102485E80300CEE7FEF7A9FA2378B3
:104E7000052B3FF448AE052312482370FDF714FDBF
:104E800041E6FEF7F7FA2378042B3FF43CAE0B4AD9
:104E90000C481378042123F0020313702170FDF7EE
:104EA00003FD30E6240C0020500C002070FF0000B1
:104EB00050FF0000280C00209CFF0000400C002048
:104EC00084FF00004CFF000038B504460D4605F095
:104ED00065FEA04202D01023184638BD95E80300B5
:104EE000024A82E803000023184638BD440C002023
:104EF00008B1402303600148704700BF500C0020F8
:104F000070B54FF0805286B0D2F8A830D2F8A42005
:104F100000926FEA83436FEA93439BB202A80A4A66
:104F20000A4E0D2109F01AF90DF10705002404E0DD
:104F300015F8013F06F8013F013402A809F0A4F971
:104F40008442F5D306B070BDA4FF000023140020F6
:104F500010B3052823D8154B185CF8B1144B10B5C5
:104F600053F82040ECB123780BB9A01C10BD0020F1
:104F7000FFF7BEFF2278B2B100230133DBB220F885
:104F8000132014F8012F002AF7D101335B00DBB2A4
:104F900043F44073038010BD0648704770470020FB
:104FA0007047204610BD40F20233F3E71C000100B9
:104FB00004000100B2FF000072B6024A1368013318
:104FC00013607047900C0020034A1368013B136084
:104FD00003B962B6704700BF900C00201EF0040FAA
:104FE0001CBFEFF309800AE0EFF308800549064A89
:104FF000884201D8904202D88D464FF00000034B02
:10500000184700000000042000E003203550000095
:10501000BFF34F8F0549064BCA6802F4E0621343A1
:10502000CB60BFF34F8F00BFFDE700BF00ED00E096
:105030000400FA052DE9F04F83B08146FCF7ECFA45
:10504000FBF79CFE0028FBD1DFF838A14B4FDAF8C4
:1050500028507B88DFF84C81494CB9F1000F7DD096
:10506000002B46D1474BDB6ADFF83CB1DFF83CA1AF
:10507000A8EB04084FEAD8084FEA084848F00108AE
:105080000024012602E001341A2C11D006FA04F3A0
:105090002B42F8D05BF82420002AF4D07B88002B28
:1050A000F1D0514640460134FCF736F81A2CEDD1C8
:1050B0002A060DD57B882BB94846FFF7A9FF03B018
:1050C000BDE8F08F2F4B30495A6B4046FCF724F86F
:1050D0002B04F1D57B88002BEED02A4B2B499A6B01
:1050E0004046FCF719F84846FFF792FF03B0BDE8C9
:1050F000F08FA8EB0406F608360446F00106D9F84E
:10510000182023493046FCF707F87B88002B32D063
:10511000D9F80C00D9F8081099E80C00019000911A
:1051200030461C49FCF770F97B88002B9AD0D9F8DF
:105130001C10D9F81430D9F81020009130461649C7
:10514000FCF7DCF80F4BDB6A99078DD57B88002BC9
:105150008AD030461149FBF76DFF85E7002B81D0DF
:10516000A8EB0406F608360446F001060C49304662
:10517000FBF760FFE6E7DAF82C3075E784020020E1
:10518000A814010000ED00E0200101004001010031
:10519000240001003C00010074000100D000010067
:1051A0009C000100201501005C01010014010100B8
:1051B00099B110B4B2FBF3F403FB1424A4B21CB1F4
:1051C00009205DF8044B704780E8120084608281FA
:1051D000C38120465DF8044B70470E20704700BF26
:1051E00030B482B050E8013F9DB2C489254484891F
:1051F000A54228BF2D1B0489A54202BFBFF32F8FF4
:10520000002207E0C5EA030540E80154002CE9D17B
:105210004FF001028DF803200193019B9DF80320BC
:105220000B602AB10B880068184402B030BC70478C
:1052300002F0FF03184602B030BC70470A884B8862
:105240009A4201D00020704750E8012FC2EA024282
:1052500040E80123002BF7D10120704730B482B021
:1052600050E8023F1FFAA3F5C488A54202BFBFF36E
:105270002F8F00220DE0C48925448489A54228BFD0
:105280002D1BC3EA054540E80254002CE8D14FF03D
:1052900001028DF803200193019B9DF803200B6010
:1052A0002AB14B880068184402B030BC704702F045
:1052B000FF03184602B030BC704700BF0A884B8815
:1052C0009A4201D00020704750E8022FC2EA2242E1
:1052D00040E80223002BF7D10120704700B550E8C9
:1052E000002F0B4640E8003E9EF0000FF7D110461D
:1052F0005DF804FB00B550E8003F43EA010240E8D6
:10530000002E9EF0000FF6D110465DF804FB00BFA2
:1053100000B550E8003F03EA010240E8002E9EF08D
:10532000000FF6D110465DF804FB00BF00B550E851
:10533000003F03EB010240E8002E9EF0000FF6D183
:1053400010465DF804FB00BF00B550E8003FA3EB3A
:10535000010240E8002E9EF0000FF6D110465DF8E5
:1053600004FB00BF00B550E8003F8B422CBF5A1A27
:105370001A4640E8002E9EF0000FF4D110465DF86A
:1053800004FB00BF00B5012350E800EF4EEA030222
:1053900040E8002191F0000FF6D170465DF804FB63
:1053A00000B5012350E8002F42EA030E40E800E177
:1053B00091F0000FF6D170465DF804FB00B50023B4
:1053C00050E800EF0EEA030240E8002191F0000FE0
:1053D000F6D170465DF804FB00B5002350E8002FBD
:1053E00002EA030E40E800E191F0000FF6D17046AA
:1053F0005DF804FB2DE9F0438368D3F83C61C6F304
:1054000040068BB0002E4AD1012941D8274C284DA7
:10541000284B2D1BAD08A3FB0535002D35D0C5EB62
:10542000C505DFF89890074604EB85054FF0640842
:105430002368D4F808C019681A7963690993636806
:105440000692ACEB010E02EB8202ACEB030C208B5C
:1054500000905FFA8EF102EB8202039108FB01FEDD
:105460009200BEFBFCF1B2FBFCF2029105920196A8
:10547000CDF81CC0CDF810C0099B1C344A46082149
:10548000384601F097F9A542D2D10BB0BDE8F083C0
:10549000094A02210BB0BDE8F04301F08BB90022AC
:1054A00011460BB0BDE8F04302F01ABEB41501007E
:1054B000EC15010025499224CC060100E00601000C
:1054C000B8B130B4416882680468521AD2B2531E2F
:1054D0002160DBB242B101680A685C1E551C0D6098
:1054E0001370E3B2FF2BF6D103680020187130BCB3
:1054F00070470E20704700BF70B504460020FFF7CC
:105500005BFD236861681A688A4215D9511E1960CB
:105510002168A3680D680879268B12F8012CE468CD
:105520005B1BDBB2984206FB024400D20B710020E9
:10553000FFF74AFD204670BD00240020FFF744FD20
:10554000204670BD38B5054600200C46FFF734FDF7
:105550002A681368591C1160E9682A8B641AB4FB25
:10556000F2F41C700020BDE83840FFF72DBD00BFED
:1055700030B18A6892F83C3143F0200382F83C3124
:10558000704700BF10B543689C68606803680121DC
:105590009B689847A36810B104221A7010BD0322BB
:1055A0001A7010BD0968006808F05CBE2DE9F04172
:1055B00005468068484E82B00024802221469430FF
:1055C0008DF8034008F051FC2869444903F096F82F
:1055D000286903F087F846F001064FF47A78686886
:1055E000036801221F690DF1030101ABB847019A5D
:1055F000D2B19DF80320AB681B2A04F1010105D04C
:1056000093F894001B28EAD1522A1CD02344CCB230
:10561000092C83F89420E2D9AB68002283F8942007
:10562000042002B0BDE8F0814FF6C010B047019BE6
:10563000002BD4D108F1FF371FFA87F8B8F1000F1B
:10564000CDD10D20EDE72344002283F89420AE68ED
:1056500096F895305B2B05D00B2086F8942002B08D
:10566000BDE8F08106F19507022304E05FFA8EF3AE
:10567000802B8AB22ED017F8014F02EB8201A4F1E1
:1056800030003B2C03F1010E00EB4101EED15FFA3B
:105690008EF318061ED4002002E088B2190619D431
:1056A000F41800EB800194F89440013304EB4101BD
:1056B0003039DBB2002CF0D1FA2828BFFA20307242
:1056C000AB68FA2A88BFFA229A72AB68002083F886
:1056D0009400A6E70C20A4E7500801002C08010064
:1056E000F8B50C4601F1080508B308F0CDFDC0B2CD
:1056F0000146E27C637BA77CA0730A440F4492FBC3
:10570000F3F603FB162297FBF3F0013203FB107351
:10571000002162F307010133013663F30F2166F3C1
:105720001741013060F31F61A1602846F8BD0146B2
:10573000DFE700BF2DE9F84F074600200346884603
:10574000144638600646814605E084F8009001342E
:105750003B680B2B2AD8257845B308F041FB284439
:10576000437813F00803F0D13A68511C396048F8C7
:10577000224025781E46002DEAD0EEB9272D2FD0E5
:105780005C2D04F10106204635D0222D28D008F0EA
:1057900027FB284443781B0700F1AE8014F8015F13
:1057A000002DEBD12E463B680B2BD4D9002248F8B4
:1057B00023203046BDE8F88FAE4204D05C2D6578DA
:1057C00026D00134D7E7204608F05EFD611C024672
:1057D000204608F030FB2578002DE3D0272DCFD1CF
:1057E000204608F051FD611C024620462E4608F076
:1057F00022FB2578BFE708F047FD314602462046E8
:1058000008F019FB65783446002DB7D12E46CAE75B
:10581000AE4224D0302D2FD02B46782BD1D1A27878
:10582000A2F13003DBB2092B4ED9A2F16103052BA3
:1058300064D9A2F14103052BC3D8373AD5B2E27837
:10584000A2F13003DBB2092B45D843EA0515EDB2CE
:105850004FF0030A4FF0040B2046A24428E02046F4
:1058600008F012FD04F1010A02465146204608F0F4
:10587000E2FA657854467EE7A378A3F13001C9B215
:105880000729CAD8E378303BDBB2072B42D822790C
:10589000303AD2B243EAC103072A5BB23FD842EAA8
:1058A000C303DDB24FF0050B0423204604EB030ACB
:1058B00008F0EAFC821CA2EB0B025146204608F0DD
:1058C000BAFA257065787CE71D46E278A2F13003CC
:1058D000DBB2092BB9D9A2F16103052B11D9A2F1D1
:1058E0004103052B20D8373A42EA0515EDB24FF0B7
:1058F000030A4FF0040BAFE7002629E7573AD5B269
:10590000E3E7573A42EA0515EDB24FF0030A4FF0CC
:10591000040BA1E70D4602234FF0030BC5E7DDB2F0
:105920004FF0040B0323C0E74FF0020A4FF0030BC4
:1059300092E700BF002900F0DA802DE9F04F8B4696
:1059400085B0924606464C1E002700E0013708F05D
:1059500047FA14F8013F184443781B07F6D45FFA5E
:105960008AF30193584608F08FFCB36893F80D80D2
:10597000C01BA8EB0A08404560D90BEB07090024BF
:1059800000E0013408F02CFA19F8013B18440AEB46
:1059900004014278100707EB040502D50A2B07D053
:1059A000A046B3685B7B9942EBD307EB08054446FE
:1059B000306902F097FEA4B103AB4FF000080095E8
:1059C00099467068036807EB0801DD6859444B4647
:1059D0002246A847039B9844FBB1E41A002CF0D15F
:1059E000009D0BEB050400E0013508F0F9F914F80F
:1059F000013B184443781B07F6D4404A40493069BC
:105A000002F07CFE019B0BB92F46ABE71A463D49DD
:105A1000306902F073FE2F46A4E7B2681378032BB7
:105A2000DCD0D2F83C319906FBD592F83C316FF3CB
:105A3000451382F83C31002CC3D1D1E70BEB0701B1
:105A400088B11BF807300A2B0BEB070150D00B462F
:105A5000002403E013F8012F0A2A0FD00134A042DA
:105A600007EB0405F6D1306902F048FE3069234A9D
:105A7000234902F043FE05B0BDE8F08F306902F023
:105A800031FE4FF000080DF10C0AA946706803685A
:105A900007EB0801DD68594453462246A847039B9B
:105AA000A3B19844E41A002CF0D14D46134A14498E
:105AB000306902F023FE019B013523B11A461149DA
:105AC000306902F01BFE0BEB0501CCE7B2681378DE
:105AD000032BE8D0D2F83C319D06FBD592F83C313F
