:1000000000000420E1020000090300005159000033
:100010000D0300000F0300001103000000000000AA
:1000200000000000000000000000000013030000BA
:100030001503000000000000170300001903000072
:1000400015AE00001B03000025AE0000C5B3000084
:100050001B0300001B03000091A500001B03000010
:100060001B0300001B0300001B0300001B03000018
:100070001B0300001B0300001B0300001B03000008
:100080001B0300008D1A00001B0300001B0300006F
:100090002D1B00001B0300001B0300001B030000BE
:1000A0001B0300001B0300001B0300001B030000D8
:1000B0001B0300001B030000000000000000000004
:1000C0001B0300001B0300001B0300001B030000B8
:1000D0001B0300001B0300001B030000ED8F00004A
:1000E0001B030000A5B300001B030000000000007C
:1000F000000000001B030000000000001B030000C4
:1001000000000000000000000000000000000000EF
:1001100000000000000000000000000000000000DF
:1001200000000000000000000000000000000000CF
:1001300000000000000000000000000000000000BF
:1001400000000000000000000000000000000000AF
:10015000000000000000000000000000000000009F
:10016000000000000000000000000000000000008F
:10017000000000000000000000000000000000007F
:10018000000000000000000000000000000000006F
:10019000000000000000000000000000000000005F
:1001A000000000000000000000000000000000004F
:1001B000000000000000000000000000000000003F
:1001C000000000000000000000000000000000002F
:1001D000000000000000000000000000000000001F
:1001E000000000000000000000000000000000000F
:1001F00000000000000000000000000000000000FF
:1002000010B5054C237833B9044B13B10448AFF350
:1002100000800123237010BD700200200000000048
:10022000943201000C4B43B10C480D4910B5AFF3AB
:1002300000800C48036823B910BD0A48036833B92D
:100240007047094B002BF7D0BDE810401847064B0C
:10025000002BF5D0184700BF0000000094320100C9
:10026000740200203002002000000000154B002B1B
:1002700008BF134B9D46A3F5803A00218B460F46DD
:100280001348144A121A10F041F90F4B002B00D0FA
:1002900098470E4B002B00D0984700200021040007
:1002A0000D000D48002802D00C48AFF3008010F07C
:1002B000CFF8200029000CF053FB10F0B5F800BF78
:1002C0000000080000000420000000000000000002
:1002D00070020020E4240320000000000000000061
:1002E0000649074A074B9B1A03DD043BC858D05008
:1002F000FBDC0FF0B7FFFFF7B9FF00003033010060
:100300000000002070020020FEE7FEE7FEE7FEE7A7
:10031000FEE7FEE7FEE7FEE7FEE7FEE7F0B595B095
:10032000002415460F4608461E4606F093FE384642
:1003300023460C22089505A91A9D09960D950A9445
:100340008DF82C400C9406F0E9FE9DF814300798C7
:1003500006998DF8114003F00302012A02900391DF
:1003600028D0022A04D0384606F078FE15B0F0BD39
:10037000BDF81650C3F3C2038DF81030C5F38915CC
:100380000C26082D2C4628BF0824334622460EA9E9
:10039000384606F0C3FE2D1B214608AB02AA0EA864
:1003A000264400F0EFFF002DEBD1384606F056FE54
:1003B00015B0F0BDBDF81460059DC6F38316C3F3F8
:1003C000C204B2000EA938460C238DF81040C5F3C4
:1003D000952506F0A3FE08AB0093324628460EA9E9
:1003E00002AB00F059FFBEE7014B01221A707047C3
:1003F000D0020020704700BF00B583B0044B0093CB
:10040000044A4023FFF78AFF03B05DF804FB00BFF6
:10041000190400009002002038B50F480F4D0378F2
:100420000F4CEB5C00252570D2B253B90C300BF0A9
:1004300009FB58B90B4B1B7813B12378002BFCD068
:1004400038BD04300BF03AFE0028F3D0064A5321A1
:1004500001F0ACFAEEE700BF00000020002403200A
:10046000D00200208C0200204C12010070B514480C
:10047000144A0378D35C88B0EBB90C300BF038FA2F
:10048000114D0FCD6C460FC495E80F0008AD142632
:1004900045F8206D84E80F0029460022084806F040
:1004A000F9FF18B1094A432101F080FA084B0022F4
:1004B0001A7008B070BD04300BF052FDE0E700BFC9
:1004C0000000002000240320201201004C12010033
:1004D0008C02002070B50E4D0FCD88B06C460FC455
:1004E00095E80F0008AD142645F8206D84E80F004C
:1004F0002946084A084806F0CDFF18B1074A4321AB
:1005000001F054FA064B01221A7008B070BD00BF0A
:1005100020120100E9030000000000204C1201003D
:100520008C02002008B5FFF7D5FF0421084800F031
:10053000F5FD002803DB064B01225A7208BD054970
:10054000482005F0CDFA024B01225A7208BD00BFC7
:1005500014000020BC1201002DE9F043DFF8F48004
:100560003A4F85B008F5836005F0B2FB08F21440FD
:1005700005F0AEFBD8F80440D8F8089004EA090664
:10058000F31C08EB83031878810710D010F00405E2
:1005900019D01A7802F00302012A41D0022A39D177
:1005A0005B88033404EB931404EA0906E8E7420786
:1005B000EFD45A881B88013404EB921404EB931493
:1005C00004EA0906DCE708EB8606631C03EA09096E
:1005D000F368019308EB890903F00303D9F80C20B1
:1005E0000292012B04F1030422D0022B28D1BDF882
:1005F0000630BDF80A50C3F38913033304EB9304A8
:10060000134805F073FB08B1C8F80440284605B04C
:10061000BDE8F08339464FF4A47005F061FAAFE706
:100620001B880334C3F383131C4404EA0906A7E7B9
:10063000BDF80430BDF80A50C3F383131C44DFE750
:1006400002494FF4C27005F04BFAD9E730130100AC
:10065000B8070020A403002020B338B5124C0023B3
:100660000546FF220846C4F81834A2602360636080
:10067000C4F8143484F8203400F0FCFE0B48C4F8AD
:100680000C5406F09DFC60B9094A0A4BD21AD208F4
:1006900007D00949034621F8233001339A42FAD1A1
:1006A00038BD38BD07207047A40300201033010077
:1006B00010330100983201003402002021B9124A9F
:1006C00002EBC0000068704730B410490E4D491B62
:1006D000C9080ED00E4B5A88824218BF002205D19D
:1006E0000FE0DC88844203F1040305D0013291421B
:1006F000F7D1002030BC704705EBC200006830BC69
:1007000070472846FAE700BF983201001033010015
:1007100034020020094B013903EBC00003290BD838
:10072000DFE801F0020806040220704740797047B4
:10073000007970470420704700207047983201000C
:100740002DE9F047974D95E80C009A4284B070D09F
:100750000023C5F81834BFF34F8F934F6C68AE6811
:1007600010E012F0040826D01A7802F00302012AE1
:1007700059D0022A51D15B88033404EB93142B68BF
:10078000A34213D904EA0601CB1C05EB83031A78B4
:100790009007E6D15207E7D45A881B88013404EB4E
:1007A000921404EB93142B68A342EBD800206B60E7
:1007B00004B0BDE8F08705EB8101621CA31CC96889
:1007C00001913240334005EB820205EB830301F0D7
:1007D0000301D268DB6802920229039304F1030447
:1007E0002BD001297DD0D5F8104434B123682046A0
:1007F0009B6898476468002CF8D16C4B6C4918884A
:10080000000440F0020000F0D9F868682B68C01AB4
:1008100018BF012004B0BDE8F08739464FF4A4703A
:1008200005F05EF9ABE71B880334C3F383131C4464
:10083000A5E7002004B0BDE8F087BDF806305D48AC
:10084000C3F38919B9F1500FCA46A8BF4FF0500A37
:100850006AF38F130AF10C01ADF8063006F0B2FB13
:1008600007460028BFD006F0F5FB434626EA0408F9
:1008700008F101080C2201A938464FEA880806F061
:100880000FFCC24540F28180B8F1000F68D152469A
:100890000C234949384606F003FC09F1030904EB2F
:1008A0009909D5F81834002B56D1D5F810444CB11D
:1008B000637A3946204613B123681B6898476468F9
:1008C000002CF5D1384606F0C9FB002004F0EEFFFD
:1008D000D5F818340BB9C5F80490002005F000F8DD
:1008E00093E7BDF804303348C3F38312062A28BFC8
:1008F0000622D11C62F389138900ADF8043006F09A
:1009000061FB074600283FF46EAF06F0A3FB4346A9
:100910000C2201A9384606F0C3FBBDF8043013F4DD
:10092000707F3DD04FF00C0A06EA040103315346B4
:1009300005EB81010422384606F0B2FBBDF8043015
:1009400008F10108C3F3831304F1010943450AF1D7
:10095000040A4C46E8D8A4E7384606F07FFB54E783
:1009600006EA04010331AAEB080605EB81014246C1
:100970003846F6B20C2306F093FB324608F10C031E
:100980000D49384606F08CFB87E706EA040103317F
:1009900005EB810152460C23384606F081FB7CE7CB
:1009A000A1467EE7A403002030130100500200207E
:1009B0009C13010010330100B00300202DE9F04723
:1009C000DFF80C91074600208846D9F8085004F05B
:1009D0006DFFD9F80820D9F80430D9F80060134425
:1009E00001339B1B022B68D809F21C4401212046CD
:1009F00005F042F9FFF7B0FD0146204605F03CF94D
:100A000099E80A00D9F80820134401335B1A022B35
:100A1000ECD90A40033205236FF3891349F82230D9
:100A200003310020C9F8001004F05AFF00212448C7
:100A300005F0FAF880F3100A224B234A3C0C9B1A6B
:100A4000B4EBD30F33D2731C2B4009EB830344EA7E
:100A50000A44DC60D9F80C34B41C98472C4009EBEC
:100A6000840435400335E06019F8253067F3C50389
:100A700009F8253039F825306FF3891329F8253026
:100A800059F8252068F39F221346012161F30103E1
:100A90006FF3820349F8252009F8253099F82034AE
:100AA0001BB1FFF74DFE0028FBD1BDE8F0870749D9
:100AB00040F2A91005F014F8C5E73146A9E700BFD8
:100AC000C0070020103301009832010030130100EC
:100AD000A40300202DE9F047DFF81CA10746002001
:100AE00090468946DAF8085004F0E0FEDAF808206B
:100AF000DAF80430DAF80060134401339B1B032B4F
:100B000070D80AF21C440121204605F0B5F8FFF721
:100B100023FD0146204605F0AFF89AE80A00DAF80E
:100B20000820134401335B1A032BECD901200A403F
:100B3000033240F0040360F389134AF82230043191
:100B40000020CAF8001004F0CBFEF31C2B400AEB87
:100B5000830300212448C3F80C8005F065F880F376
:100B60001008224B224A3C0C9B1AB4EBD30F33D211
:100B7000731C2B400AEB830344EA0844DC60DAF878
:100B80000C34B41C98472C400AEB840435400335E0
:100B9000E0601AF8253067F3C5030AF825303AF803
:100BA0002530012161F389132AF825305AF82520D0
:100BB00069F39F22134661F301036FF382034AF83E
:100BC00025200AF825309AF820341BB1FFF7B8FD2C
:100BD0000028FBD1BDE8F087064940F2A91004F0D7
:100BE0007FFFC5E73146A1E7C007002010330100B1
:100BF0009832010030130100A40300202DE9F84FC2
:100C0000444C8046002093469A468946A66804F0E4
:100C10004DFEA2686368276813440133DB1B042B75
:100C200075D804F21C450121284605F025F8FFF788
:100C300093FC0146284605F01FF894E80A00A268D4
:100C4000134401335B1A042BEDD90A400332052308
:100C50000220194460F3891344F8223000202160F7
:100C600004F03EFEFA1C3B1D3240334004EB82028E
:100C700004EB830300212848C2F80CB0C3F80CA091
:100C800004F0D2FF80F3100A244B254A4FEA18459E
:100C90009B1AB5EBD30F34D27B1C334004EB830398
:100CA00045EA0A45DD60D4F80C34BD1C9847354050
:100CB00004EB85053E400336E86014F8263068F3FF
:100CC000C50304F8263034F82630022262F3891373
:100CD00024F8263054F8262069F39F221346012178
:100CE00061F301036FF3820344F8262004F82630F1
:100CF00094F820341BB1FFF723FD0028FBD1BDE899
:100D0000F88F084940F2A91004F0EAFEC4E739461A
:100D10009BE700BFA4030020C007002010330100A0
:100D200098320100301301002DE9F84F474C8046FE
:100D3000002093469A46A668894604F0B7FDA2684B
:100D40006368276813440133DB1B052B7BD804F24F
:100D50001C450121284604F08FFFFFF7FDFB0146EB
:100D6000284604F089FF94E80A00A268134401337E
:100D70005B1A052BEDD90A4003320320052360F3EB
:100D8000891344F82230063100202160FD1C04F054
:100D9000A7FD3A1D7B1D3540324004EB850504EB71
:100DA0008202334004EB8303C5F80CB00021C2F883
:100DB0000CA027480A9ADA6004F036FF80F3100A84
:100DC000244B254A4FEA18459B1AB5EBD30F34D272
:100DD0007B1C334004EB830345EA0A45DD60D4F80D
:100DE0000C34BD1C9847354004EB85053E40033666
:100DF000E86014F8263068F3C50304F8263034F8A8
:100E00002630032262F3891324F8263054F8262072
:100E100069F39F221346012161F301036FF38203FB
:100E200044F8262004F8263094F820341BB1FFF74C
:100E300087FC0028FBD1BDE8F88F084940F2A910D3
:100E400004F04EFEC4E7394695E700BFA403002036
:100E5000C007002010330100983201003013010058
:100E60002DE9F04F85B04E4C0E9DA66802958DE899
:100E70000C008046994600200F9B039392468B46B8
:100E800004F014FDA2686368276813440133DB1B78
:100E9000062B00F2838004F21C450121284604F051
:100EA000EBFEFFF759FB0146284604F0E5FE94E807
:100EB0000A00A268134401335B1A062BEDD90A40DD
:100EC00003320420052360F389130731002044F81E
:100ED00022303D1D216004F003FDF81C7A1D3040D6
:100EE000354004EB800004EB8505BB1D324004EB6C
:100EF00082023340C0F80CA004EB8303C5F80C90C9
:100F00000E9DD56000210F9A2648DA6004F08CFE11
:100F100080F31009244B254A4FEA18459B1AB5EB7C
:100F2000D30F35D27B1C334004EB830345EA0945DC
:100F3000DD60D4F80C34BD1C9847354004EB8505C2
:100F40003E400336E86014F8263068F3C50304F821
:100F5000263034F82630042262F3891324F8263030
:100F600054F826206BF39F221346012161F30103FD
:100F70006FF3820344F8262004F8263094F82034D6
:100F80001BB1FFF7DDFB0028FBD105B0BDE8F08FFA
:100F9000074940F2A91004F0A3FDC3E739468EE7E4
:100FA000A4030020C0070020103301009832010084
:100FB000301301002DE9F04F87B0534C029399464E
:100FC000119B109D04938046129B01920020924633
:100FD0000593A66803958B4604F068FCA2686368D5
:100FE000276813440133DB1B072B00F28B8004F2CC
:100FF0001C450121284604F03FFEFFF7ADFA0146EB
:10100000284604F039FE94E80A00A268134401332C
:101010005B1A072BEDD90A4003320523083163F32D
:101020008913002044F822307D1D216004F058FC13
:10103000F91C07F1040EBA1DFB1D31400EEA060E25
:101040003540334004EB810104EB8E0E04EB850543
:10105000324004EB820204EB830C109BC1F80CA01D
:10106000CEF80C90EB60119BD3600021129B2748B7
:10107000CCF80C3004F0D8FD80F31009244B254A3D
:101080004FEA18459B1AB5EBD30F35D27B1C334082
:1010900004EB830345EA0945DD60D4F80C34BD1C3C
:1010A0009847354004EB85053E400336E86014F868
:1010B000263068F3C50304F8263034F826300522BC
:1010C00062F3891324F8263054F826206BF39F220C
:1010D0001346012161F301036FF3820344F82620D4
:1010E00004F8263094F820341BB1FFF729FB0028C0
:1010F000FBD107B0BDE8F08F074940F2A91004F01A
:10110000EFFCC3E7394686E7A4030020C0070020B0
:1011100010330100983201003013010030B4144D37
:10112000D5F81044002154B1237A8B4213D02346C2
:1011300002E01A7A8A420ED05B68002BF9D1017264
:10114000D5F810347BB15B684360D5F81034586033
:10115000084630BC704701310A29E4D14FF0FF3115
:10116000084630BC7047C5F810044360F0E700BF84
:10117000A403002038B5084BD3F81044012583F8A8
:1011800020543CB12368657220465B6898476468C8
:10119000002CF7D138BD00BFA4030020F0B5C388F0
:1011A00085B004460D46002B46D1217A05294DD045
:1011B000637A002B4CD12C4B2C492D4A1E680868B1
:1011C0002168B1FBF0F0B0FBF6F1A2FB01324FF465
:1011D000616ED70A274B0EFB1717A3FB07E306FB2D
:1011E00011015B094FF47A70C3EB031E00FB01F1A0
:1011F000A7EB8E07B1FBF6FE06FB1E1100FB01F10B
:10120000CDF804E0B1FBF6F62846D20A00971A4959
:10121000029605F06BFB194B227AA08853F8224006
:101220000021FFF74BFA164903462246284605B02F
:10123000BDE8F04005F05ABB124A00921249134A29
:10124000284605F053FB217A0529B1D105B0F0BD40
:10125000A088FFF75FFA0E4B0E4953F8202028466E
:1012600005F044FBA7E700BFC8070020CC0700201B
:10127000C5B3A29189888888281401005014010000
:10128000441401001C14010004140100FC130100AB
:10129000C8130100241401002DE9F04385B01D4658
:1012A0000C9C002381460E46174694F80C8023734D
:1012B00021462846FFF772FF062F0FD8DFE807F018
:1012C00034393F46044F2500F168B06896E80C00B9
:1012D000019100904946204605F008FB2B7A052B2A
:1012E00005D06B7A5BB92449204605F0FFFA204609
:1012F00005F0E8FA84F80C8005B0BDE8F0831F4AD9
:101300001F49204605F0F2FAEDE77069316996E869
:101310000C000390B068F76802918DE8810049469F
:10132000204605F0E3FAD9E74946204605F0DEFA03
:10133000D4E732684946204605F0D8FACEE7494658
:1013400096E80C00204605F0D1FAC7E7B16896E8A8
:101350000C0020460091494605F0C8FABEE7B06887
:10136000F768316996E80C0002918DE881004946E2
:10137000204605F0BBFAB1E7082E01001C1401005D
:1013800024140100082900D970472DE9F04F1D46AB
:1013900083B000241B7B2C7307460E46104629465B
:1013A00091460193FFF7FAFEDFF8B8A0DFF8B880A6
:1013B000A642414628463ED93A5D013405F096FAE8
:1013C000082CF5D12349DFF8A480DFF8A4A0284633
:1013D00005F08CFA002411E017F804B00FF05CF867
:1013E00058445146437813F0970F14BF5A462E22A3
:1013F0002846013405F07AFA082C08D0A642414666
:101400002846E9D8013405F071FA082CF6D199F88C
:101410000830052B02D099F80930A3B90E492846A7
:1014200005F064FA284605F04DFA9DF804302B7358
:1014300003B0BDE8F08F01345146284605F056FA56
:10144000082CB5D1BEE7054A0549284605F04EFAF5
:10145000E4E700BFF4130100082E01001C14010092
:101460002414010030310100EC1301004C14010080
:10147000F8130100074A0849012390420B6005D97F
:10148000400890424FEA4303FAD80B60034B1860C0
:10149000704700BF40420F00CC070020C807002063
:1014A000022810B5044603D90E493A2004F018FB6F
:1014B0000D4B1C5D2F2C234604D81F2C07D84FF052
:1014C000A04207E0094940F2C71004F009FB084AAE
:1014D00004F01F03D2F80405D840C04300F0010017
:1014E00010BD00BFB414010048150100FC14010038
:1014F00000030050022810B5044603D90F494120CB
:1015000004F0EEFA0E4B1C5D2F2C224608D81F2C3F
:101510000BD84FF0A04101239340C1F80C3510BD0A
:10152000084940F2C71004F0DBFA04F01F02064934
:1015300001239340C1F80C3510BD00BFB414010065
:1015400048150100FC14010000030050022810B5EA
:10155000044603D90F49472004F0C2FA0E4B1C5D24
:101560002F2C224608D81F2C0BD84FF0A041012366
:101570009340C1F8083510BD084940F2C71004F087
:10158000AFFA04F01F02064901239340C1F8083561
:1015900010BD00BFB414010048150100FC14010087
:1015A000000300504FF0A0434FF480004FF40001BF
:1015B0004FF08072C3F80805C3F80815C3F8082572
:1015C000704700BF4FF0A0434FF480004FF400017C
:1015D0004FF08072C3F80C05C3F80C15C3F80C2546
:1015E000704700BF022810B5044603D910495F2098
:1015F00004F076FA0F4B1C5D2F2C204604D81F2CCC
:1016000007D84FF0A04107E00B4940F2C71004F0A3
:1016100067FA0A4904F01F00D1F80435012282401C
:1016200022EA03001340C1F80805C1F80C3510BDCB
:10163000B414010048150100FC140100000300501F
:10164000203818BF4FF0FF30704700BFC10706D4E5
:10165000830742BF114B0C22C3F8002770474FF09D
:10166000A043032230B44FF08071C3F858274FF4E1
:101670008005C3F85C274FF40004C3F86027820795
:10168000C3F80855C3F80845C3F8081503D5034B3C
:101690000C22C3F8002730BC704700BF0003005085
:1016A000434B1978002900F081802DE9F04F8C46DA
:1016B00087B00024012503E00134E4B2644560D220
:1016C0003C4B27B21E6816F837E0AEF1200305FA4E
:1016D00003F9394BCEF12001D3E9002325FA01F1BA
:1016E00049EA010905FA0EF808EA020009EA0301CD
:1016F000014306EBC70BDFD02F4922EA080223EA99
:1017000009037046C1E9002308F01AFF16F837E014
:10171000AEF1200205FA02F201920199CEF1200306
:10172000C6B225FA03F3AEF12002194306FA02F31A
:101730000393224B0191D3E90023CDE9042305FA59
:101740000EF30093CEF12001039B26FA01F10B4327
:10175000039306FA0EF30293DDE90467DDE9002343
:1017600016401F4032463B46DDE90267BB4208BFD8
:10177000B24209D00E4B013493F800C0E4B2644584
:101780009ED307B0BDE8F08FDBF80430002BF1D01A
:101790009BF80110A1F10101B1FA81F14909091A7F
:1017A000B1FA81F1490970469847E3E7704700BFF5
:1017B000D00700200808002000080020F8070020BB
:1017C0002DE9F8430646204800F056FCD0B91F4FDB
:1017D0000123A6F1200103FA01F5C6F12002D7E9A1
:1017E000000123FA02F2154303FA06F404EA0002A8
:1017F00005EA0103134307D020EA040421EA0505A2
:10180000C7E90045BDE8F883304608F099FE104E60
:10181000D6E9008998B148EA040849EA0509D7E9F8
:10182000002314431D43C6E90089C7E90045094B5D
:10183000054819680022BDE8F84300F0CDBB28EA4E
:10184000040829EA0509EAE7D80700200008002073
:10185000F8070020D4070020042A01D80720704789
:101860002DE9F04182B00F460546164608F0B4FC5B
:10187000002834D01C4C1D4A1D4B1E481E492560B3
:1018800017707C1E00221E600023C0E90023C1E9FE
:101890000023E4B2EFB1DFF86C800027032601E0FB
:1018A000FF2C16D023B205EBC30215F83300937852
:1018B0008DF80670424601A98DF804608DF8053058
:1018C00008F094FC013CE4B20028E9D002B0BDE885
:1018D000F0810A4A0A48002100F06CFBF6E708F0A4
:1018E00029FC0028C6D0F1E708080020D007002016
:1018F000D4070020F807002000080020A1160000EF
:10190000A4150100C117000070B50C4E33687BB1FF
:101910000B4D2B7853B100243368012113F83400A8
:1019200008F072FD2B780134A342F5D8002070BD79
:101930000449BA2004F0D4F8EAE700BF0808002000
:10194000D00700204C15010030B482B001248DF87E
:101950000740154B9DF80750186044F20104A0425F
:1019600059609A6014D044F20201884208D072B6DD
:101970009DF80730002BFBD162B602B030BC704737
:10198000DA60DA6812889A61DA685268DA61EEE73A
:101990001A611A6992685A611A6912689A611A6919
:1019A0005268DA61E3E700BF0C08002000B583B09D
:1019B00002900091019244F2010071466A4600F0E3
:1019C00003F803B000BD00BF2DE9F043044685B025
:1019D0000E46154672B6FFF7CDFBFEF7B1FE0028A6
:1019E000FBD144F201039C4224D044F202039C4206
:1019F00015D0204B20491888000440F001003246E1
:101A0000FFF768F81D4B1B68DB0700D500BE2A46B0
:101A10003146204605B0BDE8F043FFF795BF154AB3
:101A20002B88108816496A68000440F00100FFF70F
:101A3000E5F8E7E7D5F80890DFF838804846B8F8C9
:101A4000007005F0B5FB2B68019302963F046B68AC
:101A5000009347F0010703464A4638460949FFF715
:101A6000A9FAB8F800000849000440F00100FEF7A8
:101A7000A5FFC7E75002002000160100F0ED00E0CE
:101A8000A8150100C4150100EC150100F8B5204AA5
:101A9000204B0025C2F84051C2F84451C2F84851C9
:101AA000C2F84C51C2F80051C2F804511B6813B37C
:101AB0001949D2F804450A68A41A1A6824F07F4428
:101AC000A2422F4609D8197CDE69A41A154499B997
:101AD0001EB133461A68A242F5D91049104A0B7854
:101AE00012789A420DD00F490F4A41F823504FF413
:101AF0008013C2F80031F8BD1F745A699869904785
:101B0000E6E7531CDBB2022B08BF00230B70EAE7A9
:101B1000001001404C090020480900204509002020
:101B2000440900203C09002000E100E02DE9F04FCD
:101B3000B74AB84913780978994285B033D0013350
:101B4000DBB2022B08BF0023B3481370B34A076807
:101B5000DFF8E08252F82320D8F80010BB180024E8
:101B600023F07F43036025462046A646A9B10B68B3
:101B7000934200F27D81CC68C1F800E0D21A18448B
:101B8000CB6934B13E1826F07F46CD618C604E6043
:101B90000D46194601240029E9D1002C40F0A58109
:101BA0004FF0010B05E0DFF88C820025D8F800101B
:101BB000AB469B4B9B4FDFF8809243F001030093B1
:101BC0000E464FF0000A002D2DD0D5F804E0D5F8D0
:101BD00008C02C46ED69904B93481B68AEEB03029E
:101BE00022F07F42824255D802EB0C032360002290
:101BF00001206260A260E2612074002E6BD0306828
:101C0000834261D9B64603E0106898424CD29646AA
:101C1000DEF81C201B1A002AF6D12360E261CEF800
:101C20001C40002DD1D197F801C097F800E0F44591
:101C300071D0734603EB43030EF10100BA7807EB52
:101C4000C3035FFA80FE7245187987F800E004BF8D
:101C50004FF0000E87F800E002289A684CD0032865
:101C60003DD00128E3D1107C0028E0D1D3F80CE06E
:101C7000C2F804E0D3F810C0C2F808C014465A698C
:101C8000E26099F800209B69A361002AA3D06060FC
:101C90008646A0E7A3EB0E0323F07F4363450AD2F9
:101CA000ACEB03032360A2E7C01A10602360E2617B
:101CB000CEF81C40B5E70023012223606360A360D7
:101CC000E36122743EB13068C8F80040C31A336043
:101CD000E661264677E7C8F80040264673E7002EFF
:101CE000A5D0002200E01E46F3693274002BFAD121
:101CF000C8F800301E4696E74EB1B242344603D1D2
:101D0000BDE09A4260D01C46E369002BF9D1002364
:101D10001374F4458DD1BAF1000F02D18E4200F058
:101D20009D80002E00F0C5803B4B404A1C68D2F8D5
:101D30000475DFF80881D6F800A098F800103B1B66
:101D400023F07F43DD1CA9B93949354B4FF480306E
:101D5000C2F844030126C2F804034FF40030C1F86E
:101D6000800143F00103086016604FF43C6098471F
:101D700088F80060AA452CBF04EB0A0363192B49BD
:101D800023F07F43C1F84035D1F80425D21BDB1B7B
:101D900022F07F4223F07F4303329A420ED9204B38
:101DA000D1F80425C1F8402543F001034FF43C600D
:101DB00098471F4B4FF40032C3F80021002389F8E5
:101DC000003005B0BDE8F08FA24239D0D2F81CE057
:101DD0001368C4F81CE0BEF1000F11D03046DEF8E5
:101DE00000402344CEF80030864209D0002397F803
:101DF00000E097F801C0137406464FF0010A88E727
:101E0000002397F800E097F801C0137481E700BF42
:101E10004409002045090020480900203C09002011
:101E2000201601002C080020FEFF7F00001001405A
:101E300000E100E04C0900203809002039090020A9
:101E40001346F069C8F80000D8B1D3F81CE01B684D
:101E5000C4F81CE0BEF1000FC1D1C5E7BBF1000F13
:101E60007FF45FAF002389F8003005B0BDE8F08F44
:101E7000002C3DD19B1A0B604FF0010B99E63346C5
:101E8000DFE701931C4BDFF87CC003924FF0010E9B
:101E90000291C3F808E0009BCCF8000089F800E04C
:101EA0004FF43C609847D8F80000019B0299039AD0
:101EB000CBE7114D114A124C4FF480334FF40031EF
:101EC0000127C2F880103C43C5F848334FF43C600A
:101ED000C5F808336F60A0470A4BAF604FF43C6011
:101EE0001E60A047084B1E7068E7C8F8001057E650
:101EF000C8F80010BEE700BF0010014000E100E09C
:101F00002016010048090020390900202DE9F84376
:101F10001F4D204E204FDFF898804FF480334FF450
:101F200000324FF001090024C6F8802047EA090773
:101F3000C5F848334FF43C60C5F80833C5F8049041
:101F4000B847C5F808904FF43C60C8F80040B8475F
:101F5000124B13481349144A1C70144B04600C7044
:101F600014704FF48011E0220B2098701C705C708C
:101F7000C6F8801186F814233160C5F8084586F844
:101F80001123D5F80435C8F800302046BDE8F883A1
:101F90000010014000E100E0201601003909002096
:101FA0004C09002044090020450900202C0800208D
:101FB00048090020074B9B780BB9082070473AB1BD
:101FC00030B10368187C0028F7D159745A61704702
:101FD000072070472C0800202DE9F041234CA378FE
:101FE00013B90820BDE8F0810028FAD0042902D8EE
:101FF0000720BDE8F0814369002BF2D0437C054601
:10200000012B4FF000000CBF8846804617460E4655
:1020100003F04CFC6378A07821785A1CD2B290422D
:1020200008BF002291421AD003EB430304EBC30321
:1020300001200F499D601871D1F80415D9601E6107
:10204000C3F814809F610020627003F049FC094BC3
:102050004FF48012C3F800210020BDE8F081002079
:1020600003F03EFC0420BDE8F08100BF2C080020F6
:102070000010014000E100E070B5184DAB780BB9DD
:10208000082070BD0028FBD04369002BF8D0002445
:1020900004740646204603F009FC6A78A87829787B
:1020A000531CDBB2984208BF2346994211D002EB81
:1020B000420205EBC20202212046966011716B704C
:1020C00003F00EFC064B4FF48012C3F800212046AB
:1020D00070BD204603F004FC042070BD2C080020D5
:1020E00000E100E030B50446007883B0B8B91F4D78
:1020F00003F0DCFB2B6813B91D4B62881A800121A9
:102100001A4803F0B9FD002003F0EAFB194B1B68E5
:1021100013B12046012198472B6803B030BD01A9B7
:10212000154803F003FD05460028F6D02368036038
:10213000002003F0BBFB0E4B0C481B8802680133E8
:102140009B1AEB80002103F06FFDA880002003F0B4
:10215000C7FB01A9084803F017FD064B1B68002BBD
:10216000DBD001462046984703B030BD0C0B002061
:10217000F0090020540900202800002030B583B069
:1021800020B1154940F24D2003F0AAFC01A91348E3
:1021900003F0CCFC0446E8B1114D28682060002013
:1021A00003F084FB0F4B10481B88026801339B1A15
:1021B000E380002103F038FDA080002003F090FBB5
:1021C00001A9064803F0E0FC084B1B6813B1014667
:1021D0002846984703B030BD301601002800002083
:1021E00094160100F00900200C0B00205409002077
:1021F00030B5012883B02FD037D3022825D101A9CB
:102200001E4803F093FC044620B31D4D286820604F
:10221000002003F04BFB1B4B1B481B88026801335B
:102220009B1AE380002103F0FFFCA080002003F054
:1022300057FB01A9114803F0A7FC144B1B684BB1D5
:1022400001462846984703B030BD11494FF40D7040
:1022500003F046FC03B030BD01A9084803F066FC5A
:1022600004460028F6D00B4DD0E701A9034803F03F
:102270005DFC04460028EDD0074DC7E7280000208C
:1022800090160100F00900200C0B002054090020DA
:10229000301601008C160100881601002DE9F04F60
:1022A00087B006AE00250446894692469B4646F80E
:1022B000105DA84601E008F1010862680123556835
:1022C000214600223046A8470028F4D18DF80600A8
:1022D0000490B8F1000F28D0054606466268012335
:1022E000576821460DF1060204A8B8476268012329
:1022F000576821460DF1070204A8B8479DF807303A
:102300004B454FF00002214604A803D1AA4510D046
:102310000135EDB29DF806306768023B7F68B8472B
:102320009DF806301E44B045D8D8052007B0BDE85A
:10233000F08F109A9DF8063013608BF800308BF800
:1023400001906168023B4D680BF102022146A847EB
:10235000002007B0BDE8F08F014B1888704700BF20
:10236000FC0A00202DE9F04F85B0054604F076FF09
:1023700060B108234FF484725449554803F0BEFB02
:1023800050B10324204605B0BDE8F08F514940F21A
:10239000FE2003F0A5FBECE74F4806F089F8044661
:1023A0000028EFD14D4A4E4B4E4E14702146482224
:1023B0004D4834601C600EF0A9F8214648224B4875
:1023C0000EF0A4F8002D6ED095E80700484B83E886
:1023D0000700002005F00CF800285CD1454DDFF81F
:1023E0000CB12B7AD5F804A03A4F019305F10904FA
:1023F00000261A46F3B293423AD2002C38D06178C4
:1024000091B3A378E31818BF4FF0010913D12BE063
:10241000B8F1080F21D80BEBC8031D60DAF80000F3
:102420005860894509F10103D8B21DD2A3784B4405
:10243000E31819D081461878030600F00F08E7D595
:10244000B8F1080F05D9394640F2871003F048FB70
:102450006178254B03EBC803DFE7394640F28D1066
:1024600003F03EFB6178D6E701360334019AC1E7F9
:102470000B238DF80C30BAF1000F21D0DAF80030C0
:10248000B3B11C4803A99847044600283FF47AAF2B
:1024900006F0ACF876E78528A0D00E4A4FF44B71D1
:1024A000FFF784FA9AE7124B1D605D601D7290E79A
:1024B000084940F2091003F013FBDAF80030E0E7B6
:1024C00004494FF4847003F00BFBD7E7F4090020B4
:1024D0002800002030160100E5200000100B00202D
:1024E000040B0020000B002060090020A809002038
:1024F00054090020CC16010010B506F0BBF908B94C
:10250000082010BD06F0BEF904460028F8D10648A0
:1025100004F07EFF00B910BD044A40F28631FFF797
:1025200045FA204610BD00BF841601003016010098
:1025300006F06CB808B506F0AFF920B1044940F2D6
:10254000953003F0CDFABDE8084007F07DB900BF33
:102550003016010030B583B006F094F9002830D071
:102560004FF0804303E0D3F83824D10727D5D3F8C0
:1025700038249207F7D501A9154803F0D7FA044685
:10258000E8B1144D28682060002003F08FF9124B49
:1025900012481B88026801339B1AE380002103F074
:1025A00043FBA080002003F09BF901A9084803F039
:1025B000EBFA0B4B1B6813B101462846984703B052
:1025C00030BD08494FF4677003F08AFAC8E700BFCE
:1025D0002800002098160100F00900200C0B0020B4
:1025E000540900203016010010B582B0822301A9E1
:1025F00012488DF8003003F099FAE8B104460098CB
:102600002060002003F052F90D4B0E481B88026831
:1026100001339B1AE380002103F006FBA080002019
:1026200003F05EF901A9054803F0AEFA064B1B68FA
:1026300013B101466846984702B010BD280000203B
:10264000F00900200C0B0020540900202DE9F04F68
:10265000824685B0002800F0E080DAF80430002BD4
:1026600000F0CD801B68002B00F0D180DAF800303C
:102670001B6823B178494FF4A36003F031FA06F0E8
:1026800001F9002841D106F0F5F800283DD09AF86C
:102690000820DFF8D0B1704FDFF8C08100240AF1C4
:1026A0000903661C94420193F6B241D224B2019B05
:1026B00004EB44041C193CD0002507E0B9F1080FD5
:1026C00029D80BEBC90301351B68D3B96278EBB28B
:1026D0009A4226D9A2781344DC4222D0E25C02F06E
:1026E0000F091206EAD5B9F1080F04D9394640F2AC
:1026F000871003F0F5F908EBC90301351B68002BBF
:10270000E4D0112005B0BDE8F08F534940F21C50D1
:1027100003F0E6F9BBE7394640F28D1003F0E0F92B
:10272000CFE79AF808203446661C9442F6B2BDD32F
:1027300000240AF10903DFF82C91474D474E01931D
:102740005FFA84F8904542D2019B08EB480813EBEE
:1027500008083CD098F80130BBB398F8023018EB69
:10276000030318BF4FF0010B18D12EE0082F24D817
:1027700009EBC703C3F800A0DAF8042012685A6016
:1027800098F801100BF101035945DAB21BD998F8FA
:1027900002305B4418EB030315D093461A781306F6
:1027A00002F00F07E2D5082F04D9294640F287101E
:1027B00003F096F906EBC703DCE7294640F28D10DB
:1027C00003F08EF9D4E79AF808200134B8E7244CD6
:1027D000236833B1204D9A4525D01C682368002B0F
:1027E000F9D1C4F800A0DAF804300B228DF80C20DF
:1027F0004BB31B68F3B1504603A9984782E71649CB
:1028000040F2165003F06CF9DAF804302AE7124966
:1028100040F2175003F064F928E70F4940F21550D1
:1028200003F05EF919E7294640F2425003F058F9E7
:102830002368D2E7084940F2091003F051F9DAF8A9
:1028400004301B68D7E704494FF4847003F048F95B
:10285000DAF80430CDE700BF30160100600900202F
:10286000000B0020A8090020024B1878003018BF88
:1028700001207047080B0020014B1868704700BF0B
:10288000000B002070B4114B1E68A6B1357A75B1EB
:10289000737A834206F1090210D0002303E012F894
:1028A000034F84420BD00133DBB29D42F7D1336832
:1028B0001E68002EEAD1304670BC70470023002904
:1028C000F9D030460B7070BC704700BF000B002081
:1028D00070B515460446A0B16368C3B11B6823B147
:1028E00029462046BDE8704018470C4940F20910BF
:1028F00003F0F6F86368294620461B68BDE870407F
:102900001847064940F2071003F0EAF8E4E70349E4
:102910004FF4847003F0E4F86368DFE730160100D9
:1029200000F00F03082B01D910207047020670B584
:102930004CBF104A104A02EBC3031D684DB16B68CF
:102940000C4683B11B6833B121462846BDE8704070
:102950001847102070BD094940F2091003F0C0F873
:102960006B681B68F0E705494FF4847003F0B8F812
:102970006B68E7E760090020A80900203016010015
:1029800070B5144B1C681CB30546134E07E029466E
:1029900020469847062813D123681C68C4B1636891
:1029A0007BB11B68002BF2D1314640F2091003F0D5
:1029B00097F8636829461B68204698470628EBD09D
:1029C00070BD31464FF4847003F08AF86368E8E71D
:1029D000062070BD000B00203016010038B50D46F2
:1029E000044605F0CFFF08B9082038BD044B1B781A
:1029F000022BF9D129462046BDE8384005F0E4BF56
:102A0000100B002038B50D46044605F0BBFF08B991
:102A1000082038BD044B1B78022BF9D129462046EB
:102A2000BDE8384006F096B8100B0020F8B54368B2
:102A30009B6804460E4615461BB19847062800D0F1
:102A4000F8BD237AB34202D33DB10720F8BD18493F
:102A500040F2C62003F044F8F6E7237AB34222D9C5
:102A6000093406EB460634446778F7B12B463A46FC
:102A700014E0A3786219D65C06F00F03072B05D883
:102A8000304606F083F9304606F030F9304601351D
:102A900006F0DEFCEBB29F4207D962789A42E8D892
:102AA00000231B78FFDE6B78FFDE0020F8BD00BF3F
:102AB0003016010043681B6903B118471846704778
:102AC0002DE9F84F334BD3F80080B8F1000F5FD0F9
:102AD000DFF8C4B098F808A0BAF1000F47D000277B
:102AE0003C4608F1090511E000222146404698477E
:102AF000062810D020B1594640F2D16002F0F0FF14
:102B00000137FCB2A24505F1030530D9D8F80430ED
:102B10009B68002BE8D198F80830A34230D3A34239
:102B200022D995F80190B9F1000FE9D0002423468D
:102B30004A4614E0AB782A19D65C06F00F03072B3F
:102B400005D8304606F022F9304606F0CFF8304678
:102B5000013406F07DFCE3B29945D1D96A789A42F6
:102B6000E8D800231B78FFDE00235B78FFDED8F86F
:102B70000030D3F80080B8F1000FABD1BDE8F88F7A
:102B8000594640F2C62002F0ABFF98F80830C6E77D
:102B9000BDE8F88F000B0020301601002DE9F0474A
:102BA000244B1F68002F43D0DFF88CA097F80890C3
:102BB000B9F1000F2CD04FF00008444607F1090589
:102BC0007B68DB6813B12146384698473B7AA342BD
:102BD00027D3A34222D96E7896B1002423463246E9
:102BE00009E0AB782A190134D05C06F0BBFFE3B2F0
:102BF0009E4205D96A789342F3D300231B78FFDE07
:102C000008F101085FFA88F4A14505F10305D7D85A
:102C10003B681F68002FC9D1BDE8F08700235B78AF
:102C2000FFDE514640F2E52002F05AFF3B7AD0E742
:102C3000BDE8F087000B0020301601002DE9F041BF
:102C40008B4D2B680446002B00F0F18202F062FEEF
:102C5000062840F28B802378842B00F2E182DFE8A3
:102C600013F01002B70185023502BB028B009200FF
:102C7000DF02B700D900FB00DF02DF02DF02DF0264
:102C80003601DF02DF02DF02DF02DF02DF02DF02E6
:102C9000DF02DF02DF02DF02DF02DF02DF02DF022C
:102CA000DF02DF02DF02DF02DF02DF02DF02DF021C
:102CB000DF02DF02DF02DF02DF02DF02DF02DF020C
:102CC000DF02DF02DF02DF02DF02DF02DF02DF02FC
:102CD000DF02DF02DF02DF02DF02DF02DF02DF02EC
:102CE000DF02DF02DF02DF02DF02DF02DF02DF02DC
:102CF000DF02DF02DF02DF02DF02DF02DF02DF02CC
:102D0000DF02DF02DF02DF02DF02DF02DF02DF02BB
:102D1000DF02DF02DF02DF02DF02DF02DF02DF02AB
:102D2000DF02DF02DF02DF02DF02DF02DF02DF029B
:102D3000DF02DF02DF02DF02DF02DF02DF02DF028B
:102D4000DF02DF02DF02DF02DF02DF02DF02DF027B
:102D5000DF02DF02DF02DF02DF02DF02DF02DF026B
:102D6000DF02260157017A01B001F30141494FF416
:102D70007C7002F0B5FE6EE73F4B214693E80500FC
:102D8000BDE8F0411047A5782B0605F00F0600F1CD
:102D9000A382082E00F24183374D05EBC6052B6850
:102DA000002B00F07F836B68002B00F07483286891
:102DB00021469847002800F00981A07800F00F0311
:102DC000013B062B00F20281BDE8F04105F06ABF2D
:102DD0002A4B5B680BB1082098472D68002D00F046
:102DE000F580244E07E02846214698472B681D6849
:102DF000002D00F05B826B68002B00F0E8821B68FE
:102E0000002BF0D1314640F2091002F069FE6B68E8
:102E10001B68E8E7194B5B680BB1092098472D68E0
:102E2000002D00F0D380134E07E028462146984736
:102E30002B681D68002D00F03B826B68002B00F0B2
:102E4000B1821B68002BF0D1314640F2091002F02C
:102E500047FE6B681B68E8E7084B5B680BB10A200C
:102E600098472D68002D00F0B180024E10E000BFA1
:102E7000000B002030160100A80900205409002092
:102E80002846214698472B681D68002D00F01282C5
:102E90006B68002B00F08D821B68002BF0D131464F
:102EA00040F2091002F01CFE6B681B68E8E7A54CB5
:102EB0002378062B00F02482072B02D0052B40F04C
:102EC000858005F039FD02232370BDE8F0819E4B1B
:102ED0005B680BB10F2098472D68002D76D09B4E74
:102EE00007E02846214698472B681D68002D00F012
:102EF000E3816B68002B00F047821B68002BF0D148
:102F0000314640F2091002F0EBFD6B681B68E8E700
:102F10008F4B904993E8050090472C68002C00F0F7
:102F2000A5818A4E8B4D07E02046294698472368A5
:102F30001C68002C00F09A816368002B00F01D8251
:102F40001B68002BF0D1314640F2091002F0C8FD99
:102F500063681B68E8E77B4EFFF720FE06F00CFB7A
:102F60003278931EDBB2062B05D87B49CB5C13B1BC
:102F700004F018FA3278022A00F0BF81082A00F023
:102F8000BC812C6800233370002C00F0D9816F4F76
:102F9000724D07E020462946984723681C68002C9C
:102FA00000F0CE816368002B00F026821B68002BA6
:102FB000F0D1394640F2091002F092FD63681B68B7
:102FC000E8E7604E3378032B00F0A081BDE8F08184
:102FD0005C4EFFF7E3FD3278931EDBB2062B00F266
:102FE0006D815D49CB5C002B00F06881022A03D023
:102FF000082A01D005F0A0FC534B5B680222327016
:103000000BB101209847524B214693E805009047A9
:103010002D68002DDAD04D4E07E02846214698470E
:103020002B681D68002D00F0A4816B68002B00F058
:10303000EA811B68002BF0D1314640F2091002F002
:103040004FFD6B681B68E8E73E4E3378032B00F0BA
:103050000B8205F031FC0028B8D03278931EDBB229
:10306000062B40F2FB813E4804F05AF93278022ADE
:1030700000F0D981082A00F0D68106233370BDE81C
:10308000F081314B374A5B68618811800BB10020B9
:103090009847354B1D68002D98D02C4E07E02846E8
:1030A000214698472B685D68002D00F0FD806B6815
:1030B000002B00F070811B68002BF0D1314640F2EC
:1030C000091002F00DFD6B681B68E8E71D4E3278B1
:1030D000931EDBB2062B00F2F6801F49CB5C002B5F
:1030E00000F0F180022A00F09581082A00F0928118
:1030F000154B5B68052232700BB103209847144BC7
:10310000214693E8050090472D68002D3FF45EAFFF
:103110000E4E07E02846214698472B681D68002D73
:1031200000F029816B68002B00F058811B68002B90
:10313000F0D1314640F2091002F0D2FC6B681B68F6
:10314000E8E700BF100B00205409002030160100F2
:10315000A80900209C16010028160100A0160100F5
:1031600020000020FC0A0020040B0020AF4E327823
:10317000931EDBB2062B05D8AD49CB5C13B104F02E
:1031800011F93278022A00F0B580082A00F0B280E6
:10319000A84B5B68032232700BB1022098472D6860
:1031A000002D3FF4E9ADA44E07E02846214698479C
:1031B0002B681D68002D3FF4DFAD6B68002B00F01D
:1031C00014811B68002BF0D1314640F2091002F047
:1031D00087FC6B681B68E8E7964B5B680BB10320C4
:1031E0009847964B964993E8050090472C6824B37E
:1031F000914E934D05E020462946984723681C6868
:10320000DCB16368002B00F0DB801B68002BF2D17F
:10321000314640F2091002F063FC63681B68EAE77C
:10322000854940F2D140BDE8F04102F059BC8249E5
:1032300040F2E93002F054FC08E57C4E3378062B6E
:1032400046D0082B0ED09A1ED2B2062A40F2008138
:103250007C4804F065F83378022B03D0082B01D0AA
:1032600005F06AFB02233370BDE8F081714B5B68A7
:103270000BB10D2098476D4E012005F0A7FAFFF71E
:103280008DFC3278931EDBB2062B05D86849CB5CE7
:1032900013B104F087F83278022A28D0082A26D001
:1032A00001233370BDE8F081BDE8F081BDE8F08115
:1032B000BDE8F081BDE8F081BDE8F081614804F02F
:1032C0002FF8327892E65F4804F02AF8327809E75E
:1032D00007233370BDE8F081082E04D9564940F227
:1032E000871002F0FDFB584D05EBC60557E505F0CC
:1032F00019FBD5E705F016FB4AE705F013FB40E69E
:1033000005F01AFB08232370BDE8F08106F06AFB84
:1033100000283FF45BAE3278931EDBB2062B05D853
:103320004349CB5C13B104F03DF83278022A00F037
:10333000BF80082A00F0BC8004233370BDE8F08110
:103340003E4B424993E8050090473A4B5B680BB10E
:103350000E2098473378023BDBB2062B3FF636AEA1
:10336000334AD35C002B3FF431AEBDE8F04104F0AA
:1033700019B8BDE8F081BDE8F08131464FF48470A2
:1033800002F0AEFB6368DBE531464FF4847002F077
:10339000A7FB6B68B1E531464FF4847002F0A0FBE7
:1033A0006B6888E631464FF4847002F099FB6B68D5
:1033B00047E531464FF4847002F092FB6B686BE591
:1033C00031464FF4847002F08BFB63681DE7314691
:1033D0004FF4847002F084FB6B6810E531464FF4C3
:1033E000847002F07DFB6B68A0E631464FF4847078
:1033F00002F076FB6B68E4E639464FF4847002F025
:103400006FFB6368D2E531464FF4847002F068FBCD
:103410006B680EE605F086FA6AE6074940F28D1001
:1034200002F05EFBB8E405F07DFA26E6100B002002
:10343000281601005409002030160100A8090020B8
:10344000A41601002000002060090020A016010041
:103450001A498A5C002A7FF4FFAEF9E61749CB5C73
:10346000002B7FF404AEFEE506F0BCFA00283FF422
:10347000F0AD3278931EDBB2062B05D80F49CB5C3A
:1034800013B103F08FFF3278022A14D0082A12D029
:1034900004233370DDE50A4940F2AE4002F020FB20
:1034A0006B6884E4064940F2AD4002F019FB7AE40F
:1034B00005F038FA40E705F035FAE9E7281601008B
:1034C0003016010030B5274D83B0286800230193E2
:1034D00000B38488A4B1C388B3F5006F3ABF5A1C07
:1034E00092B2012204F1FF3428BF00238480C280FD
:1034F00001A8ADF80630FFF7A1FB012003B030BDF5
:10350000FFF79CFB1849194802F07EFB01202C6054
:1035100003B030BD1449154802F046FB044628604C
:103520000028D6D1124B1B680BB91846E6E702F00B
:10353000BDF9104A0E481388B3F5006F35BF5C1C07
:103540002346A4B2012401211480ADF8063002F014
:10355000AFFB002002F0C4F901A8FFF76FFB0120C8
:10356000CCE700BF140B00205009002028000020E9
:103570000C0B0020F0090020002070472DE9F04FCF
:1035800087B04B6803900C460292002B00F09580A8
:10359000029B402B7BD805F057FBE668029B9E42BE
:1035A00028BF1E468246002E00F097804FF000088C
:1035B0004746C1464FF0010BCDF80480A36861680F
:1035C000B342984628BFB04601B342460AEB070013
:1035D0000CF091FFA268E368C4F80490A2EB080223
:1035E000A3EB0803A6EB08064744A260E3607AB1A8
:1035F000002B2BD0A3689BB1002EDFD1039AC2F819
:1036000000A05760584607B0BDE8F08F13BBE368D1
:10361000019A002A33D11BB99346002ECED1EDE793
:103620002168002940D0CDF8109003E0A3682168FC
:103630000133A3604B6800225D6804A80123A847FA
:103640000028F3D12061002EB8D1D7E79B46002E89
:10365000B4D1D3E72046434650F8101B4A6855685A
:103660000AEB0702A847A268E368A2EB0802A3EBF3
:103670000803A6EB08064744A260E36022B9256868
:103680005DB12A681268226001220192B0E71849F0
:1036900040F2971002F024FA7DE716494FF40670C5
:1036A00002F01EFAE368ECE76160002FA6D0029BEF
:1036B000BB4288BF4FF0000BA0E70D688DB12B68AF
:1036C0001B68002B7FF464AFA368002B7FF460AF0E
:1036D00003999B460B604B6094E737464FF0010B14
:1036E0008CE704494FF4067002F0FAF9E7E700BFEF
:1036F000801701002C17010070B5C38893421D4646
:1037000028BF1546934284B00E461FD800220020E1
:1037100003920196029502F0C9F801A98020FFF7F3
:103720005DF9044628B1002002F0DAF8204604B022
:1037300070BD05F0C1FB802818BF1024F3D1094AE1
:10374000094B92E8030083E80300ECE7802014466D
:1037500005F0FCF8B4FBF0F303FB1042B2FA82F27E
:103760005209D4E714170100400B00202DE9F04F57
:103770000B78013B87B00D2B00F2AB80DFE803F044
:103780001A152BA94058A9A9A9A976078198B44C64
:103790002378012B00F09181B24940F2424002F0BF
:1037A0009FF92378002B40F088810025284607B038
:1037B000BDE8F08FAA4B1A78032A00F08A80AA4944
:1037C000AA480A78032422F002020A701C70062517
:1037D000FFF734FAEAE7A64802F088FA30B1A54BC1
:1037E00001221A60BFF36F8FBFF34F8F9C4B1D7880
:1037F000002DDAD19B4940F2314002F071F9D5E752
:10380000052305460DF10D008DF80C3005F0E4FAA6
:103810009DF80D20984C002102F01F032160032B1E
:1038200000F2AD80DFE813F0D500AF00A2009200F7
:10383000C87803280E464CD08B785A065CD18E4C43
:103840002368002B00F0E88000222260616898471E
:103850000546002840F094802368002B00F0428148
:10386000B378002BA1D105F0DDFA9FE77C4B1B78E4
:10387000002B9AD07B4940F23C4002F031F9002500
:1038800094E74FF08043D3F83854754B15F0010599
:103890001A7823D0022A88D0734974480A780224FF
:1038A00022F002020A701C700025FFF7C7F97DE7BD
:1038B0006B4C2378012B40F20B816B4A6B481378D9
:1038C000012123F00203137021700025FFF7B6F9E0
:1038D0006CE70625284607B0BDE8F08F012A3FF4C3
:1038E00064AF614961480A78012422F002020A703B
:1038F0001C70FFF7A3F959E740F26540594902F0FF
:10390000EFF8F0789BE79DF80E10062900F045814E
:10391000082900F03081C9B9584D022228460CF020
:10392000F5FD514A2B781278960743F0010148BF04
:1039300043F0030329700DF10D0048BF2B700222E4
:103940004E49FFF7D9FE0546062D03D103A8FFF720
:1039500017F80546A5B92568002D00F0D68005F0BA
:10396000ABFA054600287FF420AF7CE79DF81100F4
:10397000050740F0CF8012F0600F00F0DD800625D3
:1039800005F090FA12E701A99DF81100FEF77AFF01
:103990000646002800F0BC8003AA9DF80410FEF73C
:1039A00097FF06280546D5D19DF80D3013F0600F1E
:1039B000E6D12B4A9DF804101278DF099DF80E30ED
:1039C00040F023810B2BDBD1052A00F0D58108259F
:1039D000D6E7002D00F0A880C2F34115002DB5D127
:1039E000D20990D19DF80E30013B082BAED801A230
:1039F00052F823F0813A00004D390000473A0000A8
:103A00004D3900001D3A00004D3900004D390000CD
:103A10004D3900009F3A00000E25B1E7104D2B787C
:103A2000033B022BD3D8FFF7B9F82B78042B92D0A5
:103A30000D4A0E481378042123F0020313702970F5
:103A4000FFF7FCF887E7BDF80F30012B7FF47EAF5E
:103A5000FEF70AFF002840F089810F2590E700BF9C
:103A6000200B0020801701003C0B0020DC16010019
:103A7000480B00205C700240400B00204C0B0020E3
:103A8000BDF80F30012B7FF461AFFEF7EDFE00288B
:103A9000E3D0BF4A137823F0020313705BE7BD4DF8
:103AA0002B78043B012B92D89DF80F30002BBAD015
:103AB000012B00F04F81072562E7B54AB64813781D
:103AC000002523F0020313702570FFF7B7F86DE6A9
:103AD000B24940F2564002F003F82378012B3FF43C
:103AE00064AEEAE6AE4B1B78082B0ED1AD4B1B68DB
:103AF0001B070AD1AC4B1B6813F0F00F05D1AB4B81
:103B00001B6813F0F00F3FF450AE05F0C1F94DE61D
:103B1000102535E703A9FEF703FF062805467FF4C5
:103B200019AF9DF80D2026E79C4940F24F3001F077
:103B3000D7FF9DF80D204FE79DF80E20954B9DF87F
:103B400011501B78012A4AD038D3032A7FF417AFCB
:103B500005F00F02072A3FF612AFBDF80F1000293B
:103B60007FF40DAF052B02D0002A7FF430AF28463A
:103B700005F098F8EFE6874B1B78052B00F0C8801E
:103B8000042B7FF4E3AE8A4B1D700DF10D00012272
:103B90008749FFF7B1FD0546D6E69DF81030022BA8
:103BA00059D0032B46D0012B7FF4D0AE0DF10D0080
:103BB00012228049FFF7A0FD0546C5E6052B02D07D
:103BC00029077FF404AF284605F0B2F878490222AD
:103BD00008800DF10D00FFF78FFD0546BAE605F0F0
:103BE0000F02072A3FF6CBAEBDF80F1000297FF475
:103BF000C6AE052B02D0002A7FF4E9AE284605F0B8
:103C0000C5F8284605F072F8A5E6002B00F0838081
:103C10000A2B7FF4B5AE052A7FF4D9AE3046FEF705
:103C200049FF63493A4608700DF10D00FFF764FD46
:103C300005468FE6BDF811109DF80F0001F022FE39
:103C4000014600283FF482AE0DF10D000A78FFF71F
:103C500053FD054678E6BDF81390B9F1090F28BF6A
:103C60004FF00909FEF708FE0646002800F0AC8078
:103C7000DFF828B14FF0090A7368002B58D05F684D
:103C8000002F3DD000230193984603E073685F68DE
:103C900008F1010801230022314601A8B847002895
:103CA000F4D13268337A16681D44C244EDB2002E56
:103CB000E2D13F4E404930464A460CF01CFC35717B
:103CC000A6F802A0FEF7D0FD18B1F37943F0200367
:103CD000F371FEF7D1FD394BBDF8132018600020B9
:103CE0005E60C3F80890DA6001F0E0FD344980209E
:103CF000FEF788FE054610B3002001F0F1FD23E633
:103D0000594640F2BE2001F0EBFE73685F68B9E7E8
:103D1000274B1A7039E7052A7FF459AE244D0DF16F
:103D20000D0029462B800222FFF7E6FC054611E62E
:103D3000594640F2BD2001F0D3FE73689FE705F0BD
:103D4000BBF8802805BF1F4B93E80300102584E8CB
:103D50000300D1E7FEF7B4FE2B78052B3FF4FBAD53
:103D600005230D482B70FEF769FFF4E5084A137828
:103D700043F002031370EEE5BDF80F30FF2B3FF662
:103D80009AAE30469DF80F20FEF750FE0546E1E55D
:103D90003C0B0020200B0020DC16010080170100E6
:103DA000E00F00F0E40F00F0E80F00F0EC0F00F07F
:103DB0004C0B002000170100E0160100240B00202E
:103DC000D81701001417010005464FF0090A70E7E3
:103DD00008B1402303600148704700BF4C0B00202E
:103DE00038B5044620B90D4940F20F1001F078FEB5
:103DF000257A3DB1A27A012A04F1090309D80023EA
:103E00001B78FFDE05494FF4A17001F069FE6B7865
:103E1000FFDEE27A1344587838BD00BF5C18010019
:103E2000F0B50F4685B00546002844D02C68002C1C
:103E30003BD02E7A96B3AB7A05F1090663B3EB7AE1
:103E400004F127050D2200212846F65C0CF05EFBEC
:103E500004221D4928460CF04EFB042204F10C01FB
:103E600004F12B000CF047FB042204F14C0104F197
:103E70002F000CF040FB0D220023304684F83370F5
:103E800001A9019502920393FEF7A8FD10B908233A
:103E900084F8343005B0F0BD1B78FFDE0B494FF4D9
:103EA000A17001F01DFE7378FFDE0949862001F044
:103EB00017FE2C68BDE70649782001F011FE044981
:103EC000852001F00DFEB1E7541801005C180100D7
:103ED000F41701002DE9F043D04E0D46097A3170F8
:103EE00083B00446002800F05D81216840F2F47040
:103EF000814200F0618140F2A88040F605008142D5
:103F000000F0988140F2E48040F60700814200F022
:103F1000BD80C0F0798140F60800814200F06E81DA
:103F200040F60900814240F0E080002A00F0C6819E
:103F30002779012000215754DFF8F0E2B84F9EF8AE
:103F400000103F780131C9B28EF800108F4200F2A4
:103F5000E780B4490F780137FFB20F703178B9426A
:103F600040F2A78109218342217140F2178200F1BA
:103F7000010E002A00F017822179115473454FF089
:103F80000401217140F29C810EF1010702F80E102C
:103F9000A449287A0978884240F2D08101EB410097
:103FA00005F10901DFF880E211F800C084F804C0CF
:103FB0000144BB42CEF8001040F2D981791C002A9E
:103FC00000F0E0812079D0558B424FF00000207145
:103FD00040F2C38101F1010E934F5054396873458B
:103FE0004878207140F2AF810EF101070821BB42F1
:103FF00002F80E00217140F24881781CD1558342AD
:1040000095F82410217140F2368100F1010E11540F
:10401000734595F82510217140F223810EF10107B7
:104020000020BB4202F80E10207140F215810146BB
:10403000781CD1557C4F7A493F68DFF8F0E17F78F2
:104040000F7000218EF8001080E740F2EF7081427F
:1040500000F0FF80B1F5FE6F53D340F2F170814262
:104060002ED0B1F5FE6F40F2B68040F2F270814280
:1040700000F0AA8040F2F370814236D1002A00F0AD
:104080005B8121794FF0010E0020C0E7002A00F08B
:104090009E81207901274FF0000E0021BB4202F8DB
:1040A0000E00217140F2EC800846791CD0558B42FD
:1040B0004FF00000207140F2D9800746481C3AE7D3
:1040C000002A00F02981207901274FF0000E8DE7AA
:1040D000B1F5006F00F09F8040F60100814200F0D2
:1040E000AD8040F2F570814204D00020206003B022
:1040F000BDE8F083002A00F06C81217901200027BF
:1041000097E740F2E970814274D040F2EA70814250
:1041100069D00029E9D143480F46017008461DE7E0
:1041200007218342217140F2BF80471C002A00F022
:104130002E81217911549F424FF00501217180F0A9
:10414000AE8007F10109D15537483849D0F80080D1
:104150000F78B8F1000F00F02D8198F80110B942E6
:1041600074D998F8021047444B45795C217140F2AC
:10417000F98009F10101002A00F0FE80207902F89F
:1041800009008B424FF00200207140F2E1800746A7
:1041900001F1010E40207345575420717AD90EF178
:1041A00001077AE7224940F2E2708DE80C0001F045
:1041B00097FC9DE80C0098E6002A00F09880217991
:1041C00001274FF0000E2BE7002A00F0978021799D
:1041D0000120002712E7002A00F0A58020794FF087
:1041E000010E0021F8E6002A7FD0217901274FF047
:1041F000000ECBE64FF0010E0020BAE601210027A9
:10420000002A6DD0207951E7002A5ED027794FF03F
:10421000010E0021BEE70127002087E78E0B00205A
:104220008C0B00208D0B0020900B00208F0B0020AA
:10423000F417010001214FF000099CE7002A00F06B
:10424000C38021794FF0010900277CE700231B7808
:10425000FFDE01210027B2E640F2F5732360012062
:1042600045E740F2F4732360012040E740F609037C
:10427000236001203BE740F2F3732360012036E71F
:1042800040F608032360012031E740F2F273236017
:1042900001202CE740F607032360012027E740F6C2
:1042A00001032360012022E74FF400632360012013
:1042B0001DE740F60E032360012018E701203BE6CE
:1042C00040F2EA732360012011E7012140208B4274
:1042D0002071DFD94F1C0020BB422071D0D90231A0
:1042E0008B422271C2D9481C26E6012750E60120E4
:1042F000002183422171AFD901309BE6012095F85E
:10430000241021718342B6D9013095F8251021710E
:104310008342A6D90130EBE70120082183422171B5
:10432000B3D90130EBE701202B4909688342497872
:10433000217108D90130F0E70120E6E7264A002381
:1043400013601B78FFDE40F2F17323600120CEE69C
:1043500040F6060323600120C9E64FF4FE632360A4
:104360000120C4E640F6050323600120BFE640F2C9
:10437000EF7323600120BAE602208B422071E7D957
:104380000131A3E78B422271E7D9481CCCE7052114
:104390009F42217183D207F10109D5E640F2E9730A
:1043A00023600120A3E604217345217188D90EF111
:1043B0000107EDE509494FF4A1708DE80C0001F00B
:1043C0008FFB9DE80C00C8E64FF00109BCE61146E2
:1043D00080E701202EE600BF900B00205C18010052
:1043E000F0B50F4687B0044650B3266806B3257A69
:1043F000BDB1A17A012904F109030FD9E17A03972C
:104400000B4400245878049203A90594FEF7E6FAB9
:1044100010B9062386F8343007B0F0BD00231B78AE
:10442000FFDE0D494FF4A17001F05AFB6B78FFDEFF
:104430000A490192862001F053FB2668019AD6E7CB
:1044400006490192782001F04BFB0449852001F0D8
:1044500047FB019AC9E700BF5C180100F41701008F
:10446000F8B50F46044670B3256835B3267AC6B151
:10447000A27A04F10903F2B1E17A012A5E5C17D94C
:104480000B4430465C7804F00DFC204604F00AFC36
:10449000304605F01FF9204605F01CF985F8347008
:1044A000F8BD0D494FF4A17001F01AFB7378FFDEDF
:1044B00000231B78FFDE1378FFDE0849862001F019
:1044C0000FFB2568D2E70549782001F009FB034975
:1044D000852001F005FBC7E75C180100F417010017
:1044E000F0B5044685B0002831D025684DB3267A52
:1044F00005F10807F6B1A27A012A04F1090316D9D9
:10450000E27A134400215C781F2238460BF0FEFF4C
:104510001F220023204601A9019702920393FEF770
:104520005DFA10B9022385F8343005B0F0BD0023E0
:104530001B78FFDE0A494FF4A17001F0D1FA7378BD
:10454000FFDE0849862001F0CBFA2568CFE7054950
:10455000782001F0C5FA0349852001F0C1FAC4E7CB
:104560005C180100F417010070B50446002836D02D
:10457000256875B32B6953B901212046FFF750FC1C
:1045800018B120460921FFF76BFF002070BD0921FB
:104590002046FFF765FF95F91430002B0BDB267AD8
:1045A0006EB1A27A012A04F109030FD9E27A134409
:1045B000587804F087FC2B69EB64002070BD0C492F
:1045C0004FF4A17001F08CFA7378FFDE00231B78A2
:1045D000FFDE0849862001F083FA2568CAE705490D
:1045E000782001F07DFA0349852001F079FABFE7D0
:1045F0005C180100F41701002DE9F0470B78022B3D
:1046000086B00D46064665D0032B60D1002001F030
:104610004DF9AF68002F00F053813C68002C00F08A
:1046200040816B68D7F81080D3F808C0D4F848E010
:10463000656C93E8070004F15C0383E80700BCEBBA
:10464000080C18BF4FF0010C94F85810E26B236C63
:10465000012000FA0CF021EA000105FB0EF0724483
:104660004FF0000C834284F85810E26384F851C084
:1046700040F296801B1A2364002B00F0938098422E
:10468000C0F09980032918BF7B69606D0392CDF853
:1046900010E018BF58403B6901220344059384F899
:1046A00051203368DA68002A00F02D815B69002B05
:1046B00000F021813046039C984703689C42C0F07B
:1046C00008813846FFF750FF002001F009F906B0D5
:1046D000BDE8F087002001F0E9F8AF68002F00F096
:1046E000E6803C68002C00F0D6806A68A36CD4F8A1
:1046F00044A0D4F854C007CA04F15C0585E807005B
:10470000E26B206CD1180AFB03F290424FF00003D9
:1047100084F8513088BF831AE16323647A69B3FB5C
:10472000FAF3B2FBFAF294F85010934228BF134602
:10473000A364002971D094F85830032BC4D0A26C24
:10474000002AC1D07D69616DD4F83CE0B1EB050C65
:1047500018BF4FF0010C012000FA0CF06940034330
:10476000616584F858300492CDF80CE03B693268FA
:10477000194405919368002B00F0CC805369002BFD
:1047800000F0CF803046039C984703689C4298D243
:10479000336830469B6803A99847002894D090E777
:1047A000C4F840C0002338466364E36394F83910CA
:1047B000FFF736FB88E794F85020002A84D11A1AB4
:1047C000904203D200283FF47FAF0246B3FBF5F3DB
:1047D0007969B1FBF5F5AB4228BF2B46A364396973
:1047E000636D38461944FFF7FBFD00287FF469AF7D
:1047F00094F8593094F85810626D83F00103012049
:1048000000FA03F5294384F8593084F858107B697D
:1048100084F850005A40626556E71CF1000C18BF3E
:104820004FF0010C84F859C0236ED7F80090626EE7
:1048300003FB0AFAB9F1000F54D097F80880B8F1D9
:10484000000F1AD0BB7A07F10901F3B1FB7AC85CFB
:104850000392002303A9CDF810A00593FEF7BEF83C
:10486000A8B90523014689F8343028460C220BF0FC
:104870004DFE012384F850305DE72E494FF4A170BE
:1048800001F02EF998F80130FFDE1B78FFDE384684
:10489000FFF76AFE4FE72849862001F021F93C68BE
:1048A00023E72549862001F01BF93C68B9E6224937
:1048B000782001F015F92049852001F011F910E761
:1048C0001D49782001F00CF91B49852001F008F9F9
:1048D000A3E633683046DB6803A9984700283FF415
:1048E000F3AEEEE614490192862001F0F9F8D7F80C
:1048F0000090019AA1E7114940F22F1001F0F0F861
:1049000033685B69D6E60D494FF4977001F0E8F81B
:104910003368CBE609494FF4897001F0E1F8326859
:104920002CE7064940F2131001F0DAF833685B69AE
:1049300028E700BF5C180100F4170100BC18010053
:104940002DE9F04F0E4687B00446002800F0FC80A9
:10495000002900F02A872768B846002F00F0ED8074
:1049600033780E2B2FD8DFE803F01F1F331F2E24C0
:10497000502E2E2E2E081F7BB5000021032000F0A4
:1049800081FF00B305786D080C2D1CD900EB45059F
:10499000841C0BF081FD34F8023B1844437813F07B
:1049A000440F10D0A542F4D10025284607B0BDE839
:1049B000F08F7178CB0940F0A0814B0900F037826D
:1049C000012B00F0E3800625284607B0BDE8F08FF4
:1049D000E369002BE8D0C04F002507E000223046F5
:1049E00011469847E3690135AB42DDD9A36953F815
:1049F000256033681B69002BF0D139464FF4A37052
:104A000001F06EF833681B69E8E796F90230002B75
:104A1000C0F29D81002F00F06082F378012B00F03E
:104A20002282032B00F02E82022B97F8343000F004
:104A3000DF80023B072B00F2488101A252F823F0ED
:104A4000A54C0000CB4C0000094C0000CB4C0000F2
:104A5000154C0000CB4C0000A9490000C7490000DC
:104A6000E369102B00F28B80002B9DD0DFF868A249
:104A7000DFF87092DFF864B2002603E0E3690136E4
:104A8000B34292D9A36953F82680D8F800301B6846
:104A9000002B4AD022464946404698470546002802
:104AA000ECD1B7F890200123B3401343A7F890301E
:104AB000D8F800305B69002B00F01681404698471B
:104AC000636942689A42D9D9594640F2B17001F0FF
:104AD00007F8D3E7E369102B4AD8002B3FF464AF03
:104AE000DFF8F49100264FF0010810E028469847BF
:104AF000054638B9B7F8903008FA06F223EA0203FF
:104B0000A7F89030E3690136B3427FF64EAFA36950
:104B100053F826502B685B68002BE7D14946FD20EF
:104B200000F0DEFF2B685B68E0E75146F02000F004
:104B3000D7FFD8F800301B68ACE76849862000F042
:104B4000CFFF2768B8460BE7644940F24F7000F08A
:104B5000C7FF26B961494FF4EA6000F0C1FF5F4921
:104B6000782000F0BDFF5D49852000F0B9FFF2E636
:104B70005A4940F2BA7000F0B3FFE369ADE7574914
:104B800040F2A47000F0ACFFE3696DE7002F00F085
:104B9000E884B378FF2B7FF416AFB6F80330002B10
:104BA0007FF411AFB6F80750002D7FF40CAF267AD2
:104BB000002E00F07E85A37A04F10902002B00F09C
:104BC000D684E37A266812F803802046FFF708F9B6
:104BD0000746404604F07EFD384604F07BFD96F81B
:104BE0003430022B3FF4E0AE2046FFF779FCDCE6E0
:104BF000062B03D10B212046FFF732FC20460A2169
:104C0000FFF72EFC0025D0E620460021FFF708F92B
:104C10000546CAE6002000F049FE2668002E00F096
:104C20000A8596F85820736C0025032A86F85050A0
:104C300000F0B884B16C326C01FB03F39A4206D9E0
:104C4000D21A9A4228BF1A46002A40F0FB8496F8EE
:104C50005130002B40F0B48496F83800A269736D8F
:104C600052F82050626953402269F06B039013445C
:104C700001220593049186F851202B68DA68002AF6
:104C800000F02A855B69002B00F02E852846039CE6
:104C9000984703689C42C0F004850725002000F077
:104CA0001FFE82E63022002107F138000BF02EFCB7
:104CB000257A07F10806002D40F0158108494FF4C8
:104CC000A17000F00DFF6B78FFDE044940F23D70EB
:104CD00000F006FF062568E6BC180100F417010085
:104CE0005C180100F945000051464FF4AA7000F02D
:104CF000F7FED8F800305B69E0E6C1F34113002B02
:104D000000F0C580012B7FF45EAEB378FE2B7FF4FC
:104D10005AAEB6F80330002B7FF455AEB6F8073024
:104D2000012B7FF450AE03A8FFF752F8E369054664
:104D3000002B00F03285013B2B802046FFF7D0FB93
:104D40002946701C0122FEF7D7FC05462DE6002FF0
:104D500000F0F983F378002B7FF426AE98F8343016
:104D6000033B062B61D801A252F823F0094C000046
:104D70002B4E0000894D0000A94900002B4E000079
:104D8000A9490000C749000098F8591098F8583010
:104D9000D8F8400001228A4023EA0203002288F862
:104DA000583088F85020002840F0EB83002B00F0AA
:104DB0008784D8F84470002F00F0EC83D8F8645052
:104DC00081F0010288F85920002D00F03084D8F8D5
:104DD0006020266802FB07F7002E00F08E8494F80E
:104DE0000890B9F1000F00F0C483A37A04F109021E
:104DF000002B00F0BC83E37A0395D05C049700237A
:104E000003A90593FDF7EAFD054600287FF4CDAD23
:104E1000052386F8343001460C2208F15C000BF0C3
:104E200075FB012388F85030BFE50325BDE5002F51
:104E300000F0918301F01F07022F7FF4C4AD96F8B4
:104E40000280B8F1010F7FF4BEADB6F80350002D1B
:104E50007FF4B9ADD4F8009099F834300A2B40F0C3
:104E600053840F25A1E597F83430062B3FF49CAD11
:104E7000082B02D0012B7FF497AD2046FFF730FBC3
:104E8000054692E5012387F8343000258DE501F0D1
:104E90001F0101297FF497ADB578062D7FF493ADFE
:104EA00003A80293FEF794FF0DF1080E0746F2786F
:104EB0003179CDF800E020463B46FDF7EFF90528B3
:104EC0003FF473AD029B3F2B00F254843946701CB3
:104ED000029AFEF711FC054667E59D49862000F021
:104EE000FFFD276899E5A37A012B04F1090540F23B
:104EF0002783E37A2B4403A9587803F0A9FE0028FE
:104F00007FF47CAE039B1F2B7FF478AE30460422E7
:104F100090490BF0E1FA00287FF470AEFB7D5A2B2C
:104F200000F20F8401A252F823F000BF1B550000CD
:104F3000435700004357000035540000475100001C
:104F4000435700004357000043570000C75200007A
:104F5000435700009154000043570000435700009E
:104F600043570000435700004357000043570000D9
:104F7000435700009153000043570000435700007F
:104F8000094C0000435700004357000043570000FE
:104F90004357000089520000094C000043570000AD
:104FA000094C0000094C0000435700004357000023
:104FB0004357000043570000435700004357000089
:104FC000995000004357000043570000275100004C
:104FD000435700005D510000435700004357000055
:104FE0004357000043570000435700004357000059
:104FF0004357000043570000435700004357000049
:105000004357000043570000435700004357000038
:105010004357000043570000435700004357000028
:105020004357000043570000435700004357000018
:105030004357000043570000435700004357000008
:1050400043570000435700004357000043570000F8
:1050500043570000435700004357000043570000E8
:1050600043570000435700004357000043570000D8
:1050700043570000435700004357000043570000C8
:10508000094C0000435700004357000043570000FD
:10509000435700002F520000BB7D092B53D97B7D65
:1050A000E26993424FD2396908294CD8B966002980
:1050B00000F04082A26952F8236033685A692AB925
:1050C00025494FF4AA7000F00BFD33685B69304648
:1050D00098470368D7F86880013B1BBAFB664368B2
:1050E0001BBA3B67266807F16C09002E00F0E580CB
:1050F000277A002F00F0A083A37A002B00F03782DC
:10510000E37ACDF80C90E85CCDF81080002303A979
:105110000593FDF763FC054600287FF446AC0323A6
:1051200086F8343041E4BB7D092B0CD97A7DE369E4
:105130009A4208D23969002900F0078397F91430A0
:10514000002BC0F23F832046FFF70EFA05462CE401
:10515000F417010018190100BC180100BB7D092BD0
:10516000F1D97A7DE3699A42EDD23969002900F0DC
:10517000EC8297F91430002BE5DBBB7E787E3E7F16
:10518000FD7E1B0443EA0063A069334343EA052321
:1051900050F82250FB6387F8382039642B685A692D
:1051A0002AB9B9494FF4AA7000F09AFC2B685B69E0
:1051B00028469847BA7FFB7F40683969786443EA9C
:1051C000022300FB03F33A6C6669B2FBF0F59942E7
:1051D000B6FBF0F62CBF00210121B54228BF3546B1
:1051E0009A4284BFD31AFB64BD6487F8391000FB70
:1051F00005F021697B6D824228BF02461944204692
:10520000FFF7EEF8054600287FF4CFAB97F858304B
:1052100087F8595043F0010387F8583061697B6D76
:1052200001224B407B6587F85020FFF7BEBBBB7D5A
:10523000092B88D97A7DE3699A4284D23B69042B91
:1052400081D807F16C08BB660822404600210BF0AC
:105250005DF90622002387F86D2087F86C302668F8
:10526000D7F86890002E00F00881277A002F00F010
:10527000E382A37A002B00F07A81E37ACDF80C80E8
:10528000E85CCDF8109041E7BB7D052B7FF65BAF66
:105290007A7DE3699A42BFF456AFD7F81080B8F12F
:1052A000040F3FF650AFB9460323C7F8688049F8AA
:1052B0006C3F2668002E7FF41BAF7449862000F0F7
:1052C0000FFC266814E7BB7D052B7FF63CAF787D8D
:1052D000E3699842BFF437AF3A7E7D7EBB7EA16919
:1052E000120402F4F81243EA0523134351F8205044
:1052F0003A69FB6387F838003A642B685A692AB91F
:1053000061494FF4AA7000F0EBFB2B685B692846FB
:105310009847FD7E43687B643A6C6069B2FBF3F1A9
:10532000B0FBF3F003FB05F3814228BF01469A422C
:10533000B96401D9D31AFB64A369787DFA6B53F879
:1053400020500023012087F850307B6587F85800F3
:1053500023690593039204912B689A682AB94A49F4
:105360004FF4897000F0BCFB2B685A692AB9464992
:1053700040F2131000F0B4FB2B685B69039C2846D5
:10538000984703689C42C0F071820725FFF70DBB68
:105390007B7E002B7FF4D7AE7A7DE1698A42BFF431
:1053A000D2AE396924293FF6CEAEB966002900F0A5
:1053B000C1808020062187F86D0087F86E101220CA
:1053C000202187F86C3087F86F0087F87010A1698A
:1053D00051F82260029333681A692AB92A494FF4B6
:1053E000A37000F07DFB33681B69304602AA0121DF
:1053F0009847029E002E00F026823168082207F1AD
:1054000074000BF001F9029B1022596807F17C002F
:105410000BF0FAF8029B0422996807F18C000BF05C
:10542000F3F82668D7F8688007F16C09002E7FF43E
:105430005FAE42E7BB7D052B7FF685AE7A7DE369E3
:105440009A42BFF480AE396912293FF67CAEB96644
:1054500000296FD007F16C081222404600210BF0A2
:1054600055F8F0220B2387F86C2087F873302668F4
:10547000D7F86890002E7FF4F8AE0449862000F03B
:105480002FFB2668F1E600BFBC180100F4170100ED
:10549000BB7D052B7FF657AE7A7DE3699A42BFF458
:1054A00052AEA169787EBB7E51F82250396987F8E7
:1054B000382043EA0023FB6339642B685A692AB910
:1054C000BD494FF4AA7000F00BFB2B685B692846BE
:1054D0009847F97E40683A6C7864B2FBF0F300FBC1
:1054E00001F16569B5FBF0F5AB4228BF2B468A4256
:1054F00084BF511AF964BB642569796D03FB00F31D
:105500009A42294428BF1A462046FEF769FF0546FD
:1055100000283FF47BAEFFF748BA396900297FF4D1
:1055200012AEBB7D062B7FF40EAE7A7DE3699A4204
:10553000BFF409AE2046FEF773FC0546FFF735BA07
:1055400000231B78FFDE9D49862000F0C9FAD4F8BD
:105550000080FFF7FFBB9949862000F0C1FA7178FF
:1055600068E49649862000F0BBFAFFF712BB1B786F
:10557000FFDE93494FF4A17000F0B2FA99F80130C0
:10558000FFDED8F844202AB1EBB1D8F8447098F87F
:10559000591013E4894940F2BE2000F0A1FA98F8AE
:1055A0005830F1E796F85130002B7FF477AB96F83E
:1055B0003810A269736D52F82150B16CFFF754BBDB
:1055C0000025FFF76BBBD8F85430606998F8385065
:1055D000A269D8F83C1052F825501E1A18BF0126AF
:1055E00001224340B240C8F8543088F8582022695C
:1055F00003911344D8F84820049205932B689A68C5
:10560000002A00F0B0805A69002A00F0A5805B698A
:10561000039C2846984703689C42BFF4B6AE2B68AB
:1056200028469B6803A998470546FFF7BEB988F846
:105630005910FFF7BAB96149862000F051FA26687F
:10564000FFF7EFBA2169736D20461944FEF7C8FED3
:10565000054698B996F8593096F85810726D83F04F
:105660000103012000FA03F7394386F8593086F820
:105670005810636986F850005A40726596F85130A8
:10568000002B7FF40BAB96F8582096F83810A369DE
:10569000032A53F82150736DB16C7FF4E3AAFFF72E
:1056A000E3BA2B682846DB6803A998470546FFF74D
:1056B000F5BA43494FF4A17000F012FA7378FFDE97
:1056C000C8F84430C8F83C3098F839102046FEF746
:1056D000A7FB0546FFF769B937494FF4977000F00B
:1056E000FFF92B68FFF7CEBA334940F22F1000F0D4
:1056F000F7F92B685B69FFF7C9BA3049862000F0DB
:10570000EFF92668FFF76BBB7679304603F03EFB76
:10571000304603F0EBFA33067FF546A999F83430AA
:10572000092B2ED00B2B7FF440A92046FEF758FB07
:1057300003F0DCFA39462046FEF772FB0546FFF718
:1057400034B93B69002B7FF4FEAC20460121FEF703
:1057500067FB0546FFF729B9174940F2131000F01F
:10576000BFF92B6853E714494FF4897000F0B8F97A
:105770002B6848E7114940F2BF1000F0B1F9FFF77C
:10578000A5BB2046FEF72CFB03F0B0FA41462046AD
:10579000FEF746FB0546FFF708B9084940F22D2001
:1057A00000F09EF9E369FFF7C6BA04494FF4EA60D6
:1057B00000F096F9FFF7CFB8BC180100F41701000C
:1057C0005C180100BB7E787E3E7FFD7E1B0443EAB1
:1057D0000063A069334343EA052350F82250FB637A
:1057E00087F8382039642B685A692AB923494FF45D
:1057F000AA7000F075F92B685B6928469847BA7F54
:10580000FB7F40683E69786443EA022300FB03F3B0
:105810009E423A6C6569B2FBF0F1B5FBF0F52CBF26
:1058200000200120A94228BF29469A42B96487F87E
:1058300039007FF681AD7DE511494FF4A17000F08C
:105840004FF97B78FFDE3146082207F174000AF039
:105850005DFE3146102207F17C000AF057FE31460A
:10586000042207F18C000AF051FEDAE52B68284685
:1058700003A99B6898470546FFF797B8BC18010035
:105880005C18010050B1042806D8054B185C20B103
:10589000044B53F8200070470020704702487047BF
:1058A000C4190100B01901002C19010008B5EFF36B
:1058B0000583C3F308032BB172B6074A136801339B
:1058C000136008BDEFF31483DB07F5D503494320CC
:1058D00000F006F9F0E700BF940B0020CC1901009E
:1058E00008B5EFF30583C3F3080333B1074A136820
:1058F000013B136003B962B608BDEFF31483DB0705
:10590000F4D50349512000F0EBF8EFE7940B0020A9
:10591000CC190100EFF30583C3F308030BB90F2083
:105920007047103B5AB2002A08DB02F1604303F5CE
:10593000614393F800034009C0B27047034A03F083
:105940000F031A44107E4009F6E700BFFCEC00E0AC
:105950001EF0040F1CBFEFF309800AE0EFF308808C
:105960000849094A884201D8904202D88D464FF032
:1059700000006B46854608B5044B9847BDE80840D3
:105980009D4670470000042000E00320B559000048
:10599000BFF34F8F0549064BCA6802F4E062134318
:1059A000CB60BFF34F8F00BFFDE700BF00ED00E00D
:1059B0000400FA052DE9F04782B08146FBF7DAFBD7
:1059C000FAF7BEFE0028FBD1DFF80C81394CB8F89D
:1059D0000000D9F818203849A56A000440F00100F9
:1059E000FBF778F8B8F80000D9F80810D9F80C607F
:1059F000000499E80C0040F00100009101962F4945
:105A0000FBF72EFAB8F80000D9F81C10D9F81430BA
:105A1000D9F810200091000440F001002849FBF75C
:105A200083F9E36A980726D4DFF8B0A0254F002455
:105A3000012606FA04F32B420BD05AF824303946DB
:105A40001A4633B1B8F80000000440F00100FBF73B
:105A500041F801341A2CECD1290620D42A0413D49D
:105A6000194B1B68DB0700D500BE4846FFF790FFC7
:105A700002B0BDE8F087B8F800001449000440F017
:105A80000100FAF79BFFCFE7B8F80000094B104977
:105A90009A6B000440F00100FBF71CF8E0E7B8F84F
:105AA0000000044B0B495A6B000440F00100FBF767
:105AB00011F8D3E700ED00E0281A0100401A0100B8
:105AC000781A0100E41A0100F0ED00E0A01A0100CC
:105AD000101B0100F01A0100680200202C1B0100BD
