:1000000000000420E102000009030000F95E000086
:100010000D0300000F0300001103000000000000AA
:1000200000000000000000000000000013030000BA
:100030001503000000000000170300001903000072
:10004000E1B600001B030000F1B6000091BC000007
:100050001B0300001B0300005DAE00001B0300003B
:100060001B0300001B0300001B0300001B03000018
:100070001B0300001B0300001B0300001B03000008
:100080001B030000751B00001B0300001B03000086
:10009000151C00001B0300001B0300001B030000D5
:1000A0001B0300001B0300001B0300001B030000D8
:1000B0001B0300001B030000000000000000000004
:1000C0001B0300001B0300001B0300001B030000B8
:1000D0001B0300001B0300001B0300009D95000094
:1000E0001B03000071BC00001B03000000000000A7
:1000F000000000001B030000000000001B030000C4
:1001000000000000000000000000000000000000EF
:1001100000000000000000000000000000000000DF
:1001200000000000000000000000000000000000CF
:1001300000000000000000000000000000000000BF
:1001400000000000000000000000000000000000AF
:10015000000000000000000000000000000000009F
:10016000000000000000000000000000000000008F
:10017000000000000000000000000000000000007F
:10018000000000000000000000000000000000006F
:10019000000000000000000000000000000000005F
:1001A000000000000000000000000000000000004F
:1001B000000000000000000000000000000000003F
:1001C000000000000000000000000000000000002F
:1001D000000000000000000000000000000000001F
:1001E000000000000000000000000000000000000F
:1001F00000000000000000000000000000000000FF
:1002000010B5054C237833B9044B13B10448AFF350
:1002100000800123237010BD200200200000000098
:10022000383C01000C4B43B10C480D4910B5AFF3FD
:1002300000800C48036823B910BD0A48036833B92D
:100240007047094B002BF7D0BDE810401847064B0C
:10025000002BF5D0184700BF00000000383C01001B
:10026000240200201802002000000000154B002B83
:1002700008BF134B9D46A3F5803A00218B460F46DD
:100280001348144A121A10F0CDFD0F4B002B00D06A
:1002900098470E4B002B00D0984700200021040007
:1002A0000D000D48002802D00C48AFF3008010F07C
:1002B0005BFD200029000CF0ABFF10F041FD00BFFA
:1002C0000000080000000420000000000000000002
:1002D000200200203C250320000000000000000058
:1002E0000649074A074B9B1A03DD043BC858D05008
:1002F000FBDC10F043FCFFF7B9FF0000D03C01002D
:100300000000002020020020FEE7FEE7FEE7FEE7F7
:10031000FEE7FEE7FEE7FEE7FEE7FEE7F0B595B095
:10032000002415460F4608461E4607F08BF938464E
:1003300023460C22089505A91A9D09960D950A9445
:100340008DF82C400C9407F0F9F99DF814300798BB
:1003500006998DF8114003F00302012A02900391DF
:1003600028D0022A04D0384607F070F915B0F0BD45
:10037000BDF81650C3F3C2038DF81030C5F38915CC
:100380000C26082D2C4628BF0824334622460EA9E9
:10039000384607F0D3F92D1B214608AB02AA0EA858
:1003A000264401F061F8002DEBD1384607F04EF9F4
:1003B00015B0F0BDBDF81460059DC6F38316C3F3F8
:1003C000C204B2000EA938460C238DF81040C5F3C4
:1003D000952507F0B3F908AB0093324628460EA9DD
:1003E00002AB00F0CBFFBEE7014B01221A70704751
:1003F00080020020704700BF00B583B0044B00931B
:10040000044A4023FFF78AFF03B05DF804FB00BFF6
:10041000190400004002002038B50F480F4D037842
:100420000F4CEB5C00252570D2B253B90C300BF0A9
:100430006FFF58B90B4B1B7813B12378002BFCD0FE
:1004400038BD04300CF0A0FA0028F3D0064A53213E
:1004500001F01EFBEEE700BF00000020582403203F
:10046000800200203C0200206C1B010070B5144883
:10047000144A0378D35C88B0EBB90C300BF09EFEC5
:10048000114D0FCD6C460FC495E80F0008AD142632
:1004900045F8206D84E80F0029460022084807F03F
:1004A00031FB18B1094A432101F0F2FA084B00224E
:1004B0001A7008B070BD04300CF0B8F9E0E700BF66
:1004C0000000002058240320401B01006C1B010089
:1004D0003C02002070B50E4D0FCD88B06C460FC4A5
:1004E00095E80F0008AD142645F8206D84E80F004C
:1004F0002946084A084807F005FB18B1074A432176
:1005000001F0C6FA064B01221A7008B070BD00BF98
:10051000401B0100E9030000000000206C1B0100EB
:100520003C02002008B5FFF7D5FF0421084800F081
:100530005FFE002803DB074B01225A7108BD064904
:10054000482005F097FD034B01225A7108BD00BFFA
:10055000A43C010014000020D01B0100F0B5364D72
:1005600085B005F5836005F07DFE05F2144005F0C9
:1005700079FE6B68AE6803EA0600C11C05EB8102D8
:1005800015F8214014F004040ED0117801F0030195
:1005900001293BD0022903F1030700F1030126D012
:1005A00005EB8102002CF0D105EB80005A1CC168DC
:1005B0000191324005EB820201F00301D268029200
:1005C000012903F1030427D002292DD1BDF80630FB
:1005D000BDF80A60C3F38913033304EB930417488F
:1005E00005F04EFE00B16C60304605B0F0BD53889A
:1005F00007EB931306EA0300C11C05EB810215F813
:10060000214004F00404002CBFD1CDE7118803334E
:10061000C1F383110B44EDE7BDF80430BDF80A6067
:10062000C3F383131C44DAE705494FF4BF7005F0A8
:1006300021FD0026D3E700BF5403002068070020F7
:100640004C1C010038B5E8B1104C0023FF220546D0
:100650000846C4F81834A26023606360C4F81434F8
:1006600084F8203400F078FF0948C4F80C5406F0F0
:100670009FFF044608B1204638BD064807F0B4F88D
:10068000204638BD0724204638BD00BF5403002053
:10069000B43C0100AC1C010021B9114B03EBC000BC
:1006A0000068704730B40F4A0D4C121BD2080CD0B2
:1006B0000D4D2B88834210D0002303E035F8231022
:1006C000814205D001339A42F8D1002030BC7047F6
:1006D00004EBC300006830BC70472046FAE700BF57
:1006E0003C3C0100A43C01001C020020094B0139E4
:1006F00003EBC00003290BD8DFE801F00208060471
:100700000220704740797047007970470420704795
:10071000002070473C3C01002DE9F047C24C94E8B2
:100720000C009A4284B000F02E810023C4F81834E3
:10073000BFF34F8F6368A56803EA0501CA1C04EB89
:10074000820614F8222050071CD52768327802F060
:100750000302012A00F0B980022A03F1030202D148
:10076000738802EB931305EA0301D4F81804CA1C3A
:1007700004EB820630B99F4240F2AD8014F822208B
:100780005207E3D404EB8101581C9A1CCE680196F1
:1007900028402A4004EB800104EB820206F00306A5
:1007A000C968D2680291022E039203F1030800F097
:1007B0009680012E00F0EB80D4F810543DB12B68E8
:1007C00028469B689847EB681D68002DF7D10020EC
:1007D000A66805F03FFBA2686368276813440133ED
:1007E000DB1B022B00F24B81904D0121284605F0C6
:1007F0000DFDFFF7B3FE0146284605F007FD94E81E
:100800000A00A268134401335B1A022BEDD901EAF6
:1008100002030333052203316FF38912002044F8E9
:100820002320DFF820922160814D05F02DFB7F48C9
:10083000002105F0C3FC80F310087E4BA5EB0905F1
:10084000C5F3CF05A3EB0903B5EBD30F80F01181FE
:100850007B1C334004EB830345EA0845DD60D4F894
:100860000C34BD1C9847354004EB850506EA0703A8
:100870000333E86014F823206F48022161F3C502B6
:1008800004F8232034F823206FF3891224F823205E
:1008900054F8231060F39F210A46012060F30102FF
:1008A0006FF3820244F8231004F8232094F82034D4
:1008B0001BB1FFF731FF0028FBD160682368C01A25
:1008C00018BF012004B0BDE8F08732880333C2F3BB
:1008D0008312134447E7676004B0BDE8F087BDF8B2
:1008E00006305648C3F389194F46502FA8BF5027EA
:1008F00067F38F1307F10C01ADF8063006F05AFECE
:10090000064600283FF458AF25EA080A0AF1010A12
:1009100006F098FE4FEA8A0A00230C2201A930460D
:1009200006F0B6FE57456FD9BAF1000F40F08C8043
:100930003A460C234249304606F0AAFE09F1030765
:1009400008EB9707D4F81834002B68D1D4F810546A
:100950005DB1EB685A79314628461AB12B681B689D
:100960009847EB681D68002DF3D1304606F06EFE07
:10097000002005F06FFAD4F8183403B9676000203E
:1009800005F082FA99E7002004B0BDE8F087BDF8D1
:1009900004302A48C3F38312062A28BF0622D11C3A
:1009A00062F389138900ADF8043006F003FE0646B1
:1009B00000283FF401AF06F045FE00230C2201A9F8
:1009C000304606F065FEBDF8043013F4707F58D051
:1009D0004FF0000A4FF00C0905EA080103314B46BD
:1009E00004EB81010422304606F052FEBDF80430CB
:1009F0000AF1010AC3F3831308F10107534509F112
:100A00000409B846E8D89DE705EA0801033104EB7C
:100A100081013A460C23304606F03AFE8EE7304616
:100A200006F014FE49E700BF5403002070070020C1
:100A3000743C0100A43C0100B81C0100B43C01005E
:100A4000600300203C3C010005EA08010331A7EBEC
:100A50000A0504EB810152463046EDB20C2306F044
:100A600017FE2A460AF10C030749304606F010FE2D
:100A700064E7064940F2A31005F0FCFAE8E63946BF
:100A8000C5E647465EE700BF600300204C1C01003E
:100A90002DE9F047DFF80C91074600208846D9F889
:100AA000085005F0D7F9D9F80820D9F80430D9F85A
:100AB0000060134401339B1B022B68D809F21C44CD
:100AC0000121204605F0A2FBFFF748FD0146204624
:100AD00005F09CFB99E80A00D9F80820134401337B
:100AE0005B1A022BECD90A40033205236FF38913FA
:100AF00049F8223003310020C9F8001005F0C4F98C
:100B00000021244805F05AFB80F3100A224B234AA7
:100B10003C0C9B1AB4EBD30F33D2731C2B4009EB64
:100B2000830344EA0A44DC60D9F80C34B41C9847C7
:100B30002C4009EB840435400335E06019F825307A
:100B400067F3C50309F8253039F825306FF38913A9
:100B500029F8253059F8252068F39F2213460121F2
:100B600061F301036FF3820349F8252009F825306A
:100B700099F820341BB1FFF7CFFD0028FBD1BDE869
:100B8000F087074940F2A31005F074FAC5E7314633
:100B9000A9E700BF70070020A43C01003C3C010015
:100BA0004C1C0100540300202DE9F047DFF81CA184
:100BB0000746002090468946DAF8085005F04AF9C1
:100BC000DAF80820DAF80430DAF800601344013368
:100BD0009B1B032B70D80AF21C440121204605F010
:100BE00015FBFFF7BBFC0146204605F00FFB9AE81A
:100BF0000A00DAF80820134401335B1A032BECD9FE
:100C000001200A40033240F0040360F389134AF8DC
:100C1000223004310020CAF8001005F035F9F31C29
:100C20002B400AEB830300212448C3F80C8005F015
:100C3000C5FA80F31008224B224A3C0C9B1AB4EBF5
:100C4000D30F33D2731C2B400AEB830344EA0844CE
:100C5000DC60DAF80C34B41C98472C400AEB8404AE
:100C600035400335E0601AF8253067F3C5030AF80C
:100C700025303AF82530012161F389132AF825300F
:100C80005AF8252069F39F22134661F301036FF39D
:100C900082034AF825200AF825309AF820341BB13F
:100CA000FFF73AFD0028FBD1BDE8F087064940F286
:100CB000A31005F0DFF9C5E73146A1E77007002072
:100CC000A43C01003C3C01004C1C010054030020EA
:100CD0002DE9F84F444C8046002093469A468946B9
:100CE000A66805F0B7F8A268636827681344013363
:100CF000DB1B042B75D804F21C450121284605F0A6
:100D000085FAFFF72BFC0146284605F07FFA94E8A8
:100D10000A00A268134401335B1A042BEDD90A4080
:100D2000033205230220194460F3891344F822306A
:100D30000020216005F0A8F8FA1C3B1D324033402A
:100D400004EB820204EB830300212848C2F80CB0B4
:100D5000C3F80CA005F032FA80F3100A244B254AA0
:100D60004FEA18459B1AB5EBD30F34D27B1C3340A6
:100D700004EB830345EA0A45DD60D4F80C34BD1C5E
:100D80009847354004EB85053E400336E86014F88B
:100D9000263068F3C50304F8263034F826300222E2
:100DA00062F3891324F8263054F8262069F39F2231
:100DB0001346012161F301036FF3820344F82620F7
:100DC00004F8263094F820341BB1FFF7A5FC002866
:100DD000FBD1BDE8F88F084940F2A31005F04AF9AD
:100DE000C4E739469BE700BF54030020700700208A
:100DF000A43C01003C3C01004C1C01002DE9F84FD3
:100E0000474C8046002093469A46A668894605F0DE
:100E100021F8A2686368276813440133DB1B052BA4
:100E20007BD804F21C450121284605F0EFF9FFF7B5
:100E300095FB0146284605F0E9F994E80A00A26806
:100E4000134401335B1A052BEDD90A40033203200A
:100E5000052360F3891344F8223006310020216015
:100E6000FD1C05F011F83A1D7B1D3540324004EBA6
:100E7000850504EB8202334004EB8303C5F80CB014
:100E80000021C2F80CA027480A9ADA6005F096F90A
:100E900080F3100A244B254A4FEA18459B1AB5EBFC
:100EA000D30F34D27B1C334004EB830345EA0A455D
:100EB000DD60D4F80C34BD1C9847354004EB850543
:100EC0003E400336E86014F8263068F3C50304F8A2
:100ED000263034F82630032262F3891324F82630B2
:100EE00054F8262069F39F221346012161F3010380
:100EF0006FF3820344F8262004F8263094F8203457
:100F00001BB1FFF709FC0028FBD1BDE8F88F0849A9
:100F100040F2A31005F0AEF8C4E7394695E700BFEC
:100F20005403002070070020A43C01003C3C010059
:100F30004C1C01002DE9F04F85B04E4C0E9DA6686B
:100F400002958DE80C008046994600200F9B039384
:100F500092468B4604F07EFFA268636827681344BC
:100F60000133DB1B062B00F2838004F21C450121B8
:100F7000284605F04BF9FFF7F1FA0146284605F03F
:100F800045F994E80A00A268134401335B1A062B62
:100F9000EDD90A4003320420052360F38913073199
:100FA000002044F822303D1D216004F06DFFF81C44
:100FB0007A1D3040354004EB800004EB8505BB1DF5
:100FC000324004EB82023340C0F80CA004EB8303F0
:100FD000C5F80C900E9DD56000210F9A2648DA6066
:100FE00005F0ECF880F31009244B254A4FEA184528
:100FF0009B1AB5EBD30F35D27B1C334004EB830334
:1010000045EA0945DD60D4F80C34BD1C98473540ED
:1010100004EB85053E400336E86014F8263068F39B
:10102000C50304F8263034F82630042262F389130D
:1010300024F8263054F826206BF39F221346012112
:1010400061F301036FF3820344F8262004F826308D
:1010500094F820341BB1FFF75FFB0028FBD105B0EB
:10106000BDE8F08F074940F2A31005F003F8C3E78D
:1010700039468EE75403002070070020A43C01008D
:101080003C3C01004C1C01002DE9F04F87B0534C53
:1010900002939946119B109D04938046129B0192E6
:1010A000002092460593A66803958B4604F0D2FE75
:1010B000A2686368276813440133DB1B072B00F227
:1010C0008B8004F21C450121284605F09FF8FFF7AC
:1010D00045FA0146284605F099F894E80A00A26806
:1010E000134401335B1A072BEDD90A400332052361
:1010F000083163F38913002044F822307D1D2160FC
:1011000004F0C2FEF91C07F1040EBA1DFB1D3140AC
:101110000EEA060E3540334004EB810104EB8E0EDF
:1011200004EB8505324004EB820204EB830C109B38
:10113000C1F80CA0CEF80C90EB60119BD36000219D
:10114000129B2748CCF80C3005F038F880F31009D2
:10115000244B254A4FEA18459B1AB5EBD30F35D2DD
:101160007B1C334004EB830345EA0945DD60D4F87A
:101170000C34BD1C9847354004EB85053E400336D2
:10118000E86014F8263068F3C50304F8263034F814
:101190002630052262F3891324F8263054F82620DD
:1011A0006BF39F221346012161F301036FF3820366
:1011B00044F8262004F8263094F820341BB1FFF7B9
:1011C000ABFA0028FBD107B0BDE8F08F074940F229
:1011D000A31004F04FFFC3E7394686E7540300200D
:1011E00070070020A43C01003C3C01004C1C0100A5
:1011F00030B4174DD5F8104400215CB1E3681A797A
:101200008A4204D116E0DB681A798A4212D01B6840
:10121000002BF8D1C3681971D5F8103493B1DA688E
:10122000C36812681A60D5F81034DB681860084685
:1012300030BC704701310A29DFD14FF0FF31084639
:1012400030BC7047C5F81004C2681360EFE700BFF8
:101250005403002038B5094BD3F81044012583F816
:1012600020544CB1E3685D71236820465B68984761
:10127000E3681C68002CF5D138BD00BF5403002082
:10128000F0B5C38885B004460D46002B46D1217ABF
:1012900005294DD0637A002B4CD12C4B2C492D4A7B
:1012A0001E6808682168B1FBF0F0B0FBF6F1A2FB04
:1012B00001324FF4616ED70A274B0EFB1717A3FBC1
:1012C00007E306FB11015B094FF47A70C3EB031EC1
:1012D00000FB01F1A7EB8E07B1FBF6FE06FB1E112A
:1012E00000FB01F1CDF804E0B1FBF6F62846D20A86
:1012F00000971A49029605F0F1FD194B227AA08851
:1013000053F822400021FFF7C7F916490346224649
:10131000284605B0BDE8F04005F0E0BD124A009255
:101320001249134A284605F0D9FD217A0529B1D181
:1013300005B0F0BDA088FFF7D9F90E4B0E4953F860
:101340002020284605F0CAFDA7E700BF10080020AE
:1013500014080020C5B3A29189888888301D010037
:10136000581D01004C1D0100241D01000C1D010031
:10137000041D0100D01C01002C1D01002DE9F043CB
:1013800085B01D460C9C002381460E46174694F8F6
:101390000C80237321462846FFF772FF062F0FD8D3
:1013A000DFE807F034393F46044F2500F168B068A4
:1013B00096E80C00019100904946204605F08EFD0C
:1013C0002B7A052B05D06B7A5BB92449204605F0B2
:1013D00085FD204605F06EFD84F80C8005B0BDE863
:1013E000F0831F4A1F49204605F078FDEDE770693C
:1013F000316996E80C000390B068F76802918DE8B7
:1014000081004946204605F069FDD9E74946204656
:1014100005F064FDD4E732684946204605F05EFDDC
:10142000CEE7494696E80C00204605F057FDC7E791
:10143000B16896E80C0020460091494605F04EFD43
:10144000BEE7B068F768316996E80C0002918DE854
:1014500081004946204605F041FDB1E7A83701006B
:10146000241D01002C1D0100082900D970472DE919
:10147000F04F1D4683B000241B7B2C7307460E469D
:101480001046294691460193FFF7FAFEDFF8B8A00F
:10149000DFF8B880A642414628463ED93A5D01347D
:1014A00005F01CFD082CF5D12349DFF8A480DFF8F6
:1014B000A4A0284605F012FD002411E017F804B09E
:1014C0000FF076FC58445146437813F0970F14BF41
:1014D0005A462E222846013405F000FD082C08D07B
:1014E000A64241462846E9D8013405F0F7FC082C0D
:1014F000F6D199F80830052B02D099F80930A3B934
:101500000E49284605F0EAFC284605F0D3FC9DF874
:1015100004302B7303B0BDE8F08F013451462846E8
:1015200005F0DCFC082CB5D1BEE7054A0549284684
:1015300005F0D4FCE4E700BFFC1C0100A837010063
:10154000241D01002C1D0100D43A0100F41C0100EF
:10155000541D0100001D0100074A08490123904263
:101560000B6005D9400890424FEA4303FAD80B605C
:10157000034B1860704700BF40420F001408002062
:1015800010080020022810B5044603D90E493A205D
:1015900004F070FD0D4B1C5D2F2C234604D81F2C2E
:1015A00007D84FF0A04207E009494FF4E87004F073
:1015B00061FD084A04F01F03D2F80405D840C04377
:1015C00000F0010010BD00BFBC1D0100501E010055
:1015D000041E010000030050022810B5044603D980
:1015E0000F49412004F046FD0E4B1C5D2F2C224676
:1015F00008D81F2C0BD84FF0A04101239340C1F80D
:101600000C3510BD08494FF4E87004F033FD04F0C8
:101610001F02064901239340C1F80C3510BD00BFDD
:10162000BC1D0100501E0100041E010000030050FB
:10163000022810B5044603D90F49472004F01AFDCB
:101640000E4B1C5D2F2C224608D81F2C0BD84FF0B8
:10165000A04101239340C1F8083510BD08494FF45B
:10166000E87004F007FD04F01F02064901239340CF
:10167000C1F8083510BD00BFBC1D0100501E01009F
:10168000041E0100000300504FF0A0434FF48000FF
:101690004FF400014FF08072C3F80805C3F8081535
:1016A000C3F80825704700BF4FF0A0434FF48000F7
:1016B0004FF400014FF08072C3F80C05C3F80C150D
:1016C000C3F80C25704700BF022810B5044603D9A3
:1016D00010495F2004F0CEFC0F4B1C5D2F2C2046E0
:1016E00004D81F2C07D84FF0A04107E00B494FF456
:1016F000E87004F0BFFC0A4904F01F00D1F804357B
:101700000122824022EA03001340C1F80805C1F813
:101710000C3510BDBC1D0100501E0100041E01004F
:1017200000030050203818BF4FF0FF30704700BF53
:10173000C10706D4830742BF114B0C22C3F8002710
:1017400070474FF0A043032230B44FF08071C3F8CC
:1017500058274FF48005C3F85C274FF40004C3F802
:1017600060278207C3F80855C3F80845C3F8081571
:1017700003D5034B0C22C3F8002730BC704700BFD1
:1017800000030050434B1978002900F081802DE9B7
:10179000F04F8C4687B00024012503E00134E4B209
:1017A000644560D23C4B27B21E6816F837E0AEF1B4
:1017B000200305FA03F9394BCEF12001D3E90023C8
:1017C00025FA01F149EA010905FA0EF808EA0200D2
:1017D00009EA0301014306EBC70BDFD02F4922EAD8
:1017E000080223EA09037046C1E9002309F00EFB51
:1017F00016F837E0AEF1200205FA02F201920199E3
:10180000CEF12003C6B225FA03F3AEF1200219434C
:1018100006FA02F30393224B0191D3E90023CDE9A9
:10182000042305FA0EF30093CEF12001039B26FA60
:1018300001F10B43039306FA0EF30293DDE904670B
:10184000DDE9002316401F4032463B46DDE90267D2
:10185000BB4208BFB24209D00E4B013493F800C01E
:10186000E4B264459ED307B0BDE8F08FDBF80430E6
:10187000002BF1D09BF80110A1F10101B1FA81F127
:101880004909091AB1FA81F1490970469847E3E715
:10189000704700BF180800205008002048080020AA
:1018A000400800202DE9F8430646204800F058FC87
:1018B000D0B91F4F0123A6F1200103FA01F5C6F1AB
:1018C0002002D7E9000123FA02F2154303FA06F4D5
:1018D00004EA000205EA0103134307D020EA0404E6
:1018E00021EA0505C7E90045BDE8F883304609F05F
:1018F0008DFA104ED6E9008998B148EA040849EA01
:101900000509D7E9002314431D43C6E90089C7E947
:101910000045094B054819680022BDE8F84300F06E
:10192000CFBB28EA040829EA0509EAE720080020D5
:1019300048080020400800201C080020042A01D884
:10194000072070472DE9F04182B00F460546164644
:1019500009F0A8F8002834D01C4C1D4A1D4B1E4825
:101960001E49256017707C1E00221E600023C0E9FE
:101970000023C1E90023E4B2EFB1DFF86C80002757
:10198000032601E0FF2C16D023B205EBC30215F8A5
:10199000330093788DF80670424601A98DF80460F3
:1019A0008DF8053009F088F8013CE4B20028E9D050
:1019B00002B0BDE8F0810A4A0A48002100F06EFB3F
:1019C000F6E709F01DF80028C6D0F1E7500800201E
:1019D000180800201C0800204008002048080020AB
:1019E00085170000AC1E0100A518000070B50C4E54
:1019F00033687BB10B4D2B7853B100243368012140
:101A000013F8340009F066F92B780134A342F5D8B5
:101A1000002070BD0449BA2004F02CFBEAE700BFA7
:101A20005008002018080020541E010030B482B075
:101A300001248DF80740154B9DF80750186044F2BB
:101A40000104A04259609A6014D044F20201884215
:101A500008D072B69DF80730002BFBD162B602B0F9
:101A600030BC7047DA60DA6812889A61DA685268C6
:101A7000DA61EEE71A611A6992685A611A691268A6
:101A80009A611A695268DA61E3E700BF54080020DE
:101A900000B583B002900091019244F201007146BA
:101AA0006A4600F003F803B000BD00BF2DE9F04125
:101AB000044684B00F46154672B6FFF7CBFBFEF71F
:101AC0002BFE0028FBD144F201039C4227D044F2B4
:101AD00002039C42204816D0204B2149C01AC0085E
:101AE000000440F001003A46FFF75EF81D4B1B680A
:101AF000DB0700D500BE2A463946204604B0BDE8C3
:101B0000F041FFF793BF154E2B886A681649801B7A
:101B1000C008000440F00100FFF7DAF8E6E7D5F866
:101B200008800E4B0C4E4046F61AF60805F078FE7B
:101B30002B680193029736046B68009346F0010608
:101B40000346424630460949FFF79EFA30460849A7
:101B5000FEF79EFFCAE700BF743C01003C3C010059
:101B6000081F0100F0ED00E0B01E0100CC1E0100D6
:101B7000F41E0100F8B5204A204B0025C2F8405160
:101B8000C2F84451C2F84851C2F84C51C2F8005151
:101B9000C2F804511B6813B31949D2F804450A6806
:101BA000A41A1A6824F07F44A2422F4609D8197C4F
:101BB000DE69A41A154499B91EB133461A68A242C7
:101BC000F5D91049104A0B7812789A420DD00F4976
:101BD0000F4A41F823504FF48013C2F80031F8BD8A
:101BE0001F745A6998699047E6E7531CDBB2022BD1
:101BF00008BF00230B70EAE70010014094090020A1
:101C0000900900208D0900208C0900208409002003
:101C100000E100E02DE9F04FB74AB84913780978A0
:101C2000994285B033D00133DBB2022B08BF0023C9
:101C3000B3481370B34A0768DFF8E08252F82320F4
:101C4000D8F80010BB18002423F07F43036025461A
:101C50002046A646A9B10B68934200F27D81CC686C
:101C6000C1F800E0D21A1844CB6934B13E1826F00E
:101C70007F46CD618C604E600D46194601240029D7
:101C8000E9D1002C40F0A5814FF0010B05E0DFF811
:101C90008C820025D8F80010AB469B4B9B4FDFF899
:101CA000809243F0010300930E464FF0000A002D8E
:101CB0002DD0D5F804E0D5F808C02C46ED69904B3E
:101CC00093481B68AEEB030222F07F42824255D854
:101CD00002EB0C032360002201206260A260E2613B
:101CE0002074002E6BD03068834261D9B64603E081
:101CF000106898424CD29646DEF81C201B1A002A27
:101D0000F6D12360E261CEF81C40002DD1D197F8C6
:101D100001C097F800E0F44571D0734603EB43032C
:101D20000EF10100BA7807EBC3035FFA80FE72453B
:101D3000187987F800E004BF4FF0000E87F800E044
:101D400002289A684CD003283DD00128E3D1107CAA
:101D50000028E0D1D3F80CE0C2F804E0D3F810C0BA
:101D6000C2F808C014465A69E26099F800209B69DD
:101D7000A361002AA3D060608646A0E7A3EB0E0310
:101D800023F07F4363450AD2ACEB03032360A2E751
:101D9000C01A10602360E261CEF81C40B5E7002352
:101DA000012223606360A360E36122743EB1306866
:101DB000C8F80040C31A3360E661264677E7C8F8E2
:101DC0000040264673E7002EA5D0002200E01E4604
:101DD000F3693274002BFAD1C8F800301E4696E73A
:101DE0004EB1B242344603D1BDE09A4260D01C46A7
:101DF000E369002BF9D100231374F4458DD1BAF1B6
:101E0000000F02D18E4200F09D80002E00F0C580B0
:101E10003B4B404A1C68D2F80475DFF80881D6F8BD
:101E200000A098F800103B1B23F07F43DD1CA9B9EC
:101E30003949354B4FF48030C2F844030126C2F8CB
:101E400004034FF40030C1F8800143F0010308603F
:101E500016604FF43C60984788F80060AA452CBF94
:101E600004EB0A0363192B4923F07F43C1F8403583
:101E7000D1F80425D21BDB1B22F07F4223F07F43E5
:101E800003329A420ED9204BD1F80425C1F84025DF
:101E900043F001034FF43C6098471F4B4FF400326E
:101EA000C3F80021002389F8003005B0BDE8F08FA9
:101EB000A24239D0D2F81CE01368C4F81CE0BEF18D
:101EC000000F11D03046DEF800402344CEF8003039
:101ED000864209D0002397F800E097F801C01374F8
:101EE00006464FF0010A88E7002397F800E097F8CC
:101EF00001C0137481E700BF8C0900208D09002008
:101F00009009002084090020201F0100740800208F
:101F1000FEFF7F000010014000E100E09409002076
:101F200080090020810900201346F069C8F80000EC
:101F3000D8B1D3F81CE01B68C4F81CE0BEF1000F58
:101F4000C1D1C5E7BBF1000F7FF45FAF002389F873
:101F5000003005B0BDE8F08F002C3DD19B1A0B601E
:101F60004FF0010B99E63346DFE701931C4BDFF896
:101F70007CC003924FF0010E0291C3F808E0009B71
:101F8000CCF8000089F800E04FF43C609847D8F89E
:101F90000000019B0299039ACBE7114D114A124CA4
:101FA0004FF480334FF400310127C2F880103C43D6
:101FB000C5F848334FF43C60C5F808336F60A0475C
:101FC0000A4BAF604FF43C601E60A047084B1E7088
:101FD00068E7C8F8001057E6C8F80010BEE700BF71
:101FE0000010014000E100E0201F010090090020E6
:101FF000810900202DE9F8431F4D204E204FDFF8C6
:1020000098804FF480334FF400324FF001090024E0
:10201000C6F8802047EA0907C5F848334FF43C600A
:10202000C5F80833C5F80490B847C5F808904FF4D0
:102030003C60C8F80040B847124B13481349144A93
:102040001C70144B04600C7014704FF48011C0228B
:102050000B2098701C705C70C6F8801186F81423F1
:102060003160C5F8084586F81123D5F80435C8F85D
:1020700000302046BDE8F8830010014000E100E098
:10208000201F010081090020940900208C090020F4
:102090008D0900207408002090090020074B9B78D0
:1020A0000BB9082070473AB130B10368187C00289A
:1020B000F7D159745A61704707207047740800209F
:1020C0002DE9F041234CA37813B90820BDE8F08135
:1020D0000028FAD0042902D80720BDE8F08143691E
:1020E000002BF2D0437C0546012B4FF000000CBFC3
:1020F0008846804617460E4603F0ACFE6378A0780B
:1021000021785A1CD2B2904208BF002291421AD0C4
:1021100003EB430304EBC30301200F499D601871D7
:10212000D1F80415D9601E61C3F814809F610020A6
:10213000627003F0A9FE094B4FF48012C3F800212E
:102140000020BDE8F081002003F09EFE0420BDE8E1
:10215000F08100BF740800200010014000E100E0A1
:1021600070B5184DAB780BB9082070BD0028FBD0B6
:102170004369002BF8D0002404740646204603F07F
:1021800069FE6A78A8782978531CDBB2984208BFA8
:102190002346994211D002EB420205EBC202022112
:1021A0002046966011716B7003F06EFE064B4FF483
:1021B0008012C3F80021204670BD204603F064FE63
:1021C000042070BD7408002000E100E030B583B049
:1021D00020B1154940F27B2003F04CFF01A91348C0
:1021E00003F06EFF0446E8B1114D2868206000201E
:1021F00003F030FE0F4B10481B88026801339B1A16
:10220000E380002103F0DAFFA080002003F03CFE11
:1022100001A9064803F082FF084B1B6813B1014671
:102220002846984703B030BD301F0100440B002002
:10223000981F0100380A0020680B00209C0900202C
:1022400070B50378052B82B0054639D0002B44D1F8
:10225000354B1C689CB1354E04E06888984723686C
:102260005C6864B1236823B39B68002BF5D13146C9
:1022700040F21B1003F0FEFE23689B68EDE72C4C38
:10228000002003F0E7FD23687BB10121284803F01B
:10229000BDFF002003F0F8FD264B1B6813B1284654
:1022A00001219847236802B070BD234B6A881A80C9
:1022B000EBE731464FF48D7003F0DCFE2368D3E783
:1022C0001E4BD3F88424D3F8803413F0FF0F04D1CD
:1022D0001B4BD2B2052A08BF1D4601A9194803F0BD
:1022E000EFFE04460028DED02B680360002003F0D8
:1022F000B1FD114B0E481B88026801339B1AE38025
:10230000002103F05BFFA080002003F0BDFD01A9C8
:102310000C4803F003FF074B1B68002BC3D001469A
:102320002846984702B070BD600B0020301F0100A6
:10233000680B00209C090020380A00200070024031
:10234000941F0100440B002030B5012883B02FD02A
:1023500037D3022825D101A91E4803F0B1FE044657
:1023600020B31D4D28682060002003F073FD1B4B37
:102370001B481B88026801339B1AE380002103F08D
:102380001DFFA080002003F07FFD01A9114803F08C
:10239000C5FE144B1B684BB101462846984703B055
:1023A00030BD114940F2622003F064FE03B030BD3D
:1023B00001A9084803F084FE04460028F6D00B4D1E
:1023C000D0E701A9034803F07BFE04460028EDD0C6
:1023D000074DC7E7440B0020901F0100380A00207A
:1023E000680B00209C090020301F01008C1F010099
:1023F000881F01002DE9F04F87B006AE0025044686
:10240000894692469B4646F8105DA84601E008F1D1
:102410000108626801235568214600223046A8471A
:102420000028F4D18DF806000490B8F1000F28D0F0
:102430000546064662680123576821460DF10602EB
:1024400004A8B84762680123576821460DF10702C6
:1024500004A8B8479DF807304B454FF000022146CD
:1024600004A803D1AA4510D00135EDB29DF806307D
:102470006768023B7F68B8479DF806301E44B04548
:10248000D8D8052007B0BDE8F08F109A9DF8063027
:1024900013608BF800308BF801906168023B4D6847
:1024A0000BF102022146A847002007B0BDE8F08FDB
:1024B000014B1888704700BF540B00202DE9F04FE6
:1024C00085B0054605F002FA60B108234FF4847226
:1024D0005449554803F0DCFD50B10324204605B0B3
:1024E000BDE8F08F514940F2313003F0C3FDECE715
:1024F0004F4806F00BFB04460028EFD14D4A4E4BE7
:102500004E4E1470214648224D4834601C600EF037
:1025100089FC214648224B480EF084FC002D6ED0E9
:1025200095E80700484B83E80700002005F098FA7B
:1025300000285CD1454DDFF80CB12B7AD5F804A00A
:102540003A4F019305F1090400261A46F3B293426B
:102550003AD2002C38D0617891B3A378E31818BF31
:102560004FF0010913D12BE0B8F1080F21D80BEB84
:10257000C8031D60DAF800005860894509F10103BD
:10258000D8B21DD2A3784B44E31819D081461878ED
:10259000030600F00F08E7D5B8F1080F05D9394652
:1025A0004FF4CC7003F066FD6178254B03EBC80354
:1025B000DFE739464FF4CF7003F05CFD6178D6E772
:1025C00001360334019AC1E70B238DF80C30BAF1C0
:1025D000000F21D0DAF80030B3B11C4803A99847A6
:1025E000044600283FF47AAF06F046FB76E78528DC
:1025F000A0D00E4A40F25F31FFF74AFA9AE7124B39
:102600001D605D601D7290E7084940F2111003F0F3
:1026100031FDDAF80030E0E704494FF4887003F048
:1026200029FDD7E73C0A0020440B0020301F0100A1
:10263000412200006C0B00205C0B0020580B002096
:10264000A8090020F00900209C090020BC1F0100FF
:1026500010B506F021FC08B9082010BD06F024FCD6
:1026600004460028F8D1064805F00AFA00B910BD62
:10267000044A40F2C231FFF70BFA204610BD00BFFA
:10268000841F0100301F010006F006BB08B506F0EC
:1026900015FC20B1044940F2D13003F0EBFCBDE859
:1026A000084007F08DBE00BF301F010030B583B079
:1026B00006F0FAFB002830D04FF0804303E0D3F857
:1026C0003824D10727D5D3F838249207F7D501A9A4
:1026D000154803F0F5FC0446E8B1144D2868206065
:1026E000002003F0B7FB124B12481B88026801332D
:1026F0009B1AE380002103F061FDA080002003F01D
:10270000C3FB01A9084803F009FD0B4B1B6813B17B
:1027100001462846984703B030BD08494FF476700B
:1027200003F0A8FCC8E700BF440B00209C1F010079
:10273000380A0020680B00209C090020301F01008F
:1027400010B582B0822301A912488DF8003003F041
:10275000B7FCE8B1044600982060002003F07AFB43
:102760000D4B0E481B88026801339B1AE380002141
:1027700003F024FDA080002003F086FB01A905489A
:1027800003F0CCFC064B1B6813B101466846984722
:1027900002B010BD440B0020380A0020680B002056
:1027A0009C0900202DE9F04F824685B0002800F0FA
:1027B000E080DAF80430002B00F0CD801B68002B9D
:1027C00000F0D180DAF800301B6823B1784940F27C
:1027D0006D5003F04FFC06F067FB002841D106F076
:1027E0005BFB00283DD09AF80820DFF8D0B1704F8D
:1027F000DFF8C08100240AF10903661C94420193AA
:10280000F6B241D224B2019B04EB44041C193CD023
:10281000002507E0B9F1080F29D80BEBC9030135F2
:102820001B68D3B96278EBB29A4226D9A2781344D6
:10283000DC4222D0E25C02F00F091206EAD5B9F1BF
:10284000080F04D939464FF4CC7003F013FC08EBA1
:10285000C90301351B68002BE4D0112005B0BDE889
:10286000F08F534940F2715003F004FCBBE7394646
:102870004FF4CF7003F0FEFBCFE79AF80820344600
:10288000661C9442F6B2BDD300240AF10903DFF8B6
:102890002C91474D474E01935FFA84F8904542D200
:1028A000019B08EB480813EB08083CD098F801306E
:1028B000BBB398F8023018EB030318BF4FF0010BBD
:1028C00018D12EE0082F24D809EBC703C3F800A0C5
:1028D000DAF8042012685A6098F801100BF101032D
:1028E0005945DAB21BD998F802305B4418EB030360
:1028F00015D093461A78130602F00F07E2D5082F79
:1029000004D929464FF4CC7003F0B4FB06EBC7039F
:10291000DCE729464FF4CF7003F0ACFBD4E79AF81C
:1029200008200134B8E7244C236833B1204D9A4580
:1029300025D01C682368002BF9D1C4F800A0DAF870
:1029400004300B228DF80C204BB31B68F3B15046BA
:1029500003A9984782E7164940F26B5003F08AFBBF
:10296000DAF804302AE7124940F26C5003F082FB97
:1029700028E70F4940F26A5003F07CFB19E729462B
:1029800040F2975003F076FB2368D2E7084940F203
:10299000111003F06FFBDAF804301B68D7E7044925
:1029A0004FF4887003F066FBDAF80430CDE700BF1F
:1029B000301F0100A8090020580B0020F00900205A
:1029C000024B1878003018BF01207047640B0020BC
:1029D00000F00F03072B10B5044604D806F0CCFC1A
:1029E000204607F0B1F82046BDE8104007F018B8BF
:1029F00007F094BB014B1868704700BF580B0020CC
:102A000070B4114B1E68A6B1357A75B1737A8342E2
:102A100006F1090210D0002303E012F8034F8442AC
:102A20000BD00133DBB29D42F7D133681E68002E14
:102A3000EAD1304670BC704700230029F9D03046F7
:102A40000B7070BC704700BF580B002070B5154666
:102A50000446A0B16368C3B11B6823B12946204670
:102A6000BDE8704018470C4940F2111003F002FB1A
:102A70006368294620461B68BDE870401847064930
:102A800040F20F1003F0F6FAE4E703494FF48870C0
:102A900003F0F0FA6368DFE7301F010000F00F0376
:102AA000082B01D910207047020670B54CBF104AA0
:102AB000104A02EBC3031D684DB16B680C4683B12D
:102AC0001B6833B121462846BDE8704018471020E6
:102AD00070BD094940F2111003F0CCFA6B681B6815
:102AE000F0E705494FF4887003F0C4FA6B68E7E734
:102AF000A8090020F0090020301F010070B5144B18
:102B00001C681CB30546134E07E02946204698472B
:102B1000062813D123681C68C4B163687BB11B68A5
:102B2000002BF2D1314640F2111003F0A3FA636892
:102B300029461B68204698470628EBD070BD3146D1
:102B40004FF4887003F096FA6368E8E7062070BDDA
:102B5000580B0020301F010038B50D46044606F022
:102B600029FA08B9082038BD044B1B78022BF9D18B
:102B700029462046BDE8384006F03EBA6C0B0020DE
:102B800038B50D46044606F015FA08B9082038BDD8
:102B9000044B1B78022BF9D129462046BDE838406A
:102BA00006F0F0BA6C0B0020F8B543689B68044649
:102BB0000E4615461BB19847062800D0F8BD237A6B
:102BC000B34202D33DB10720F8BD184940F2F920C5
:102BD00003F050FAF6E7237AB34222D9093406EB20
:102BE000460634446778F7B12B463A4614E0A3789A
:102BF0006219D65C06F00F03072B05D8304606F0A5
:102C0000BBFB304606F0A0FF3046013506F008FF5A
:102C1000EBB29F4207D962789A42E8D800231B782A
:102C2000FFDE6B78FFDE0020F8BD00BF301F010023
:102C300043681B6903B11847184670472DE9F84FE0
:102C4000334BD3F80080B8F1000F5FD0DFF8C4B089
:102C500098F808A0BAF1000F47D000273C4608F1C9
:102C6000090511E00022214640469847062810D069
:102C700020B1594640F26A7003F0FCF90137FCB20A
:102C8000A24505F1030530D9D8F804309B68002B24
:102C9000E8D198F80830A34230D3A34222D995F85E
:102CA0000190B9F1000FE9D0002423464A4614E010
:102CB000AB782A19D65C06F00F03072B05D83046EF
:102CC00006F05AFB304606F03FFF3046013406F06E
:102CD000A7FEE3B29945D1D96A789A42E8D8002391
:102CE0001B78FFDE00235B78FFDED8F80030D3F8D6
:102CF0000080B8F1000FABD1BDE8F88F594640F223
:102D0000F92003F0B7F998F80830C6E7BDE8F88F66
:102D1000580B0020301F01002DE9F047244B1F689D
:102D2000002F43D0DFF88CA097F80890B9F1000F7E
:102D30002CD04FF00008444607F109057B68DB689A
:102D400013B12146384698473B7AA34227D3A34282
:102D500022D96E7896B100242346324609E0AB783A
:102D60002A190134D05C07F0D9F9E3B29E4205D9A3
:102D70006A789342F3D300231B78FFDE08F1010841
:102D80005FFA88F4A14505F10305D7D83B681F68B1
:102D9000002FC9D1BDE8F08700235B78FFDE5146E4
:102DA0004FF4467003F066F93B7AD0E7BDE8F08750
:102DB000580B0020301F01002DE9F0418B4D2B688E
:102DC0000446002B00F0FE8203F078F8052840F25C
:102DD0008C802378852B00F2EE82DFE813F012025C
:102DE000B701B6023F0290028C009300EC02B800DB
:102DF000DA00FC00EC02EC02EC02EC023601EC0220
:102E0000EC02EC02EC02EC02EC02EC02EC02EC0252
:102E1000EC02EC02EC02EC02EC02EC02EC02EC0242
:102E2000EC02EC02EC02EC02EC02EC02EC02EC0232
:102E3000EC02EC02EC02EC02EC02EC02EC02EC0222
:102E4000EC02EC02EC02EC02EC02EC02EC02EC0212
:102E5000EC02EC02EC02EC02EC02EC02EC02EC0202
:102E6000EC02EC02EC02EC02EC02EC02EC02EC02F2
:102E7000EC02EC02EC02EC02EC02EC02EC02EC02E2
:102E8000EC02EC02EC02EC02EC02EC02EC02EC02D2
:102E9000EC02EC02EC02EC02EC02EC02EC02EC02C2
:102EA000EC02EC02EC02EC02EC02EC02EC02EC02B2
:102EB000EC02EC02EC02EC02EC02EC02EC02EC02A2
:102EC000EC02EC02EC02EC02EC02EC02EC02EC0292
:102ED000EC02EC02EC02EC02EC02EC02EC02260149
:102EE00057017A01B001F5018C00414940F22C40B4
:102EF00003F0C0F86DE73F4B214693E80500BDE8BD
:102F0000F0411047A5782B0605F00F0600F1AF82BF
:102F1000082E00F28783374D05EBC6052B68002B82
:102F200000F095836B68002B00F09783286821469A
:102F30009847002800F00881A07800F00F03013BBB
:102F4000062B00F20181BDE8F04106F0C3B92A4B1F
:102F50005B680BB1082098472D68002D00F0F480C5
:102F6000234E07E02846214698472B681D68002D10
:102F700000F069826B68002B00F044831B68002B13
:102F8000F0D1314640F2111003F074F86B681B6801
:102F9000E8E7194B5B680BB1092098472D68002DB5
:102FA00000F0D280124E07E02846214698472B6851
:102FB0001D68002D00F04B826B68002B00F01B8316
:102FC0001B68002BF0D1314640F2111003F052F88B
:102FD0006B681B68E8E7084B5B680BB10A209847F1
:102FE0002D68002D00F0B080014E0FE0580B00203E
:102FF000301F0100F00900209C09002028462146CE
:1030000098472B681D68002D00F01F826B68002B0D
:1030100000F0B2821B68002BF0D1314640F2111053
:1030200003F028F86B681B68E8E79F4C2378062BB1
:1030300000F03182072B02D0052B40F0858005F08F
:103040008DFF02232370BDE8F081984B5B680BB1C4
:103050000F2098472D68002D76D0954E07E0284622
:10306000214698472B681D68002D00F0EA816B68A7
:10307000002B00F07A821B68002BF0D1314640F221
:10308000111002F0F7FF6B681B68E8E7894B8A496B
:1030900093E8050090472C68002C00F09981844E3D
:1030A000854D07E020462946984723681C68002C78
:1030B00000F08E816368002B00F073821B68002B88
:1030C000F0D1314640F2111002F0D4FF63681B6862
:1030D000E8E7754EFFF720FE06F072FD3278931E8A
:1030E000DBB2062B05D87549CB5C13B104F092FC1A
:1030F0003278022A00F0C981082A00F0C6812C68C3
:1031000000233370002C00F00382694F6C4D07E000
:1031100020462946984723681C68002C00F0F88157
:103120006368002B00F01A821B68002BF0D139462F
:1031300040F2111002F09EFF63681B68E8E75A4EE8
:103140003378032B00F0AD81BDE8F081564EFFF7D8
:10315000E3FD00F0ADFB3278931EDBB2062B00F2EC
:1031600078815649CB5C002B00F07381022A03D092
:10317000082A01D005F0F2FE4C4B5B680222327047
:103180000BB1012098474B4B214693E8050090472F
:103190002D68002DD8D0464E07E028462146984796
:1031A0002B681D68002D00F0D0816B68002B00F0AB
:1031B000CE811B68002BF0D1314640F2111002F095
:1031C00059FF6B681B68E8E7374E3378032B00F034
:1031D000868105F083FE0028B6D03278931EDBB2DC
:1031E000062B40F22E82374804F0D2FB3278022AB6
:1031F00000F01E82082A00F01B8206233370BDE80F
:10320000F081294B304A1B7861881180032B00F034
:103210006281082B00F05F81244B5B680BB10020BA
:1032200098472A4B1D68002D8ED0214E07E0284676
:10323000214698472B685D68002D00F084816B68FB
:10324000002B00F0A7811B68002BF0D1314640F223
:10325000111002F00FFF6B681B68E8E7124E33781D
:10326000082B00F0FF809A1ED2B2062A40F2D481C9
:10327000144804F08DFB3378022B00F0CA81082B30
:1032800000F0C78105233370084B5B680BB1032046
:103290009847084B214693E8050090472D68002D7C
:1032A0003FF452AF024E1BE06C0B00209C09002043
:1032B000301F0100F0090020A01F0100281F01009D
:1032C000A41F01001C000020540B00205C0B0020F8
:1032D0002846214698472B681D68002D00F0318153
:1032E0006B68002B00F04F811B68002BF0D131463A
:1032F00040F2111002F0BEFE6B681B68E8E7B04BAD
:103300005B680BB103209847AE4BAF4993E80500CB
:1033100090472C68002C7BD0AC4EAB4D06E020468D
:103320002946984723681C68002C71D06368002BDD
:1033300000F05A811B68002BF1D1314640F2111088
:1033400002F098FE63681B68E9E7A14E3278931E8D
:10335000DBB2062B05D89F49CB5C13B104F05AFBB6
:103360003278022A00F09480082A00F09180944B71
:103370005B68032232700BB1022098472D68002D44
:103380003FF4B9AD914E07E02846214698472B6897
:103390001D68002D3FF4AFAD6B68002B00F0088175
:1033A0001B68002BF0D1314640F2111002F062FE92
:1033B0006B681B68E8E7854940F22650BDE8F0419C
:1033C00002F058BE814940F2254002F053FEFBE472
:1033D0007B4B5B680BB10D2098477D4EFFF79CFC43
:1033E00000F070FA012005F013FD3278931EDBB275
:1033F000062B05D87749CB5C13B104F00BFB327870
:10340000022A3FD0082A3DD001233370BDE8F08165
:103410006F4E3378062B21D0082B0ED09A1ED2B2D5
:10342000062A40F208816C4804F0B2FA3378022B85
:1034300003D0082B01D005F091FD02233370BDE8C5
:10344000F081BDE8F081BDE8F081BDE8F081BDE824
:10345000F081614804F09CFA327887E607233370E4
:10346000BDE8F0810223337005F082FD0CE7082EE1
:1034700004D956494FF4CC7002F0FCFD574D05EBD2
:10348000C6054BE505F060FDBEE705F05DFD36E6DF
:1034900005F05AFD6BE705F061FD08232370BDE8D8
:1034A000F08106F057FD00283FF44EAE3278931EAF
:1034B000DBB2062B05D84749CB5C13B104F0AAFA5E
:1034C0003278022A00F0D080082A00F0CD80042350
:1034D0003370BDE8F0814248FFF76EFC9CE606F0D1
:1034E00039FD00283FF475AE3278931EDBB2062B0F
:1034F00005D83849CB5C13B104F08CFA3278022A33
:1035000000F0B580082A00F0B2800423337060E632
:103510002C4B344993E805009047294B5B680BB16D
:103520000E2098473378023BDBB2062B3FF60CAEF9
:10353000284AD35C002B3FF407AEBDE8F04104F00D
:1035400069BABDE8F081BDE8F081BDE8F08131469F
:103550004FF4887002F08EFD6B682AE639464FF40E
:10356000887002F087FD6368DEE531464FF48870AD
:1035700002F080FD6B687EE531464FF4887002F002
:1035800079FD6B6846E531464FF4887002F072FDB4
:103590006B68A9E631464FF4887002F06BFD6B68EA
:1035A00051E631464FF4887002F064FD636885E5AA
:1035B00031464FF4887002F05DFD6B68F0E600BFA5
:1035C0009C090020F0090020AC1F0100301F010001
:1035D0006C0B0020281F01001C000020A8090020FF
:1035E000A81F0100A41F010031464FF4887002F0AB
:1035F00041FD63689EE631464FF4887002F03AFD63
:103600006B68DDE431464FF4887002F033FD6B687F
:10361000B4E405F099FC35E616498A5C002A7FF48B
:103620002BAE25E614494FF4CF7002F023FD72E46F
:1036300005F08AFCE1E50F498A5C002A7FF4F7AEC9
:10364000F1E60C49CB5C002B7FF4D1ADCBE50A4908
:1036500040F2025002F00EFD64E4074940F20350CC
:1036600002F008FD6B6861E405F06EFC2FE705F0E1
:103670006BFC4AE7281F0100301F010030B5274DC1
:1036800083B028680023019300B38488A4B1C38861
:10369000B3F5006F3ABF5A1C92B2012204F1FF3415
:1036A00028BF00238480C28001A8ADF80630FFF750
:1036B00083FB012003B030BDFFF77EFB184919489A
:1036C00002F06CFD01202C6003B030BD1449154898
:1036D00002F034FD044628600028D6D1124B1B6846
:1036E0000BB91846E6E702F0B5FB104A0E481388FE
:1036F000B3F5006F35BF5C1C2346A4B20124012141
:103700001480ADF8063002F09DFD002002F0BCFBF5
:1037100001A8FFF751FB0120CCE700BF700B002090
:1037200098090020440B0020680B0020380A002074
:10373000002070472DE9F04F87B04B6803900C468E
:103740000292002B00F09580029B402B7BD805F065
:1037500093FDE668029B9E4228BF1E468246002ECD
:1037600000F097804FF000084746C1464FF0010B2C
:10377000CDF80480A3686168B342984628BFB0467C
:1037800001B342460AEB07000DF041FBA268E36873
:10379000C4F80490A2EB0802A3EB0803A6EB08060A
:1037A0004744A260E3607AB1002B2BD0A3689BB1A1
:1037B000002EDFD1039AC2F800A05760584607B028
:1037C000BDE8F08F13BBE368019A002A33D11BB91F
:1037D0009346002ECED1EDE72168002940D0CDF8E8
:1037E000109003E0A36821680133A3604B680022B6
:1037F0005D6804A80123A8470028F3D12061002EAA
:10380000B8D1D7E79B46002EB4D1D3E72046434634
:1038100050F8101B4A6855680AEB0702A847A268CF
:10382000E368A2EB0802A3EB0803A6EB08064744F3
:10383000A260E36022B925685DB12A68126822603F
:1038400001220192B0E718494FF4CB7002F012FC4C
:103850007DE7164940F2432002F00CFCE368ECE7F8
:103860006160002FA6D0029BBB4288BF4FF0000BC7
:10387000A0E70D688DB12B681B68002B7FF464AF47
:10388000A368002B7FF460AF03999B460B604B60ED
:1038900094E737464FF0010B8CE7044940F2432090
:1038A00002F0E8FBE7E700BF702001001C200100E8
:1038B00008B50020FFF78CF88020BDE80840FFF72E
:1038C00087B800BF08B50020FFF792F88020BDE858
:1038D0000840FFF78DB800BF70B5C38893421D46FE
:1038E00028BF1546934284B00E461FD80022002000
:1038F00003920196029502F0ADFA01A98020FFF72C
:103900002BF9044628B1002002F0BEFA204604B08C
:1039100070BD05F0B9FD802818BF1024F3D1094A05
:10392000094B92E8030083E80300ECE7802014468B
:1039300005F024FBB4FBF0F303FB1042B2FA82F271
:103940005209D4E704200100A00B00202DE9F04F1C
:103950000B78062B89B000F0B2801ED90D2B00F039
:10396000978045D80B2B76D00C2B4AD1B24C2378BC
:10397000012B06D0B14940F2514002F07BFB237885
:103980008BB3AF49AF480A78002322F002020A70D5
:1039900023701D46FFF710FA26E0022B23D065D9CD
:1039A000032B43D0052B2CD105460DF115008DF8C6
:1039B000143005F007FD9DF81520A34C002102F0FE
:1039C0001F032160032B00F2CE80DFE813F0F60026
:1039D000D000C300B300994940F2654002F04AFBB1
:1039E0002378012B16D10025284609B0BDE8F08FB9
:1039F0000E2B0BD0852B04D18F4B1A78032A00F0A5
:103A000044810625284609B0BDE8F08F8A4C23780A
:103A1000012BE0D98A4A8B481378012123F0020355
:103A2000137021700025FFF7C7F9DDE7874802F022
:103A300027FC30B1864B01221A60BFF36F8FBFF3B2
:103A40004F8F7D4B1D78002DCDD17C4940F2374002
:103A500002F010FBC8E7784B1B78002BC3D07749E6
:103A600040F24B4002F006FB0025BDE7012BC8D118
:103A7000714B1A78032AC4D0714972480A7803241A
:103A800022F002020A701C700625FFF795F9ABE7D9
:103A90004FF08043D3F8383413F001032DD0664B38
:103AA0001A78022A9FD0664966480A78022422F0D2
:103AB00002020A701C700025FFF77EF994E7C878AF
:103AC00003280C469DD08B785B0627D15E4E336869
:103AD000002B00F0958000223260716898470546FF
:103AE000002841D13368002B00F0C380A378002B5D
:103AF0007FF479AF05F08CFC76E74F4A1178012905
:103B00003FF471AF4E4C4F482178012621F002015D
:103B10001D4621701670FFF74FF965E740F27440BB
:103B2000464902F0A7FAE078D0E7444940F28130F4
:103B300002F0A0FA05A8FEF7E1FF0546A5B9256841
:103B4000002D00F09F8005F09FFC054600287FF4C3
:103B50004AAFCFE79DF81900010740F09D8012F0B1
:103B6000600F00F0D080062505F084FC3CE703A937
:103B70009DF81900FEF744FF0646002800F08A80F1
:103B800005AA9DF80C10FEF761FF06280546D5D161
:103B90009DF8153013F0600FE6D1274A9DF80C1000
:103BA0001278DF099DF8163040F0F3800B2BDBD143
:103BB000052A00F0BF810825D6E7002D00F09B8084
:103BC000C2F34115002DB5D1D2096FD19DF8163041
:103BD000013B082BAED801A252F823F01B3C000099
:103BE000353B0000053C0000353B00002B3B00004E
:103BF000353B0000353B0000353B0000553C0000E4
:103C00000E25B1E7BDF81730012B93D1FEF7D8FE92
:103C1000002840F0B3810F25A6E7BDF81730012B2F
:103C200088D1FEF7CDFE0028F5D0054A137823F0A1
:103C30000203137083E700BF800B00207020010097
:103C40009C0B0020CC1F0100A00B0020A80B002023
:103C50005C700240BD4D2B78043B012BABD89DF826
:103C60001730002B00F09C81012B00F08D8107257F
:103C70007AE7B74B1B68082B04D1B64B1B68002BA7
:103C80003FF4B1AE05F0ECFBAEE6B349B3480A78B9
:103C90000424F5E6102567E705A9FEF7FFFE0628D0
:103CA00005467FF44BAF9DF8152058E79DF8161098
:103CB000062958D0082945D000297FF43BAFA84DEC
:103CC000022228460DF0AEF8A34A2B78127890070E
:103CD00043F0010148BF43F0030329700DF11500C3
:103CE00048BF2B7002229E49FFF7F6FD0546062DC0
:103CF0007FF424AF1EE79B4940F25D3002F0BAF931
:103D00009DF815205CE79DF81620904B9DF8195002
:103D10001B78012A51D066D3032A7FF424AF05F023
:103D20000F02072A3FF61FAFBDF8171000297FF4D6
:103D30001AAF052B02D0002A7FF43DAF284605F0CC
:103D4000C9FAFCE6814B1B78052B5DD0042B7FF470
:103D5000F1AE834B1D700DF1150001228049FFF774
:103D6000BBFD0546C3E79DF81830022B72D0032B2C
:103D70005AD0012B7FF4DEAEBDF81B30002B3FF490
:103D8000DEAE0DF1150012227749FFF7A5FD0546BD
:103D9000ADE7002B3BD00A2B7FF4E6AE052A7FF47B
:103DA0000AAF3046FEF744FF6D493A4608700DF100
:103DB0001500FFF791FD0546C0E605F00F02072A42
:103DC0003FF6D1AEBDF8171000297FF4CCAE052B1D
:103DD00002D0002A7FF4EFAE284605F0CDFA28463F
:103DE00005F0B2FEABE6052B02D02A077FF4E3AE66
:103DF000284605F093FA5A49022208800DF1150071
:103E0000FFF76AFD054699E6554B1A70A3E7052AA8
:103E10007FF4D1AE524D0DF1150029462B800222C0
:103E2000FFF75AFD054689E6BDF81B30002B3FF42D
:103E300086AEBDF819109DF8170001F0CBFF0146C2
:103E400000283FF477AE0DF115000A78FFF744FD26
:103E500005464CE7BDF81B30002B3FF470AE092B34
:103E600028BF09230193FEF7C5FDDFF8F8B0064629
:103E70004FF0090AA946EEB17368002B48D05B6881
:103E8000002B3FD00DF12008002748F8147D00E0FA
:103E90000137726801235568314600224046A84721
:103EA0000028F5D1337A326899441668BA445FFA2B
:103EB00089F9E0E72A4E2D49019A30460CF0A7FF18
:103EC00086F80490A6F802A0FEF77AFD18B1F379FF
:103ED00043F02003F371FEF78DFD254BBDF81B2049
:103EE00001991860002099605E60DA6001F0B2FF0D
:103EF00020498020FEF744FE054680B1002001F0F5
:103F0000C3FFF4E6594640F2C72002F0B3F8B9E720
:103F1000594640F2C62002F0ADF87368AFE705F0ED
:103F2000B3FA802805BF144B93E80300102584E8FA
:103F30000300E3E7BDF81730FF2B3FF698AE30469D
:103F40009DF81720FEF730FE0546F7E5800B0020B0
:103F500030010010340100109C0B0020CC1F010028
:103F6000AC0B002070200100F01F0100D01F0100E9
:103F7000840B0020C820010004200100114A13789E
:103F800043F002031370DAE5FEF758FE2B78052B99
:103F90003FF4D5AD05230C482B70FEF70DFFCEE5A1
:103FA000FEF7BAFE2B78042B3FF4C9AD054A06484C
:103FB0001378042123F0020313702970FEF7FCFE2E
:103FC000BDE500BF9C0B0020CC1F010008B14023C1
:103FD00003600148704700BFAC0B002038B50446B1
:103FE00020B90D494FF4887002F044F8257A3DB1AC
:103FF000A27A012A04F1090309D800231B78FFDE05
:10400000054940F2431002F035F86B78FFDEE27AA2
:104010001344587838BD00BFE42001002DE9F04377
:10402000CF4E0D46097A317083B00446002800F067
:104030005A81216840F6E800814200F05E8140F23A
:10404000A88040F6F900814200F0968140F2E080BD
:1040500040F6FB00814200F0B980C0F0778140F665
:10406000FC00814200F06C8140F6FD00814240F08E
:10407000DD80002A00F0C4812779012000215754F7
:10408000DFF8ECE2B74F9EF800103F780131C9B27B
:104090008EF800108F4200F2E480B3490F780137A8
:1040A000FFB20F703178B94240F2A58109218342F5
:1040B000217140F2158200F1010E002A00F01582F4
:1040C0002179115473454FF00401217140F29A8116
:1040D0000EF1010702F80E10A349287A09788842E8
:1040E00040F2CE8101EB410005F10901DFF87CE2ED
:1040F00011F800C084F804C00144BB42CEF800109F
:1041000040F2D781791C002A00F0DE812079D05559
:104110008B424FF00000207140F2C18101F1010E8D
:10412000924F5054396873454878207140F2AD8100
:104130000EF101070821BB4202F80E00217140F286
:104140004681781CD155834295F82810217140F2A0
:10415000348100F1010E1154734595F82910217135
:1041600040F221810EF101070020BB4202F80E103F
:10417000207140F213810146781CD1557B4F79495B
:104180003F68DFF8ECE17F780F7000218EF80010B7
:1041900080E740F6E300814200F0FD8052D940F60E
:1041A000E50081422CD0C0F0B78040F6E6008142A5
:1041B00000F0AB8040F6E700814237D1002A00F0E2
:1041C0005D8121794FF0010E0020C4E7002A00F044
:1041D000A081207901274FF0000E0021BB4202F898
:1041E0000E00217140F2EE800846791CD0558B42BA
:1041F0004FF00000207140F2DB800746481C3EE78C
:10420000002A00F02B81207901274FF0000E91E762
:1042100040F6F400814200F0A08040F6F5008142B3
:1042200000F0AE8040F6E900814204D0002020601A
:1042300003B0BDE8F083002A00F06D8121790120F0
:1042400000279AE740F6DD00814275D040F6DE0097
:10425000814269D00029E9D143480F4601700846E0
:1042600020E707218342217140F2C080471C002AC9
:1042700000F02F81217911549F424FF005012171E7
:1042800080F0AF8007F10109D15538483849D0F89E
:1042900000800F78B8F1000F00F02E8198F801101F
:1042A000B94275D998F8021047444B45795C2171A1
:1042B00040F2FA8009F10101002A00F0FF80207924
:1042C00002F809008B424FF00200207140F2E280B8
:1042D000074601F1010E40207345575420717BD9E8
:1042E0000EF1010779E7234940F6D6008DE80C006E
:1042F00001F0C0FE9DE80C009BE6002A00F09980CA
:10430000217901274FF0000E2EE7002A00F0988057
:1043100021790120002715E7002A00F0A6802079E6
:104320004FF0010E0021FBE6002A00F08080217989
:1043300001274FF0000ECDE64FF0010E0020BCE645
:1043400001210027002A6DD020794FE7002A5ED096
:1043500027794FF0010E0021BDE70127002086E7F5
:10436000EE0B0020EC0B0020ED0B0020F00B0020EA
:10437000EF0B00204C21010001214FF000099BE7C9
:10438000002A00F0C38021794FF0010900277BE764
:1043900000231B78FFDE01210027B4E640F6E90385
:1043A0002360012044E740F6E803236001203FE753
:1043B00040F6FD03236001203AE740F6E70323605F
:1043C000012035E740F6FC032360012030E740F68A
:1043D000E603236001202BE740F6FB032360012066
:1043E00026E740F6F5032360012021E740F6F403B9
:1043F000236001201CE740F602132360012017E729
:1044000001203DE640F6DE032360012010E7012194
:1044100040208B422071DFD94F1C0020BB4220710D
:10442000D0D902318B422271C2D9481C28E601271B
:1044300052E60120002183422171AFD901309DE66F
:10444000012095F8281021718342B6D9013095F8E2
:10445000291021718342A6D90130EBE70120082100
:1044600083422171B3D90130EBE701202B49096860
:1044700083424978217108D90130F0E70120E6E74D
:10448000264A002313601B78FFDE40F6E503236015
:104490000120CDE640F6FA0323600120C8E640F68D
:1044A000E40323600120C3E640F6F9032360012002
:1044B000BEE640F6E30323600120B9E602208B420A
:1044C0002071E7D90131A3E78B422271E7D9481C5B
:1044D000CCE705219F42217183D207F10109D4E67F
:1044E00040F6DD0323600120A2E60421734521711B
:1044F00088D90EF10107EFE5094940F243108DE834
:104500000C0001F0B7FD9DE80C00C7E64FF0010973
:10451000BBE6114680E7012030E600BFF00B00202B
:10452000E4200100F8B50F46044668B325682DB3B2
:10453000267ABEB1A27A04F10903EAB1E17A012A2E
:104540005E5C16D90B4430465C7804F0C3FE20460E
:1045500004F0C0FE304605F00BFC204605F008FCD8
:104560002F73F8BD0D4940F2431001F083FD7378BD
:10457000FFDE00231B78FFDE1378FFDE08498E2064
:1045800001F078FD2568D3E70549812001F072FD2F
:1045900003498D2001F06EFDC8E700BFE420010053
:1045A0004C21010070B5044684B0002830D0256845
:1045B00045B3267AFEB1A27A012A04F1090317D97C
:1045C000E27A134405F10D045E781F220021204693
:1045D0000CF028FC1F220023304601A9019402920E
:1045E0000393FEF7B9FA08B902232B7304B070BD28
:1045F00000231B78FFDE0B4940F2431001F03AFD27
:104600007378FFDE08498E2001F034FD2568D0E77D
:104610000549812001F02EFD03498D2001F02AFD7E
:10462000C5E700BFE42001004C210100F0B50F46B2
:1046300085B0054600283AD02C68002C31D02E7A5F
:1046400046B3AB7A05F1090013B3A36D626CE97A46
:10465000934238BF1346405C84F834301D0A190C6D
:104660001A0E84F8355084F8361084F8372004F197
:104670002C050D22002384F8387001A901950292BF
:104680000393FEF769FA08B90623237305B0F0BD5A
:104690001B78FFDE0A4940F2431001F0EBFC73780F
:1046A000FFDE08498E2001F0E5FC2C68C7E70549CC
:1046B000812001F0DFFC03498D2001F0DBFCBBE72A
:1046C000E42001004C2101002DE9F043054685B0AE
:1046D00000286DD02C68002C61D094F84830002B55
:1046E00051D1206C10B905B0BDE8F08394F83E209C
:1046F000A96991421846F6D901F0ACFB2B68002B52
:1047000062D093F83E30A9698B426AD294F83E3069
:1047100094F83C202F69D5F814E01A440133B2FB19
:10472000F1F601FB162684F83E30F6B200200EFBAF
:10473000067601F0A9FB276C6B699F4228BF1F46D4
:10474000002E56D0012384F84830D5F80090B9F1F6
:10475000000F3FD095F80880B8F1000F17D0AA7A63
:10476000012A05F1090320D9EA7A019613440025AC
:104770005878029701A90395FEF7EEF908BB0523C7
:1047800089F80C30AFE7002005B0BDE8F0831C4984
:1047900040F2431001F06EFC98F80130FFDE194939
:1047A0008E2001F067FC2C6897E700231B78FFDE62
:1047B0001449812001F05EFC12498D2001F05AFC61
:1047C00088E784F848508EE70E498E2001F052FCAD
:1047D0002B6896E70B498E2001F04CFCD5F8009031
:1047E000B8E7002001F050FB276C6B699F4228BF9F
:1047F0001F4604494FF4747001F03CFC0026A1E709
:10480000E42001004C210100F0B5054685B0E8B177
:104810002C68ACB194F860307BB994F8613013B176
:10482000062005B0F0BD606D0028FAD094F83E2057
:10483000A969914213D81846F3E7002005B0F0BDEE
:104840003D498E2001F016FC2C68E3E73A498120AF
:1048500001F010FC38498D2001F00CFCD8E76A69A2
:10486000216DA77E824228BF02461846EB69561E7C
:104870000E4453F82770B6FBF1F601F0EBFA2B6803
:10488000002B43D093F83E30A9698B4234D294F880
:104890003E3094F83C202869D5F814E01A44B2FB65
:1048A000F1F501FB15250133EDB20EFB050584F88A
:1048B0003E30002001F0E8FA0DB3E26D03950123CC
:1048C000019284F8603002963B689A6822B35B6973
:1048D0004BB33846019D984703689D4204D3072097
:1048E000002384F860309CE73B6838469B6801A948
:1048F0009847002895D0F3E7002001F0C5FA0E494B
:1049000040F2AE3001F0B6FB0025D6E70A498E2012
:1049100001F0B0FB2B68B5E708494FF4897001F04E
:10492000A9FB3B68D3E7054940F2131001F0A2FB55
:104930003B685B69CDE700BF4C210100AC21010061
:10494000F0B5054687B000286CD02C68002C63D0E9
:1049500094F86030F3B994F8610018B1062210465B
:1049600007B0F0BD636DCBB9227B052A12D1A36DD0
:10497000002BF3D194F838102846FFF757FE024673
:104980000028ECD001903F4940F20C4001F072FB4E
:10499000019AE4E70022104607B0F0BD94F83D20EC
:1049A000002ADCD06E69226DA77EE969B34228BF78
:1049B00033465E1E164451F82770B6FBF2F601F03E
:1049C00049FA2B68002B48D093F83D0000283BD0D3
:1049D0006A6994F83C302D69002002FB035501F010
:1049E00053FA002D32D0E26D0392012384F8603037
:1049F000049605953B68DA68002A34D05B69002B81
:104A000038D03846039D984703689D4213D3072248
:104A1000002384F86030A2E71A498E2001F02AFBB7
:104A20002C6895E71749812001F024FB15498D205A
:104A300001F020FB89E73B683846DB6803A998470B
:104A4000024600288BD0E3E701F01EFA0D494FF42F
:104A50007D7001F00FFB0025C5E70A498E2001F0AB
:104A600009FB2B68B0E708494FF4977001F002FB8F
:104A70003B68C3E7044940F22F1001F0FBFA3B68A2
:104A80005B69BEE74C210100AC2101002DE9F04338
:104A9000054685B080B32C6844B394F8483063B9B8
:104AA00094F8490020B10625284605B0BDE8F083FA
:104AB000236C3BB194F83D303BBB0025284605B044
:104AC000BDE8F083227B042AF7D1636C002BEAD186
:104AD000284694F83810FFF7A9FD05460028EDD0C8
:104AE0003A4940F28F3001F0C5FAE7E737498E20A6
:104AF00001F0C0FA2C68D0E73449812001F0BAFAFD
:104B000032498D2001F0B6FAC5E701F0A3F92B6810
:104B1000002B55D093F83D00002843D02B6994F822
:104B20003C606A69002002FB063601F0ADF9276C93
:104B30006B699F4228BF1F46002E3AD0012384F89C
:104B40004830D5F80090B9F1000F24D095F80880CE
:104B5000B8F1000F14D0AB7A05F1090273B1EB7A0A
:104B60000196D05C0297002601A90396FDF7F4FF99
:104B7000054668B9042389F80C309FE71B78FFDEEF
:104B8000134940F2431001F075FA98F80130FFDE46
:104B900084F8486092E70D498E2001F06BFAD5F851
:104BA0000090D3E701F070F9276C6B699F4228BF32
:104BB0001F46064940F27E3001F05CFA0026BDE750
:104BC00002498E2001F056FA2B68A3E74C21010020
:104BD000E420010070B5054684B0002845D02C685B
:104BE000002C3CD0D4F8152032B128460721FFF71D
:104BF00099FC002004B070BD2E7A3EB3AB7A05F16B
:104C0000090653B3A36D616CE87A03928B4238BFF7
:104C10000B46305C84F83430190E1E0A1D0C01223C
:104C200084F8371084F838200D2304F12C0284F81E
:104C3000356084F8365001A901920293FDF78CFF8C
:104C40000028D7D10623237304B070BD0B4940F26E
:104C5000431001F00FFA7378FFDE1B78FFDE08497E
:104C60008E2001F007FA2C68BCE70549812001F08D
:104C700001FA03498D2001F0FDF9B0E7E4200100BD
:104C80004C210100F8B50B78022B0C4658D0032BB1
:104C900055D1002001F0DEF8A668002E00F0E1807A
:104CA0003568002D00F0D780002001F0D3F895F88A
:104CB0003D30002B00F0B68095F83E3033B9814985
:104CC0004FF4A37001F0D6F995F83E3095F83D10F9
:104CD00095F83C20013B013985F83E3085F83D10C0
:104CE000B169531CB3FBF1F201FB123385F83C3080
:104CF000002001F0C9F86378002B56D1A568002D7B
:104D000000F0C7802B68002B00F0BD806268596DF1
:104D100054681A6DD86D02FB04F28A422044D865AB
:104D200098BF881A996D88BF00208A4294BF8A1A5A
:104D30000022002158659A6583F8601038E0F8BDBC
:104D4000002001F087F8A568002D00F093802F68FF
:104D5000002F73D03E46002001F07CF896F83D30DD
:104D600096F83E209A4230D9AA69934206D3554913
:104D70004FF4897001F07EF996F83D30013386F8E2
:104D80003D30002001F080F8637863B3012387F899
:104D900049302846FFF77AFEF8B12846FFF71AFF98
:104DA0000020BDE8F84001F06FB83046FFF712FF71
:104DB0003046FFF789FC00283AD03046FFF70AFF5B
:104DC0000020BDE8F84001F05FB83E4940F2111004
:104DD00001F050F996F83D30C6E72846FFF714FD7C
:104DE0000028DDD0D9E7A668002E61D03368002BFB
:104DF00058D06268596D54681A6DD86D02FB04F280
:104E00008A422044D86598BF881A996D88BF0020CF
:104E10008A4294BF8A1A0022002158659A6583F855
:104E20006010B6E7274940F2451001F023F943E747
:104E30003046FFF785FD0028B2D0BEE721498E201D
:104E400001F018F92F68002F84D11E498E2001F03F
:104E500011F92E687FE71B498E2001F00BF93568A8
:104E600022E71849812001F005F916498D2001F04B
:104E700001F915E71349812001F0FCF811498D2053
:104E800001F0F8F863E70F498E2001F0F3F82B6882
:104E90003CE70C49812001F0EDF80A498D2001F032
:104EA000E9F82FE707498E2001F0E4F83368A0E71E
:104EB0000449812001F0DEF802498D2001F0DAF882
:104EC00094E700BF4C210100D36C002B40D0936CC1
:104ED000002B40D030B592F90D30002B83B0044642
:104EE0000D460FDB002844D02368002B3BD0D3F8BD
:104EF000153020468BB30721FFF714FB0025284609
:104F000003B030BD002945D02B68002B3AD00021DA
:104F100083F83C1083F83D1083F83E10916CD36CFD
:104F2000994204D9022182F82C109364194600207A
:104F300082F83C0082F85400936351632046FFF7E7
:104F400063FC05460028DAD02046FFF743FED6E78B
:104F50000121FFF76BBBFFF73DBE012103B0BDE8A8
:104F60003040FFF763BB0F498E2001F083F82368C0
:104F7000BDE70C49812001F07DF80A498D2001F040
:104F800079F8B1E7074901928E2001F073F82B6898
:104F9000019ABCE7034901928D2001F06BF8019A58
:104FA000B2E700BF4C2101002DE9F043D36C87B07C
:104FB000002B38D0936C04466BB392F90D30002B64
:104FC00029DB0D46002950D02B68002B45D000214D
:104FD00083F83C1083F83D1083F83E10916CD36C3D
:104FE000994204D9022182F82C10936419460020BA
:104FF0009363516382F83C0082F85400002C3BD04C
:10500000266826B396F84800A8B9356CC5B9284675
:1050100007B0BDE8F0832046FFF7DCFD05462846D3
:1050200007B0BDE8F0830121FFF700FB05462846E5
:1050300007B0BDE8F0830025284607B0BDE8F0833F
:1050400096F83E20A3699A421FD30546DFE74A49F6
:105050008E2001F00FF82668D4E7474901928E2090
:1050600001F008F82B68019AB1E7434901928D20BD
:1050700001F000F8019AA7E73F49812000F0FAFF0C
:105080003D498D2000F0F6FFBAE700F0E3FE23680B
:10509000002B5BD093F83E30A1698B425CD296F82E
:1050A0003E3096F83C20D4F814E027691A440133C6
:1050B000B2FBF1F501FB152586F83E30EDB200207C
:1050C0000EFB057500F0E0FE326C63699A4228BF62
:1050D0001A469046002D48D0012386F84830D4F86F
:1050E0000090B9F1000F2AD0277A0FB3A27A012AD3
:1050F00004F1090319D9E27A03951344002758787B
:10510000CDF8108003A90597FDF726FD054618B9CF
:10511000052389F80C307AE786F848702046FFF7B7
:1051200059FD284607B0BDE8F08300231B78FFDE59
:10513000124940F2431000F09DFF7B78FFDE0E49DC
:105140008E2000F097FFD4F80090CDE70A498E201A
:1051500000F090FF23689DE7002000F095FE326C80
:1051600063699A4228BF1A46904603494FF4747007
:1051700000F080FF0025AFE74C210100E420010092
:105180002DE9F04F0F4689B00446002800F06581F4
:10519000002900F0F58526683546002E00F056817E
:1051A0003B780E2B49D8DFE813F03900C1004D00E1
:1051B000390048000E016A004800480048004800D5
:1051C0003E003900D20097002568002D00F075855B
:1051D0002822002105F13C0005F130090BF022FEE8
:1051E0004846042200210BF01DFE267A05F10C082A
:1051F000002E00F01085A37A012B04F1090740F27C
:105200001185E37A3B4405A9587804F039F8002861
:1052100000F0B78120460821FFF784F900252846D1
:1052200009B0BDE8F08F0021032000F0D3FD20B1CC
:1052300005786D080C2D00F235810625284609B049
:10524000BDE8F08F236A002BE8D0A04F002507E0CF
:105250000022304611469847236A0135AB42DDD91A
:10526000E36953F8256033681B69002BF0D1394698
:105270004FF4A37000F0FEFE33681B69E8E7B878CE
:10528000030600F1E083002E00F0BE84B87803A985
:1052900003F0F6FF002840F0F480FB78012B00F0CB
:1052A0007384032B00F00E81022B337B00F07B8490
:1052B000023B052B00F25E8101A252F823F000BFF1
:1052C000C95100007555000075550000DD540000FF
:1052D0001D5200003B520000236A102B00F2DB80BD
:1052E000002B9BD0DFF8E49100274FF001080FE07E
:1052F00028469847054638B9B6F8883008FA07F2C4
:1053000023EA0203A6F88830236A0137BB4286D914
:10531000E36953F827502B685B68002BE8D14946B6
:10532000FD2000F0A7FE2B685B68E1E70D2200215D
:1053300006F10C000BF076FD06F12C000422644906
:105340000BF065FD0025284609B0BDE8F08F236A03
:10535000102B00F29980002B3FF460AFDFF86CA1B6
:10536000DFF87491DFF86CB1002704E0236A01379D
:10537000BB427FF654AFE36953F82780D8F800307A
:105380001B68002B5AD0224649464046984705469E
:105390000028EBD1B6F888200123BB401343A6F8C0
:1053A0008830D8F800305B69002B00F01883404645
:1053B0009847636942689A42D8D9594640F6A50091
:1053C00000F058FED2E77978CB0940F011834B0901
:1053D00000F0BE83012B7FF430AF002E00F0398443
:1053E000BB78FF2B7FF429AFB7F80330002B7FF495
:1053F00024AFB7F80750002D7FF41FAF267A002E98
:1054000000F00984A37A04F10902002B00F0608403
:10541000E37A266812F803802046FEF7DFFD074690
:10542000404604F0A5FC384604F0A2FC337B022B76
:105430003FF4F4AE2046FFF7B5F8F0E65146F02011
:1054400000F018FED8F800301B689CE721498E2038
:1054500000F010FE26683546A2E61E4940F63F00E1
:1054600000F008FE27B91B494FF4046000F002FE6B
:105470001849812000F0FEFD16498D2000F0FAFD4C
:1054800089E60023039308E7124940F6980000F0EC
:10549000F1FD236A5FE70F4940F6AE0000F0EAFD38
:1054A000236A1DE700EB4505841C0BF081FC34F8F2
:1054B000023B1844437813F0440F3FF4BEAEA542BC
:1054C000F3D1ABE6012333730025A8E6AC2101003C
:1054D000482101004C210100854C0000002000F013
:1054E000B9FC2368039D002B00F0E1836269196C0D
:1054F0008A4228BF0A4695421CBF012283F86120D8
:1055000000228D4283F8482000F29283491B5A6C96
:105510001964AA4280F08E8300225A642568002D07
:1055200000F0BF83002000F095FC95F83D3095F821
:105530003E209A4240F29B83A269934206D39A4945
:105540004FF4897000F096FD95F83D30013385F8F1
:105550003D30002000F098FC2046FFF7B5F80546E6
:10556000002800F07C832046FFF734FB002000F089
:105570008BFC54E68C4940F62D0000F07BFD06259F
:105580004DE6059B1F2B7FF445AE0422874905F1AC
:105590000D000BF02DFC824600287FF43BAE042268
:1055A000484605F111010BF032FCAB7ED5F81560D1
:1055B00085F838A085F84C30AE65226A93426AD2ED
:1055C0002A7F5A2A00F2AF83DFE812F05B00AD03B6
:1055D000AD034A016500AD03AD03AD031F01AD038B
:1055E000F400AD03AD03AD03AD03AD03AD03AD03F7
:1055F0009B00AD03AD035F00AD03AD03AD03AD0391
:1056000068015F00AD035F005F00AD03AD03AD0354
:10561000AD03AD03AD038A01AD03AD03B501AD0329
:10562000DF01AD03AD03AD03AD03AD03AD03AD03CA
:10563000AD03AD03AD03AD03AD03AD03AD03AD03EA
:10564000AD03AD03AD03AD03AD03AD03AD03AD03DA
:10565000AD03AD03AD03AD03AD03AD03AD03AD03CA
:10566000AD03AD03AD03AD03AD03AD03AD03AD03BA
:10567000AD03AD03AD035F00AD03AD03AD03AD03FB
:105680006A0046B9EB7E062B05D120460021FEF7C5
:10569000CDFF0546C3E52046FFF79CFA0546BEE56B
:1056A000EB7E092BF7D9042EF5D805F16409082201
:1056B000484600210BF0B6FB0622002385F8652042
:1056C00085F86430D4F80080B8F1000F65D0257AF1
:1056D000002D00F04183A37A002B00F0F982E37AD9
:1056E000CDF81490F85C0696002305A90793FDF702
:1056F00033FA054600287FF492AD032388F80C3076
:105700008DE5AA7F002AC6D1242EC4D8002E00F031
:105710002A838020062185F8650085F8661012200E
:10572000202185F8642085F8670085F86810E16914
:1057300051F823800492D8F800301A6932B91C4914
:105740004FF4A37000F096FCD8F800301B69404677
:1057500004AA01219847DDF81080B8F1000F00F08D
:105760001683D8F80010082205F16C000BF0D8FB66
:10577000049B1022596805F174000BF0D1FB049BC7
:105780000422996805F184000BF0CAFBD4F800806C
:1057900005F16409B8F1000F99D103498E2000F09A
:1057A00069FCD4F8008092E74C21010044210100FB
:1057B000AC210100EA7E052A7FF66DAFE26952F85E
:1057C000236033685A692AB9AE494FF4AA7000F0D1
:1057D00051FC33685B69304698476A7FAE7FEB7F48
:1057E000416895F820002965120402F4F81243EA92
:1057F000062301FB00F113436965EB654246214630
:105800002046FFF7D1FB054609E5EA7E052A7FF62B
:1058100042AFE26952F8236033685A692AB999495C
:105820004FF4AA7000F026FC33685B693046984755
:105830006A7FAE7FEB7F416895F8200029651204EE
:1058400002F4F81243EA062301FB00F113436965F1
:10585000EB65424621462046FFF736FB0546DEE46F
:10586000EB7E052B7FF617AF122E3FF614AF002EFE
:105870003FF40BAF05F164091222484600210BF0FA
:10588000D1FAF0220B2385F8642085F86B30D4F828
:105890000080B8F1000F7FF41AAF7EE7EB7E052B96
:1058A0007FF6F9AE042E3FF6F6AE032345F8643FCB
:1058B000D4F80080B8F1000F05D173498E2000F0B4
:1058C000D9FBD4F8008094F80890B9F1000F00F0EB
:1058D0003B82A37A002B00F0FB81E37A059501E778
:1058E000EA7E092A7FF6D7AE082E3FF6D4AE002E08
:1058F0003FF4CBAEE26952F82380D8F800305A6901
:1059000032B960494FF4AA7000F0B4FBD8F8003007
:105910005B69404698470368013B1BBA6B66436866
:105920001BBAAB66D4F8008005F16409B8F1000F2A
:105930007FF4CDAE31E7EA7E092A7FF6ACAEE269AC
:1059400052F8236033685A692AB94E494FF4AA7055
:1059500000F090FB33685B6930469847EB7FAE7F81
:1059600095F8237095F82410426895F820002A6570
:105970001B0443EA066395F8216041EA072133439B
:1059800002FB01F143EA002361E7EA7E092A7FF680
:1059900082AEE26952F8236033685A692AB93949FC
:1059A0004FF4AA7000F066FB33685B693046984795
:1059B000EB7FAE7F95F8237095F82410426895F838
:1059C00020002A651B0443EA066395F8216041EA3A
:1059D0000721334302FB01F143EA00230CE7514660
:1059E0004FF4AA7000F046FBD8F800305B69DEE4A3
:1059F000C1F34113002B00F0E080012B7FF41DACBC
:105A0000BB78FE2B7FF419ACB7F80330002B7FF482
:105A100014ACB7F80730012B7FF40FAC05A8FEF7E4
:105A2000D5FA236A0546002B00F08781013B2B80C5
:105A30002046FEF7B7FD2946781C0122FDF74CFFF2
:105A40000546FFF7ECBB002E00F0F68005A903F039
:105A500017FC08B100230593FB78002B7FF4DEAB25
:105A60002B7B033B042B00F2E08001A252F823F0D1
:105A70003B5B00008D5A00001D5200001D520000CB
:105A80003B520000AC2101004C2101002568059E1D
:105A9000002D00F01F8163692A6C934228BF1346D2
:105AA0009E4205D0C94940F24B7000F0E3FA2A6CDF
:105AB0000023964285F8483000F2E380921B6B6C1D
:105AC0002A649E4240F2DB8000236B642568002D2F
:105AD00000F00681002000F0BDF995F83D30002B64
