:1000000000000420E1020000090300000B030000CF
:100010000D0300000F0300001103000000000000AA
:1000200000000000000000000000000013030000BA
:100030001503000000000000170300001903000072
:10004000C92000001B0300001D2700001B03000047
:100050001B0300001B030000292100001B030000FC
:100060001B0300001B0300001B0300001B03000018
:100070001B0300001B0300001B0300001B03000008
:100080001B030000B50E00001B0300001B03000053
:10009000550F00001B0300001B0300001B030000A2
:1000A0001B0300001B0300001B0300001B030000D8
:1000B0001B0300001B030000000000000000000004
:1000C0001B0300001B0300001B0300001B030000B8
:1000D0001B0300001B0300001B0300001B030000A8
:1000E0001B030000052A00001B03000000000000A5
:1000F000000000001B030000000000001B030000C4
:1001000000000000000000000000000000000000EF
:1001100000000000000000000000000000000000DF
:1001200000000000000000000000000000000000CF
:1001300000000000000000000000000000000000BF
:1001400000000000000000000000000000000000AF
:10015000000000000000000000000000000000009F
:10016000000000000000000000000000000000008F
:10017000000000000000000000000000000000007F
:10018000000000000000000000000000000000006F
:10019000000000000000000000000000000000005F
:1001A000000000000000000000000000000000004F
:1001B000000000000000000000000000000000003F
:1001C000000000000000000000000000000000002F
:1001D000000000000000000000000000000000001F
:1001E000000000000000000000000000000000000F
:1001F00000000000000000000000000000000000FF
:1002000010B5054C237833B9044B13B10448AFF350
:1002100000800123237010BDFC01002000000000BD
:10022000343C00000C4B43B10C480D4910B5AFF302
:1002300000800C48036823B910BD0A48036833B92D
:100240007047094B002BF7D0BDE810401847064B0C
:10025000002BF5D0184700BF00000000343C000020
:1002600000020020F801002000000000154B002BC8
:1002700008BF134B9D46A3F5803A00218B460F46DD
:100280001348144A121A03F0ACFA0F4B002B00D09B
:1002900098470E4B002B00D0984700200021040007
:1002A0000D000D48002802D00C48AFF3008003F089
:1002B00049FA2000290003F0E9F803F02FFA00BF03
:1002C0000000080000000420000000000000000002
:1002D000FC010020240A00200000000000000000B3
:1002E0000649074A074B9B1A03DD043BC858D05008
:1002F000FBDC03F031F9FFF7B9FF0000A43C00007C
:1003000000000020FC010020FEE7FEE7FEE7FEE71C
:10031000FEE7FEE7FEE7FEE7FEE7FEE7F0B595B095
:10032000002415460F4608461E4601F029FC3846B3
:1003300023460822089505A91A9D09960D950A9449
:100340008DF82C400C9401F077FC9DF81430079840
:1003500006998DF8114003F00302012A02900391DF
:1003600028D0022A04D0384601F00EFC15B0F0BDAA
:10037000BDF81650C3F3C2038DF81030C5F38915CC
:100380000826082D2C4628BF0824334622460EA9ED
:10039000384601F051FC2D1B214608AB02AA0EA8DD
:1003A000264400F091FC002DEBD1384601F0ECFB27
:1003B00015B0F0BDBDF81460059DC6F38316C3F3F8
:1003C000C204B2000EA9384608238DF81040C5F3C8
:1003D000952501F031FC08AB0093324628460EA962
:1003E00002AB00F0CBFBBEE7014B01221A70704755
:1003F0005C020020704700BF00B583B0044B00933F
:10040000044A4023FFF78AFF03B05DF804FB00BFF6
:10041000190400001C02002038B50E480E4D037868
:100420000E4CEB5C00252570D2B253B90C3002F0B3
:100430004DFD58B90A4B1B7813B12378002BFCD023
:1004400038BD043002F0D2FF0028F3D000F0EAFCFF
:10045000F0E700BF00000020200A00205C0200201E
:100460001802002070B51348134A0378D35C88B093
:10047000DBB90C3002F0ACFC104D0FCD6C460FC454
:1004800095E80F0008AD142645F8206D84E80F00AC
:1004900029460022074801F099FD08B100F0C2FC8E
:1004A000074B00221A7008B070BD043002F01EFF26
:1004B000E2E700BF00000020200A002038380000DA
:1004C0001802002070B50D4D0FCD88B06C460FC4DA
:1004D00095E80F0008AD142645F8206D84E80F005C
:1004E0002946074A074801F071FD08B100F09AFC5F
:1004F000054B01221A7008B070BD00BF38380000EB
:10050000E9030000000000201802002008B5FFF7F2
:10051000D9FF0421034800F0E9FA034B01225A7184
:1005200008BD00BF783C000014000020F0B5334D3A
:1005300085B005F5836000F037FF05F2144000F048
:1005400033FF6B68AE6803EA0600C11C05EB81024D
:1005500015F8214014F004040ED0117801F00301C5
:1005600001293BD0022903F1020700F1030126D043
:1005700005EB8102002CF0D105EB80005A1CC1680C
:100580000191324005EB820201F00301D268029230
:10059000012903F1020429D0022925D1BDF8063032
:1005A000BDF80A60C3F38913033304EB93041448C2
:1005B00000F008FF00B16C60304605B0F0BD538814
:1005C00007EB931306EA0300C11C05EB810215F843
:1005D000214004F00404002CBFD1CDE71188023380
:1005E000C1F383110B44EDE70026E0E7BDF80430CA
:1005F000BDF80A60C3F383131C44D8E7300300201E
:10060000440700200B4B0C4810B50022FF21C3F813
:10061000182499601A605A60C3F8142483F82024BF
:1006200001F064FA044610B9044801F00DFC2046BC
:1006300010BD00BF30030020883C00007838000067
:1006400021B9114B03EBC0000068704730B40F4A6A
:100650000D4C121BD2080CD00D4D2B88834210D0AC
:10066000002303E035F82310814205D001339A427C
:10067000F8D1002030BC704704EBC300006830BCE8
:1006800070472046FAE700BF383C0000783C000085
:10069000FC010020094B013903EBC00003290BD8F2
:1006A000DFE801F002080604022070474079704735
:1006B000007970470420704700207047383C0000E4
:1006C0002DE9F047914C94E80C009A4284B000F078
:1006D000B6800023C4F81834BFF34F8F6368A56851
:1006E00003EA0501CA1C04EB820614F82220500715
:1006F0001AD52768327802F00302012A43D0022A71
:1007000003F1020202D1738802EB931305EA03019D
:10071000D4F81804CA1C04EB820628B99F4238D9C1
:1007200014F822205207E5D404EB81015A1CC96851
:1007300001912A4004EB820201F00301D268029287
:10074000022903F1020828D001297CD0D4F81054E2
:100750003DB12B6828469B689847EB681D68002DC3
:10076000F7D16B486B4B6C49C01AC008000440F0CD
:10077000020000F0D7F860682368C01A18BF012093
:1007800004B0BDE8F08732880233C2F38312134409
:10079000BCE7676004B0BDE8F087BDF806305F488D
:1007A000C3F389194F46502FA8BF502767F38F1303
:1007B00007F10801ADF8063001F09AF90646002865
:1007C000C4D025EA080A0AF1010A01F0D9F94FEA72
:1007D0008A0A0023082201A9304601F0F7F957459B
:1007E0006ED9BAF1000F7AD13A4608234C49304607
:1007F00001F0ECF909F1030708EB9707D4F8183476
:10080000002B68D1D4F810545DB1EB685A793146A9
:1008100028461AB12B681B689847EB681D68002DA5
:10082000F3D1304601F0B0F9002000F083FDD4F898
:10083000183403B96760002000F084FD9BE70020B6
:1008400004B0BDE8F087BDF804303448C3F3831228
:10085000062A28BF0622911C62F389138900ADF88D
:10086000043001F045F9064600283FF46FAF01F06F
:1008700087F90023082201A9304601F0A7F9BDF845
:10088000043013F4707F3FD04FF0000A4FF0080996
:1008900005EA080103314B4604EB8101042230468E
:1008A00001F094F9BDF804300AF1010AC3F383138F
:1008B00008F10107534509F10409B846E8D89DE756
:1008C00005EA0801033104EB81013A46082330466A
:1008D00001F07CF98EE7304601F056F94BE705EA66
:1008E00008010331A7EB0A0504EB810152463046AB
:1008F000EDB2082301F06AF92A460AF10803084913
:10090000304601F063F975E7474677E7300300208A
:10091000603C0000383C000084380000883C000047
:100920003C0300202DE9F843DFF8D890074600206B
:100930008846D9F8085000F0FDFCD9F80820D9F80D
:100940000430D9F80060134401339B1B012B55D8A8
:1009500009F21C440121204600F00AFDFFF7E6FDE4
:100960000146204600F004FD99E80A00D9F8082065
:10097000134401335B1A012BECD901240A400332E2
:1009800044F004036FF3891349F822300231002048
:10099000C9F8001000F0D6FC0021194800F0DCFC7A
:1009A00080F3100033192B4009EB8303000435401A
:1009B000033540EA1740D86019F8253067F3C503BE
:1009C00009F8253039F825306FF3891329F82530D7
:1009D00059F8252068F39F22134664F301036FF34F
:1009E000820349F8252009F8253099F820341BB1F5
:1009F000FFF766FE0028FBD1BDE8F8833146BCE76F
:100A00004C070020300300202DE9F047354C80468C
:100A1000002092468946A56800F08CFCA2686368B5
:100A2000276813440133DB1B022B59D804F21C4600
:100A30000121304600F09CFCFFF778FD014630466E
:100A400000F096FC94E80A00A268134401335B1A94
:100A5000022BEDD901260A40033246F0040366F367
:100A6000891344F8223003310020216000F06AFC31
:100A7000BB1C2B4004EB830300211B48C3F80CA0D4
:100A800000F06AFC80F31000BB192B4004EB8303D9
:100A900000043D40033540EA1840D86014F8253082
:100AA00068F3C50304F8253034F8253066F389135C
:100AB00024F8253054F8252069F39F22134666F365
:100AC00001036FF3820344F8252004F8253094F8DD
:100AD00020341BB1FFF7F4FD0028FBD1BDE8F087FF
:100AE0003946B7E7300300204C07002030B4174DDB
:100AF000D5F8104400215CB1E3681A798A4204D128
:100B000016E0DB681A798A4212D01B68002BF8D1F4
:100B1000C3681971D5F8103493B1DA68C3681268E4
:100B20001A60D5F81034DB681860084630BC70478E
:100B300001310A29DFD14FF0FF31084630BC704740
:100B4000C5F81004C2681360EFE700BF300300204F
:100B500038B5094BD3F81044012583F820544CB123
:100B6000E3685D71236820465B689847E3681C680A
:100B7000002CF5D138BD00BF300300202DE9F0472F
:100B800084B01D460C9C002394F80C802373EB88E2
:100B900081460E461746002B3BD1297A05290FD0F6
:100BA0006B7A002B3DD1404BA88853F821A000213F
:100BB000FFF746FD524603463C49204600F074FCD0
:100BC000062F0FD8DFE807F0484D535A0463390069
:100BD000F168B06896E80C00019100904946204603
:100BE00000F062FC2B7A052B05D06B7A5BB930499B
:100BF000204600F059FC204600F04AFC84F80C80A6
:100C000004B0BDE8F0872B4A2B49204600F04CFC8D
:100C1000EDE7284A00922949294A204600F044FC81
:100C2000BBE7A888FFF736FD264B234953F8202061
:100C3000204600F039FC297AB5E77069316996E8F9
:100C40000C000390B068F76802918DE88100494676
:100C5000204600F029FCC5E74946204600F024FC68
:100C6000C0E732684946204600F01EFCBAE7494614
:100C700096E80C00204600F017FCB3E7B16896E850
:100C80000C0020460091494600F00EFCAAE7B0682F
:100C9000F768316996E80C0002918DE881004946B9
:100CA000204600F001FC9DE71039000000390000EB
:100CB0000C390000F4380000FC380000DC3800007B
:100CC000D43800009C380000082900D970472DE96D
:100CD000F04F1D46904600232A7B2B7385B0B8F851
:100CE0000630039207460E46002B6BD198F8081089
:100CF000052911D098F80930002B6BD13C4BB8F87E
:100D0000040053F821400021FFF79AFC22460346D5
:100D10003849284600F0C8FBDFF8F8B0DFF8F89053
:100D20000024A642494628463ED93A5D013400F0E7
:100D3000BBFB082CF5D13049DFF8E090DFF8E0B0DC
:100D4000284600F0B1FB002411E017F804A002F0DF
:100D50001DFD50445946437813F0970F14BF524677
:100D60002E222846013400F09FFB082C08D0A64212
:100D700049462846E9D8013400F096FB082CF6D104
:100D800098F80830052B02D098F80930A3B91B4910
:100D9000284600F089FB284600F07AFB9DF80C30CD
:100DA0002B7305B0BDE8F08F01345946284600F09A
:100DB0007BFB082CB5D1BEE7114A1249284600F04A
:100DC00073FBE4E70E4A00920F49104A284600F0F0
:100DD0006BFB8BE7B8F80400FFF75CFC0C4B094990
:100DE00053F82020284600F05FFB98F8081085E7AC
:100DF0001039000000390000CC3800000C39000028
:100E0000F4380000FC380000DC380000D438000062
:100E10009C380000C8380000C038000008390000C5
:100E2000D038000000B585B000230390194601AA10
:100E300044F201000193029300F004F805B05DF85C
:100E400004FB00BF10B572B6FFF782FEFFF738FC57
:100E50000028FBD1104B114C1149E41AE40824047A
:100E600044F00100FFF75EFD0E4B1B68DB0700D569
:100E700000BE44F002000C49FFF754FDBFF34F8F52
:100E80000A490B4BCA6802F4E0621343CB60BFF31C
:100E90004F8F00BFFDE700BF383C0000603C000002
:100EA0007C390000F0ED00E08839000000ED00E042
:100EB0000400FA05F8B5204A204B0025C2F840513D
:100EC000C2F84451C2F84851C2F84C51C2F800511E
:100ED000C2F804511B6813B31949D2F804450A68D3
:100EE000A41A1A6824F07F44A2422F4609D8197C1C
:100EF000DE69A41A154499B91EB133461A68A24294
:100F0000F5D91049104A0B7812789A420DD00F4942
:100F10000F4A41F823504FF48013C2F80031F8BD56
:100F20001F745A6998699047E6E7531CDBB2022B9D
:100F300008BF00230B70EAE7001001400C090020F5
:100F4000080900200509002004090020FC080020F1
:100F500000E100E02DE9F04FB74AB849137809786D
:100F6000994285B033D00133DBB2022B08BF002396
:100F7000B3481370B34A0768DFF8E08252F82320C1
:100F8000D8F80010BB18002423F07F4303602546E7
:100F90002046A646A9B10B68934200F27D81CC6839
:100FA000C1F800E0D21A1844CB6934B13E1826F0DB
:100FB0007F46CD618C604E600D46194601240029A4
:100FC000E9D1002C40F0A5814FF0010B05E0DFF8DE
:100FD0008C820025D8F80010AB469B4B9B4FDFF866
:100FE000809243F0010300930E464FF0000A002D5B
:100FF0002DD0D5F804E0D5F808C02C46ED69904B0B
:1010000093481B68AEEB030222F07F42824255D820
:1010100002EB0C032360002201206260A260E26107
:101020002074002E6BD03068834261D9B64603E04D
:10103000106898424CD29646DEF81C201B1A002AF3
:10104000F6D12360E261CEF81C40002DD1D197F893
:1010500001C097F800E0F44571D0734603EB4303F9
:101060000EF10100BA7807EBC3035FFA80FE724508
:10107000187987F800E004BF4FF0000E87F800E011
:1010800002289A684CD003283DD00128E3D1107C77
:101090000028E0D1D3F80CE0C2F804E0D3F810C087
:1010A000C2F808C014465A69E26099F800209B69AA
:1010B000A361002AA3D060608646A0E7A3EB0E03DD
:1010C00023F07F4363450AD2ACEB03032360A2E71E
:1010D000C01A10602360E261CEF81C40B5E700231F
:1010E000012223606360A360E36122743EB1306833
:1010F000C8F80040C31A3360E661264677E7C8F8AF
:101100000040264673E7002EA5D0002200E01E46D0
:10111000F3693274002BFAD1C8F800301E4696E706
:101120004EB1B242344603D1BDE09A4260D01C4673
:10113000E369002BF9D100231374F4458DD1BAF182
:10114000000F02D18E4200F09D80002E00F0C5807D
:101150003B4B404A1C68D2F80475DFF80881D6F88A
:1011600000A098F800103B1B23F07F43DD1CA9B9B9
:101170003949354B4FF48030C2F844030126C2F898
:1011800004034FF40030C1F8800143F0010308600C
:1011900016604FF43C60984788F80060AA452CBF61
:1011A00004EB0A0363192B4923F07F43C1F8403550
:1011B000D1F80425D21BDB1B22F07F4223F07F43B2
:1011C00003329A420ED9204BD1F80425C1F84025AC
:1011D00043F001034FF43C6098471F4B4FF400323B
:1011E000C3F80021002389F8003005B0BDE8F08F76
:1011F000A24239D0D2F81CE01368C4F81CE0BEF15A
:10120000000F11D03046DEF800402344CEF8003005
:10121000864209D0002397F800E097F801C01374C4
:1012200006464FF0010A88E7002397F800E097F898
:1012300001C0137481E700BF0409002005090020E4
:1012400008090020FC080020A0390000EC0700205D
:10125000FEFF7F000010014000E100E00C090020CB
:10126000F8080020F90800201346F069C8F80000CB
:10127000D8B1D3F81CE01B68C4F81CE0BEF1000F25
:10128000C1D1C5E7BBF1000F7FF45FAF002389F840
:10129000003005B0BDE8F08F002C3DD19B1A0B60EB
:1012A0004FF0010B99E63346DFE701931C4BDFF863
:1012B0007CC003924FF0010E0291C3F808E0009B3E
:1012C000CCF8000089F800E04FF43C609847D8F86B
:1012D0000000019B0299039ACBE7114D114A124C71
:1012E0004FF480334FF400310127C2F880103C43A3
:1012F000C5F848334FF43C60C5F808336F60A04729
:101300000A4BAF604FF43C601E60A047084B1E7054
:1013100068E7C8F8001057E6C8F80010BEE700BF3D
:101320000010014000E100E0A039000008090020A1
:10133000F908002072B6024A13680133136070473F
:1013400010090020034A1368013B136003B962B619
:10135000704700BF1009002000B550E8002F0B4671
:1013600040E8003E9EF0000FF7D110465DF804FB08
:1013700000B550E8003F03EB010240E8002E9EF06C
:10138000000FF6D110465DF804FB00BF00B550E831
:10139000003FA3EB010240E8002E9EF0000FF6D1C3
:1013A00010465DF804FB00BF00B5012350E8002F94
:1013B00042EA030E40E800E191F0000FF6D17046DA
:1013C0005DF804FB00B5002350E800EF0EEA0302CD
:1013D00040E8002191F0000FF6D170465DF804FB63
:1013E000B8B130B4416882680468521AD2B2531E50
:1013F0002160DBB242B101680A685C1E551C0D60B9
:101400001370E3B2FF2BF6D103680020187130BCD3
:1014100070470E20704700BF70B504460020FFF7EC
:1014200089FF236861681A688A4215D9511E1960BC
:101430002168A3680D680879268A12F8012CE468EF
:101440005B1BDBB2984206FB024400D20B7100200A
:10145000FFF778FF204670BD00240020FFF772FFE1
:10146000204670BD38B5054600200C46FFF762FFE8
:101470002A681368591C1160E9682A8A641AB4FB47
:10148000F2F41C700020BDE83840FFF75BBF00BFDE
:10149000826802B9704710B5044643690168006963
:1014A00098470023A36010BD0EB400B582B0039925
:1014B00029B102AA04AB42F8043D00F095F802B04D
:1014C0005DF804EB03B070472DE9F84F1746B942B9
:1014D000884606461D46DDF828B00B9A7DD30B469C
:1014E0004FF00109B3FBF7F39F4209F10109F9D964
:1014F000A94538BFA94612F0010A02D1BBF1000F7D
:1015000049D1B268012402E0013D07FB04F4012D3A
:10151000FAD8B8FBF4F18F42F7D9324D05E0B4FBAD
:10152000F7F4A4B1B8FBF4F1B268685C531CB36083
:1015300033689854B26873689A4204FB1188EED3FA
:101540003046FFF7A5FFB4FBF7F4002CEAD1BAF15F
:10155000000F16D0BBF1000F33D0CB4588BF20243D
:101560003ED9B3683268591CB160D454B26873680C
:101570009A420BF1FF3B06D2BBF1000F09D0D945CF
:10158000EFD1BDE8F88F3046FFF782FFBBF1000FC7
:10159000F5D1BDE8F88F93071AD42024CB45B0D9F4
:1015A000B2683368511CB1609C54B26873689A4247
:1015B0000BF1FF3B07D2BBF1000FA3D0CB45F0D11D
:1015C000A0E7BDE8F88F3046FFF762FFB268F2E7A8
:1015D000002D0CBF30242024E0E74FF0010987E7FD
:1015E000BDE8F88FA8390000002900F06F822DE9CE
:1015F000F04F064685B093460C460B780DE0B26876
:101600003168501CB0608B54B26873689A4280F0A5
:10161000D3802378002B00F0BA800134002B00F037
:10162000B680252BEBD14FF00008234614F8012B90
:101630002D2A00F0BB80302A00F0BB802B2A00F05E
:10164000AD802A2A00F0BC80A2F13005E9B2092958
:1016500098BF013302D9A9E1A1F130051C4613F866
:10166000012BA2F1300005EB8501092802EB4101B5
:10167000F2D92E2A00F0B080002701E014F8012FE3
:1016800002F0FB03682BF9D0253A532A7AD8DFE819
:1016900012F07A01790079007900790079007900F7
:1016A0007900790079007900790079007900790072
:1016B0007900790079007900790079007900790062
:1016C0007900790079007900790079007900790052
:1016D0007900790079007900790079007900790042
:1016E0007900790079007900790079007900790032
:1016F00079007900790079006A0179007900790030
:101700007900790079007900790079007900550134
:10171000FC007900790079007900FC0079007900FB
:101720007900790079007900540079007900CA00C5
:101730007900BA00790079006A01DBF80020131DF6
:10174000CBF80030B368156831685A1CB2604FF0AE
:101750003002CA54B3687268934280F0A081326844
:10176000581C7821B060D154B26873689A4280F0F6
:1017700092810022082301922946009310223046CC
:10178000FFF7A2FE01342378002B7FF446AF337BB2
:10179000002B40F0058105B0BDE8F08F234614F81A
:1017A000012B2D2A48F004087FF445AF48F00108CA
:1017B0003BE748F0020838E73046FFF769FE28E7C4
:1017C000DBF80020111DCBF8001015685A782E2A7E
:1017D00003F101047FF450AF6278A2F13003092BCA
:1017E00004F101044FF000073FF64AAF07EB87070B
:1017F00002EB470714F8012FA2F13003092BA7F1E0
:101800003007F3D93CE7DBF800301A1DCBF8002095
:101810001968CDF804803B4600950A223046FFF750
:1018200053FE0134AFE7DBF800301A1DCBF800207F
:1018300018F0010FD3F8009040F0BB80B9F1000F11
:1018400000F04781484601F0D4FF0746BD4240F210
:10185000F180002D00F0EE804FF0200805E0BD4241
:1018600000F0E880002D00F0E580B3683268591C74
:10187000B16002F80380B26873689A4205F1FF35DF
:10188000EDD33046FFF704FEE9E7DBF800301A1D20
:10189000CBF80020D3F8009089EAE973A3EBE97351
:1018A000092B4FF0010A09DD8F4A82FB0312DB1777
:1018B000C3EBA203092B0AF1010AF5DCBA4538BFD4
:1018C000BA462DB3B9F1000F02DB18F0040F00D0B7
:1018D000013D18F0020F40F0F58018F0010F17D10C
:1018E000002D00F0FE80AA4538BF202110D2B2683A
:1018F0003368501CB0609954B26873689A4205F11D
:10190000FF3580F0E880002D00F0EB80AA45EED195
:10191000B9F1000FC0F2C88018F0040F7BD108F0B5
:101920000303022B00F09A808DE820013B464946D4
:101930000A223046FFF7C8FD013424E7DBF8002017
:10194000131DCBF80030B36831681278581CB060B2
:10195000CA54B26873689A42FFF414AF3046FFF776
:1019600097FD01340FE7DBF800301A1DCBF800209B
:101970001968CDF804803B46009510223046FFF7E9
:10198000A3FD0134FFE6B3683268591CB1604FF023
:101990002501D154B26873689A42DFD20134F2E66D
:1019A000304605B0BDE8F04FFFF772BD1C4600257C
:1019B0005FE64F46A7EB090817F8013B8BB1B26809
:1019C0003168501CB0608B54B26873689A42F1D38E
:1019D0003046FFF75DFDA7EB090817F8013B002B28
:1019E000EDD145457FF6CEAE202705E045453FF4D5
:1019F000C9AE002D3FF4C6AEB3683268591CB16061
:101A0000D754B26873689A4205F1FF35EED3304679
:101A1000FFF73EFDEAE7B2683368501C2B21B06047
:101A20009954B26873689A42FFF479AF3046FFF771
:101A30002FFD74E709F1FF3919F8013F002B3FF43E
:101A4000A1AEB2683168501CB0608B54B268736844
:101A50009A42F1D33046FFF71BFDEDE7002F7FF4EC
:101A600063AF002D33D0AA45BFF45EAFB2683368D0
:101A7000511CB1604FF030019954B26873689A42BA
:101A800005F1FF3503D215B3AA45EFD14CE7304637
:101A9000FFF7FEFCF7E73046FFF7FAFC69E6304651
:101AA000FFF7F6FCB3685AE6B2683368501C2D2184
:101AB000B0609954B26873689A42C9F10009FFF4A2
:101AC0002EAFB3E7002F3FF423AF06E770470025A2
:101AD0002AE74F46BAE630460391FFF7D9FC03994F
:101AE00011E7002514E700BF67666666FFF778BC5C
:101AF0002DE9F041B0F81080CF1CA8F1040847444C
:101B00000646B7FBF8F7FFF787FC80B3FFB2002566
:101B10000123013F0446A0F8068006600571437169
:101B200028D0804609E06379AF4203F10103637175
:101B3000C8F80000066080461CD03046FFF76CFCF9
:101B400001350028EFD16679721E16D02346013088
:101B500082421B68FBD81F684EB1214600250C68E5
:101B600001353846FFF77EFCAE422146F7D1002012
:101B7000BDE8F0812046BDE8F0812768EDE700BFB1
:101B800004300121FFF7F4BBF8B50121044604300D
:101B9000FFF7FCFBC0B200B1F8BD6679721E12D02F
:101BA0002346013082421B68FBD81F68002EF3D009
:101BB000214600240D6801343846FFF753FCA64245
:101BC0002946F7D1F8BD2768F2E700BF2DE9F843B1
:101BD000C78890F805E0154607FB0EFEEC18AEF13D
:101BE000040E1A1DA6458846B2FBF7F638BFAEEBC9
:101BF000030507FB1621044616B1013E2468FCD1FB
:101C00007E1AAE4228BF2E469DB14FF00009081D36
:101C1000AD1B08EB09012044324601F0D7FDAF426D
:101C2000B14424683E464FF0000128BF2E46002DE7
:101C3000EDD1BDE8F88300BF2DE9F843C78890F8DF
:101C400005E0154607FB0EFEEC18AEF1040E1A1D5A
:101C5000A6458846B2FBF7F638BFAEEB030507FB97
:101C60001621044616B1013E2468FCD17E1AAE420C
:101C700028BF2E469DB14FF0000904312144AD1B11
:101C8000324608EB090001F0A1FDAF42B1442468DF
:101C90003E464FF0000128BF2E46002DEDD1BDE895
:101CA000F88300BF0B4B0C480C49C01AC008000455
:101CB00010B540F00300FEF735FE094A094B002439
:101CC00014701C60BFF35F8F0749084800F0CAF822
:101CD000204610BD383C0000703C0000B8390000C0
:101CE0001D09002020090020483A000014090020A6
:101CF00008B50020FFF71EFBF1EE103A23F09F031A
:101D0000E1EE103ABFF35F8F054B4022C3F8842108
:101D10000020FFF717FB20BF40BF20BF08BD00BF5A
:101D200000E100E02DE9F84FDFF8148105460121BC
:101D30004046FFF711FBBFF35F8F00283BD1042D16
:101D400058D0344B1A78002A37D1334E01223570DF
:101D50001A70324B324C3349334FE41AE4082404EE
:101D600044F003042A462046FEF74EFE2046327811
:101D70002E49FEF749FE7D682DB3DFF8C8B0BA469C
:101D800007E02046FEF740FE504600F075F87D68FB
:101D9000CDB12B6830789847594681462A6800288B
:101DA000EFD123492046FEF72FFEBFF35F8FC8F81F
:101DB0000090BDE8F88FBDE8F88FBFF35F8FC8F8DB
:101DC0000000BDE8F88F20461A49FEF7ABFDFEF78C
:101DD000BFFEFEF775FC0028FBD13378023B012BD8
:101DE0000AD94FF080430122C3F80025BFF34F8F7B
:101DF00020BFFDE7084EACE7BFF34F8F0E490F4BF6
:101E0000CA6802F4E0621343CB60BFF34F8F00BF98
:101E1000FDE700BF1D0900201C090020383C000020
:101E2000703C0000C039000014090020D4390000C3
:101E3000103A0000343A000000ED00E00400FA051A
:101E400020090020F0390000826800239360826836
:101E50001361826853618268D360826853608268CC
:101E60001360704701600B6843604A68934204BF87
:101E700000234360704700BF436843B10268916824
:101E80000B4443605268934204BF00234360704791
:101E900010B568B101280AD10C4C2369A07033B188
:101EA0000CCB0120226198472369002BF8D110BD8B
:101EB000064CA36801226270002BF8D00CCB0020E6
:101EC000A2609847A368002BF8D110BD2409002018
:101ED00010B50B4C237882B013B1852002B010BD31
:101EE00008486360A3602361E36000F0B3F80190E9
:101EF00000F0BEF801980123237002B010BD00BFAE
:101F000024090020911E000038B5154DAB78044619
:101F100073B110B14368012098470020FFF70AFA17
:101F2000EB680133EB600020BDE83840FFF70ABAE8
:101F300003F0FF00FFF7FEF964B12A6942B1944251
:101F400008D0134601E09C4204D01B68002BFAD154
:101F500022602C61EB68002BE2D100F09DF8DFE7F6
:101F60002409002070B50A4A0A4B06784568047AAD
:101F7000C06853F8213052F8211084B003908DF8D6
:101F8000006001958DF808406846984704B070BD20
:101F9000380900204009002070B50A4A0A4B06782B
:101FA00045688468C06853F8213052F8211084B025
:101FB00003908DF8006001958DF8084068469847B9
:101FC00004B070BD38090020400900202DE9F0431D
:101FD000DFF8748006784B7F08F806300D46074618
:101FE00094460FCD89B06C460FC495E80F003D783C
:101FF000DFF85890DFF858E018F8055049F826C087
:1020000084E80F004EF82600049665B1BCF1000F7D
:102010000B4A694607F1040008BF002201F054F89A
:1020200009B0BDE8F083BCF1000F064A694607F12C
:102030000C0008BF002200F0D7FD09B0BDE8F08316
:10204000651F0000991F0000200A002040090020A1
:1020500038090020054A13790BB18520704701210A
:102060001060537118461171704700BF4809002075
:10207000084B1A68D20706D40122C02183F8001346
:10208000C3F880211A604FF080430122C3F818255D
:10209000704700BF00E100E010B4094B094A00217D
:1020A000196083B01B680193019C4FF080410220AE
:1020B0000123C1F80403136003B05DF8044B7047BB
:1020C000040100400800004010B5144B1A6882B0AB
:1020D00062B10021124A19601B68507900934FF0D9
:1020E00080410123009CC1F8083390B10D4B1A6860
:1020F0006AB100221A601B6801934FF080420221EE
:10210000074B0198C2F808131B680120984702B0DA
:1021100010BD116853718847E8E700BF0001004017
:1021200048090020040100402DE9F04788B0002351
:10213000CB4A039302931168012900F0A8821E463E
:10214000C84B1A68012A00F09482C74B1A68012A0A
:1021500000F08182C54B1A68012A00F06E82C44BE0
:102160001A68012A00F05B82C24B1A68012A00F04B
:102170004882C14B1A68012A00F03582BF4B1A68A9
:10218000012A00F02282BE4B1A68012A00F00C825C
:1021900016F0FF0F1AD0BB4F01250024A30003F156
:1021A00080432E4203F5C0434FEA45050BD0D3F8D8
:1021B000100557F82420D3F81015C0F30520C1F3FB
:1021C000014102B190470134082CE7D1002E02DB17
:1021D00008B0BDE8F0870DF1100800224FF0FF3382
:1021E000A84CA94FC8F8042004920693079301262F
:1021F00094F960305A1C21D05FFA83FE2EF0C000A3
:1022000008AB4FEAD00903EB090C0EF007031CF8EA
:10221000082C06FA03F31A4040F0388194F9611053
:10222000481C00F06A8215460DE0022A06D10329F7
:1022300000F06082002D00F03682A84794F961100A
:102240004A1C51D00025CBB223F0C00008AA4FEAA7
:10225000D00C02EB0C0E03F007011EF8082C06FA56
:1022600001F912EA090F4CD194F96210481C11D0FF
:10227000CBB223F0C00008AA4FEAD00C02EB0C0E40
:1022800003F007011EF8082C06FA01F912EA090FFB
:1022900040F0AD8094F963305A1C0FD0DBB223F0CC
:1022A000C00008AA4FEAD00C02EB0C0E03F00702A4
:1022B0001EF8081C06FA02F211425AD1002D87D0EE
:1022C0004FF0A0430299D3F81035D7F81025994262
:1022D00003D1039991423FF47BAF0498059902938F
:1022E00003920690079183E794F962104B1C01D08A
:1022F0000025BDE794F963305D1C3FF469AF00250C
:10230000CCE72218990992F9302054F82220002AAB
:1023100000F02381032900F023811F2800F20C81A3
:1023200084464FF0A04303EB8C031EF818CCD3F87F
:1023300000E71CEA090FCEF3014E40F0F380BEF136
:10234000030F91D103290FD14FF4003ED3F800C7FA
:102350002CF4403CC3F800C7D3F800C701354EEA5F
:102360000C0EEDB2C3F800E7002A3FF47DAF9047B2
:102370007AE704EB0009990999F9309054F829900B
:10238000B9F1000F00F0FD80032900F0FD801F2847
:102390008BBFBC464FF0A04C03F01F0303460CEB71
:1023A00083031EF818CCD3F800E71CEA020FCEF323
:1023B000014E40F0A680BEF1030F7FF47FAF0329EA
:1023C00040F0A6804FF40032D3F800E72EF4403EF0
:1023D000C3F800E7D3F800E7013542EA0E02EDB298
:1023E000C3F80027B9F1000F40F0968068E7221883
:1023F000990992F9302054F82220002A00F0B78081
:10240000032900F0B7801F2800F2A38084464FF014
:10241000A04303EB8C031EF818CCD3F800E71CEAAA
:10242000090FCEF3014E40F08B80BEF1030F7FF415
:1024300031AF03290FD14FF4003ED3F800C72CF47D
:10244000403CC3F800C7D3F800C701354EEA0C0E74
:10245000EDB2C3F800E7002A3FF41CAF904719E73C
:102460000061004004610040086100400C610040D0
:102470001061004014610040186100401C61004080
:102480007C610040500900200003005022184FEAF0
:102490009E1192F9302054F82250002D7BD0032950
:1024A0007CD01F283AD802464FF0A04E0EEB820E89
:1024B0001CF8189CDEF8002719EA0309C2F3014250
:1024C0007FF4B3AE032A7FF4B9AE03297FF4B2AE32
:1024D0004FF40032DEF8003723F44033CEF80037F3
:1024E000DEF800371343CEF80037002D00F0ED8002
:1024F0000321A84794F961104B1C00F0EB800125E3
:10250000A1E6BEF1020F7FF4D9AE032900F0EF80FF
:10251000B9F1000F3FF4D2AEC847CFE60EF01F026C
:10252000BE46C3E7BEF1020F7FF49EAE03297FF4DF
:102530001BAF4FF4403E09E703F01F0C3B46F2E6A9
:10254000BEF1020F7FF4A6AE032984D14FF4403EC2
:1025500073E703F01F0C3B465BE703297FF484AE6F
:1025600018F80CA04AEA090A08F80CA0D5E60329D5
:102570007FF490AE18F80CA04AEA090A08F80CA0FB
:1025800041E703297FF49AAE18F80CA04AEA020A40
:1025900008F80CA0FBE6032940F0858018F8092014
:1025A0001A4308F809207CE700221A601B6801938F
:1025B0004FF0A042019BD2F81025564B0292D3F85F
:1025C0001035039346F00046E2E5534AD2F804235F
:1025D00011067FF5D8AD00221A601B680093009B9E
:1025E00046F08006CFE54C4AD2F8042350067FF52A
:1025F000C5AD00221A601B680093009B46F04006A0
:10260000BCE5454AD2F8042394067FF5B2AD00221A
:102610001A601B680093009B46F02006A9E53E4A1D
:10262000D2F80423D5067FF59FAD00221A601B68FF
:102630000093009B46F0100696E5374AD2F8042333
:1026400017077FF58CAD00221A601B680093009B72
:1026500046F0080683E5304AD2F8042352077FF596
:1026600079AD00221A601B680093009B46F00406B7
:1026700070E5294AD2F8042391077FF566AD002260
:102680001A601B680093009B46F002065DE5224934
:10269000D1F8046316F001063FF452AD13601368DD
:1026A0000093009B4CE594F961104B1C7FF4CBAD7B
:1026B00094F96210481C7FF4DBAD94F963305A1C26
:1026C0007FF4ECAD08B0BDE8F08794F961104D1CC3
:1026D0007FF415AF94F96210481C01D00125C7E5BD
:1026E00094F96330591C3FF4EBAD0125D6E54FF466
:1026F000403269E64FF44032ECE694F962104B1C2C
:1027000001D01546B4E594F963305D1C3FF460AD2B
:102710001546C3E50003005000600040014B1B68F4
:10272000184700BFBC09002038B50C4B984201D0B7
:10273000002038BD00200D46FEF7FCFD084B1C793B
:1027400024B10020FEF7FEFD112038BD01222046F5
:102750001D601A71FEF7F6FD204638BD00200040CE
:10276000BC090020034B984203D1034B00221A609E
:102770001A71704700200040BC0900204A4B2DE927
:10278000F0410024074690461C60E1B14378023BCB
:10279000072B18D8DFE803F07D7F710A0473788473
:1027A00000230A7941481343C0F83C36CB781B0616
:1027B0008A7843EA02434A7843EA02230A783B498B
:1027C0001343C1F83836394A394D374E0123C2F820
:1027D0000833BB78797838781B0343EA0123F9780A
:1027E0000343387943EA4133797943EA803343EA52
:1027F000C133C2F8343645F00105642402E0A8472D
:10280000013C4AD033684FF42070002BF7D0274B9F
:10281000002101223160C3F80423B8F1000F29D050
:102820007A78D3F83C16931F032B0ED8DFE803F019
:102830000B0805020B0E88F807300B0C88F80630E1
:102840000B0A88F8053088F804101849931ED1F84F
:102850003826032B0ED8DFE803F00B080502130E11
:1028600088F80330130C88F80230130A88F8013016
:1028700088F800200020BDE8F081002398E70023BD
:102880004A7943EA02238CE700238A7943EA024328
:10289000F6E7002392E700238DE70D20BDE8F081E5
:1028A000CB791B06F1E700BF009102400090024087
:1028B000803A0000F8B5494B1C790CB10820F8BDEE
:1028C0000579FF2D00F085804679FF2E00F081808C
:1028D0008679FF2E7DD0C679FF2E7AD0404E9A6041
:1028E000C6F824554279FF2A08BF4FF0FF32C6F8D8
:1028F00028258279FF2A08BF4FF0FF32C6F830251D
:10290000C279FF2A08BF4FF0FF32C6F83425027A99
:10291000FF2A08BF4FF0FF32C6F83825427AFF2A57
:1029200008BF4FF0FF32C6F83C250268C6F84025C4
:10293000027B90F80BE0477B857A9201002F42EAF8
:10294000CE0242EA050214BF802500252A43C6F8BC
:102950004425D6F80026877B90F810E0457C22F0CD
:102960007F4222F0FF023A43C77B42EA4E62002FC9
:1029700042EA057214BF4FF0807500252A430125F5
:10298000C6F800265C711960C6F8085351B1827C04
:10299000144952014FF40070D2B281F82923C1F8D2
:1029A000840148600E49104D104E01220020C1F8EC
:1029B000002516431A71642428600A6002E0B047BB
:1029C000013C08D02B684FF42070002BF7D000207A
:1029D000F8BD0720F8BD0D20F8BD00BFC4090020D8
:1029E0000090024000E100E000910240803A0000C7
:1029F000034B5B790BB111207047FFF7BFBE00BFDF
:102A0000C4090020054B1A6802B97047044A002027
:102A10005071186013689168184700BF0091024018
:102A2000C409002030B56E4AD2F8043399058BB042
:102A30005BD5D2F82431002B57D00023C2F82431C3
:102A4000D2F8243103934FF40171664B0398C2F816
:102A5000081393F8291009B9012151606049022235
:102A60008DF81820D1F88024C1F880249869D9689D
:102A700009920022089007919A6193E81200DA61A6
:102A800006A8A047564AD2F81C31C3B1554B186A64
:102A90005969884265D293F8280000F0FF040028A5
:102AA0005FD1C2F81C41D2F81C11029102999C68B6
:102AB000186A196A205C01311962C2F81C05484A7B
:102AC000D2F844317BB10021464BC2F84411D2F810
:102AD000440193F829100090009809B10121116078
:102AE0009A69002A52D10BB030BD3D4AD2F8043366
:102AF0005B07C7D5D2F80831002BC3D0394B996991
:102B0000002952D00021C2F80811D2F8081104910E
:102B10000499D868596AD2F8182542545A6A9969B2
:102B200001325A625A6A8A42ACD1DA69002A45D126
:102B300093F8292012B92A4A01215160284A4FF4FA
:102B40000171C2F80813596ADA680891002401205B
:102B500007928DF8180093E806009C6106A890473C
:102B600090E71F4A0020C2F81C01D2F81C210192F4
:102B7000019A0029A3D09A688DF81800089158612D
:102B8000079206A893E80600904798E70022586A43
:102B9000D9689A610122089007918DF8182006A83B
:102BA00093E8060090470BB030BDC2F80811D2F888
:102BB000080105900598D2F81825B3E7DD685C6A2E
:102BC00018699A6101210022D860DA615A628DF891
:102BD00018100795089493E8060006A8904751E757
:102BE00000200040D00900202DE9F041734E057906
:102BF0002C2303FB056382B093F82A301BB1082015
:102C000002B0BDE8F0810F4604466D490068904669
:102C1000FFF78AFD18B1112002B0BDE8F0813B68D2
:102C2000591C19D01F2B4FF001028ABF65494FF084
:102C3000A04103F01F0302FA03F3C1F808353B6813
:102C40001F2B86BF03F01F035E4A4FF0A04203F51F
:102C5000E073032142F823107B685A1C0BD01F2B12
:102C600086BF03F01F03574A4FF0A04203F5E073FD
:102C7000002142F823102368BA69C3F82425397D5E
:102C80007B7D22680B43C2F86C3597E80600236809
:102C9000C3F81425C3F80C153B7D012B51D02C2310
:102CA00003FB05F3F218C2F804803A69F250B8F158
:102CB000000F35D023683A7F434F0021C3F81C1121
:102CC000D3F81C3100932368DDF800E0C3F8441109
:102CD000D3F84411236801910199C3F80473216862
:102CE000090B4BB2002B60DB03F1604303F561433A
:102CF0005201D2B283F800232268120B42F3C403BC
:102D000023F0604323F0030303F1604303F56143C1
:102D100002F01F02012101FA02F2C3F880211A60B9
:102D20002C23246803FB0563002204250121C4F839
:102D3000005583F82A109A61DA6183F829205A61D4
:102D40005EE7BB68591C0BD01F2B86BF03F01F0327
:102D50001C494FF0A04103F5E073002241F8232005
:102D6000FB685A1C1AD01F2B8ABF16494FF0A0418E
:102D700003F01F03012202FA03F3C1F80835FB68D0
:102D80001F2B88BF03F01F0303F5E0738CBF0D49B1
:102D90004FF0A041032241F82320FB682268B96864
:102DA000C2F80835C2F8101579E7084B01F00F0199
:102DB00052010B44D2B21A769EE700BFD009002020
:102DC000252A00000003005080000200FCEC00E017
:102DD000F8B53A4D047902682C2303FB0453002113
:102DE0005B68C2F8001583B10368354AC3F808234D
:102DF0000368344E1B0B5AB25209203203F01F03F2
:102E0000012101FA03F346F8223003684FF0FF3E38
:102E1000D3F80C75D3F81465D3F80825D3F810153A
:102E2000C3F814E5C3F80CE503687745C3F808E573
:102E3000C3F810E50CD01F2F86BF07F01F07224BE9
:102E40004FF0A04307F5E0774FF0020E43F827E07C
:102E5000771C0BD01F2E86BF06F01F061A4B4FF0B3
:102E6000A04306F5E076022743F826704E1C0BD0EF
:102E70001F2986BF01F01F01134B4FF0A04301F53E
:102E8000E071022643F82160531C0BD01F2A86BF35
:102E900002F01F020C4B4FF0A04302F5E07202213A
:102EA00043F822100068FFF75DFC2C2303FB045459
:102EB000002384F82A306360F8BD00BFD0090020E9
:102EC0008402020000E100E000030050F0B5304E43
:102ED00005792C2303FB056385B05C6914B11120CF
:102EE00005B0F0BD1C62996083F828405A61026801
:102EF000C2F81C41D2F81C11026802910121029F04
:102F000091600268D3F808E0C2F81C41D2F81C11A5
:102F100001910199D3F820C0196A5F681EF80CC0AE
:102F200001311962C2F81CC517B1204605B0F0BDC9
:102F30001A6A5C690168944203D819E093F8282062
:102F4000F2B9D1F81C21002AF8D0C1F81C71D1F8CF
:102F50001C210392039AD3F820C01A6A1EF80CC0F1
:102F600001321A62C1F81CC51A6AA242E9D301688B
:102F7000D1F81C31002BFBD00123CB60002000E0F6
:102F80000F202C2303FB056300225A61A8E700BF32
:102F9000D009002070B54A4BD3F8242188B0002A0C
:102FA00055D1D3F81011F1B9454BD3F8442152B1A2
:102FB0000020444AC3F84401D3F844419169019484
:102FC000019C002960D13E4BD3F820214AB1002159
:102FD0003C4AC3F82011D3F8204150690094009C6A
:102FE00030BB08B070BDC3F81021D3F810113548BC
:102FF000039103998169D3F83C458C42D4D1C569CA
:10300000002D50D0D3F80012C668856121F0200150
:10301000C3F800120369C26101220168C3608DF820
:103020001840436805968DF8102004A89847BBE720
:10303000D3F84C0593688DF818008DF81010516185
:10304000059304A892E80A00984708B070BD0021D3
:10305000C3F82411D3F82421029202228DF8102003
:10306000029AD3F88004174AC3F880040790D3F873
:103070003C05D3688DF818009161D1610593116802
:10308000536804A898478FE7D3F83C458DF818405B
:10309000D368906101240593116853688DF810403E
:1030A00004A898478FE7C3680168856101220593EA
:1030B0008DF8184043688DF8102004A8984773E7EE
:1030C00000200040FC0900202DE9F0430479824EE5
:1030D000E7003B1906EB830385B093F820301BB162
:1030E000082005B0BDE8F083894605467B490068A5
:1030F0009046FFF719FB18B1112005B0BDE8F08329
:10310000D9F80030591C1AD01F2B4FF001028ABF8A
:1031100073494FF0A04103F01F0302FA03F3C1F813
:103120000835D9F800301F2B86BF03F01F036C4A07
:103130004FF0A04203F5E073032142F82310D9F8C1
:1031400004305A1C0BD01F2B86BF03F01F03644AA8
:103150004FF0A04203F5E073002142F823102B68E2
:10316000D9F81820C3F8242599F8141099F81520D7
:103170002B680A43C3F86C252A68D9F80030D9F8BF
:103180000410C2F80C35C2F8141599F81430012B4C
:1031900061D03A199200B318C3F80480D9F81030FE
:1031A000B350B8F1000F47D0296899F81C20DFF818
:1031B00038E10023C1F81031D1F8101100912968CD
:1031C000DDF800C0C1F82031D1F820110191296843
:1031D000DDF804C0C1F82431D1F824110291296826
:1031E000DDF808C0C1F84431D1F844112B680391CF
:1031F0000399C3F804E32968090B4BB2002B63DB86
:1032000003F1604303F561435201D2B283F8002316
:103210002A68120B42F3C40323F0604323F0030334
:1032200003F1604303F5614302F01F02012101FA3B
:1032300002F2C3F880211A603C442A6806EB840439
:1032400000230125082184F82050C2F80015A3614D
:10325000E361636145E7D9F80830591C0BD01F2B97
:1032600086BF03F01F031E494FF0A04103F5E07332
:10327000002241F82320D9F80C305A1C1CD01F2BF7
:103280008ABF17494FF0A04103F01F03012202FA41
:1032900003F3C1F80835D9F80C301F2B88BF03F0B1
:1032A0001F0303F5E0738CBF0D494FF0A0410322CB
:1032B00041F82320D9F80C302A68D9F80810C2F850
:1032C0000835C2F8101564E7064B01F00F015201F2
:1032D0000B44D2B21A769BE7FC090020952F000020
:1032E00000030050FCEC00E010030200F8B5067982
:1032F0003A4C0268F500AB1904EB830300215B68CC
:10330000C2F8001583B10368354AC3F8082303687F
:10331000344F1B0B5AB25209203203F01F03012114
:1033200001FA03F347F8223003684FF0FF3CD3F86B
:103330000CE5D3F81475D3F80825D3F81015C3F8A5
:103340000CC5C3F814C50368E645C3F808C5C3F83F
:1033500010C50DD0BEF11F0F86BF0EF01F0E224B01
:103360004FF0A0430EF5E07E4FF0020C43F82EC064
:103370007B1C0CD01F2F86BF07F01F071A4B4FF086
:10338000A04307F5E0774FF0020E43F827E04F1C0B
:103390000BD01F2986BF01F01F01134B4FF0A04334
:1033A00001F5E071022743F82170531C0BD01F2A4E
:1033B00086BF02F01F020C4B4FF0A04302F5E072F3
:1033C000022143F82210354404EB85040068FFF71E
:1033D000C9F9002384F820306360F8BDFC0900209F
:1033E0001003020000E100E00003005001F0604320
:1033F000B3F1005F01D010207047F0B50579214E80
:10340000EF007C1906EB840483B0636913B11120CB
:1034100003B0F0BDA1606261D0F800E0CEF82031C9
:10342000DEF820C1D0F800E0CDF804C0DDF804C01B
:10343000CEF85831DEF858C1D0F800E0CDF800C021
:10344000DDF800C0CEF84415CEF848250268012109
:10345000916062680AB11846DAE7036800E079B95A
:10346000D3F82021D3F85811002AF8D0002914BF2E
:103470000F2000207B1906EB830300225A61C7E767
:103480000F20F7E7FC090020704700BF70B54FF42C
:10349000004188B00020FDF7B5F808B1FDF7C2FC87
:1034A000264EFDF733F8642446F001064FF47A40C7
:1034B000B047013CFAD1FEF70BFD08B1FDF7B2FCB5
:1034C0000020FEF721FDFEF7EDFB08B1FDF7AAFC99
:1034D0001B4D0FCD03AC0FC42B681A49236000228B
:1034E00003A8FFF7E7F908B1FDF79CFC164B93E83A
:1034F000030000220190ADF8081001A81146FFF763
:1035000077FA08B1FDF78EFC64244FF47A40B04797
:10351000013CFAD10D4B0E480E49C01AC0080004F8
:1035200040F00300FDF7FEF90120FEF7FBFBFDF77D
:10353000C7F80028FBD1FEF7DBFBF8E7C03A000034
:10354000983A000089340000AC3A0000383C000092
:10355000603C0000C83A000010B44FF080414FF0CA
:1035600080520020C1F80C015E4BC1F81001C1F877
:103570003805D2F80414C3F82015D2F80814C3F89B
:103580002415D2F80C14C3F82815D2F81014C3F877
:103590002C15D2F81414C3F83015D2F81814C3F847
:1035A0003415D2F81C14C3F84015D2F82014C3F80F
:1035B0004415D2F82414C3F84815D2F82814C3F8D7
:1035C0004C15D2F82C14C3F85015D2F83014C3F8A7
:1035D0005415D2F83414C3F86015D2F83814C3F86F
:1035E0006415D2F83C04C3F86805D2F840043E499B
:1035F000C3F86C050968D2F84424C3F8702508297B
:1036000024D04FF08043D3F80024D20744BF6FF09A
:103610000102C3F80024354AD2F8883043F470031D
:10362000C2F88830BFF34F8FBFF36F8F4FF0102376
:10363000D3F80022002A23DBD3F80432002B1FDB4F
:103640002B4B2C4A1A605DF8044B70472A4B1B68C1
:10365000002BD6D129482A4A2A4C04602A492B4BF0
:10366000FB20C2F818050A681B68294822F00F02DF
:1036700003F00F0313434FF400720B600260C0E7C6
:10368000244B0122C3F80425D3F80024002AFBD0E0
:103690004FF0102312221F49C3F80022D1F8003442
:1036A000002BFBD04FF0102212211A4BC2F804124B
:1036B000D3F80024002AFBD000221649C3F80425C1
:1036C000D1F80034002BFBD0BFF34F8F0749124BCA
:1036D000CA6802F4E0621343CB60BFF34F8F00BFB0
:1036E000FDE700BF00C000403001001000ED00E029
:1036F0001C0000200090D003340100108C560040C4
:1037000000F0004048810300E40E00405802001021
:103710004096024000E001400400FA0508B5074B5E
:10372000044613B10021AFF30080054B1868836A8B
:1037300003B19847204600F071F800BF0000000078
:10374000243B000070B50D4E0D4CA41BA4100025A9
:10375000A54209D10B4E0C4C00F062F8A41BA4103A
:103760000025A54205D170BD56F825309847013592
:10377000EEE756F8253098470135F2E7F0010020D2
:10378000F0010020F0010020F4010020044B054A64
:103790001B681B6A002B08BF1346D3F8EC00704768
:1037A000200000208400002082B001B901A942B1AC
:1037B0004BB113780B601278101C18BF012002B0B7
:1037C00070471046FBE76FF00100F8E710B5431EA5
:1037D0000A44914200D110BD11F8014B03F8014F8A
:1037E000F7E702440346934200D1704703F8011BF8
:1037F000F9E7034613F8012B002AFBD1181A013808
:10380000704749B1FF2A85BF8A2303600A704FF0D1
:10381000FF3098BF0120704708467047FEE700BFA1
:10382000F8B500BFF8BC08BC9E467047F8B500BFAD
:10383000F8BC08BC9E467047FFFFFFFFFFFFFFFF7D
:10384000FFFFFFFFFFFFFFFF000000000000000080
:103850000000D60106010000F90300006504000025
:10386000F5030000756172745F6C6F675F6261637E
:103870006B656E6400000000540700207F000000AC
:10388000D40700204261636B656E647320666C75BB
:10389000736865640000000061707000F438000017
:1038A00024390000D43800002C39000034390000DD
:1038B0003C390000443900004C3900005439000004
:1038C0002025303278000000202020007C000000FD
:1038D000256300001B5B313B33316D0025734C6F5A
:1038E00067732064726F70706564202825642925D1
:1038F000730D0A001B5B306D000000002573000093
:103900003C25733E2025733A200000000D0A00007C
:10391000000000005C390000643900006C390000D0
:10392000743900001B5B313B33306D001B5B313B56
:1039300033326D001B5B313B33336D001B5B313B1E
:1039400033346D001B5B313B33356D001B5B313B0A
:1039500033366D001B5B313B33376D006572726F20
:10396000720000007761726E696E6700696E666F43
:1039700000000000646562756700000046617461C4
:103980006C206572726F720053797374656D20726A
:103990006573657400000000000000000000000076
:1039A0000338FDD8704700003031323334353637B4
:1039B0003839414243444546496E6974000000006D
:1039C00053687574646F776E207265717565737472
:1039D0002025640053687574646F776E207374617A
:1039E000727465642E20547970652025640000008F
:1039F0005379734F66662068616E646C657220301F
:103A00007825303858203D3E207265616479000089
:103A10005379734F66662068616E646C65722030FE
:103A20007825303858203D3E20626C6F636B696E9C
:103A30006700000053687574646F776E20636F6D64
:103A4000706C6574652E0000383C0000383C000046
:103A5000040000007077725F6D676D7400000000F5
:103A6000636C6F636B000000434C4F434B000000DE
:103A70004750494F54450000505253000000000089
:103A80000338FDD870470000554152540000000033
:103A90005541525445000000000000002326252413
:103AA000222104030000010000010600B901010108
:103AB0000101000000000000000000000000000004
:103AC0000338FDD8704700002D2D20506F776572A8
:103AD0002050726F66696C696E67206578616D70E1
:103AE0006C65202D2D0D0A2D2D206E524635323855
:103AF00034302D4D444B202D2D0D0A2D2D20436F9C
:103B00006D70696C65643A204D61722031392032E4
:103B10003031392031323A35313A3130202D2D0DC6
:103B20000A000000240000204300504F5349580071
:103B30002E00002020202020202020202828282897
:103B4000282020202020202020202020202020206D
:103B500020202088101010101010101010101010BD
:103B600010101004040404040404040404101010CD
:103B70001010101041414141414101010101010179
:103B80000101010101010101010101010101101007
:103B9000101010104242424242420202020202024D
:103BA00002020202020202020202020202021010D9
:103BB00010102000000000000000000000000000C5
:103BC00000000000000000000000000000000000F5
:103BD00000000000000000000000000000000000E5
:103BE00000000000000000000000000000000000D5
:103BF00000000000000000000000000000000000C5
:103C000000000000000000000000000000000000B4
:103C100000000000000000000000000000000000A4
:103C20000000000000000000000000000000000094
:083C300000000000000000008C
:103C3800683A000000000000703A00000000000030
:103C4800783A000000000000883A000000000000F8
:103C5800903A0000000000009838000000000404BA
:103C6800603A000000000000543A0000000004041C
:103C780058380000000000006438000014000020DC
:103C88006002002028030020300300206802002082
:043C98001800000010
:083C9C00D0C5FF7F010000000C
:103CA4000000000000200040000000000020004050
:103CB4000000000000000000FF0000000090D0039E
:103CC40024000020000000000000000000000000AC
:103CD40000000000000000000000000000000000E0
:103CE40000000000000000000000000000000000D0
:103CF40000000000000000000000000000000000C0
:103D040000000000000000000000000000000000AF
:103D1400000000000000000000000000000000009F
:103D2400000000004300000000000000000000004C
:103D3400000000000000000000000000000000007F
:103D4400000000004300000000000000000000002C
:103D5400000000000000000000000000000000005F
:103D6400000000004300000000000000000000000C
:103D7400000000000000000000000000000000003F
:103D840000000000430000000000000000000000EC
:103D9400000000000000000000000000000000001F
:103DA40000000000430000000000000000000000CC
:103DB40000000000000000000000000000000000FF
:103DC40000000000430000000000000000000000AC
:103DD40000000000000000000000000000000000DF
:103DE400000000004300000000000000000000008C
:103DF40000000000000000000000000000000000BF
:103E04000000000003380000A93700000000000093
:103E1400323B0000303B0000313B0000313B0000EE
:103E2400313B0000313B0000313B0000313B0000DE
:103E3400313B0000313B0000313B0000FFFFFFFF3E
:103E4400FFFFFFFFFFFFFFFFFFFF000001004153E3
:103E54004349490000000000000000000000000089
:103E640000000000000000000000000000004153BA
:103E74004349490000000000000000000000000069
:103E8400000000000000000000000000000000002E
:0C3E9400250200000102000000000000F8
:04000003000002E116
:00000001FF
