:10000000000004209D4E0200C54E0200C74E0200B3
:10001000C94E0200CB4E0200CD4E0200000000008F
:10002000000000000000000000000000CF4E0200B1
:10003000D14E020000000000D34E0200D54E020057
:10004000454E02004D3502004D170200F11402002A
:10005000D74E0200D74E0200D74E0200D74E020004
:10006000D74E0200D74E0200D74E0200D74E0200F4
:10007000D74E020059120200D74E0200D74E02009E
:10008000D74E0200D74E0200D74E0200D74E0200D4
:10009000D74E0200D74E0200D74E0200D74E0200C4
:1000A000D74E0200D74E0200D74E0200D74E0200B4
:1000B000D74E0200D74E02000000000000000000F2
:1000C000D74E0200D74E0200D74E0200D74E020094
:1000D000A50A0200D74E0200D74E0200D74E0200FA
:1000E000D74E0200D74E0200D94D03000000000099
:1000F00000000000D74E020000000000D74E0200B2
:1001000000000000000000000000000000000000EF
:1001100000000000000000000000000000000000DF
:1001200000000000000000000000000000000000CF
:1001300000000000000000000000000000000000BF
:1001400000000000000000000000000000000000AF
:10015000000000000000000000000000000000009F
:10016000000000000000000000000000000000008F
:10017000000000000000000000000000000000007F
:10018000000000000000000000000000000000006F
:10019000000000000000000000000000000000005F
:1001A000000000000000000000000000000000004F
:1001B000000000000000000000000000000000003F
:1001C000000000000000000000000000000000002F
:1001D000000000000000000000000000000000001F
:1001E000000000000000000000000000000000000F
:1001F00000000000000000000000000000000000FF
:1002000010B5054C237833B9044B13B10448AFF350
:1002100000800123237010BD380200200000000080
:10022000000B04000C4B43B10C480D4910B5AFF363
:1002300000800C48036823B910BD0A48036833B92D
:100240007047094B002BF7D0BDE810401847064B0C
:10025000002BF5D0184700BF00000000000B040081
:100260003C0200203402002000000000154B002B4F
:1002700008BF134B9D46A3F5803A00218B460F46DD
:100280001348144A121A35F0C3FE0F4B002B00D04E
:1002900098470E4B002B00D0984700200021040007
:1002A0000D000D48002802D00C48AFF3008035F057
:1002B00039FE2000290000F015F835F00DFE00BFD2
:1002C0000000080000000420000000000000000002
:1002D000380200208CD30020000000000000000045
:1002E0007047000070B505460E463146284620F09E
:1002F0008DFC03F049FE044628B90C4B0C4A0D480E
:10030000532135F0CBFD00F05FF8204630F07CFF44
:1003100020F0A6FC18B1204603F03CFEE5E720469D
:1003200003F0E7FF204620F0A1FCF1E7A1770300EE
:100330009C770300AB7703000EB410B5A3B025ABD8
:10034000044653F8042B0193802102A836F042FCA6
:1003500002A836F0C2FA236882B21B6802A92046BE
:10036000984723B0BDE8104003B07047B0F8063698
:10037000B0F80826C3F580618A42CCBFA0F80A16FF
:10038000A0F80A26B0F80A1621B100F20620184497
:1003900021F0BAB97047000010B50A4B036004465B
:1003A00000F20C6000F05CFB0023A4F80432A4F817
:1003B0000636A4F80836A4F80A3621F03DF920469E
:1003C00010BD00BF0478030010B5044C0146204660
:1003D000FFF7E2FF024B1C6010BD00BF5802002077
:1003E0005402002010B5B0F80432C2180446D27886
:1003F0000A2A06D1013B9BB2A0F804320344002232
:100400001A71B4F80432E218D2780D2A06D1013BF1
:100410009BB2A4F80432234400221A7104F20C6047
:100420002346B4F80422211D02F05AFD0020A4F84E
:10043000040210BD2DE9F8432A4FDFF8AC80DFF845
:10044000AC9004468E180D46B542294648D20B782A
:100450000A2B05F1010519D014D8082B2CD0B4F8BB
:100460000432B3F5007FEFDA236801221B682046CF
:100470009847B4F804325A1CA4F8042215F8012C49
:1004800023442BE00D2B01D07F2BE7E723680222CA
:100490001B68394620469847B4F804322BB12344F0
:1004A00000221A712046FFF79DFF236802221B6875
:1004B000414620469847C7E7B4F80432002BC3D022
:1004C000236803221B68494620469847B4F8043243
:1004D000013B9BB2A4F80432002223441A71B3E713
:1004E000BDE8F883F9770300F7770300F47703009A
:1004F000024B0A4601461868FFF79CBF54020020D1
:10050000B0F80A360BB9FFF731BF704770B5B0F8D5
:100510000846C4F58064A4B29442A8BF14460D46B0
:100520006B1A9C420FDDB0F80826B0F8063615F8B5
:10053000016B1344C3F309030344013283F80662D9
:10054000A0F80826ECE7FFF7DBFF204670BDB0F807
:100550000A16B0F806260A44C2F30902A0F80626D5
:10056000B0F80826521AA0F808260022A0F80A2699
:10057000FFF7FCBE014B1868FFF7E9BF54020020EB
:10058000F8B50F4F0F4E05460024A868E2590368DE
:1005900031465B680C349847B4F52B7FF5D1094E92
:1005A00000242B799C4209D2A8682A68036852F873
:1005B00034205B68314698470134F2E7F8BD00BF4C
:1005C0008082030036850300D0F8F40003F0E9BC14
:1005D000D0F8F40003F0E0BC70B585682B680446E1
:1005E000D0F8F4005E6803F06FFF05490246284624
:1005F000B047A06803490368BDE870405B681847CE
:100600005B790300867A030070B584680B46216825
:1006100018464D68114630F0F9FD2B460246024956
:100620002046BDE8704018473685030080680249BF
:1006300003685B68184700BF867A030030B504463C
:100640008BB06946D0F8F40003F0D7FDA068BDF880
:10065000002003682F495B689847A068BDF8022016
:1006600003682D495B689847A068BDF804200368BB
:100670002A495D68BDF80630A847A068BDF8082083
:10068000036827495D68BDF80A30A847A068BDF82F
:100690000C20036823495D68BDF80E30A847A068A8
:1006A000BDF81020036820495D68BDF81230A847E6
:1006B000A068BDF8142003681C495D68BDF81630B9
:1006C000A847A068BDF81820036819495D68BDF8FF
:1006D0001A30A847A068BDF81C20036815495D685A
:1006E000BDF81E30A847A068BDF820200368124955
:1006F0005D68BDF82230A847A068BDF824200368D3
:100700000E495D68BDF82630A8472046FFF78EFFEA
:100710000BB030BD44800300508003005B800300B9
:100720006D8003007F8003008C80030099800300AC
:10073000A6800300D4800300B3800300C8800300B8
:10074000F0B5224E8FB00446002509AAE9B2D4F8CC
:10075000F40003F0CEFF002833D19DF83730DB07DB
:100760002DD5A068BDF8341007680691BDF8321089
:10077000BDF82630BDF8242049BA89B20591BDF8EC
:10078000301049BA89B20491BDF82E1049BA89B225
:100790000391BDF82C1049BA89B20291BDF82A1014
:1007A00049BA89B20191BDF8281049BA89B20091BD
:1007B0005BBA52BA7F689BB292B23146B8470135F4
:1007C000C3E72046FFF732FF0FB0F0BDCF7E030036
:1007D00038B5044603F0E8FBA36805491A68556874
:1007E00002461846A8472046BDE83840FFF71EBF1E
:1007F0003685030070B5044659B9806869490368B5
:100800005B689847A06868490368BDE870405B680A
:1008100018476649106836F039F8002840F0C18062
:10082000D4F8F40003F0BDFC0546A0682A6803680C
:100830005F495B689847A0686A6803685D495B68C0
:100840009847A068AA6803685B495B689847A068F6
:10085000EA68036859495B689847A0682A69036891
:1008600057495B689847A0686A69036855495B689F
:100870009847A068AA69036853495B689847A068CD
:10088000EA69036851495B689847A0682A6A036867
:100890004F495B689847A0686A6A03684D495B687E
:1008A0009847A068AA6A03684B495B689847A068A4
:1008B000EA6A036849495B689847A0682A6B03683D
:1008C00047495B689847A068AA6B036845495B681D
:1008D0009847A068EA6B036843495B689847A0683B
:1008E0002A6C036841495B689847A0686A6C036892
:1008F0003F495B689847A068AA6C03683D495B68FC
:100900009847A068EA6C03683B495B689847A06811
:100910002A6D036839495B689847A0686A6D036867
:1009200037495B689847A068AA6D036835495B68DA
:100930009847A068EA6D036833495B689847A068E8
:100940002A6E036831495B689847A0686A6E03683D
:100950002F495B689847A068AA6E03682D495B68B9
:100960009847A068EA6E03682B495B689847A068BF
:100970002A6F036829495B689847A0686A6F036813
:1009800027495B689847A068AA6F036825495B6898
:100990009847A068EA6F036823495B68BDE8704028
:1009A000184770BD727B0300867A0300787B0300D2
:1009B0007C7B03008A7B03009E7B0300B47B0300E7
:1009C000CD7B0300DF7B0300FA7B03000B7C03007D
:1009D000207C0300337C03004D7C03005F7C03001C
:1009E000717C0300847C03009F7C0300AD7C0300CA
:1009F000C17C0300D77C0300E87C0300FD7C03007E
:100A0000107D03002A7D03003C7D0300587D030018
:100A1000757D03008C7D0300A37D0300C47D03006E
:100A2000E27D0300F57D0300087E030010B5044657
:100A3000D0F8F40003F0C9FDA3681A68526838B111
:100A40000449184690472046BDE81040FFF7EEBD28
:100A50000149F6E7ED7F0300F47F030000BA704719
:100A600070B5002504460E460560057185602C2290
:100A700029460C3035F0CCFA0823238701236387FD
:100A80004FF47A73E363154B236404F14003A364CA
:100A90002146656404F1B80003F058F92946C4F80A
:100AA000F460602204F14C0035F0B2FA22460C49A1
:100AB000304603F073FA2246D4F8F400094903F0F3
:100AC00040FD094BC4F8AC30C4F8B04004F1AC01AF
:100AD000D4F8F40003F04EFA204670BD012C00005B
:100AE00041300000B1300000D92A00002DE9F0416A
:100AF000074690460C4635F0F0FE3D1800F0010622
:100B00000130B8EB500F12D33846214600228542FF
:100B100021D910F8013BA3F14107052F0BD8373B32
:100B20001343DBB29EB10B7000260131EEE74FF0AC
:100B3000FF30BDE8F081A3F16107052F01D8573BD5
:100B4000EEE7303BDBB2092BF1D81343EAE71B0198
:100B5000DAB20126DBE7081BBDE8F08170B50C4670
:100B600019B9BDE87040FFF761BD85682B6808467C
:100B70005E6803F027FF22460346B4462846024932
:100B8000BDE87040604700BF2C85030070B5054686
:100B90000E46A9B9D0F8F40003F0F7FC0446A868A3
:100BA00003685B6844B111499847304601462846BE
:100BB000BDE87040FFF7D2BF0D4998472046F5E7E2
:100BC00014680C49204635F061FE28B90121D5F89A
:100BD000F40003F0EEFCE9E70749204635F056FE45
:100BE00001460028F3D00720E0E700BFC97F0300DB
:100BF000D37F0300DE7F0300E57F030010B5836829
:100C00000446D0F8F40002F0C1FF01462046BDE8DA
:100C10001040FFF7A3BF000070B505460E46A9B906
:100C2000D0F8F40003F0CCF90446A86803685B68C8
:100C300044B111499847304601462846BDE8704006
:100C4000FFF78CBF0D4998472046F5E714680C491B
:100C5000204635F01BFE28B90121D5F8F40003F039
:100C6000A7F9E9E70749204635F010FE01460028BC
:100C7000F3D00720E0E700BFEE7E0300F37E030021
:100C80008FB70300FA7E030037B504466946D0F8F3
:100C9000F40003F012FC054608BBA068009A036844
:100CA00012495B689847A0689DF8042003681049C2
:100CB0005B689847A0689DF8052003680D495B684C
:100CC0009847A0689DF8062003680B495B68984721
:100CD000A0689DF80720036808495B689847294683
:100CE0002046FFF73BFF03B030BD00BFE2800300AA
:100CF000F58003000C810300058103001F810300C0
:100D0000F0B5134685B00446D9B9D0F8F400154FB4
:100D100003F0F7FC461E00F10F05A06816F8012F3E
:100D2000036839465B689847B542F6D1A0680E491A
:100D300003685B68984700212046FFF70FFF05B066
:100D4000F0BD102269461868FFF7D0FE102806D1C2
:100D50006946D4F8F40003F0D9FC0146ECE706211B
:100D6000EAE700BF32A80300297803002DE9F34128
:100D7000002304468DF80430002933D1D0F8F40064
:100D800003F0FBFA8DF80400C00704D5A0684449BD
:100D900003685B6898479DF80430990704D5A068FC
:100DA000404903685B6898479DF804305A0704D5AA
:100DB000A0683D4903685B6898479DF804301B07AD
:100DC00004D5A068394903685B689847A06838492A
:100DD00003685B6898470021204602B0BDE8F041F7
:100DE000FFF7BCBE16684FF0000EF446F04677469B
:100DF000013E194618461D4616F8012F5AB36E2AB1
:100E000026D018D8642A20D02DB19DF804306CF378
:100E100000038DF8043028B19DF804306EF34103CF
:100E20008DF8043029B19DF8043067F382038DF802
:100E300004300621D0E7722A04D0732AE4D10120BD
:100E40008646D9E70125AC46D6E701210F46D3E710
:100E500001239846D0E72DB19DF804206CF30002E1
:100E60008DF8042028B19DF804206EF341028DF81E
:100E7000042029B19DF8042067F382028DF8042034
:100E80002BB19DF8043068F3C3038DF804309DF84E
:100E90000410D4F8F40003F098FA01469CE700BF70
:100EA0000B9403006C90030050DF030019910300C2
:100EB000297803002DE9F04F00238BB099420446B6
:100EC000ADF802300BDD15684E49284635F0DEFCE2
:100ED000064630B14C49284635F0D8FC58B10721B8
:100EE0008AE0A068494903685B689847A068484958
:100EF00003685B689847474FDFF83881DFF838911F
:100F0000D4F8F4000DF1040A52460DF1020103F089
:100F1000C8FAA3681A68002869D15568002E60D104
:100F20009DF82420DFF814B112F0100F14BF4322F3
:100F3000522241461846A847A068BDF81020036811
:100F400049465B689847A068039A036832495B6822
:100F50009847A0689DF91D20036830495B68984751
:100F6000A0689DF91E2003682D495B689847A0681A
:100F70009DF8242003682B495B6802F00102984722
:100F8000A0689DF82420036826495B68C2F34002EC
:100F90009847A0689DF82420036822495B68C2F343
:100FA00080029847A0689DF8242003681D495B686B
:100FB000C2F3C0029847A0681B4903685B68984762
:100FC0003546A0681AF80520036859465B68013564
:100FD0009847082DF5D1A068144903685B689847C5
:100FE0008EE7BDF8102039461846A84788E7104913
:100FF00052681846904700212046FFF7AFFD0BB01E
:10100000BDE8F08FFF7E03001FAB0300057F0300E8
:10101000517F0300A77F0300AF7F0300B67F03006B
:10102000BD7F0300C47F03004A820300DB7A030014
:10103000297803009D7F0300A57F030032A80300E9
:101040002DE9F04186B001AF04463946D0F8F400EE
:1010500003F03EFA0646002831D1A0681B49036818
:10106000DFF880805B6898473546A0687A5D036842
:1010700041465B6801359847082DF6D1A0681449B0
:1010800003685B689847A068BDF80C2003681149A5
:101090005B689847A0689DF8112003680E495B685B
:1010A0009847A0689DF8122003680C495B68984730
:1010B000A0689DF81320036809495B68984731468A
:1010C0002046FFF74BFD06B0BDE8F081397A0300FA
:1010D00029780300447A03004F7A0300657A0300FD
:1010E0007C7A030032A8030038B5044671B9D0F801
:1010F000F40003F038F820B1D4F8F4001FF0AAFE91
:1011000058BBA068184903685B682AE0156817494E
:10111000284635F0BBFB80B91549D4F8F4002246C7
:1011200003F01CF80121D4F8F40003F021F8014683
:101130002046BDE83840FFF711BD28460D4935F07F
:10114000A5FB054638B901460246D4F8F40003F081
:1011500005F82946E7E70720E9E7A068064903689C
:101160005B6898470020E2E7D37F0300DE7F03003F
:10117000412D0000E57F0300C97F030070B50546DF
:101180000E46A1B9D0F8F40003F035FA0446A86879
:1011900003685B6844B111499847344621462846A4
:1011A000BDE87040FFF7DABC0D499847F6E71668CE
:1011B0000C49304635F06AFB044628B90121D5F8C0
:1011C000F40003F01CFAE9E70749304635F05EFB0E
:1011D000044608B90146F2E70724DFE7C97F0300A8
:1011E000D37F0300DE7F0300E57F030038B50446AC
:1011F00000292BD1D0F8F40003F05BF9A368042890
:1012000020D8DFE800F0030F13171B001A682549E8
:10121000526818469047002001462046BDE83840F5
:10122000FFF79CBC1A6820495268F2E71A681F4908
:101230005268EEE71A681E495268EAE71A681D49C3
:101240005268E6E71A681C495268E2E715681B49CC
:10125000284635F01BFB20B9D4F8F40003F018F948
:10126000DAE71749284635F011FB20B9D4F8F40025
:1012700003F012F9D0E71349284635F007FB20B9EF
:10128000D4F8F40003F0F8F9C6E70F49284635F022
:10129000FDFA20B9D4F8F40003F0FFF9BCE7072009
:1012A000BAE700BF917903009C790300A779030096
:1012B000AF790300B8790300C1790300D179030045
:1012C000D4930300DA790300E1790300002938B5EB
:1012D000044617DD15680C49284635F0D7FA50B991
:1012E0000121D4F8F40003F03BF901462046BDE8A3
:1012F0003840FFF733BC0549284635F0C7FA0146A8
:101300000028EED00720F0E7448503006D7B030042
:1013100010B50446B83002F023FD01462046BDE872
:101320001040FFF71BBC0000F0B50F1E87B005464C
:1013300016462DDD14681749204635F0A7FAE0B9A6
:10134000012F25D0144B0393144B0193022F144B00
:1013500000934FF000040CBF0246B268049502945B
:10136000104B7168D5F8F40002F072FE2146284651
:1013700007B0BDE8F040FFF7F1BB20460A4935F061
:1013800085FA044620B9D5F8F40002F069FEEDE7CD
:101390000721ECE744850300D52E0000117A0300F5
:1013A000307A0300067A03006D7B0300F0B5134624
:1013B00085B00446D9B9D0F8F400154F03F01BF8F6
:1013C000461E00F10F05A06816F8012F0368394684
:1013D0005B689847B542F6D1A0680E4903685B6820
:1013E000984700212046FFF7B9FB05B0F0BD102259
:1013F00069461868FFF77AFB102806D16946D4F8C9
:10140000F40002F0FDFF0146ECE70621EAE700BF29
:1014100032A8030029780300F8B505460C4689B9BF
:10142000D0F8F40003F007F8AE680A4933681022D8
:101430005F6803463046B84721462846BDE8F84075
:10144000FFF78CBB1168D0F8F40002F0F8FF0146FA
:10145000F3E700BF568103002DE9F041084E07462F
:101460000D4690460C46631B984507DDB86814F896
:10147000012B036831465B689847F4E7BDE8F081CB
:1014800032A8030037B505460C46A1B96946D0F825
:10149000F40002F03BFE082269462846FFF7DCFF15
:1014A000A868064903685B68984721462846FFF705
:1014B00055FB03B030BD0721F8E700BF29780300D2
:1014C00037B505460C46A1B96946D0F8F40002F0DC
:1014D000CCFD082269462846FFF7BEFFA8680649EA
:1014E00003685B68984721462846FFF737FB03B03F
:1014F00030BD0721F8E700BF2978030037B5134650
:1015000005460C4699B9D0F8F40002F0E5FD082232
:1015100001462846FFF7A0FFA8680D4903685B68ED
:10152000984721462846FFF719FB03B030BD082233
:1015300069461868FFF7DAFA002801DA0621F1E7B0
:101540006946D5F8F40002F0CBFD0146EAE700BF9A
:101550002978030037B5134605460C4699B9D0F8EB
:10156000F40002F0DAFE082201462846FFF774FF75
:10157000A8680D4903685B68984721462846FFF72D
:10158000EDFA03B030BD082269461868FFF7AEFADD
:10159000002801DA0621F1E76946D5F8F40002F0E7
:1015A000C0FE0146EAE700BF2978030013B5002218
:1015B0000C4601A935F038FA019B20601B78002BFE
:1015C00014BF0620002002B010BD0000F7B505468C
:1015D0000C4689B98668D0F8F40033685F6802F079
:1015E0005DFD0C4902463046B84720460146284674
:1015F000FFF7B4FA03B0F0BD01A91068FFF7D6FFFA
:101600000028F3D19DF80410D5F8F40002F04AFD4B
:10161000ECE700BF507903002DE9F04F00298BB0B3
:10162000044640F3328115689949284635F02EF971
:101630000646002800F08F809649284635F026F9A6
:10164000002800F09280284601A9FFF7AFFF054669
:10165000002840F0138102AF3A46BDF80410D4F8D8
:10166000F40003F02EF80546002840F00781A0683A
:10167000BDF81A20036888495B68DFF87C829847C8
:10168000A068BDF81820036884495B689847A06883
:10169000834903685B6898472E46A068BA5D036873
:1016A00041465B6801369847082EF6D1A0687D490F
:1016B00003685B689847A0687B4903685B68984744
:1016C0009DF82430D80704D5A068784903685B6882
:1016D00098479DF82430990704D5A0687449036899
:1016E0005B6898479DF824305A0704D5A068714973
:1016F00003685B6898479DF824301B0704D5A068F1
:101700006D4903685B689847A068664903685B6831
:101710009847A0689DF81C20036868495B68984753
:10172000A068049A036866495B689847A068059AB0
:10173000036864495B689847A0689DF81D200368AA
:1017400061495B689847A0689DF91E2003685F495E
:101750005B68984792E0A0685D4903685B689847BA
:10176000A0685C4903685B689847D4F8F400DFF828
:101770008CA102F037FF00278146F9B2494577DA9C
:101780000DF108084246D4F8F40002F0A1FF002849
:101790006CD19DF82430DD0668D4A068BDF81A200D
:1017A00026B103684C495B6898475FE003684B4982
:1017B0005B68DFF844B19847A068BDF8182003685B
:1017C00051465B689847A068049A036844495B687F
:1017D0009847A068059A036841495B689847A068E4
:1017E0009DF81D2003683F495B689847A0689DF8F5
:1017F0001C2003683C495B689847A0689DF824203A
:1018000003683A495B6802F001029847A0689DF8B6
:101810002420036835495B68C2F340029847A068FA
:101820009DF82420036831495B68C2F38002984721
:10183000A0689DF8242003682C495B68C2F3C002AD
:101840009847A0682A4903685B6898473546A068AE
:1018500018F80520036859465B6801359847082D3C
:10186000F5D1A068234903685B689847013784E78E
:10187000A0680C4903685B68984700252946204604
:10188000FFF76CF90BB0BDE8F08F0725F6E700BF56
:10189000FF7E03001FAB0300467903005579030068
:1018A000397A030029780300627903000B9403005E
:1018B0006C90030050DF0300199103006979030065
:1018C000787903007C7A03004F7A0300867903005D
:1018D00082780300D97803005E890300AF7F03009C
:1018E00030790300387903003F790300C47F030097
:1018F0004A820300DB7A030032A80300A57F0300BD
:10190000F7B505460C4689B98668D0F8F400336807
:101910005F6802F067FE0C4902463046B847204631
:1019200001462846FFF71AF903B0F0BD01A9106877
:10193000FFF73CFE0028F3D19DF80410D5F8F40021
:1019400002F054FEECE700BF50790300F7B50546FE
:101950000C4681B98668D0F8F40033685F6802F0FD
:10196000D4FC0B4902463046B84721462846FFF7CB
:10197000F5F803B0F0BD01A91068FFF717FE0446A3
:101980000028F2D10199D5F8F40002F0C2FCECE78E
:101990005079030073B5044679B98568D0F8F4002E
:1019A0002B685E6802F049FE0A4902462846B047A5
:1019B0002046FEF73BFE02B070BD01A91068FFF79C
:1019C000F5FD0028F4D10199D4F8F40002F03AFEB4
:1019D000EEE700BF5079030010B5002986B0044639
:1019E0001FDD05A91068FFF7E1FDE0B9059B0121A6
:1019F00099400F4B01930023029400934FF6FF721E
:101A0000D4F8F40002F0E5FD68B9A068094903685C
:101A10005B689847A068084903685B68984706B008
:101A200010BD0021E5E701462046FFF797F8F6E7ED
:101A3000092E00001D7E0300767E03004B1E012B45
:101A40002DE9F34105460F46164644D8D2F80080EA
:101A50002249404634F01AFF0446F8B9012F0BD151
:101A6000AE68D5F8F40033685F6802F000FD024606
:101A70001B493046B8470AE001A97068FFF796FD98
:101A8000044620B90199D5F8F40002F0F4FC21468F
:101A90002846FFF763F802B0BDE8F08111494046DF
:101AA00034F0F4FE0446B0B9012F07D1AE68D5F882
:101AB000F40033685F6802F0E3FCD8E701A97068BE
:101AC000FFF774FD04460028E1D10199D5F8F40030
:101AD00002F0DAFCDBE70724D9E700BF448103000A
:101AE000507903004C810300F7B505460C4681B9D7
:101AF0008668D0F8F40033685F6802F084FD0C4912
:101B000002463046B84721462846FFF727F803B07B
:101B1000F0BD01A91068FFF749FD04460028F2D185
:101B20009DF80410D5F8F40002F071FDEBE700BF5A
:101B300050790300F7B505460C4681B98668D0F8A0
:101B4000F40033685F6802F082FD0C4902463046BB
:101B5000B84721462846FFF701F803B0F0BD01A9B8
:101B60001068FFF723FD04460028F2D19DF8041009
:101B7000D5F8F40002F06FFDEBE700BF50790300E9
:101B8000F7B505460C4689B98668D0F8F400336885
:101B90005F6802F0BDFA0C4902463046B84720465D
:101BA00001462846FEF7DAFF03B0F0BD01A9106830
:101BB000FFF7FCFC0028F3D1BDF80410D5F8F400C1
:101BC00002F0AAFAECE700BF5B790300F7B505461F
:101BD0000C4689B98668D0F8F40033685F6802F073
:101BE000ACFD0C4902463046B8472046014628461F
:101BF000FEF7B4FF03B0F0BD01A91068FFF7D6FCF3
:101C00000028F3D19DF90410D5F8F40002F099FDF5
:101C1000ECE700BF50790300F7B505460C4699B9CB
:101C20008668D0F8F40033685F6802F08DFA4FF4EC
:101C30007A720D49B0FBF2F23046B8472146284689
:101C4000FEF78CFF03B0F0BD01A91068FFF7AEFCF2
:101C500004460028F2D1019BD5F8F4004FF47A71C4
:101C6000594302F076FAE9E750790300002913B5E9
:101C7000044610DD01A91068FFF798FC28B99DF80B
:101C80000410D4F8F40002F0F2FC01462046FEF7FE
:101C900065FF02B010BD0720F7E700002DE9F04F07
:101CA000002987B0044640F304811568824928461C
:101CB00034F0ECFD074600287FD08049284634F0F8
:101CC000E5FD002800F0838028466946FFF76EFC9A
:101CD0000546002840F0E68001AF3A46BDF8001006
:101CE000D4F8F40002F0FDFC0546002840F0DA804C
:101CF000A0689DF81420036871495B6802F0010236
:101D000098479DF81430DA0740F1CC80A0689DF820
:101D10000E2003686B495B689847A068BDF80C20EB
:101D2000036869495B689847A0689DF80F200368BD
:101D300066495B6892029847A0689DF81420036882
:101D400063495B68C2F3400298479DF814309B07D3
:101D500040F1A880A0685F490368DFF8BC815B6838
:101D600098472E46A068BA5D036841465B68013615
:101D70009847082EF6D1A068574903685B689847D2
:101D8000A0689DF81020036854495B689847A068D4
:101D90009DF81120036852495B689847A0689DF838
:101DA000122003684F495B689847A0689DF813208C
:101DB00003684D495B68984774E0A0684B49036825
:101DC0005B689847A0684A4903685B689847D4F8FD
:101DD000F400DFF848A102F082FC00268146F5B24B
:101DE0004D4559DC0DF1040842462946D4F8F4006B
:101DF00002F077FC002849D1A06803685B68002FD7
:101E000046D19DF80E203B49DFF80CB19847A068F9
:101E1000BDF80C20036851465B689847A0689DF8A0
:101E20000F20036834495B689847A0689DF810202C
:101E3000036832495B689847A0689DF811200368E1
:101E40002F495B689847A0689DF8122003682D49C8
:101E50005B689847A0689DF8132003682A495B686F
:101E60009847A068294903685B6898473D46A06881
:101E700018F80520036859465B6801359847082D16
:101E8000F5D1A068224903685B6898470136A6E748
:101E90002A4620499847F9E7A0680F4903685B681C
:101EA0009847002529462046FEF758FE07B0BDE8B2
:101EB000F08F0725F6E700BFFF7E03001FAB03008E
:101EC0003A7B03002681030055790300467B03001B
:101ED000577B0300397A030029780300627B0300F3
:101EE0004F7A0300657A03007C7A03008D7A030041
:101EF000E07A03004E820300B67F0300BD7F03003B
:101F000038790300337B0300AF7F03004A8203006C
:101F1000DB7A03005E89030032A80300A57F03007B
:101F2000F7B505460C4681B98668D0F8F4003368E9
:101F30005F6802F0B6FB0C4902463046B8472146BE
:101F40002846FEF70BFE03B0F0BD01A91068FFF7AD
:101F50002DFB04460028F2D19DF80410D5F8F400BA
:101F600002F0A3FBEBE700BF50790300F7B505468D
:101F70000C4681B98668D0F8F40033685F6802F0D7
:101F800098FB0E4902463046B84721462846FEF7E0
:101F9000E5FD03B0F0BD01A91068FFF707FB04469B
:101FA0000028F2D101994B1EFE2B05D8C9B2D5F8F5
:101FB000F40002F082FBE8E70724E6E7507903002B
:101FC000F7B505460C4681B98668D0F8F400336849
:101FD0005F6802F044FB0C4902463046B847214690
:101FE0002846FEF7BBFD03B0F0BD01A91068FFF75E
:101FF000DDFA04460028F2D19DF80410D5F8F4006B
:1020000002F031FBEBE700BF5079030030B5002947
:1020100085B0044620DD03A91068FFF7C7FAA8B908
:10202000039B01259D40A0680C4903685B689847A5
:10203000A0680B4903685B6898470094094BD4F883
:10204000F4000022294602F0B1F818B101462046FA
:10205000FEF784FD05B030BD0025E4E71D7E0300DA
:10206000767E0300092E000037B5054699B901A90F
:10207000D0F8F4001EF050FF044630B9A8689DF96E
:10208000042003680B495B68984721462846FEF701
:1020900065FD03B030BD01A91068FFF787FA04465B
:1020A0000028F2D19DF90410D5F8F4001EF03EFF8F
:1020B0000446EAE7C9E20300F7B505460C4689B9CC
:1020C0008668D0F8F40033685F6802F0ACFA0C4917
:1020D00002463046B847204601462846FEF73EFDF8
:1020E00003B0F0BD01A91068FFF760FA0028F3D132
:1020F000BDF80410D5F8F40002F09AFAECE700BF3E
:10210000507903002DE9F04F02298BB007460E46A7
:10211000914605DC072529463846FEF71FFD2EE0CF
:1021200001A9506801F089FF05460028F3D109F1A3
:10213000040A023E04460DF1140BB4425FFA84F81F
:102140000FD0132C0CD069465AF8040FFFF72EFA63
:1021500020B9009B04F80B300134EEE70546DAE7BE
:10216000A046D9F800400E49204634F08FFB48B90C
:10217000434605AA01A9D7F8F40002F0E7F90BB02D
:10218000BDE8F08F0749204634F080FB0028C1D11C
:10219000434605AA01A9D7F8F40002F0DCF9BAE732
:1021A000AC810300D885030013B500220C4601A9B9
:1021B00034F0CEFC019B20601B78002B14BF06205E
:1021C000002002B010BD0000F7B505460C46A1B9CD
:1021D0008668D0F8F40033685F6801F0C1FE4FF400
:1021E0007A720F49B0FBF2F23046B84720460146FA
:1021F0002846FEF7B3FC03B0F0BD01290ED101A9BA
:102200001068FFF7D1FF0028F1D1019BD5F8F40049
:102210004FF47A71594301F0A8FEE8E70720E6E79A
:1022200050790300F7B505460C4681B98668D0F8A9
:10223000F40033685F6802F0EEF90B49024630465D
:10224000B84721462846FEF789FC03B0F0BD01A936
:102250001068FFF7A9FF04460028F2D10199D5F8CC
:10226000F40002F0DCF9ECE7F08003002DE9F04F18
:102270000F1E99B00646144640F36982D2F80090CA
:10228000A549484634F002FB50B9D6F8F40001F0F5
:10229000F3FD01463046FEF761FC19B0BDE8F08F52
:1022A0009E49484634F0F2FA20B9D6F8F40001F01D
:1022B000E8FDEEE79A49484634F0E8FA00283FD1B5
:1022C000022F40F34482A5689649284634F0DEFA8E
:1022D00008B3082210A92846FEF708FC082840F099
:1022E000E08110ADD4F804808F49404634F0CEFA36
:1022F000D0B9032F00F02B827823042F09930CD13F
:10230000099BE268D6F8F400294601F0BFFD0028D9
:10231000BFD10020BDE70546E4E709A92069FFF722
:1023200043FF0028B5D1EBE78049404634F0AEFAD0
:102330000028EED12946D6F8F40001F0ACFDE6E71E
:102340007B49484634F0A2FA014638B9012FD6F845
:10235000F40018BF616801F0A4FD9AE7754948468A
:1023600034F094FA38BB042F40F3F18107A9606878
:10237000FFF71CF900288CD108A9A068FFF716F90F
:10238000002886D109A9E068FFF710F9002880D15C
:1023900010AD2946206901F050FE00287FF479AF86
:1023A000BDF824309DF8202000950799D6F8F40058
:1023B00001F07CFD6DE76049484634F067FA00287B
:1023C00037D1052F40F3C38106A96068FFF7EEF807
:1023D00000287FF45EAF07A9A068FFF7E7F80028A0
:1023E0007FF457AF08A9E068FFF7E0F800287FF412
:1023F00050AF09A92069FFF7D9F800287FF449AF49
:1024000010AD2946606901F018FE00287FF441AF45
:102410004A490291BDF824100091BDF820309DF882
:102420001C20039601950699D6F8F40001F043FDAF
:102430002FE74349484634F029FA18BB032F40F3ED
:10244000868108A96068FFF7B1F800287FF421AF02
:1024500009A9A068FFF7AAF800287FF41AAF10A90D
:10246000E06801F0EAFD00287FF413AF354B0093DC
:10247000BDF82010019610AB099AD6F8F40001F0CF
:1024800024FD06E73049484634F000FA05460028A6
:1024900040F09480DFF8BCA0DFF8BCB04FF001083A
:1024A000474540F384801F2D00F23E8154F8289068
:1024B0002649484634F0EAF960B918AB05F101093C
:1024C0001D44092305F8203C08F101085FFA88F84B
:1024D0004D46E5E75146484634F0D8F928B918ABDF
:1024E00005F101091D440B23ECE75946484634F039
:1024F000CDF928B918AB05F101091D440823E1E71E
:102500001349484634F0C2F940BB18AB05F1010944
:102510001D441223D6E700BF448503006D7B0300F2
:10252000748103007B8103007D81030081810300AE
:102530008881030098810300A1810300652E0000BB
:10254000CB850300952E0000A8810300B081030015
:10255000CF810300B8810300C28103007D49484652
:1025600034F094F9002840F0F28008F101085FFA95
:1025700088F8474540F3EB8054F828300593184617
:1025800034F0ABF90222013090FBF2F9C5F12002E0
:102590004A45C0F0C98010AB5919059B1FFA89F252
:1025A0001846FEF7A3FA00287BDBA9448CE7EAB2C1
:1025B00010A9D6F8F40001F090FC6AE66649484696
:1025C00034F064F98046002840F0B0801A220021DF
:1025D00009A833F01DFDDFF894B102256B1EDBB2B4
:1025E0009F4240F39880B8F11F0F00F39D8054F88C
:1025F00023905A49484634F049F9B0B9AF4240F304
:10260000A6809DF83C3054F8250043F0010308A94A
:102610008DF83C30FEF7CAFF00287FF43AAE089BE5
:10262000ADF824300235EDB2D8E74D49484634F0D4
:102630002DF9A0B9AF4240F38A809DF83C3054F8A0
:10264000250043F0020308A98DF83C30FEF7AEFFE9
:1026500000287FF41EAE089BADF82630E2E759460D
:10266000484634F013F9824608BBAF426FDD9DF84F
:102670003C3054F8259043F0040348468DF83C3034
:1026800034F02BF901304FEA5008B8F1100F4BD855
:102690001FFA88F20DF129014846FEF727FA0028B3
:1026A00001DA0620F5E58DF82880D046BAE72D49F5
:1026B000484634F0EBF898B9AF4248DD9DF83C301D
:1026C00054F8250043F0080308A98DF83C30FEF7C4
:1026D0006DFF00287FF4DDAD089BADF83A30A1E72F
:1026E0001C49484634F0D2F888BBAF422FDD54F87D
:1026F0002590484634F0F1F801304FEA5008B8F11F
:10270000200F11D81FFA88F210A94846FEF7EEF9FB
:10271000002887DAC5E75FFA88F310AA09A9D6F876
:10272000F40001F0DFFBB4E50320B2E50C494846B4
:1027300034F0ACF858B9B568D6F8F4002B685F6887
:1027400001F0D5FB084902462846B847E1E50720D5
:102750009FE500BFDD810300E4810300B081030039
:10276000B8810300CF81030050790300C2810300C8
:1027700010B5002986B0044614DD6946106801F0E2
:102780005CFC68B940238DF810309DF81130D4F806
:10279000F40043F0030369468DF8113001F018FC92
:1027A00006B010BD0720FBE700291FB504460BDD6E
:1027B0006946106801F041FC20B96946D4F8F4007C
:1027C00001F00BFC04B010BD0720FBE7F0B5054697
:1027D00087B016460C4600292CD1D0F8F400264EBE
:1027E00001F0F2FB0446002C41D0E189A86863881F
:1027F0002288076849BA89B20591A18949BA89B284
:102800000491618949BA89B20391218949BA89B28F
:102810000291E18849BA89B20191A18849BA89B285
:1028200000915BBA52BA7F689BB292B23146B84708
:102830006469D8E717681149384634F027F858B961
:10284000321D611E2846FFF793FF0146284607B058
:10285000BDE8F040FEF782B90949384634F016F871
:1028600038B9321D611E2846FFF79EFFEDE720466E
:10287000EBE70720E9E700BFE87903007D8103006B
:10288000027A030000291FB504460BDD6946106873
:1028900001F0D3FB20B96946D4F8F40001F0A6FB9F
:1028A00004B010BD0720FBE700291FB504460BDD6F
:1028B0006946106801F0C1FB20B96946D4F8F400FC
:1028C00001F099FB04B010BD0720FBE770B5054689
:1028D0000E4681B9D0F8F40001F092FB0446A868D6
:1028E00003685B6824B10F4998473446204670BDA1
:1028F0000D499847FAE716680C49304633F0C6FF91
:10290000044628B90121D5F8F40001F07DFBEDE77C
:102910000749304633F0BAFF044608B90146F2E7EA
:102920000724E3E7C97F0300D37F0300DE7F0300B2
:10293000E57F0300F0B5054687B016460C46002932
:102940002CD1D0F8F4002B4E01F04CFB0446002CA7
:102950004CD0E189A86863882288076849BA89B29F
:102960000591A18949BA89B20491618949BA89B2AC
:102970000391218949BA89B20291E18849BA89B2A1
:102980000191A18849BA89B200915BBA52BA7F68B5
:102990009BB292B23146B8472469D8E71768164906
:1029A000384633F073FF58B9321D611E2846FFF7D1
:1029B00069FF0146284607B0BDE8F040FEF7CEB8F3
:1029C0000E49384633F062FF28B9321D611E284691
:1029D000FFF76AFFEDE70A49384633F057FF38B989
:1029E000321D611E2846FFF771FFE2E72046E0E74F
:1029F0000720DEE7E87903007D810300027A030007
:102A00005F8203002DE9F0411F4688B00023079341
:102A10003B78812B05460E46144650D18068C98B01
:102A2000328C03688A1A5B6826499847E18BA8684C
:102A3000638AD0F800E0228A49BA89B20591A18B55
:102A400049BA89B20491618B49BA89B20391218B49
:102A500049BA89B20291E18A49BA89B20191A18A3F
:102A600049BA89B200915BBA52BADEF804801649BD
:102A70009BB292B2C047A868FA88036813495F689E
:102A800094F8253052BA92B2B84707AB0422318C81
:102A9000304602F068F803280CDDAC6823685E68F5
:102AA0001DF0D8FF07460798FDF7D8FF08493A1AE6
:102AB0002046B047A868074903685B68984708B094
:102AC000BDE8F081FC7F03000B800300238003003E
:102AD0003980030029780300FFF794BF37B5044617
:102AE0001DF0B8FFFDF7BAFF01210190D4F8F40002
:102AF00001F092FA0546B0B104220DEB020101F09B
:102B000073FBE8B9218F284601F06AFBC0B90123A5
:102B100004F10C022946D4F8F40001F030FA78B937
:102B2000638F013B6387638F43B1E56B1DF092FFB9
:102B30002A46014604F1400002F002FE03B030BD17
:102B4000284601F049FBEEE72DE9F3410F1E04464C
:102B5000164651DD2949106833F098FE0546A36CEE
:102B600004F140004DB9984242D002F0AFFD284632
:102B700001462046FDF7F2FF37E083423AD10021BB
:102B80002C2204F10C0033F043FA316804F11C00EC
:102B90000AF0DEFA0028EBD10823012523874FF441
:102BA0007A7384F830506587E3639846AF4219DD45
:102BB00001A956F82500FEF7F9FC0028D8D1022D0E
:102BC00008D0032D09D0012D16D1019B2387013593
:102BD000EDB2EBE7019B6387F9E7019B08FB03F389
:102BE000E363F4E72046FFF779FF02B0BDE8F08128
:102BF0000D20BDE70520BBE70720B9E76D7B03008B
:102C0000024B186800F20C60FFF768BF5402002006
:102C10002DE9F14F044680683E4F03680E465B681D
:102C20003D4998472C25A068036839465B6898475A
:102C3000013DF8D1A0683279036838495B68354FA7
:102C400098471C25A068036839465B689847013D92
:102C5000F8D1A06830490368DFF8D4805B689847F2
:102C600033799D4244D2A068036841465B68984727
:102C700000273379A068E91999422DD23268036898
:102C8000525C5B68264998470137102FF1D1A06844
:102C9000DFF8A0900368DFF8A0A05B68DFF89CB0C5
:102CA0004146984700273279A068EB1993421BD21E
:102CB0003268D25CA2F120035E2B03685B6810D8F7
:102CC000594698470137102FEDD1A0681549036880
:102CD0005B6898471035C3E7036813495B689847FA
:102CE000D2E751469847EDE7036849465B68F9E744
:102CF0000E4E5325A068036831465B689847013D36
:102D0000F8D1A068044903685B6801B0BDE8F04FE2
:102D1000184700BF0E8203002978030010820300C9
:102D20001E820300DC7A0300248203003282030047
:102D30001C8203002F8203002C82030028820300E0
:102D40000B4601461846FFF763BF000070B5044606
:102D50000D46806829B9036822495B68BDE8704068
:102D6000184791F8392003681F495B68C2F3401285
:102D70009847A0681D49036805F108025B689847F9
:102D8000A0681B4903685B689847082205F1190190
:102D90002046FEF761FBA068164903685B68984708
:102DA000A0686A8E036814495B68984729462046E4
:102DB0000822FEF751FBA06895F8362003680F49FA
:102DC0005B689847A06895F9372003680C495B68F1
:102DD0009847A06895F8382003680A495B68BDE801
:102DE00070401847867A0300348203003A82030059
:102DF0004A82030012A80300438203004D820300AD
:102E0000AF7F0300558203000B4601461846FFF7CB
:102E10009DBF00002DE9F04704468068DFF8409030
:102E20001F46036816465B680A460B49984700230D
:102E30005D1CDBB2BB42A06807DA02684946D2F8E3
:102E40000480F25CC0472B46F2E7036803495B68E5
:102E5000BDE8F047184700BF36810300297803001A
:102E60005E89030010B41C4613460A4601462046FC
:102E70005DF8044BFFF7CEBF8068036810B45C6850
:102E80001346A4460A465DF8044B0149604700BF5B
:102E90005D81030013460A4601461846FFF7ECBF62
:102EA00070B58468236829B920465B680749BDE886
:102EB0007040184708465D6801F084FD2B460246C5
:102EC00003492046BDE87040184700BFEC8103006D
:102ED000FB8103000B4601461846FFF7E1BF0000E7
:102EE0002DE9F0470446A0B08360C1B18B180E46AF
:102EF0005A1A3078202892B201F10101F7D0424FDE
:102F000000253244914208462BD251B31F2DAE46C4
:102F100008DDA0683D49036820225B68984720B01F
:102F2000BDE8F08703780A3BDBB2162B01F1010103
:102F300007D827FA03F3DB4313F0010308BF01F8B6
:102F4000013C11F8023C002BDCD111F8013C202B94
:102F5000D8D020AB03EB8E030135EDB243F8800CE3
:102F6000D0E72EF055F928B12949304633F08EFCD0
:102F7000002842D1DFF8A08007464FF00C0A0AFB78
:102F800007F9304659F8081033F080FC88B9C84476
:102F90002946D8F80800D8F8043010F0010F4FEA9D
:102FA000600018BF2258204418BFD3586A4698477B
:102FB000B5E70137392FE2D194F804A04FF00008AB
:102FC0005FFA88F7574510DA2368304653F8371010
:102FD00003EBC70933F05AFC08F101080028EFD1D0
:102FE000D9F804306946284698472379BB4296D1E0
:102FF00006212046FDF7B2FD91E7A0680549036868
:103000005B6898478BE700BF090040000C7803001D
:103010002C78030031780300808203008B0507B50C
:1030200009D50023009300F14C01044BD0F8F400C3
:10303000042200F0EDFF03B05DF804FB1540000032
:103040000B4601461846FFF7E9BF00002DE9FF4196
:1030500080460B8CCC8B8068E41A03680F465B6853
:1030600011499847A4B20025ACB1398C102C2646E2
:10307000294428BF10266B46324689B2384601F0F3
:1030800072FDA41BF2B2694640463544FEF7E4F9EE
:10309000A4B2ADB2E8E7D8F80800044903685B6859
:1030A000984704B0BDE8F0816B82030029780300E3
:1030B00013460A4601461846FFF7C8BFF8B5084F41
:1030C000084E094D0024386856F834200368294614
:1030D0005B6801349847132CF5D10020F8BD00BF80
:1030E00060090020648803003685030008B5682263
:1030F0000021024832F08CFF002008BD6809002042
:10310000002937B511DD01A91068FEF74FFA50B953
:10311000074B019C93F86420E517C3E9004542F092
:10312000010283F8642003B030BD0720FBE700BF35
:1031300068090020002907B511DD01A91068FEF714
:1031400035FA48B9074B019AA3F84A2093F865204D
:1031500042F0010283F8652003B05DF804FB07200C
:10316000FAE700BF68090020002907B510DD01A9B2
:103170001068FEF71BFA40B9064B019A1A6693F8DD
:10318000652042F0080283F8652003B05DF804FB77
:103190000720FAE768090020002907B510DD01A91A
:1031A0001068FEF703FA40B9064B019A5A6493F887
:1031B000642042F0400283F8642003B05DF804FB11
:1031C0000720FAE768090020002907B511DD01A9E9
:1031D0001068FEF7EBF948B9074B019AA3F84820AD
:1031E00093F8642042F0800283F8642003B05DF815
:1031F00004FB0720FAE700BF68090020002937B563
:1032000011DD01A91068FEF7D1F950B9074B019CF7
:1032100093F86420E517C3E9024542F0020283F8FF
:10322000642003B030BD0720FBE700BF6809002021
:1032300037B50D1E144641DD01A91068FEF7B6F939
:10324000D0BB1F4B019AA3F85C20012D83F85E00D0
:103250002CD06168013911F8012F3AB36E2A16D0CB
:1032600005D8622A1DD0632A16D0062024E06F2AD2
:1032700006D0722AF9D193F85E2042F0200203E0D2
:1032800093F85E2062F07F0283F85E20E3E793F814
:103290005E2042F04002F7E793F85E2042F0100211
:1032A000F2E793F85E2042F00802EDE793F865201C
:1032B00042F0040283F8652003B030BD0720FBE72D
:1032C00068090020002938B5044616DD15680C4948
:1032D000284633F0DBFA28B920460A49BDE83840D1
:1032E00000F01ABE0849284633F0D0FA28B9204623
:1032F0000449BDE8384000F017BE072038BD00BFC4
:10330000428703006809002049870300002907B5A8
:10331000134619DD082269461868FDF7E7FB002807
:1033200010DB0A4A6B4603CB92F86430C2F83100D6
:1033300043F01003C2F8351082F86430002003B067
:103340005DF804FB0620FAE70720F8E7680900208B
:1033500000297FB5134618DD102269461868FDF76D
:10336000C5FB10280FD19DE80F00094E06F110058E
:1033700085E80F0096F8643043F0040386F8643063
:10338000002004B070BD0620FBE70720F9E700BF6E
:103390006809002000291FB515DD6946106800F096
:1033A0004CFE044660B9094A6B4603CB92F8643080
:1033B000C2F8390043F02003C2F83D1082F86430AF
:1033C000204604B010BD0724FAE700BF68090020BA
:1033D000002970B519DD1668304633F07EFA421CBC
:1033E000520895B2102D12D80B4C611B2A465C3145
:1033F0003046FDF77BFB85420BD194F8653043F0F6
:10340000020384F86530002070BD072070BD0320E2
:1034100070BD062070BD00BF68090020002970B58E
:1034200015461ADD106833F058FA1028064616D8EB
:103430000C4C1122002104F1200032F0E9FD32464B
:10344000296804F1200032F0BEFD94F8643043F0A6
:10345000080384F86430002070BD072070BD06208A
:1034600070BD00BF680900202DE9F04FB1F1000ADE
:10347000C3B08146154640F332816822002108A876
:1034800032F0C6FD0224002704F1FF385FFA88F805
:10349000C24540F3098155F828609249304633F01F
:1034A000F5F998B99DF8843055F8240043F00103EC
:1034B00003A98DF88430FEF779F8002833D1039AF8
:1034C000D317CDE908230234E4B2DDE7864930465C
:1034D00033F0DCF980B99DF8843055F8240043F0CE
:1034E000020303A98DF88430FEF760F8D8B9039A77
:1034F000D317CDE90A23E6E77C49304633F0C6F915
:10350000A0B99DF88420019042F004028DF8842037
:103510000CA9102255F82400FDF7E8FA1028019BA9
:1035200000F0C080062043B0BDE8F08F70493046FF
:1035300033F0ACF98346C8B99DF8842055F824606F
:1035400042F0080230468DF8842033F0C6F9102886
:103550000746E7DC1122594610A832F059FD3A46D9
:10356000314610A832F02FFD5F46ACE76149304686
:1035700033F08CF978B99DF8843055F8240043F085
:1035800010038DF8843008220DF15101FDF7AEFAD9
:10359000002898DAC6E75849304633F077F998B9E9
:1035A0009DF8843055F8240043F0200304A98DF8D9
:1035B000843000F042FD0028B5D104AB03CBCDF838
:1035C0005900CDF85D107EE74C49304633F05EF986
:1035D00078B99DF8843055F8240043F0400303A9DE
:1035E0008DF88430FDF7E2FF00289CD1039B1993EE
:1035F00069E74349304633F049F980B99DF8843092
:1036000055F8240043F0800303A98DF88430FDF7BA
:10361000CDFF002887D1039BADF8683053E73949C7
:10362000304633F033F988B99DF8853055F82400D9
:1036300043F0010303A98DF88530FDF7B7FF00289B
:103640007FF471AF039BADF86A303CE72E493046FA
:1036500033F01CF980B99DF8853055F8240043F00B
:10366000080303A98DF88530FDF7A0FF00287FF43B
:103670005AAF039B209326E72449304633F006F9DE
:1036800068BB08F10108C24529DD55F824603046C1
:1036900033F023F901304708802F1ED8BAB222A98F
:1036A000304673E71F460EE72C681949204633F071
:1036B000EDF830B9FBB222AA08A9484600F041FC57
:1036C00031E71449204633F0E1F840B9FBB222AAB1
:1036D00008A9484600F03FFC25E7032023E7072020
:1036E00021E700BF59870300698703004086030074
:1036F0007B860300C88503000D8903007A870300D9
:10370000CB8503005585030085870300DD81030019
:1037100042870300498703002DE9F04FB1F1000A09
:10372000A9B08146904640F3C380682200210EA8CC
:1037300032F06EFC0026DFF8ACB101253446AA4514
:1037400040F390801F2C00F2AF8058F82570594943
:10375000384633F09BF840B928AB23440E2203F8D7
:10376000882C01340135EDB2E9E75349384633F08E
:103770008DF818B928AB23443322F0E75946384670
:1037800033F084F818B928AB23440522E7E74B4906
:10379000384633F07BF818B928AB23440322DEE720
:1037A0004749384633F072F818B928AB234402224F
:1037B000D5E74449384633F069F818B928AB2344B3
:1037C0000722CCE74049384633F060F818B928ABF7
:1037D00023443422C3E73D49384633F057F830B923
:1037E00028AB2344012203F8882C1444BAE7384953
:1037F000384633F04BF820B928AB234403F8880C43
:10380000AFE73449384633F041F8E0B90135AA450D
:103810004EDDEDB258F825300193184633F05DF8CF
:103820000222013090FBF2F7C4F12002BA423BD3EE
:1038300006AB1919019BBAB21846FDF757F90028D3
:1038400034DB3C448EE72449384633F01FF878BB1C
:103850000135EDB202A958F8250000F0EEFB78B969
:1038600001267FE7D8F800501C49284633F00EF8AF
:1038700058B9E2B23EB9334606A9484600F05CFBAF
:1038800029B0BDE8F08F02ABF6E71549284632F0C3
:10389000FDFF68B9E2B22EB9334606A9484600F0EA
:1038A00055FBEDE702ABF8E70320E9E70620E7E781
:1038B0000720E5E759870300698703007B8603003B
:1038C000C88503000D8903007A870300CB850300B8
:1038D00055850300DD810300518703004287030003
:1038E00049870300408603002DE9F041084F094E47
:1038F000054688460446631B984507DD386814F87A
:10390000012B036831465B689847F4E7BDE8F08116
:103910006009002032A8030090F864309B07F7B5D7
:10392000044607D5794B7A49186803685D68D4E97D
:103930000223A84794F86430DF0707D5734B754915
:10394000186803685D68D4E90023A84794F86530D7
:10395000DE0707D56D4BB4F84A2018686E49036836
:103960005B68984794F865301D0706D5674B226E53
:1039700018686A4903685B68984794F86430580689
:1039800006D5624B626C1868654903685B689847A6
:1039900094F86430D9060FD55C4D624928680368F5
:1039A0005B689847082104F13100FFF79DFF286804
:1039B0005D4903685B68984794F864309A061FD5A0
:1039C000524B94F83FE094F84010186894F83B701C
:1039D000056894F83C3094F8396094F83A2041EA4C
:1039E0000E21019194F83DE094F83E1041EA0E2139
:1039F00000916D684D4943EA072342EA0622A84731
:103A000094F864305B070ED5404D49492868036837
:103A10005B68984710216018FFF766FF28684249E5
:103A200003685B68984794F864301F070DD5374DDD
:103A30004049286803685B68984728683E490368DE
:103A400011225D6804F12003A84794F86430DB0973
:103A500007D02E4BB4F848201868384903685B68D3
:103A6000984794F865309E070FD5284D344928684B
:103A700003685B689847102104F14C00FFF734FF9E
:103A80002868294903685B68984794F865305D07A2
:103A900039D51E4DB4F85C2028682A4903685B6854
:103AA000984794F95E30002B04DA286826490368A9
:103AB0005B68984794F85E30580604D52868234917
:103AC00003685B68984794F85E30990604D52868C7
:103AD0001F4903685B68984794F85E30DA0604D59E
:103AE00028681C4903685B68984794F85E301B0798
:103AF00004D52868184903685B68984728680A490C
:103B000003685B689847002003B0F0BD600900209F
:103B100091870300A9870300917C0300C0870300FD
:103B2000DC870300E887030029780300F58703009A
:103B30001988030026880300568103003588030096
:103B4000468803004D88030095AB030019910300DC
:103B50000B9403002A8203000A90030000B59BB077
:103B6000694600F0C9F910B96846FFF7D5FE1BB0E9
:103B70005DF804FB00B59BB0694600F0C5F910B9CB
:103B80006846FFF7C9FE1BB05DF804FB2DE9F0475E
:103B90001746124A814613600E4621B91048BDE807
:103BA000F047FFF7B9BED7F800800E4D002455F856
:103BB000341040464FEAC40A32F068FE38B9554422
:103BC0003A1D6B68711E4846BDE8F047184701343E
:103BD000132CECD10620BDE8F08700BF600900205F
:103BE0006809002064880300F8B5084E084D0746B0
:103BF00000243B68A2599868036829465B680C3426
:103C00009847482CF5D10020F8BD00BF6489030017
:103C100036850300043000F0B9BD0000034600689B
:103C2000024AD0F8F400191D00F09EBD753E000058
:103C3000F0B58DB00C460746164600212C2201A88F
:103C400032F0E6F9012C35D0032C35D105A93068C6
:103C500000F0F3F9044650BB69467068FDF7A6FC16
:103C6000044620BB009BADF8263001238DF8283098
:103C700002243B680121D3F8F40000F066FD0546FC
:103C8000E0B156F82440204632F027FE214682B2A9
:103C9000284600F0A9FA044630B901AA2946381D81
:103CA00000F083FD044610B1284600F095FA204646
:103CB0000DB0F0BD0024DCE70724F8E70324F6E7A5
:103CC00030B5022987B0054614461AD100211422C6
:103CD00001A832F09DF901A9206800F0AEF970B991
:103CE00069466068FDF762FC48B9009BADF8143086
:103CF00001A90123281D8DF8163000F052FD07B0F0
:103D000030BD0720FBE730B5022987B005461446D1
:103D10001AD10021142201A832F07AF901A92068F1
:103D200000F08BF970B969466068FDF73FFC48B94F
:103D3000009BADF8143001A90123281D8DF8163021
:103D400000F031FD07B030BD0720FBE710B5382289
:103D5000044640F8041B002132F05AF9204610BDF9
:103D60002DE9F14FD2F800A0134D06460F469046BC
:103D700000244FF00C0B0BFB04F9504659F80510CA
:103D800032F084FD88B94D44791EA8686B6810F044
:103D9000010F4FEA60001CBF3258D358304408F17D
:103DA000040201B0BDE8F04F18470134062CE2D1FF
:103DB000204601B0BDE8F08F648903002DE9F0438F
:103DC00003689F683B68ADF2046D064608461446DA
:103DD0000D46D3F8048000F001FA8146284600F031
:103DE00001FA2149A9EB00023846C0473368618CCB
:103DF0009868228A638A07680691E18B49BA89B27A
:103E00000591A18B49BA89B20491618B49BA89B2F3
:103E10000391218B49BA89B20291E18A49BA89B2E8
:103E20000191A18A49BA89B200915BBA52BA7C6801
:103E30000E499BB292B2A047284600F0D3F909ACD4
:103E40002246014640F2DB53284600F0CFF900231A
:103E50002354336806499868036822465B6898478C
:103E60000DF2046DBDE8F083FC7F0300468903007A
:103E700036850300FFF7A2BF00F5A740043004F029
:103E800051B800F5A740043004F04AB900F5A74046
:103E9000043003F073BF00F5A7400022043003F0A4
:103EA000F0BE00F5A740043003F0F6BC00F5A840D2
:103EB000403003F079BB30B400F5A840BDF80840AD
:103EC0000294443030BC06F02DBA10B400F5A8407E
:103ED0005C305DF8044B07F0A3BF00F5A740043049
:103EE00003F01EBD00F5A740043003F08DBD00F5C2
:103EF000A740043003F0ECBC21B100F5844044300D
:103F000004F0BABC0720704721B100F58540183095
:103F100004F0B2BC0720704721B100F58440403066
:103F200005F023BB0720704721B100F58540143010
:103F300005F04BBC0720704700F58440403005F089
:103F40005BBA00F58440403005F09DB800F585402F
:103F5000143005F051BA00F58540143005F093B8DF
:103F600000F5B540143007F061BD00F5B5401430E0
:103F700007F052BD00F58040783008F0BDB800F57C
:103F80008040783008F0C5B800F06CBC49F620736A
:103F9000C05C704700F076BC00F03EBC203001F001
:103FA000D9B900F085BC000000487047C4890300FF
:103FB00000F58240303009B116F0D2BF16F0F3BFE1
:103FC00000F5A7400078704744F23413C05870479A
:103FD00000F58240303009F071BD00F5824030308C
:103FE00009F0B2BD44F23813C058704700F5824062
:103FF000303009F0C0BC00F58240303009F0E9BC37
:1040000044F23D13C05C704744F23D13C154704705
:1040100017F0D5BA17F067BB002200F5BE4010B507
:1040200008300C46114601F0E6F828B190F832301D
:1040300064F3C71380F8323010BD0B4601461846B2
:1040400009F086B810B109B109F06FB800207047C7
:1040500010B400F5B34054305DF8044B06F0E8BAF4
:1040600000F5B340543006F097BB08B500F5B340F7
:10407000543006F0CFFA002008BD10B5044690B0C9
:1040800019B900F022FC10B010BD00F5874001AA5C
:10409000243001F029FC01A92046F2E744F2E03384
:1040A000C05C704738B544F28B53C35C93B900F5DC
:1040B000824404F5297002F005F83034054638B919
:1040C00004F5887004F0C4FE04F5B27004F014FF27
:1040D000284638BD0D25FBE700F587405430704772
:1040E00010B5044671B144F28B53C35C63B900F55B
:1040F0008740243001F0B9FC04F58B40BDE8104046
:104100000CF005BA072010BD0D2010BD1CF0FEBD3F
:1041100044F2DE33C05A704738B544F28B53C35C67
:1041200083B900F5824404F5297001F0ECFC0546E2
:1041300004F5A07004F08CFE04F5CA7004F0DCFEF7
:10414000284638BD0D25FBE700F58A4064300AF0AB
:10415000CBBD00F58A4064300AF0BFBE00F5874051
:10416000243002F013B900F58740243002F013B96F
:1041700000F5A74310B51C7834B900F5874024300A
:1041800002F010F9204610BD0D2010BD00F5A74328
:104190001B7823B900F58740243002F023B90D20A5
:1041A000704700F5884034307047000070B5044611
:1041B0000D4616461946049A00F084FB04F5874024
:1041C000049432462946034B2430BDE8704001F088
:1041D00073BD00BF7B40000000F059BCC08B70472E
:1041E00000F059BC008C704700F056BD10B51C465D
:1041F0001346224600F0B7FC10BD802373B50B8038
:1042000045F6087300F58946C35A4B800C460546AF
:104210008A1D06F17000043101F063F804F10A020E
:1042200004F1080105F58A4000F0D0FE06F1D00047
:1042300005F5824604F11A0204F11801303600F047
:10424000C5FE304600F0ABFB04F10E0204F10C0198
:10425000103001F046F8304600F0A1FB04F11202E4
:1042600004F11001DC3000F0B1FE05F58B4004F1E3
:10427000160204F11401683000F0A8FE05F5844030
:1042800004F11E0204F11C01083000F09FFE05F548
:1042900084400DF1060201A9283000F097FEA38B9F
:1042A000BDF804201344A383BDF80620E38B05F575
:1042B000B2401344E38304F1220204F1200154309C
:1042C00000F084FE05F5B2400DF1060201A974303C
:1042D00000F07CFE238CBDF8042013442384BDF839
:1042E0000620638C134463840023A384E38402B018
:1042F00070BD10B50446FFF749FE28B104F108006F
:10430000BDE8104001F089B910BD44F27063C05897
:10431000704700F58B400EF08ABF00F5874075307E
:10432000704744F28B53F7B5C45C06460F4614BB86
:1043300000F5824505F5297001F0EFFB02A9FD2388
:1043400001F8083D3B68CDF8013006F58B403B791C
:104350008DF805308DF806408DF807400CF0F5F823
:1043600005F5A07004F074FD05F5CA7004F0C4FDF5
:10437000204603B0F0BD0D20FBE744F2B45382B0F9
:10438000C35C002218078DF8042044BF01228DF879
:104390000420590742BF9DF8042042F002028DF824
:1043A00004209A0742BF9DF8042042F004028DF8D1
:1043B0000420DB0742BF9DF8043043F008038DF86A
:1043C00004309DF8040002B0704711F0010F0CBFDB
:1043D000002308238A0748BF43F004034A0748BF65
:1043E00043F002030A0748BF43F00103194600F5F2
:1043F0008B400EF035BF00F5854078300AF002BEE4
:1044000038B5A1B144F28B53C35C93B900F5824433
:1044100004F5FC700AF05AFE054604F5A07004F09D
:1044200017FD04F5CA7004F067FD284638BD07255E
:10443000FBE70D25F9E700F587406430704738B594
:1044400044F28B53C35C83B900F5824404F52970B0
:1044500001F047FB054604F5A07004F0F9FC04F5F3
:10446000CA7004F049FD284638BD0D25FBE744F22B
:104470000833C058704700F5854078300AF0E7BE31
:1044800044F26433C058704744F26433C1507047FB
:1044900000F58B400DF04DBC002100F58B400DF078
:1044A000F2BB22B119B100F58B4010F02EBC0720F1
:1044B000704744F28B53C05C704719B100F58B40D4
:1044C0000CF004BC0720704700F58B400CF022BABA
:1044D00038B50C4699B300F58B400FF0C3FA03686A
:1044E000236043686360038B2381038B9B12A37259
:1044F00090F82430E37290F82530C3F383032373DC
:10450000837F637390F82530C3F301030546A373DB
:104510001CF0A0FAAB68227CC01A4FF47A73B0FB8F
:10452000F3F0E073AB7E03F00703D91F4B424B411E
:1045300042F0010263F341022274002038BD0720DB
:1045400038BD00F5A640383015F09ABB00F5A640FE
:10455000383015F099BB00F5A640383015F0AEBEE6
:1045600061B144F2DE33C25A4FF6FF739A420AD069
:104570000022012100F58B400EF0D6BD012100F58F
:104580008B400BF069BF0D20704713B502AA0024C1
:1045900002F8014D01230621483000F06DFF08B1FB
:1045A0008DF807409DF80700003018BF012002B0C9
:1045B00010BD07B502AA012302F8011D48300621EB
:1045C00000F0AAFF03B05DF804FB00F58B400FF08C
:1045D000CFBC30B49DF80840029400F58B4030BC4D
:1045E0000DF008B844F27C73C05C704700F58E4053
:1045F0007C300AF01EBB00F58B400FF049BB00F584
:104600008B400FF050BB45F29313C05C704745F2EE
:104610009313C154704745F29413C058704745F244
:104620009413C150704700F5B440303006F0ABBC75
:1046300000F5B440303006F006BD00F5A340303040
:1046400014F003BC00F5A340303014F001BC45F277
:104650009013C05C704745F29013C154704745F207
:104660009113C05C704745F29113C154704700F537
:104670009840303015F0D8BF44F28B53C35C022B06
:1046800004D008D3042B06D800207047032100F57E
:104690008B4010F0EBBC0D20704700F58B4011F003
:1046A000EDBF45F29213C05C704745F29213C154BE
:1046B000704745F2A613C05C704700F58B400FF0C1
:1046C00038BC1AB100F58B4010F0F7BA07207047DC
:1046D0001AB100F58B4010F007BB072070473E2051
:1046E000704722B100F59840303016F0E8B8072046
:1046F000704722B100F5B640083009F085BC0720AC
:10470000704700F5854078300AF05DBC38B544F25A
:104710008B53C55C7DB900F5824404F5FC700AF04A
:1047200054FC04F5A07004F093FB04F5CA7004F087
:10473000E3FB284638BD0D2038BD00F58B4011F055
:1047400019BE00F58B4011F018BE10B500F5814080
:104750000C46002109F0C1FA28B190F8323064F318
:10476000C71380F8323010BD10B40C461146226BCE
:1047700042B900F5814020631A4620465DF8044B9B
:1047800009F04DBA07205DF8044B7047036B10B574
:10479000044623B109F06AFA10B9206310BD0D2058
:1047A00010BD09F082BA09F017BA09F0B1BA38B5EC
:1047B0000446002505604560083000F0F6FE2146FD
:1047C00025616561A561E56104F1200000F0A4FDAB
:1047D00004F1490001F034F804F14C0016F093FDA7
:1047E00004F5804021464C3007F00EFE04F582406F
:1047F0002146303016F02AFB04F5BE402146083031
:1048000000F098FB49F620732046E55438BD0000BF
:1048100000487047D00900201CF0E4B949F6207325
:1048200070B501250446C554483000F0D8FD04F5A4
:104830008B400CF0F2F82046FFF7A7FE80B1294626
:104840002046FFF7B5FB064650B929462046FFF73C
:1048500087FE28B131462046BDE87040FFF7A8BB6F
:1048600070BD000010B549F62073054CE35C2BB910
:104870002046FFF79CFF2046FFF7D0FF004810BD01
:10488000D009002038B549F620730446C25C72B1E5
:104890000025C5542946FFF763FE29462046FFF749
:1048A00087FB29462046BDE83840FFF76FBC38BD7E
:1048B00010B50446483000F099FD2046BDE8104090
:1048C0001CF090B9016142617047024608461369C5
:1048D0000BB15169184770472030704700F5894087
:1048E0004030704700F58B40704700F58B407047B3
:1048F00000F58E407C30704700F5984030307047AE
:1049000000F580404C30704700F5874024307047F8
:1049100000F585407830704700F5B64008307047A4
:1049200000F5B5401430704700F5B44030307047A2
:1049300000F5BC402430704700F58A406430704771
:1049400000F5BD40704700F5BC404C30704700F5A5
:10495000A3403030704700F581400830704700F5C3
:1049600083404C30704700F584404030704700F57C
:1049700085401430704700F5A7400430704700F5BB
:10498000B3405430704700F5A8407830704700F5C8
:10499000B2401830704708307047FFF739BF08B58C
:1049A000FFF736FF00F580404C3008BD08B5FFF733
:1049B0002FFF00F58240303008BD08B5FFF728FF13
:1049C000203008BD014B53F820007047108A0300C7
:1049D00044F20402835833B11968815000221A60EE
:1049E0000288013A02801846704710B500F58043EE
:1049F000043341B11A680C680A60028819600132F8
:104A000002802146F5E710BD4A680AB9CA6802B1BA
:104A1000FEE78A680AB90B6903B1FEE7FFF7E5BF55
:104A200070B505460C4644F230162B88A3420EDAC8
:104A30002846FFF7B2FF304400F564700AF099FE93
:104A40000028F2D02B889C4203DD032070BD002C8F
:104A5000F8DA002070BDF8B506460F4605464C242E
:104A6000BC4229680CDA19B17C34A4B22D68F7E78E
:104A70007069FFF7ADFF28600028F5D10320F8BD6D
:104A800000242C607069FFF7B0FF2046F8BD014696
:104A90004069FFF7B9BF70B5838BC28BCE18B6B231
:104AA0004C2E13440C469BB285BFA6F14D017C22CF
:104AB000002191FBF2F188BF01314C2B054605D94D
:104AC0004D3B7C2293FBF2F30133C91A6869FFF76F
:104AD000A7FF28B931462846FFF7BDFF00B9EC8390
:104AE00070BD036801201BB10130C0B21B68FAE73A
:104AF0007047038CC28B1944914200DDFEE789B2F6
:104B00008A42018400DAFEE700207047C38B994295
:104B100000DDFEE701840020704790F8320000F0CD
:104B20003403042B0AD000F02C03082B06D000F02D
:104B30003800A0F1200358425841704701207047C7
:104B4000C38B994200DDFEE75B1AC383038C828B23
:104B500099420A44ACBF0023591A8283B4BF01842E
:104B6000038400207047F8B51546C28B9142064673
:104B700041DA6818B48B8242D8BF551A21448CB2EE
:104B8000D8BFADB24B2C16D8C4F14C07BFB2AF4260
:104B9000A8BF2F4606F13401214418463A4631F0A9
:104BA00012FAED1B0346ADB23B4400217B29366867
:104BB0001DD92EB9FEE7A4F14C0189B20027F5E713
:104BC0007C3989B2F2E7C1F17C04A4B2AC42A8BF3F
:104BD0002C46301D01442246184631F0F4F92D1BB5
:104BE000034627443668ADB2BFB2234400211DB14D
:104BF000002EE8D1FEE700273846F8BD2DE9F04148
:104C00001E46C38B15468A189A42074600DDFEE70A
:104C1000848BA8BF5D1A21448CB2A8BFADB24B2CC7
:104C200016D8C4F14C081FFA88F8A845A8BFA846B2
:104C30003430314642462044A5EB080531F0C3F933
:104C4000ADB2464400207B283F681ED937B9FEE745
:104C5000A4F14C0080B24FF00008F4E77C3880B239
:104C6000F1E7C0F17C04A4B2AC42A8BF2C463B1DC6
:104C700031462246184431F0A6F92D1BA0443F6866
:104C8000ADB21FFA88F82644002015B1002FE8D1F4
:104C9000FEE74046BDE8F0812DE9F041C78B88462C
:104CA000D11989B206461446FFF7F5FE054640B90C
:104CB0004346224639463046FFF7A0FFA04200D0C7
:104CC000FEE72846BDE8F081F8B504460D461646D5
:104CD00000F13407A38B9E4214DD6069FFF778FE74
:104CE00030B323680360A38B20604B2B06D834308D
:104CF000C3F14C02F918184431F065F9A38B7C33E9
:104D0000A383E7E79B1BE28BA383238C32443344CA
:104D100092B29BB29342E28300DDFEE723842DB181
:104D20002B46324600212046FFF768FF0020F8BDE1
:104D30000320F8BD2DE9F043814685B0884617462B
:104D40001D460026CDB1102D2C4628BF102422462A
:104D500041466B464846FFF706FFA04422463946C7
:104D60002D1B27446B460C983444FFF747FF1FFA6E
:104D700088F8BFB2ADB2A6B2E4E7304605B0BDE8F0
:104D8000F0833F2900D9FEE700EBD100802390F8A3
:104D9000262001F0070143FA01F10A4214BF012065
:104DA000002070473F2900D9FEE700EBD1008023A7
:104DB00001F007010B4190F8261021EA030180F869
:104DC000261070473F2900D9FEE700EBD10001F023
:104DD00007038021194190F82630194380F82610E6
:104DE000704700F1260200F12E0312F8010B10B9F2
:104DF0009A42FAD1704701207047014489B281423A
:104E0000B8BF013188B2704710B5002494420CDA63
:104E10000B5D14F0010F08BF1B0203449BB28342D9
:104E2000B8BF013398B20134F0E710BDF8B50746BA
:104E30001D460846D118FB8B994200DDFEE7BC8B6E
:104E40001444A4B24B2C13D8C4F14C06B6B2AE42F3
:104E5000A8BF2E4607F1340121443246FFF7D4FFA4
:104E6000AD1BADB200247B2C3F6815D91FB9FEE7FE
:104E70004C3CA4B2F7E77C3CFBE7C4F17C06B6B23D
:104E8000AE42A8BF2E46391D21443246FFF7BCFF73
:104E9000AD1B3F68ADB2002415B1002FEDD1FEE788
:104EA000F8BD002202607047F0B502EB810465682E
:104EB0000DB9E56805B1FEE706681EB96260E260FB
:104EC00002600DE08F003E44012B7568656005EBC4
:104ED00081050668E660EA60016839444A60EFD0FF
:104EE000F0BD02EB810330B55C680CB1DC6804B93D
:104EF000FEE70568AA4205D1A24208BF002204606D
:104F000008BF0260DA68586802EB810250605A6894
:104F1000D86802EB8102D0600022DA605A6030BDAE
:104F2000006800B1806870470022026042608260C1
:104F3000C260704738B5044600F58040251D083032
:104F4000FFF7F2FF4FF480420021284631F060F86D
:104F500044F20403E218E55004F18403934203D0C1
:104F600043F8803C8033F9E743F684730022E25033
:104F700080232380204638BD0B4650F8232022B9D9
:104F80002BB1013BDBB29942F7D1104670470323A6
:104F9000F9E708B50321FFF7EFFF00B1806808BD0E
:104FA0000321FFF7E9BF10B590F833305B070446E3
:104FB000806906D548B1FFF7F3FFA04204D0A0688E
:104FC00010BD10B10068F8E7002010BD38B500230F
:104FD0000B8013800D461446FFF7A2FF024658B11E
:104FE0002B8801332B80FFF77CFD23881844208019
:104FF0001046FFF7D8FFF1E738BDF8B592F8335007
:1050000005F003050F46294606461446FFF7B4FF90
:105010003BB260B19B00C21823445168596001EB58
:105020008701D860CC60546046F82540F8BD04EB99
:1050300083035C60DC60F7E770B58C690D4613464E
:10504000A4B9A86191F8331064F3820185F8331094
:105050002A460121FFF728FF686900F580402A46AB
:1050600021460830FFF7C9FF204670BD182070BDEB
:1050700070B592F8334004F003048E1C50F82430CD
:105080009A420DD102EB86035B689A4218D093F8DE
:10509000335005F00305A54218BF002340F8243023
:1050A00002EB81025368D06803EB86035860D36833
:1050B000506803EB8103586000235360D36070BDD8
:1050C0000023EBE738B591F83340C4F380040D4674
:1050D000BCB98B69984214D10A460121FFF701FF40
:1050E000686900F580402A4621460830FFF7C0FF76
:1050F00095F83330AC6164F3820385F83330204691
:1051000038BD172038BD38B58D690C46A5B9A061EA
:1051100091F8333043F0040381F833300A4601211B
:10512000FFF76BFF606900F5804022462946083092
:10513000FFF763FF284638BD182038BD91F833309B
:105140005B0710B50C4617D58B69984214D10A46F7
:105150000121FFF78DFF606900F5804022460021A4
:105160000830FFF785FF94F83330002060F38203A6
:10517000A06184F8333010BD172010BD0329F8B5A5
:1051800005460E4635DC87693FB990F8333061F348
:10519000010380F833300020F8BD90F8330000F0B0
:1051A00003039942F7D0C0F3800484B129463846FE
:1051B000FFF7C4FF3C4695F8333066F3010385F8EA
:1051C00033306CB129462046FFF79DFFE3E768695D
:1051D00000F580402A4621460830FFF749FFEAE7FC
:1051E000686900F580402A4621460830FFF705FF30
:1051F000D1E70720F8BD2DE9F04188460121064698
:105200001746FFF70DFC054618B100242046BDE8FF
:10521000F0813046FFF7DCFB04460028F5D0802201
:10522000294630F0F5FE94F83230666168F30103E8
:1052300063F07F030221A78384F832302046FFF712
:105240009DFF29462046FFF726FC0028DED0214698
:105250003046FFF7D9FB2C46D8E773B50E4690F8D9
:105260003210828B054601F003014069FFF7C3FF4E
:10527000044670B33146FFF70EFC024660BB33466E
:10528000014600942846FFF755FD2B8CE28B934294
:1052900000DDFEE7238495F92F3084F82F3095F850
:1052A000323094F83220C3F3830363F3850284F829
:1052B000322095F83310204601F00301FFF75EFF1E
:1052C00095F8323094F83220DB0963F3C71284F882
:1052D0003220204602B070BD2046FFF7D8FB0024E4
:1052E000F7E738B500230B8013800D461446FFF70F
:1052F00050FE024658B12B8801332B80FFF7F1FB9B
:105300002388184420801046FFF74DFEF1E738BD92
:10531000034680E80A00704738B50446002540F887
:10532000045B2346054A00F03CF9E56025616561B0
:10533000A561E56125626562204638BDCD53000058
:105340004B68994201BFC3684B60C160002018BF21
:105350001820704730B571B100F1100400232830D7
:10536000256855B9002B08BF234608348442F7D17D
:1053700053B183E80600002030BDA942F5D165682D
:105380009542F2D1182030BD032030BD0368194387
:1053900040F8041B00F02DB970B506680446A6B1AC
:1053A0000023C568036035B12B6813B13146284628
:1053B00098476D68F7E704F11805236913B161692F
:1053C000304698470834AC42F7D170BD08B5FFF7B6
:1053D0001FFAFFF781FABDE80840FFF7DDBF08B507
:1053E000FFF7DBFABDE8084020F06EB908B5FFF71B
:1053F000D4FABDE8084020F06FBA437C10B50446EB
:105400003BB9FFF7CAFA227C0521BDE8104020F025
:105410000DBA0D2010BD30B585B004AD1023044683
:1054200025F8023DFFF7B9FA227C009523460521B5
:1054300020F08CF920B9BDF80E300F2B98BF172043
:10544000003018BF0120607405B030BD0022027426
:105450004274FFF7E0BF10B50023044603744374A1
:10546000FFF7F4FF204610BD427C22B9027C0132D6
:105470000274FFF7D0BF7047F0B585B004AC174693
:1054800024F8023D0E461D46FFF787FA00943B467E
:105490000022314620F05AF920B9BDF80E30AB4257
:1054A000B8BF172005B0F0BD0A4624230321FFF73B
:1054B000E3BF0A4608230421FFF7DEBFF0B585B03D
:1054C00004AD174625F8023D0E461C46FFF765FA67
:1054D00000953B460022314620F038F930B9BDF83E
:1054E0000E309C42A8BF1C460A9B1C8005B0F0BD34
:1054F0001FB500290DF10E03009314BF01210221F5
:105500004FF480731446FFF7D9FF18B9BDF80E3079
:10551000A4F8043104B010BD70B50C4615461E4603
:10552000FFF73BFA33462A462146BDE8704020F09B
:1055300063B90029B2F8043114BF01210221FFF739
:10554000EBBF0A4624230321FFF7E6BF0A460823E0
:105550000421FFF7E1BF70B50C4615461E46FFF764
:105560001CFA33462A462146BDE8704020F048B96F
:105570000A4610230521FFF7EEBF10B50C46FFF7D2
:105580000CFA21464FF0FF32BDE8104020F04EB932
:10559000002914BF01210221FFF7EFBF0521FFF70A
:1055A000ECBF02600022426070470022026042604D
:1055B0007047F8B543688B4206460D4617D04C68D5
:1055C000ACB90846FFF7E9F9FFF7E5F986420CD1D7
:1055D000776847B9356075602846FFF7DEF9FAF756
:1055E0007FFE3846F8BD7D6075602046F8BD182006
:1055F000F8BD10B50446FFF7D0F921460830BDE8E4
:105600001040FFF7D6BF03682BB15A68026002B999
:10561000426000225A601846704770B546680446DA
:105620002046FFF7F0FF054658B103689847AE42A1
:10563000F6D1206828B1FFF7B0F9BDE87040FAF75D
:105640004FBE70BD43684968981AC00F8A1AB0EB04
:10565000D27F04BF581AC00F704703682DE9F0418C
:1056600006460F4633B94C68FFF797F92346BDE865
:10567000F04118478B68984733683F685C68031BA4
:10568000002BB8BF241A0546A8BF00243046FFF7F8
:1056900084F9224629463B46BDE8F041184770B5DB
:1056A0008D68A9420C4607D00368994206D105606F
:1056B0001146FFF7D2FFA46070BD1346002BFAD04D
:1056C0009A689442F9D19D60F5E7000010B5044650
:1056D000FFF763F92146024ABDE81040FFF7DFBF3C
:1056E000CC8F03002DE9F04106460C469046FFF7AB
:1056F000D6FF35683DB93460A56041463046BDE807
:10570000F041FFF7AABF0027D8F80830984729468C
:1057100002462046FFF796FF40B11FB1A560BC606E
:10572000BDE8F0813368A3603460E6E7AB682F46DC
:105730000BB11D46E8E7AC60A360BDE8F081000056
:10574000002A10B5044600DAFEE711444160FFF775
:1057500024F92146024ABDE81040FFF7C3BF00BF4D
:10576000CC8F030070B5046805460E467CB18B688B
:1057700098476368C01A002809DB2846324621464C
:10578000FFF78DFF23682046BDE87040184731467B
:105790002846BDE87040FFF760BF000010B5044622
:1057A000FEF7F4FB28B120460249BDE81040FFF7A0
:1057B000D9BF10BDCC8F0300002A10B5044600DA13
:1057C000FEE711444160FFF7E8F82146024A043041
:1057D000BDE81040FFF786BFC08F030010B5044638
:1057E000FFF7DBF82146034A0430BDE81040FFF71D
:1057F00056BF00BFC08F030010B50446FEF7C6FBBE
:1058000028B1201D0249BDE81040FFF7ABBF10BD15
:10581000C08F030010B50446FEF7FAFF21464C3056
:10582000BDE8104015F025BE38B50D460446FEF71C
:10583000EFFF2A4621464C30BDE8384015F0A5BDA3
:1058400010B503490446034820F0DAFA204610BD9B
:10585000155800002958000008B5FEF7D9FFBDE82B
:105860000840FFF751B838B50D4604461BF0F2F872
:105870002A4601462046BDE83840FFF761BF037A5B
:10588000012B06D100884FF6FF73C31A58425841C6
:105890007047002070470B78FF2B04BF0A230B7062
:1058A0000B78013330B50B7001240B781A2B07DC11
:1058B000056804FA03F22A4204D101330B70F4E7BD
:1058C000172030BD002030BD0378012B1ABF40786F
:1058D00000F00100184670470378022B1ABF407889
:1058E000C0F3400001207047F0B5144685B00D4666
:1058F0003C22002120468DF80C1030F089FB002D51
:1059000066D02B681B785B0703D00626304605B0AF
:10591000F0BD01AF3946284601F0B2FB064600282B
:10592000F4D19DF80C30022BEFD197E8030084E806
:10593000030004F13201284601F06DFB6B7984F815
:10594000363095F9063084F83730EB7984F8383002
:10595000284601F0DBFD0746284601F0F2FD1D2F29
:10596000D4D9028840F6FF739A42CFD18378002BB6
:10597000CCD1C378002BC9D10379032BC6D142798E
:1059800094F83930121162F3030384F83930427904
:1059900062F3451384F83930437994F83920C3F31E
:1059A000C00363F3041284F83920831D04F1080254
:1059B000163053F8041B42F8041B8342F9D11978BE
:1059C00011701A68C4F819205A68C4F81D209DE7A0
:1059D00007269BE790F8183123B100F1760170306B
:1059E000FFF759BF0B2070477F2907B509D090F802
:1059F00076308DF804308DF80510C36F806F01A9E3
:105A0000984703B05DF804FB10B50446FEF7C5FFE8
:105A10001BF01CFA7F2807D094F977307F2B01D038
:105A2000984201DD84F8770010BD836E8B4201D06F
:105A30008A6802B1FEE71BB94166816600207047A3
:105A40009960FAE770B50C4601F108060D46B542BB
:105A500004D01BF089FC05F8010BF8E7237823F04C
:105A6000010343F00203237070BD37B500230446E1
:105A70000D46CA1D12F801190DF803100133082B49
:105A8000F8D12046FEF789FF69461BF05CF92868CB
:105A9000696804F1300303C303B030BD10B50C4690
:105AA0000187FEF77AFF21461BF050F9002010BD58
:105AB00070B506460D4681B1C48F84B91BF054FC05
:105AC0004FF6FE7280B290FBF2F302FB1303013338
:105AD0009BB2F38720462B8070BD072070BD0D2040
