:1000000000000420E1020000090300000B030000CF
:100010000D0300000F0300001103000000000000AA
:1000200000000000000000000000000013030000BA
:100030001503000000000000170300001903000072
:100040001B0300001B030000650800001B030000E9
:100050001B0300001B0300001B0300001B03000028
:100060001B0300001B0300001B0300001B03000018
:100070001B0300001B0300001B0300001B03000008
:100080001B0300001B0300001B0300001B030000F8
:100090001B0300001B0300001B0300001B030000E8
:1000A0001B0300001B0300001B0300001B030000D8
:1000B0001B0300001B030000000000000000000004
:1000C0001B0300001B0300001B0300001B030000B8
:1000D0001B0300001B0300001B0300001B030000A8
:1000E0001B0300001B0300001B03000000000000B6
:1000F000000000001B030000000000001B030000C4
:1001000000000000000000000000000000000000EF
:1001100000000000000000000000000000000000DF
:1001200000000000000000000000000000000000CF
:1001300000000000000000000000000000000000BF
:1001400000000000000000000000000000000000AF
:10015000000000000000000000000000000000009F
:10016000000000000000000000000000000000008F
:10017000000000000000000000000000000000007F
:10018000000000000000000000000000000000006F
:10019000000000000000000000000000000000005F
:1001A000000000000000000000000000000000004F
:1001B000000000000000000000000000000000003F
:1001C000000000000000000000000000000000002F
:1001D000000000000000000000000000000000001F
:1001E000000000000000000000000000000000000F
:1001F00000000000000000000000000000000000FF
:1002000010B5054C237833B9044B13B10448AFF350
:1002100000800123237010BD880000200000000032
:10022000D82600000C4B43B10C480D4910B5AFF374
:1002300000800C48036823B910BD0A48036833B92D
:100240007047094B002BF7D0BDE810401847064B0C
:10025000002BF5D0184700BF00000000D826000092
:100260008C0000208400002000000000154B002BB3
:1002700008BF134B9D46A3F5803A00218B460F46DD
:100280001348144A121A01F013FA0F4B002B00D036
:1002900098470E4B002B00D0984700200021040007
:1002A0000D000D48002802D00C48AFF3008001F08B
:1002B000DBF92000290001F093F801F0C1F900BF3B
:1002C0000000080000000420000000000000000002
:1002D00088000020540300200000000000000000FF
:1002E0000649074A074B9B1A03DD043BC858D05008
:1002F000FBDC01F0C3F8FFF7B9FF0000E4260000C3
:100300000000002088000020FEE7FEE7FEE7FEE791
:10031000FEE7FEE7FEE7FEE7FEE7FEE7C10706D4DD
:10032000830742BF114B0C22C3F8002770474FF0E0
:10033000A043032230B44FF08071C3F858274FF424
:100340008005C3F85C274FF40004C3F860278207D8
:10035000C3F80855C3F80845C3F8081503D5034B7F
:100360000C22C3F8002730BC704700BF00030050C8
:1003700000B585B000230390194601AA44F201009C
:100380000193029300F004F805B05DF804FB00BF90
:1003900072B6094B1B68DB0700D500BEBFF34F8F59
:1003A0000649074BCA6802F4E0621343CB60BFF30F
:1003B0004F8F00BFFDE700BFF0ED00E000ED00E073
:1003C0000400FA0559B10AB909207047531E1A40B2
:1003D000FAD1826001608380C260104670470E20AF
:1003E000704700BF10B48468C26803468088121B3F
:1003F000904203D204205DF8044B7047DA681C6811
:1004000002400020A154DA680132DA605DF8044B42
:10041000704700BF03468068DA6890420DD010B480
:1004200098689A881C6802400020A25C0A709A684A
:1004300001329A605DF8044B70470520704700BF99
:1004400030B50478012C83B027D017D3022C13D1F8
:10045000384B394D1A78C168AA5C01918DF800407B
:10046000002A37D103F10C000122344900F064FC6A
:10047000334B68461B68984703B030BD314932485A
:10048000FFF7C8FF00282BD002A8032300F8083D7F
:100490002B4B1B68984703B030BD43682B4D197830
:1004A0002846FFF79FFF30BBAA68EB689A4206D048
:1004B00002AB234A03F8080D126818469047A96852
:1004C000EB68AA885B1A9A421DD2214B01221A704E
:1004D00003B030BD181D0122184900F0E1FEC7E746
:1004E0001448154A0378D35CF3B9012215490C303E
:1004F00000F0B2FBC0E7124B01908DF800401B6882
:1005000068469847DBE70B480B4A0378D35C2BB966
:1005100001220A490C3000F00FFCADE70122074927
:10052000043000F0BDFEA7E701220649043000F0C8
:100530005BFEA1E7000000204C030020CC0000205F
:10054000A4000020D0000020BC000020A800002053
:10055000B80000202DE9F045324C89B02260002916
:1005600055D00C4680468A882F4809689A46FFF77E
:1005700029FF10B109B0BDE8F085A289A1682B4818
:10058000FFF720FF0028F5D1294D98F810E0294EFB
:10059000D8F814700FCD6C460FC495E80F0098F88A
:1005A00011501EF1000E18BF4FF0010E002D84E80F
:1005B0000F0014BF0E220022D8F80040D8F80430F3
:1005C000D8F808508DF8152006976946D8F80C70B1
:1005D000194A8DF81CA030468DF814E00297039557
:1005E0008DE8180000F0FAF80028C3D1D8F80030E0
:1005F000124A01331070BDD0114A3378D35C53B91D
:1006000006F10C0001220F4900F096FBB2E707202B
:1006100009B0BDE8F085301D01220A4900F040FE16
:10062000A8E700BFA4000020A8000020BC00002014
:10063000D02500000000002041040000B800002088
:100640004C030020CC00002070B5124C014612482B
:100650002678FFF7DFFE05460EB9284670BD0F4825
:100660000F4A0378D35C0022227053B90C30012268
:100670000C4900F061FB0028EFD0FFF779FE284617
:1006800070BD04300122074900F00AFE0028E4D0C2
:10069000F3E700BFB8000020A80000200000002001
:1006A0004C030020CC00002070B501461648FFF72F
:1006B00099FE044608B1204670BD144D144E2B78A7
:1006C000F35CABB905F10C0000F02AFB0028F2D175
:1006D00010490D48FFF79EFE0028ECD12B780D49FC
:1006E000F35C012253B90C48BDE8704000F0B4BA85
:1006F000281D00F0C7FD0028DDD1E9E70748BDE867
:10070000704000F071BD00BFBC0000200000002060
:100710004C030020D00000200C000020040000202A
:1007200072B6024A1368013313607047D400002088
:10073000034A1368013B136003B962B6704700BFF8
:10074000D400002070B5161E07DD0C468D1914F874
:10075000010BFFF7A9FFA542F9D1304670BD00BFDC
:1007600010B50C462046FFF76FFF0528FAD0012090
:1007700010BD00BF70B50A4A0A4B06784568047A76
:10078000C06853F8213052F8211084B003908DF8DE
:10079000006001958DF808406846984704B070BD28
:1007A000D8000020E000002070B50A4A0A4B067805
:1007B00045688468C06853F8213052F8211084B02D
:1007C00003908DF8006001958DF8084068469847C1
:1007D00004B070BDD8000020E00000202DE9F043F7
:1007E000DFF8748006784B7F08F806300D46074620
:1007F00094460FCD89B06C460FC495E80F003D7844
:10080000DFF85890DFF858E018F8055049F826C08E
:1008100084E80F004EF82600049665B1BCF1000F85
:100820000B4A694607F1040008BF002200F0CAFB2A
:1008300009B0BDE8F083BCF1000F064A694607F134
:100840000C0008BF002200F013F909B0BDE8F083E6
:1008500075070000A90700004C030020E0000020FD
:10086000D8000020014B1B68184700BFE80000209B
:1008700038B50C4B984201D0002038BD00200D4601
:10088000FFF74EFF084B1C7924B10020FFF750FF03
:10089000112038BD012220461D601A71FFF748FF64
:1008A000204638BD00200040E800002030B56E4AE8
:1008B000D2F8043399058BB05BD5D2F82431002BE4
:1008C00057D00023C2F82431D2F8243103934FF4D7
:1008D0000171664B0398C2F8081393F8291009B9FF
:1008E00001215160604902228DF81820D1F880243E
:1008F000C1F880249869D96809920022089007916C
:100900009A6193E81200DA6106A8A047564AD2F825
:100910001C31C3B1554B186A5969884265D293F8A6
:10092000280000F0FF0400285FD1C2F81C41D2F873
:100930001C11029102999C68186A196A205C0131A5
:100940001962C2F81C05484AD2F844317BB1002133
:10095000464BC2F84411D2F8440193F82910009094
:10096000009809B1012111609A69002A52D10BB097
:1009700030BD3D4AD2F804335B07C7D5D2F8083101
:10098000002BC3D0394B9969002952D00021C2F8FD
:100990000811D2F8081104910499D868596AD2F85C
:1009A000182542545A6A996901325A625A6A8A422F
:1009B000ACD1DA69002A45D193F8292012B92A4A24
:1009C00001215160284A4FF40171C2F80813596A95
:1009D000DA6808910024012007928DF8180093E846
:1009E00006009C6106A8904790E71F4A0020C2F8C5
:1009F0001C01D2F81C210192019A0029A3D09A6807
:100A00008DF8180008915861079206A893E806002F
:100A1000904798E70022586AD9689A6101220890A5
:100A200007918DF8182006A893E8060090470BB0B0
:100A300030BDC2F80811D2F8080105900598D2F827
:100A40001825B3E7DD685C6A18699A610121002204
:100A5000D860DA615A628DF818100795089493E807
:100A6000060006A8904751E700200040F000002053
:100A70002DE9F041734E05792C2303FB056382B009
:100A800093F82A301BB1082002B0BDE8F0810F4670
:100A900004466D4900689046FFF7EAFE18B1112040
:100AA00002B0BDE8F0813B68591C19D01F2B4FF0F4
:100AB00001028ABF65494FF0A04103F01F0302FA0B
:100AC00003F3C1F808353B681F2B86BF03F01F03F3
:100AD0005E4A4FF0A04203F5E073032142F8231071
:100AE0007B685A1C0BD01F2B86BF03F01F03574A8D
:100AF0004FF0A04203F5E073002142F82310236871
:100B0000BA69C3F82425397D7B7D22680B43C2F87E
:100B10006C3597E806002368C3F81425C3F80C1554
:100B20003B7D012B51D02C2303FB05F3F218C2F8B7
:100B300004803A69F250B8F1000F35D023683A7F4B
:100B4000434F0021C3F81C11D3F81C3100932368D4
:100B5000DDF800E0C3F84411D3F844112368019193
:100B60000199C3F804732168090B4BB2002B60DBB9
:100B700003F1604303F561435201D2B283F80023CD
:100B80002268120B42F3C40323F0604323F00303F3
:100B900003F1604303F5614302F01F02012101FAF2
:100BA00002F2C3F880211A602C23246803FB05633A
:100BB000002204250121C4F8005583F82A109A6107
:100BC000DA6183F829205A615EE7BB68591C0BD0B3
:100BD0001F2B86BF03F01F031C494FF0A04103F5F4
:100BE000E073002241F82320FB685A1C1AD01F2B07
:100BF0008ABF16494FF0A04103F01F03012202FAF9
:100C000003F3C1F80835FB681F2B88BF03F01F03EF
:100C100003F5E0738CBF0D494FF0A041032241F86A
:100C20002320FB682268B968C2F80835C2F810159D
:100C300079E7084B01F00F0152010B44D2B21A764A
:100C40009EE700BFF0000020AD0800000003005048
:100C500080000200FCEC00E0F0B5304E05792C235A
:100C600003FB056385B05C6914B1112005B0F0BDCC
:100C70001C62996083F828405A610268C2F81C41DE
:100C8000D2F81C11026802910121029F9160026852
:100C9000D3F808E0C2F81C41D2F81C110191019967
:100CA000D3F820C0196A5F681EF80CC001311962C0
:100CB000C2F81CC517B1204605B0F0BD1A6A5C69C0
:100CC0000168944203D819E093F82820F2B9D1F8CA
:100CD0001C21002AF8D0C1F81C71D1F81C21039204
:100CE000039AD3F820C01A6A1EF80CC001321A62A7
:100CF000C1F81CC51A6AA242E9D30168D1F81C31B7
:100D0000002BFBD00123CB60002000E00F202C2320
:100D100003FB056300225A61A8E700BFF000002032
:100D20000379044A2C2101FB03235869003018BFC2
:100D300001207047F0000020F0B4544D04792C23BA
:100D400003FB045386B05F6827B103684FF4017654
:100D5000C3F808632C2303FB04539E696EB1DE695C
:100D60000EB3002F00F08F8003684FF40172112042
:100D7000C3F8042306B0F0BC704793F829709A6159
:100D8000D9605E62DE61002F2FD02C2303FB045359
:100D90005A6882B103684FF40172C3F8042300203B
:100DA00006B0F0BC7047DA6119612C2303FB0453D1
:100DB0005A68002AEED10168C1F84421D1F84421D3
:100DC0000392039A0268D2F82461D2F80871D2F82B
:100DD0004411E7B9002948D1002EF4D02C2303FB9D
:100DE00004540023A3610320DAE70368C3F82471E5
:100DF000D3F8242103680192019AC3F80871D3F84B
:100E0000082103680292012202991A60BDE7002EB0
:100E1000E4D161BB9E6996B1C2F80811D2F80811FD
:100E200004910499DE68596AD2F8182572545A6AF6
:100E3000996901325A625A6A9142C3D808E0C2F8ED
:100E40000861D2F8081105910599D2F818255B6A56
:100E50002C2303FB0454002294F82930A2616BB1C7
:100E600003680121104619609AE7002EB6D12C23A1
:100E700003FB04540023A3610F2091E702680121C2
:100E8000184651608CE711208AE700BFF00000206F
:100E900070B54A4BD3F8242188B0002A55D1D3F835
:100EA0001011F1B9454BD3F8442152B10020444A06
:100EB000C3F84401D3F8444191690194019C00298D
:100EC00060D13E4BD3F820214AB100213C4AC3F8FF
:100ED0002011D3F8204150690094009C30BB08B029
:100EE00070BDC3F81021D3F8101135480391039950
:100EF0008169D3F83C458C42D4D1C569002D50D0CE
:100F0000D3F80012C668856121F02001C3F80012F1
:100F10000369C26101220168C3608DF8184043680B
:100F200005968DF8102004A89847BBE7D3F84C0528
:100F300093688DF818008DF810105161059304A87E
:100F400092E80A00984708B070BD0021C3F8241148
:100F5000D3F82421029202228DF81020029AD3F8AD
:100F60008004174AC3F880040790D3F83C05D3687F
:100F70008DF818009161D16105931168536804A838
:100F800098478FE7D3F83C458DF81840D3689061B7
:100F900001240593116853688DF8104004A8984700
:100FA0008FE7C36801688561012205938DF81840B9
:100FB00043688DF8102004A8984773E7002000408C
:100FC0001C0100202DE9F0430479824EE7003B1913
:100FD00006EB830385B093F820301BB1082005B0E1
:100FE000BDE8F083894605467B4900689046FFF7D7
:100FF0003FFC18B1112005B0BDE8F083D9F80030EE
:10100000591C1AD01F2B4FF001028ABF73494FF0B1
:10101000A04103F01F0302FA03F3C1F80835D9F821
:1010200000301F2B86BF03F01F036C4A4FF0A04215
:1010300003F5E073032142F82310D9F804305A1C59
:101040000BD01F2B86BF03F01F03644A4FF0A04252
:1010500003F5E073002142F823102B68D9F818201B
:10106000C3F8242599F8141099F815202B680A4321
:10107000C3F86C252A68D9F80030D9F80410C2F8F2
:101080000C35C2F8141599F81430012B61D03A19B7
:101090009200B318C3F80480D9F81030B350B8F1F7
:1010A000000F47D0296899F81C20DFF838E10023A9
:1010B000C1F81031D1F8101100912968DDF800C095
:1010C000C1F82031D1F8201101912968DDF804C060
:1010D000C1F82431D1F8241102912968DDF808C043
:1010E000C1F84431D1F844112B6803910399C3F836
:1010F00004E32968090B4BB2002B63DB03F1604367
:1011000003F561435201D2B283F800232A68120B1F
:1011100042F3C40323F0604323F0030303F160436D
:1011200003F5614302F01F02012101FA02F2C3F844
:1011300080211A603C442A6806EB840400230125C0
:10114000082184F82050C2F80015A361E3616361AF
:1011500045E7D9F80830591C0BD01F2B86BF03F088
:101160001F031E494FF0A04103F5E073002241F830
:101170002320D9F80C305A1C1CD01F2B8ABF1749CA
:101180004FF0A04103F01F03012202FA03F3C1F85C
:101190000835D9F80C301F2B88BF03F01F0303F567
:1011A000E0738CBF0D494FF0A041032241F823208A
:1011B000D9F80C302A68D9F80810C2F80835C2F8F6
:1011C000101564E7064B01F00F0152010B44D2B237
:1011D0001A769BE71C010020910E000000030050CE
:1011E000FCEC00E01003020001F06043B3F1005F8B
:1011F00001D010207047F0B50579214EEF007C1921
:1012000006EB840483B0636913B1112003B0F0BD11
:10121000A1606261D0F800E0CEF82031DEF820C194
:10122000D0F800E0CDF804C0DDF804C0CEF85831A5
:10123000DEF858C1D0F800E0CDF800C0DDF800C0FD
:10124000CEF84415CEF84825026801219160626805
:101250000AB11846DAE7036800E079B9D3F820212B
:10126000D3F85811002AF8D0002914BF0F2000200D
:101270007B1906EB830300225A61C7E70F20F7E7CB
:101280001C0100200379054A03EBC30302EB83032F
:101290005869003018BF0120704700BF1C010020B2
:1012A00001F06043B3F1005F01D010207047F0B54A
:1012B0000479454EE3001D1906EB850583B06D6882
:1012C00025B107684FF4047EC7F808E3234406EB12
:1012D00083039C696CB3DC69002C44D11961DA6129
:1012E0000368C3F81041D3F8105103680195019DBC
:1012F000C3F84441D3F8444103680094009CC3F808
:101300003415C3F838250268D2F8003243F02003C0
:10131000C2F800320479E5002B1906EB83035B6801
:101320004BB303684FF40472C3F80423002003B0E6
:10133000F0BD9A61DC61D9600368C3F81041D3F84D
:10134000105103680195019DC3F84441D3F844410D
:1013500003680094009CC3F83415C3F8382503686B
:1013600001221A60D6E705B303684FF40472C3F88C
:1013700004231120DBE7036801E0C1B9E8B9D3F821
:101380001021D3F84411D3F82401002AF5D02C44BD
:1013900000284FF0000306EB840614BF0320184614
:1013A0009942B36118BF0F20C1E71120BFE72C4459
:1013B00006EB84060F20B261B9E72C4406EB8406E5
:1013C0000320B161B3E700BF1C0100200378022BAA
:1013D00002D0012B00D070474068FEF7C9BF00BFA4
:1013E00030B501208BB01E4DFEF798FF1D4B0093CA
:1013F0000FCD04AC0FC495E803001B4A1B4D0295AA
:1014000084E8030007234FF48074694604A801941C
:101410000394FFF79FF800BB154D642445F00105C8
:101420004FF47A40A847013CFAD1124800F048F93D
:101430006846FFF709F90028FAD19DF80000FFF788
:1014400033F90028F9D19DF8003003F0DF03512B68
:10145000EED1094800F034F9FEE7FEF789FFDBE73B
:10146000F025000040010020CD13000040020020C4
:1014700010260000182600003426000010B44FF09B
:1014800080414FF080520020C1F80C015E4BC1F842
:101490001001C1F83805D2F80414C3F82015D2F8A9
:1014A0000814C3F82415D2F80C14C3F82815D2F880
:1014B0001014C3F82C15D2F81414C3F83015D2F850
:1014C0001814C3F83415D2F81C14C3F84015D2F818
:1014D0002014C3F84415D2F82414C3F84815D2F8E0
:1014E0002814C3F84C15D2F82C14C3F85015D2F8B0
:1014F0003014C3F85415D2F83414C3F86015D2F878
:101500003814C3F86415D2F83C04C3F86805D2F85F
:1015100040043E49C3F86C050968D2F84424C3F876
:101520007025082924D04FF08043D3F80024D20737
:1015300044BF6FF00102C3F80024354AD2F8883066
:1015400043F47003C2F88830BFF34F8FBFF36F8F3F
:101550004FF01023D3F80022002A23DBD3F8043203
:10156000002B1FDB2B4B2C4A1A605DF8044B704795
:101570002A4B1B68002BD6D129482A4A2A4C0460E2
:101580002A492B4BFB20C2F818050A681B6829481A
:1015900022F00F0203F00F0313434FF400720B60AD
:1015A0000260C0E7244B0122C3F80425D3F80024CD
:1015B000002AFBD04FF0102312221F49C3F800224B
:1015C000D1F80034002BFBD04FF0102212211A4B1F
:1015D000C2F80412D3F80024002AFBD000221649D6
:1015E000C3F80425D1F80034002BFBD0BFF34F8F94
:1015F0000749124BCA6802F4E0621343CB60BFF3A1
:101600004F8F00BFFDE700BF00C000403001001059
:1016100000ED00E0140000200090D0033401001021
:101620008C56004000F0004048810300E40E00406A
:10163000580200104096024000E001400400FA0504
:1016400008B5074B044613B10021AFF30080054BEA
:101650001868836A03B19847204600F0ABFF00BFCB
:10166000000000004026000070B50D4E0D4CA41B7C
:10167000A4100025A54209D10B4E0C4C00F09CFF94
:10168000A41BA4100025A54205D170BD56F8253035
:1016900098470135EEE756F8253098470135F2E7CF
:1016A0007C0000207C0000207C00002080000020C6
:1016B00002440346934200D1704703F8011BF9E747
:1016C0000FB40A4B13B51C6824B1A36913B92046A3
:1016D00000F04EF805AB049AA1680193204600F093
:1016E00059F902B0BDE8104004B07047180000205E
:1016F000014900F0A9B800BF69220000002310B51D
:10170000044603604360836081814366C281036154
:1017100043618361194608225C30FFF7C9FF054B1E
:101720006362054BA362054BE362054B24622363AE
:1017300010BD00BF0D1F00002F1F0000671F00001D
:101740008B1F000070B54A1E682555430E4605F1F3
:10175000740100F097F8044640B1002180E842008F
:101760000C30A06005F16802FFF7A2FF204670BDB3
:10177000836910B5044633BB8364C3640365124BAD
:10178000124A1B688262984204BF0123836100F001
:101790001FF86060204600F01BF8A060204600F0B3
:1017A00017F80022E06004216068FFF7A7FF01221C
:1017B0000921A068FFF7A2FF02221221E068FFF7CB
:1017C0009DFF0123A36110BD40260000F11600001B
:1017D000F8B51C4B1E68B369074613B93046FFF7CE
:1017E000C7FF4836B4687368013B03D5336833B12B
:1017F0003668F7E7B4F90C506DB16834F4E70421AA
:101800003846FFF79FFF30600028F1D10C233B6082
:1018100004462046F8BD4FF6FF73E3810123A38100
:1018200065662560A560656025616561A561082222
:10183000294604F15C00FFF73BFF6563A563A564DF
:10184000E564E6E7402600002DE9F8438046894636
:1018500000F14804002614B93046BDE8F883A568B5
:101860006768013F01D52468F5E7AB89012B07D9EB
:10187000B5F90E30013303D029464046C847064328
:101880006835EEE770B5CD1C25F0030508350C2D45
:1018900038BF0C25002D064601DBA94203D90C23D5
:1018A0003360002070BD00F0D3FD234A1468214648
:1018B00091B9224C23681BB9304600F017FB206019
:1018C0002946304600F012FB431C26D10C2333601E
:1018D000304600F0BEFDE4E70B685B1B1AD40B2B0F
:1018E0000FD90B60CD50CC18304600F0B2FD04F19A
:1018F0000B00231D20F00700C31A1BD05A42E250F0
:1019000070BD8C420DBF63684B686360136018BF85
:101910000C46E9E70C464968CAE7C41C24F00304F6
:10192000A04205D0211A304600F0E0FA0130CDD0B7
:101930002560D9E770BD00BF4003002044030020AC
:101940009368013B002B10B4936009DA9469A342B9
:1019500002DBCBB20A2B03D15DF8044B00F01ABBBB
:101960001368581C10601970C8B25DF8044B7047BA
:10197000F8B506460F461446D518AC4201D10020F2
:1019800007E03A4614F8011B3046FFF7D9FF431C25
:10199000F3D1F8BD2DE9F04F9DB00C4617460393E7
:1019A000064618B183690BB9FFF7E2FE7C4B9C42F7
:1019B00057D17468A38918075DD52369002B5AD0C5
:1019C0000023099320238DF8293030238DF82A3005
:1019D0004FF0010BB846454615F8013B002B55D199
:1019E000B8EB070A0BD053463A4621463046FFF77C
:1019F000BFFF013000F0C480099B5344099398F85D
:101A00000030002B00F0BC8000234FF0FF32049325
:101A10000793059206938DF853301A93052229787F
:101A2000604800F0C5FC05F10108049B002831D195
:101A3000D90644BF20228DF853201A0744BF2B2219
:101A40008DF853202A782A2A2CD0079A00210A20C0
:101A5000A846013598F80030303B092B6DD971B399
:101A600026E0514B9C4201D1B468A3E74F4B9C4206
:101A700008BFF4689EE72146304600F0EFFA0028E0
:101A80009ED04FF0FF301DB0BDE8F08F252BA7D0C2
:101A9000A846A0E7434A801A0BFA00F018430490C6
:101AA0004546BBE7039A111D12680391002A01DB2A
:101AB000079204E0524243F002030792049398F81D
:101AC00000302E2B10D198F801302A2B08F101019B
:101AD00037D1039B1A1D1B680392002BB8BF4FF030
:101AE000FF3308F102080593314D98F800100322E6
:101AF000284600F05DFC40B14023401B03FA00F093
:101B0000049B0343049308F1010898F80010294846
:101B10008DF82810062208F1010700F049FC002882
:101B200034D0254B03BB039B073323F00703083353
:101B30000393099B4B4409934CE700FB02320121BC
:101B400086E70023059318460A258846013198F850
:101B50000020303A092A03D9002BC5D00590C3E7ED
:101B600005FB00200123F0E703AB00932246134B53
:101B700004A93046AFF30080B0F1FF3F8146D8D1D1
:101B8000A3895B063FF57DAF09987CE703AB009323
:101B900022460A4B04A9304600F088F8ECE700BF63
:101BA00064260000A42600008426000044260000CD
:101BB000AA260000AE2600000000000071190000F7
:101BC0002DE9F04791461F468A680B69DDF82080B1
:101BD0009342B8BF1346C9F8003091F84320064637
:101BE0000C4612B10133C9F800302368990642BF90
:101BF000D9F800300233C9F80030256815F0060521
:101C000007D104F1190AE368D9F800209B1A9D4214
:101C100029DB94F843302268003318BF0123920671
:101C20002ED404F1430239463046C047013021D05A
:101C30002368E568D9F8002003F00603042B08BFE9
:101C4000AD1AA36822690CBF25EAE5750025934209
:101C5000C4BF9B1AED184FF000091A344D451BD133
:101C60000020BDE8F0870123524639463046C04780
:101C7000013003D14FF0FF30BDE8F0870135C2E7F6
:101C8000E1185A1C302081F84300224494F8451092
:101C900082F843100233C4E7012322463946304616
:101CA000C0470130E6D009F10109D7E72DE9F0433B
:101CB00017460A7E85B06E2A984606460C460C9B4F
:101CC00001F1430E00F0BC801AD8632A2ED00AD846
:101CD000002A00F0C880582A00F08A8004F14205EA
:101CE00084F842202AE0642A01D0692AF6D12168CA
:101CF0001A6811F0800F23D0111D1960136827E0B6
:101D0000732A00F0B48008D86F2A2AD0702AE5D14F
:101D10000A6842F020020A6003E0752A21D0782A7E
:101D2000DCD1782284F845206E4964E01A6801F11C
:101D30004205111D1960136884F842300123A3E0A5
:101D400011F0400F02F104011960D7D0B2F9003050
:101D5000002B03DA2D225B4284F8432062490A22D9
:101D600017E02068196810F0800F03D0081D186074
:101D70000B6806E010F0400F01F104001860F7D086
:101D80000B8859496F2A14BF0A220822002084F8C0
:101D900043006568A560002DC0F29C80206820F09B
:101DA00004002060002B3FD1002D40F09580754647
:101DB000082A0BD12368DA0708D5236962689A429A
:101DC000DEBF302305F8013C05F1FF35AEEB05031E
:101DD0002361CDF800803B4603AA21463046FFF739
:101DE000EFFE013055D14FF0FF3005B0BDE8F08374
:101DF00081F845203C492268186812F0800F00F1F4
:101E000004051D6001D0036802E05506FBD5038878
:101E1000D00744BF42F0200222601BB9226822F0A2
:101E2000200222601022B1E77546B3FBF2F002FBFC
:101E30001033CB5C05F8013D03460028F5D1B7E728
:101E400008681A68496910F0800F04D0101D1860E6
:101E50001368196007E010F0400F02F104001860E9
:101E60001368F6D01980002323617546B1E71A681C
:101E7000111D1960156862680021284600F098FA63
:101E800008B1401B606063682361002384F843301D
:101E90009FE723692A4639463046C0470130A2D021
:101EA00023689B0707D5002504F11909E368039A05
:101EB0009B1A9D4205DBE068039B9842B8BF184619
:101EC00093E701234A4639463046C04701308AD05D
:101ED0000135EBE7002BA7D10B7884F8423004F1F1
:101EE000420565E7C6260000B526000038B5064C59
:101EF000002305460846236000F04EFB431C02D138
:101F0000236803B12B6038BD5003002010B50C4688
:101F1000B1F90E1000F0ECFA0028ABBF636DA38995
:101F20001B1823F48053ACBF6365A38110BD2DE95A
:101F3000F0411F468B89DB0505460C46164605D544
:101F400002230022B1F90E1000F0B8F9A389B4F908
:101F50000E1023F48053A38132463B462846BDE849
:101F6000F04100F069B810B50C46B1F90E1000F060
:101F7000A5F9431CA38915BF606523F4805343F47E
:101F80008053A38118BFA38110BDB1F90E1000F0DA
:101F9000D3B80000F8B50E461446054618B183695B
:101FA0000BB9FFF7E5FB214B9C422AD16C68A36972
:101FB000A360A3891A072ED5236963B32369206818
:101FC000C01A6369F6B29842374604DB21462846B8
:101FD00000F04AF928BBA368013BA36023685A1CA0
:101FE00022601E7063690130984204D0A389DB0728
:101FF00019D50A2E17D12146284600F035F990B19F
:102000000FE00B4B9C4201D1AC68D0E7094B9C42DE
:1020100008BFEC68CBE72146284600F01FF80028EF
:10202000CCD04FF0FF373846F8BD00BF6426000023
:10203000842600004426000038B5074C05460846B3
:102040001146002222601A46FEF77CFB431C02D197
:10205000236803B12B6038BD50030020324B70B5AC
:102060001D6806460C4625B1AB6913B92846FFF733
:102070007FFB2E4B9C420FD16C68B4F90C309AB2A6
:1020800015072CD4D00611D40922326043F0400346
:10209000A3814FF0FF3070BD254B9C4201D1AC684D
:1020A000EBE7244B9C4208BFEC68E6E7510712D5EA
:1020B000616B41B104F14403994202D0304600F013
:1020C000C9F900236363A38923F02403A3810023B8
:1020D000636023692360A38943F00803A381236914
:1020E0004BB9A38903F42073B3F5007F03D02146D5
:1020F000304600F019F9A28912F001030CD0002338
:10210000A36063695B42A361236953B9B4F90C30DE
:1021100013F08000BAD170BD920758BF6369A36005
:10212000F2E70020F7E700BF180000206426000057
:10213000842600004426000038B5064C00230546DE
:102140000846236000F008FA431C02D1236803B15B
:102150002B6038BD500300208A892DE9F0410546E7
:1021600010070C465AD44B68002B05DC0B6C002B77
:1021700002DC0020BDE8F081E66A002EF9D00023E1
:1021800012F480522F682B6033D0606DA3895A07F8
:1021900005D56368C01A636B0BB1236CC01A0023AA
:1021A0000246E66A216A2846B047431CA38906D145
:1021B00029681D294BD82B4ACA40D60747D500228B
:1021C0006260D9042269226004D5421C01D12B68C7
:1021D00003B96065616B2F600029CAD004F1440324
:1021E000994202D0284600F035F900206063BDE82E
:1021F000F081216A01232846B047411CC6D12B68D3
:10220000002BC3D01D2B01D0162B01D12F60B0E7BE
:10221000A38943F04003A381BDE8F0810F69002F3B
:10222000A7D093070E6808BF4B690F6018BF002343
:10223000A6EB07088B60B8F1000F9ADD43463A46DB
:10224000216AA66A2846B047002807DCA38943F024
:102250004003A3814FF0FF30BDE8F0810744A8EBB5
:102260000008E8E70100402038B50B6905460C4638
:10227000DBB118B183690BB9FFF77AFA0C4B9C42BA
:1022800009D16C68B4F90C307BB121462846BDE811
:102290003840FFF761BF074B9C4201D1AC68F1E7C2
:1022A000054B9C4208BFEC68ECE7002038BD00BF3E
:1022B00064260000842600004426000038B5074C40
:1022C000054608461146002222601A4600F05CF9D5
:1022D000431C02D1236803B12B6038BD500300209A
:1022E00070B50E46B1F90E10002990B014461D4687
:1022F00007DA00232B60B3891A0610D44FF48063E9
:102300000EE001AA00F006F90028F2DB029A02F4BE
:102310007042A2F500535A425A412A60EEE7402328
:102320000020236010B070BD8B8973B59D070646F1
:102330000C4607D504F14703236023610123636141
:1023400002B070BD01AB6A46FFF7CAFF00990546AF
:102350003046FFF797FA48B9B4F90C309A05EFD434
:1023600023F0030343F00203A381E3E70D4BB362C1
:10237000A389206043F08003A381009B6361019BDC
:1023800020615BB1B4F90E10304600F0D5F828B1E9
:10239000A38923F0030343F00103A381A3891D4311
:1023A000A581CDE7F116000000000000000000004C
:1023B00001F0FF01102A2BDB10F0070F08D010F8F6
:1023C000013B013A8B422DD010F0070F42B3F6D1FA
:1023D000F0B441EA012141EA014122F007047FF013
:1023E00000070023F0E80256083C85EA010586EA6A
:1023F000010685FA47F5A3FA87F586FA47F6A5FAA6
:1024000087F68EB9EED1F0BC01F0FF0102F00702B1
:1024100032B110F8013B013A83EA010313B1F8D15C
:102420000020704701387047002D06BF354603383D
:10243000073815F0010F07D1013015F4807F02BF76
:10244000013015F4C03F0130F0BC0138704700BFC7
:102450007047704738B50546002945D051F8043C0F
:102460000C1F002BB8BFE418FFF7F2FF1F4A1368D8
:10247000104633B9636014602846BDE83840FFF762
:10248000E8BFA3420CD921686218934204BF1A68BE
:102490005B68636004BF521822600460ECE7134677
:1024A0005A680AB1A242FAD919685818A0420BD149
:1024B00020680144581882421960DDD110685268C2
:1024C0005A6001441960D7E702D90C232B60D3E787
:1024D000206821188A4204BF11685268626004BFF4
:1024E000091821605C60C7E738BD00BF40030020C9
:1024F00038B5074C054608461146002222601A46A8
:10250000FEF72EF9431C02D1236803B12B6038BDBE
:102510005003002038B5074C0023054608461146F5
:10252000236000F021F8431C02D1236803B12B6023
:1025300038BD00BF5003002038B5064C00230546C7
:102540000846236000F018F8431C02D1236803B149
:102550002B6038BD50030020024B58221A604FF008
:10256000FF30704750030020024B58221A604FF092
:10257000FF30704750030020024B58221A600020A1
:10258000704700BF50030020024B58221A604FF0E2
:10259000FF30704750030020044A05491368002BA0
:1025A00008BF0B46184410601846704748030020C7
:1025B00058030020FEE700BFF8B500BFF8BC08BC18
:1025C0009E467047F8B500BFF8BC08BC9E467047F1
:1025D000FFFFFFFFFFFFFFFFFFFFFFFFFFFFFFFF0B
:1025E00000000000000000000000D601060100000D
:1025F0001300000014000000FFFFFFFFFFFFFFFFBC
:102600000000000000E0D701000000000000000012
:102610000338FDD8704700000D0A5541525420651B
:1026200078616D706C6520737461727465642E0DD1
:102630000A000000200D0A45786974210D0A000087
:102640001C0000200000000000000000000000004E
:10265000000000000000000000000000000000007A
:10266000000000000000000000000000000000006A
:10267000000000000000000000000000000000005A
:10268000000000000000000000000000000000004A
:10269000000000000000000000000000000000003A
:1026A00000000000232D302B2000686C4C00656674
:1026B0006745464700303132333435363738394193
:1026C00042434445460030313233343536373839A9
:0C26D000616263646566000000000000A9
:0826DC0090DBFF7F010000000C
:1026E4000000000000200040000000000020004026
:1026F400000000000090D0031C0000200000000037
:102704006426000084260000442600000000000027
:1027140000000000000000000000000000000000B5
:1027240000000000000000000000000000000000A5
:102734000000000000000000000000000000000095
:102744000000000000000000000000000000000085
:10275400000000000000000000000000250200004E
:0827640001020000000000006A
:04000003000002E116
:00000001FF
